:400000000080002011000000FD4C0000FD4C000080B500AF04F0A6FE80B500AF2F4B12221A6006F063FA2E4B180006F0D9FB012006F06CFA302005F085FF2A4B2A4A1A609E
:400040002A4B8022D2051A60294B294A126802210A431A60274B284A1A60284B00221A60274B274A126808218A431A60FA23DB00180006F05DF8234B180006F011F9224B45
:40008000802292001A60214B214A1A60214B802212061A60204B802212031A601F4B40221A601F4B1900082006F08CF8082006F0AFF80E4B1B4A1A601B4B802212031A6006
:4000C000C046194B1A6880231B031340F9D1164B802252021A60C046BD4680BD30001040001BB70004010B40060000800C020B4078002E407C002E406A2D000064F02E4075
:400100006CF02E40DC050000000301400000014040FF008008010B4000010B4004010140F16600000000014E10020B4080B582B000AF72B6364B00221A60FB1D00221A70C8
:4001400022E0FB1D1A7813005B009B185B00314A9B183B603B681A78597809020A43997809040A43DB781B06134318003B681A795B791B0213439BB2190004F09BFDFB1D5C
:400180001A78FB1D01321A70FB1D1B78012BD8D9214B224A1A60224BFF2212061A60214B992212041A60204B992212041A601F4B992212041A601E4A1D4B1B78DBB20621A5
:4001C0000B43DBB213701B4B10221A601A4B1B4A1A601B4BD0221A601A4B1B4A1A601B4B802292001A601A4B30221A60194B1A4A1A601A4B36221A60194B36221A60FFF74B
:400200000BFF04F067FDC046BD4602B080BDC0466CF02E40ACDC0100000002400000FFEE0001024000500F4010500F4030500F4000700F40000004400800044000E0D80075
:4002400000010440080104400020DB000C01044000030440080304400060DB00080404400805044010B5064C2378002B07D1054B002B02D0044800E000BF0123237010BDBD
:40028000C811002000000000E4D40100084B10B5002B03D00749084800E000BF07480368002B00D110BD064B002BFBD09847F9E700000000CC110020E4D40100A80B002025
:4002C0000000000080B582B000AF002005F08EFC0A2005F0BFFF012005F088FC642005F0B9FF002004F0D4FC4D4B180003F0C2FE4B4B1B6801221A70494B1B6800225A60A1
:40030000474B1B68802292009A60454B1B680022DA60434B1B68802292001A61404B1B6800221A753E4B1B683E4A9A613C4B1B683D4ADA613A4B1B683A4A1A62384B1B6823
:4003400004225A62364B1B68384A9A62344B1B6801225242DA62324B1B68354A1A63304B1B68344A5A632E4B1B6800229A632C4B1B680122DA632A4B1B6840220121995411
:40038000274B1B68412203219954254B1B6800225A64234B1B6808229A64214B1B680722DA641F4B1B6804221A651D4B1B68224ADA651B4B1B6800221A66194B1B68642272
:4003C00000219954164B1B6800229A66144B1B686C2200219954124B1B689822002199540F4B1B689C220021995080239A00134B1100180004F054F903007B607B68002B2D
:4004000004D10F4B18000AF029FA05E07A680D4B110018000AF0A6F9C046BD4602B080BD402B00200024744B0000FA460000204100401C46C3F5E83F008089443823002027
:40044000E8D4010000D5010090B585B000AF78600A00FB1C1A700023FB60FB1C1B78012B13D0022B21D0002B2FD178680AF030F81A4A1B4B08F0A0FD03000C001800210014
:400480000AF07AF8031CFB6022E078680AF020F8144A154B08F090FD03000C00180021000AF06AF8031CFB6012E078680AF010F80E4A0F4B08F080FD03000C0018002100BE
:4004C0000AF05AF8031CFB6002E00023FB60C046FB68181CBD4605B090BDC046D7A3703D0A573040B81E85EB51B844403333333333B3674090B583B000AF0C4B7B600C4B5A
:4005000018000AF0ABF90B4B7B60786809F0E0FF03000C0008491A00230008000AF022F97B68181CBD4603B090BDC0460000C8419CD5010000001442B0D5010090B587B06F
:4005400000AF0200FB1D1A7000237B610023FB60FB1D1A78464B110018000AF003F9454B180003F087FDFB1D1B78012B11D0022B1DD0002B29D1012005F05EFB002005F0B7
:4005800083FB002005F0A8FB3B4B18000AF066F91BE0002005F050FB012005F075FB002005F09AFB354B18000AF058F90DE0002005F042FB002005F067FB012005F08CFB4D
:4005C0002F4B18000AF04AF9C046322005F042FE0021002003F062FD03003B613B69002B07D03A69274B110018000AF0BBF800233AE0FA235B00180005F02CFE0C23FA18AF
:40060000214B1100180004F089F903003B613B69002B1CD1FB68002B19D01B4B1B681B49181C07F05BFE031C7B61786909F050FF03000C0016491A00230008000AF092F8B1
:40064000FA68144B110018000AF08CF807E0FA683969114B18000AF085F800237B610021012003F01BFD7B69181CBD4607B090BDC8D50100402B0020E8D501000CD6010007
:400680002CD6010034D50100382B0020286B6E4E4CD6010068D6010068D5010090B583B000AF6D4B18000AF0D9F8FFF723FF021C6A4B1A606A4B18000AF0D0F80020FFF7EF
:4006C0003DFF021C654B5A61644B5B690021181CFFF7BAFE021C614B5A60604B5B69181C09F0F6FE03000C005E491A00230008000AF038F8594B5B68181C09F0E9FE030008
:400700000C0059491A00230008000AF02BF8574B18000AF0A3F80120FFF710FF021C4F4B9A614E4B9B690121181CFFF78DFE021C4A4B9A60494B9B69181C09F0C9FE0300D1
:400740000C0048491A00230008000AF00BF8434B9B68181C09F0BCFE03000C0042491A002300080009F0FEFF414B18000AF076F80220FFF7E3FE021C384BDA61374BDB69A6
:400780000221181CFFF760FE021C344BDA60334BDB69181C09F09CFE03000C0031491A002300080009F0DEFF2C4BDB68181C09F08FFE03000C002F491A002300080009F051
:4007C000D1FF264B1B68181C09F082FE00222A4B09F090FA03000C0018002100274A284B09F00EF803000C00180021000022254B08F0B6F803000C001800210009F0BCFEC8
:40080000031C7B60154B5B687968181C07F066FD031C1A1C114B5A60104B9B687968181C07F05CFD031C1A1C0C4B9A600B4BDB687968181C07F052FD031C1A1C074BDA6083
:40084000114B1A68054B1A61104B18000AF006F8C046BD4603B090BDA0D60100F0110020E0D6010000D7010014D7010028D7010044D7010060D7010000804240B81E85EBAC
:4008800051B89E3F0000F03FE811002078D7010080B582B000AF0200FB1D1A70FB1D1B78002B07D0094B180009F0D8FF012005F04DF906E0064B180009F0D0FF002005F08F
:4008C00045F9C046BD4602B080BDC046A0D70100B4D7010080B582B000AF0200FB1D1A70FB1D1B78002B07D0094B180009F0B6FF012005F053F906E0064B180009F0AEFFE0
:40090000002005F04BF9C046BD4602B080BDC046C8D70100DCD70100F0B58FB002AF234B1B78022B3ED1224B5B68181C09F0D0FD05000E001E4B5B69181C09F0C9FD0300DA
:400940000C001C49381D009301942A00330009F08FFF2423FB1817221A812423FB183A1D1A603B1D180009F0A5FF03009AB22423FB189A802423F9180F4B1A785B781B0248
:400980001A4300231204120C1B0C1B041343180017F002F8031E05D13A1D084B1100180009F0E0FEC046BD460DB0F0BD762B0020F0110020F0D701007C2B002004D801006C
:4009C000F0B58FB002AF234B1B78022B3ED1224B9B68181C09F07CFD05000E001E4B9B69181C09F075FD03000C001C49381D009301942A00330009F03BFF2423FB181222E1
:400A00001A812423FB183A1D1A603B1D180009F051FF03009AB22423FB189A802423F9180F4B1A785B781B021A4300231204120C1B0C1B041343180016F0AEFF031E05D12E
:400A40003A1D084B1100180009F08CFEC046BD460DB0F0BD762B0020F0110020F0D701007C2B002024D8010090B589B000AF1B4B1B78022B2DD11A4B1B68181C09F028FDB4
:400A800003000C00174938001A00230009F0F0FE1423FB181B221A811423FB183A001A603B00180009F006FF03009AB21423FB189A801423F9180C4B1A785B781B021A43C9
:400AC00000231204120C1B0C1B041343180016F063FFC046BD4609B090BDC046762B0020F011002040D801007C2B002080B500AF0E4B1B78022B16D10D4B180009F0AEFEB3
:400B0000FFF7B2FF322005F0A5FBFFF705FF322005F0A0FBFFF754FF322005F09BFB054B180009F09BFEC046BD4680BD762B002048D8010078D8010080B500AF0D4B1B78E3
:400B4000032B0BD10C4B1B7801225340DAB20A4B1A70094B1B78180004F0D0FF074B1B685A1C064B1A60064B01221A70C046BD4680BDC046762B0020AC0B0020E81100208D
:400B8000EC11002080B582B000AF786039607B68272B11D004D8012B07D0262B1ED039E0282B11D0FA2B2FD034E01C4B180009F055FE00F03DF92DE0194B180009F04EFE19
:400BC000012004F09BFF25E0164B180009F046FE00F02EF9012004F0FDFE1BE0124B1B78042B16D1012004F089FF002004F08CFE012004F0EFFE04F0D5FE04F075FF04F003
:400C000011FF05F0EFFB04E0084B180009F026FE00E0C046C046BD4602B080BD98D80100ACD80100C0D80100762B0020D4D8010090B583B000AF1A4B1B78032B03D0184BFB
:400C40001B78022B27D1FC1D03200AF059FF03002370BC1D05F0CDFD03002370FB1D1B78032B0CD10CF0A2FF0300042B04D00CF09DFF0300062B09D105F07EFB06E00CF01B
:400C800095FF0300022B01D005F05CFBBB1D1B78180005F0B2FDC046BD4603B090BDC046762B002080B582B000AF62B6012004F02BFE012004F022FF012004F08BFE4B4B86
:400CC000180009F0CBFD4A4B180004F0F7F803001A00484B1A80474B1B88002B07D0454B1B881A00444B1100180009F03BFD05F031F80A2005F0AEFA404B180009F0AEFDA8
:400D0000FFF7E0FA002004F021FF002004F046FF012004F091FF012004F0B6FF012004F0DBFF374B1900022005F09AFC022005F0B7FC00237B60334B180009F08FFD0AF0D3
:400D4000EBFEFFF775FF304B1B78DBB2002B40D02D4B00221A70FFF7A1FC2C4B1A687B68D31A022B08D9294B1B687B60284B1B78022B01D1FFF7BAFE264B1B682649181CA0
:400D800006F00EFF031E07D1224B9B682349181C06F006FF031E0DD0214B180009F05EFD0120FFF775FD1F4B180005F053FA0020FFF76EFD174B5B681B49181C06F0F0FEE7
:400DC000031E03D00120FFF785FD02E00020FFF781FD164B1B78002BB1D0002004F006F903001A00034B1A80A9E7C046E8D80100850B000034230020F8D8010010D901001F
:400E0000390B000024D90100EC110020E8110020762B0020F011002000001A420000A04040D901001027000000002041602B002080B584B000AF002004F0B2F903001A00CB
:400E40001F4B1A801E4B1B88002B08D01C4B1B881A001C4B1100180009F084FC2BE01A4B180009F07FFC3B1D00229A713B1D18000AF04EFE0E23FB1806221A8012E00E23D2
:400E8000FB181B88013B3A1DD35C1A000F4B1100180009F067FC0E23FB181A880E23FB18013A1A800E23FB181B88002BE7D1084B180009F0D3FCC046BD4604B080BDC046C5
:400EC0003423002070D901008CD90100A4D90100ACD9010080B584B000AF7860104B5A690F4BDB68D318FB600D4B5A68FB689A420DD90B4B9A680A4BDB689B00D3187A683F
:400F00001A60074BDB685A1C054BDA6003E0044B042252429A61C046BD4604B080BDC046442B002080B584B000AF786039607B689B08FF2213407B600023FB6011E00E4B06
:400F40001A69FB689B00D3181B781A007B689A4204D13B68FA681A60002309E0FB680133FB60054BDA68FB689A42E8D807235B421800BD4604B080BD442B002080B582B0ED
:400F800000AF786039607B689BB2180000F04EFE02003B681A6000231800BD4602B080BD80B584B000AF02003960BB1D1A80184B5A69174BDB68D318FB60154B5A68FB6886
:400FC0009A421DD9124B1B691A1F114B1A61104B1B69BA1D1288920892B2D2B21A700C4B1B693A681202120A12021968FF2001400A431A60064B5B695A1C054B5A6103E010
:40100000034B042252429A61C046BD4604B080BD442B002080B584B000AF0200BB1D1A80BB1D1B880C22BA1811001800FFF77AFF031E0FD0BB1D1B880822BA1811001800E5
:40104000FFF79CFFBA68BB1D1B8811001800FFF7A7FF07E0064B1A69FB689B00D3181B681B0ABB60BB681800BD4604B080BDC046442B002080B584B000AF02003960BB1DC7
:401080001A80BB1D1B88274A934204D9264B052252429A6143E0BB1D1B880C22BA1811001800FFF73FFF031E20D11F4B1A69FB689B00D3183A681202120A12021968FF2068
:4010C00001400A431A60BB1D1B889B089BB21A06FE23DB051A403B681B021B0A13438022120613431800FFF7F5FE18E03A68BB1D1B8811001800FFF753FFBB1D1B889B0812
:401100009BB21A06FE23DB051A403B681B021B0A13438022120613431800FFF7DBFEBD4604B080BDFF210000442B002080B582B000AF786039603B68012B1BD90F4B3A68CC
:401140005A600E4B7A689A603B680D4A944663449B007A68D218094B1A61084B0022DA60064B00225A61054B00229A61034B00221A7000E0C046BD4602B080BD442B002024
:40118000FFFFFF3F80B584B000AF786039607B68002B03D0094B9A687B681A603B68002B03D0064BDA683B681A60044B9B69FB60FB681800BD4604B080BDC046442B0020D3
:4011C00080B582B000AF0200FB1D1A70FB1D1B78002B03D1084B00221A7008E0064B0022DA60054B00229A61034B01221A70C046BD4602B080BDC046442B002080B586B097
:4012000000AFB96011007B600F23FB18021C1A700E23FB180A1C1A7000237B6111E07B69BA68D3181B780F22BA1812789A4205D17B69DAB27B681A70012309E07B69013364
:401240007B610E23FB181A787B699A42E7DC00231800BD4606B080BD80B58EB000AF786039607B68DB68012B03D17B681B68022B07D07B68DB68002B2CD17B681B68022B04
:4012800028D03023FA184A4B1000190005231A0009F057FA2823FA18464B1000190005231A0009F04EFA7B685B68D8B22723FB183022B9180522FFF7A1FF031E6CD02723D9
:4012C000FB181B781A002823FB189A5C3B681A70012368E07B68DB68002B2CD17B681B68022B28D12423FA18334B1000190003231A0009F026FA2023FA18304B1000190015
:4013000003231A0009F01DFA7B685B68D8B21F23FB182422B9180322FFF770FF031E3DD01F23FB181B781A002023FB189A5C3B681A70012337E07B68DB68012B2FD17B681E
:401340001B68022B2BD01823FA181D4B1000190006231A0009F0F5F91023FA18194B1000190006231A0009F0ECF97B685B68D8B20F23FB181822B9180622FFF73FFF031ECA
:401380000DD00F23FB181B781A001023FB189A5C3B681A70012306E0C04600E0C0463B6800221A7000231800BD460EB080BDC046B0D90100B8D90100C0D90100C4D901001D
:4013C000C8D90100D0D9010080B58CB000AF786039607B68DB68012B03D17B681B68022B07D07B68DB68002B2CD17B681B68022B28D02C23FA184A4B1000190002231A0049
:4014000009F09FF92823FA18464B1000190002231A0009F096F97B685B68D8B22723FB182C22B9180222FFF7E9FE031E6CD02723FB181B781A002823FB189A5C3B681A70A8
:40144000012368E07B68DB68002B2CD17B681B68022B28D12423FA18334B1000190002231A0009F06EF92023FA18304B1000190002231A0009F065F97B685B68D8B21F2386
:40148000FB182422B9180222FFF7B8FE031E3DD01F23FB181B781A002023FB189A5C3B681A70012337E07B68DB68012B2FD17B681B68022B2BD01823FA181D4B1000190090
:4014C00006231A0009F03DF91023FA18194B1000190006231A0009F034F97B685B68D8B20F23FB181822B9180622FFF787FE031E0DD00F23FB181B781A001023FB189A5CF0
:401500003B681A70012306E0C04600E0C0463B6800221A7000231800BD460CB080BDC046D8D90100DCD90100E0D90100E4D90100E8D90100F0D9010090B59DB000AF786077
:4015400039600023BB663423FA18A64B1000190034231A0009F0F5F82423FB18A24A13CA13C312681A603B6800221A607B68002B00D12BE13B68002B00D129E17B68DB68CE
:401580000B2B00D926E17B689B68022B00D923E17B681B69032B00D920E17B681B68042B00D90EE19A00914BD3181B689F467B685A6813009B009B189B00180007F092F955
:4015C000021C7B68DB69191C101C06F087FE031C181C06F0F9FA0300BB66F3E07B685A6813009B009B189B0028331A007B6899682423FB188900CB5853431433180007F0AB
:4016000071F9021C7B68DB69191C101C06F066FE031CFC218905181C06F020FB031C181C06F0D2FA0300BB66CCE07B685B685A1C7B68D9683423FB188900CB58534301332C
:40164000BB667B6801221A60BA6E7B685A606823FA187B6811001800FFF76EFF7B6802221A60BB6E0F33BB66ACE07B681B7E1A000C23FB18DA607B689A680C23FB181A60AC
:401680007B68DA680C23FB185A606F23FB1800221A700B23FA180C23FB1811001800FFF7DBFD031E0BD00B23FB181A786F23FB181B78D318DAB26F23FB18013A1A700A232A
:4016C000FA180C23FB1811001800FFF77DFE031E0BD00A23FB181A786F23FB181B78D318DAB26F23FB18013A1A707B6802221A607B685A686F23FB181B78D2187B685A6030
:401700006823FA187B6811001800FFF715FF7B6804221A607B685A686F23FB181B78D21A7B685A60C0464DE07B685B69012B10D01AD3022B02D0032B29D03BE07B680022F4
:401740001A606823FA187B6811001800FFF7F4FE30E07B6801221A606823FA187B6811001800FFF7E9FE25E07B685B7E002B03D07B6802221A6002E07B6804221A60682318
:40178000FA187B6811001800FFF7D6FE12E07B6801221A607B685A687B681B6901339A407B685A606823FA187B6811001800FFF7C3FEC0467B6803221A60BB6E1933BB669A
:4017C00000E0C046BA6E3B681A6008E0C04606E0C04604E0C04602E0C04600E0C046BD461DB090BDF8D901002CDA01003CDA010080B582B000AF786039603A687B680021F2
:40180000180008F0A7FFC046BD4602B080BDC04680B588B000AFF860B9607A60274BBB6100237B610023FB61FB68254A94466344180007F00FF8031CFB61BB68042B24D84F
:40184000BB689A001F4BD3181B689F46FF218905F86906F079FB031CFB6119E08021C905F86906F071FB031CFB6111E08121C905F86906F069FB031CFB6109E01249F86918
:4018800006F062FB031CFB6102E0C04600E0C0467968F86906F022FD031C8E21C905181C06F052FB031CB969181C06F017FD031C7B617B69181CBD4608B080BD110E813FB9
:4018C0000080FFFF50DA010000001041B0B588B000AFF860B9607A607B681B68180006F0B9FF041C7B681B68180006F0B3FF031C191C201C06F0F2FC031C1C1C7B685B6874
:40190000180006F0A7FF051C7B685B68180006F0A1FF031C191C281C06F0E0FC031C191C201C06F09BF9031CFB61BB681B68180006F090FF041C7B681B68180006F08AFF1F
:40194000031C191C201C06F0C9FC031C1C1CBB685B68180006F07EFF051C7B685B68180006F078FF031C191C281C06F0B7FC031C191C201C06F072F9031C1A1C1423FB1837
:401980001A601423FB181B68F969181C06F0DCFA031C1A1C1423FB181A60BB685B68180006F058FF041C7B681B68180006F052FF031C191C201C06F091FC031C1C1CBB68A8
:4019C0001B68180006F046FF051C7B685B68180006F040FF031C191C281C06F07FFC031C191C201C06F08EFD031C1A1C1423FB185A601423FB185B68F969181C06F0A4FA53
:401A0000031C1A1C1423FB185A60FB681422BA1803CA03C3F868BD4608B0B0BD90B583B000AF78607B681A687B681B68191C101C06F054FC031C1C1C7B685A687B685B68B4
:401A4000191C101C06F04AFC031C191C201C06F005F9031C181C08F03BFD03000C001800210004F0D1FE03000C001800210008F083FD031C181CBD4603B090BDB0B582B00A
:401A800000AF78607B685B68181C08F021FD04000D007B681B68181C08F01AFD02000B002000290004F0ACFE03000C001800210008F062FD031C181CBD4602B0B0BDC046E7
:401AC00080B584B000AF0200FB1D1A700C23FB18FA1D12781A700823F9180C23FB180122180003F047F80823FB181B781800BD4604B080BD80B584B000AF0200BB1D1A8069
:401B0000BB1D1B881B0A9BB2DAB20C23FB181A70BB1D1B88DAB20C23FB185A700823F9180C23FB180222180003F024F80823FB181B781B021AB20823FB185B781BB2134396
:401B40001BB29BB21800BD4604B080BD80B584B000AF78607B681B0EDAB20C23FB181A707B681B0CDAB20C23FB185A707B681B0ADAB20C23FB189A707B68DAB20C23FB18B8
:401B8000DA700823F9180C23FB180422180002F0F1FF0823FB181B781A060823FB185B781B041A430823FB189B781B0213430822BA18D27813431800BD4604B080BDC0464D
:401BC00080B582B000AF02003960BB1D1A8003F02FF82020FFF774FFBB1D1B881800FFF789FF03F02DF803F023F82D20FFF768FFBB1D1B880B4A934209D9BB1D1B880A4AC8
:401C0000934204D83B681800FFF7A0FF04E03B689BB21800FFF76EFF03F012F8C046BD4602B080BDFF0F00001430000080B584B000AF0200BB1D1A800023FB6002F0F8FF1A
:401C40002020FFF73DFFBB1D1B881800FFF752FF02F0F6FF02F0ECFF6D20FFF731FF0020FFF72EFFBB1D1B880C4A93420AD9BB1D1B880B4A934205D80020FFF767FF0300D4
:401C8000FB6004E00020FFF735FF0300FB6002F0D7FFFB681800BD4604B080BDFF0F00001430000090B585B000AF786039603B68022B28D802F0BCFF2020FFF701FF324BEA
:401CC0001800FFF717FF02F0BBFF0023BB6015E002F0AEFF6D20FFF7F3FE0020FFF7F0FEBB689B007A68D4180020FFF72FFF0300236002F0A5FFBB680133BB60BA683B68A7
:401D00009A42E5D33CE002F093FF5F20FFF7D8FE0023FB6005E00020FFF7D2FEFB680133FB60FB68052BF6D90023FB600BE0FB689B007A68D4180020FFF708FF03002360AF
:401D4000FB680133FB603B689A1EFB689A42EED8FB685A1CFA609B007A68D4180B4B1800FFF7F4FE03002360FB689B007A68D418064B1800FFF7EAFE0300236002F060FFAF
:401D8000C046BD4605B090BD6C2000004444444480B582B000AF02003960BB1D1A800B4B1B78012B07D13A68BB1D1B8811001800FFF760F906E03A68BB1D1B8811001800AB
:401DC000FFF7FEFEC046BD4602B080BD442B002080B582B000AF0200BB1D1A800A4B1B78012B06D1BB1D1B881800FFF713F9030005E0BB1D1B881800FFF718FF03001800BD
:401E0000BD4602B080BDC046442B002080B584B000AF78600A00FB1C1A7080239B011800FFF7D6FF0300FB60FB1C1B78012B1DD17B682022134007D0FB6820229343FB6017
:401E40007B68202293437B607A6880231B03134007D0FB681A4A1340FB607B68184A13407B60FA687B681343FB601EE07B682022134007D0FB6820221343FB607B68202219
:401E800093437B607A6880231B03134008D0FB68802212031343FB607B68094A13407B607B68DA43FB681340FB60FA6880239B0111001800FFF76CFFC046BD4604B080BD3E
:401EC000FFFFF7FF80B584B000AF786039607B68FB603B689B00FA681343FB60FB68044A19001000FFF754FFC046BD4604B080BDF022000080B584B000AF786080239B0178
:401F00001800FFF765FF0300FB60FB6820229343FB607B681B78002B03D1FB6820221343FB60FA6880239B0111001800FFF730FF86239B011800FFF74BFF0300FB607B6863
:401F40005B78012B03D1FB6801221343FB607B689B78012B03D1FB6810221343FB607B68DB78012B03D1FB6804221343FB607B681B79012B03D1FB6820221343FB607B68FB
:401F80005B7A012B04D1FB68802252001343FB607B689B7A012B03D1FB6802221343FB607B68DB7A012B03D1FB6808221343FB607B681B7B012B03D1FB6840221343FB60AE
:401FC000FA6886239B0111001800FFF7E1FE0023FB607B689B79002B03D1FB6802221343FB607B685B79002B03D1FB6801221343FB607B68DB79012B03D1FB68042213438D
:40200000FB60FB68044A19001000FFF7C1FEC046BD4604B080BDC0465020000080B582B000AF78607B681033180000F049F87B685033180000F0BEF87B68180000F00AF8D8
:402040007B681C33180000F009F9C046BD4602B080BDC04680B582B000AF78607B681B68124A19001000FFF793FE7B685B68104A19001000FFF78CFE7B689B680D4A1900C7
:402080001000FFF785FE7B68DB680B4A19001000FFF77EFE80235B02084A19001000FFF777FEC046BD4602B080BDC0465021000058210000542100005C2100000C20000095
:4020C00080B584B000AF78600023FB607B681B68012B04D1FB68802252011343FB607B685B68012B03D1FB6801221343FB607B689B685A00FF235B001340FA681343FB6002
:40210000FB68044A19001000FFF742FEC046BD4604B080BD1020000080B58AB000AFF860B9607A60BB680A2B02D9F8237B6222E0BB68022B04D9BB680833DB007B621AE092
:402140001423FA18184B100019000F231A0008F0F8FA7B68042B0CD81423F918BA6813009B009B18CA187B68D3181B78DB007B6201E0F8237B627A6A7B6813437B62FB6862
:40218000002B06D07B6A094A19001000FFF700FE05E07B6A064A19001000FFF7F9FDC046BD460AB080BDC0463CDB0100F4200000F820000080B584B000AF78607B68002B52
:4021C00002D103235B4241E07B685B69022B02D802235B423AE07B685B690B2B02D902235B4233E07B689B69052B02D902235B422CE00023FB607B681B68FA681343FB605A
:40220000FB68144A19001000FFF7C2FD7B68DB685B01FB607B685B68FA681343FB607B681B7C012B03D1FB6810221343FB60FB68094A19001000FFF7ABFD7B6859697B68A4
:402240009B691A000020FFF767FF00231800BD4604B080BDFC200000F020000080B584B000AF78607B681B68022B1CD17B681B6A394A19001000FFF78BFD7B685B6A374A3E
:4022800019001000FFF784FD7B689B6A344A19001000FFF77DFD7B68DB6A324A19001000FFF776FD35E07B681B68032B2AD17B689B682D4A19001000FFF76AFD7B68DB689C
:4022C0002A4A19001000FFF763FD7B681B69284A19001000FFF75CFD7B685B69254A19001000FFF755FD7B689B69234A19001000FFF74EFD7B68DB69204A19001000FFF7A5
:4023000047FD06E07B681B6B1D4A19001000FFF73FFD0023FB607B681B79012B03D1FB6820221343FB607B685B79012B03D1FB6810221343FB607B681B685B00FA68134387
:40234000FB60FB680F4A19001000FFF721FDC046BD4604B080BDC046302000003C2000003820000034200000182000001C2000002020000028200000242000002C20000025
:40238000482000001420000080B582B000AF78607B681B051B0D7B607B68054A19001000FFF7F6FC00231800BD4602B080BDC04648200000B0B584B000AF786039601A23B9
:4023C000BB602A4B1B78012B01D11E23BB600021386805F0CBFB031E01D0002341E0BB68203B002B03DB01229A4015000AE0BB682022D31A0122DA4013000021BA68914075
:402400000D001D430122BB689A4014002000290005F0F2FB031C7968181C05F05FFF031C3968181C05F090FD031CFC218905181C05F014FC031C181C05F0C6FB0300FB6069
:40244000BB681A2B01D10A4B00E00A4BFA68934206D2BB681A2B01D1054B00E0054BFB60FB681800BD4604B0B0BDC04610120020FFFF0F00FFFFFF0080B582B000AF786095
:402480007B68180000F00AF87B682033180000F0BFF8C046BD4602B080BDC04680B584B000AF78600023FB607B685B689B01FB607B689B681B01FA681343FB607B68DB68F6
:4024C000DB00FA681343FB607B685B699B00FA681343FB607B681B7E002B03D1FB6801221343FB607B685B7E002B03D1FB6802221343FB607B681B68002B18D1FB681A4AB3
:4025000019001000FFF744FC7B685A8B7B689B8BDBB21900100000F02FF87B681B6920221343124A19001000FFF732FC17E0FB680F4A19001000FFF72BFC7B685A8B7B6852
:402540009B8BDBB21900100000F03CF87B681B6920221343074A19001000FFF719FCC046BD4604B080BDC0462821000024210000342100003021000080B582B000AF02008B
:40258000BB1D1A807B1D0A1C1A707B1D7A1D12783F210A401A70BB1DBA1D12881205120D1A807B1D1B781A03BB1D1B881343044A19001000FFF7ECFBC046BD4602B080BDF6
:4025C0002021000080B582B000AF0200BB1D1A807B1D0A1C1A707B1D7A1D12783F210A401A70BB1DBA1D12881205120D1A807B1D1B781A03BB1D1B881343044A1900100032
:40260000FFF7C6FBC046BD4602B080BD2C21000080B584B000AF78600023FB607B681B7E002B03D1FB6802221343FB607B685B7E002B03D1FB6801221343FB607B681B6924
:40264000042B04D1FB6804221343FB6005E07B681B69DB00FA681343FB607B68DB685B01FA681343FB607B689B689B02FA681343FB607B685B685B03FA681343FB607B68BD
:402680001B68002B0DD1FB680E4A19001000FFF77FFB7B685B690C4A19001000FFF778FB0CE0FB68094A19001000FFF771FB7B685B69074A19001000FFF76AFBC046BD46F9
:4026C00004B080BDEC200000E4200000E8200000E020000080B582B000AF78607B68180000F06CF87B680C33180000F089F87B682433180000F0D0F87B682C33180000F095
:4027000021F97B683833180000F0F6F8C046BD4602B080BD80B584B000AF78600023FB607B68062B38D87B689A001E4BD3181B689F461D4B1800FFF74BFB0300FB602BE053
:4027400082239B011800FFF743FB0300FB6023E0164B1800FFF73CFB0300FB601CE0144B1800FFF735FB0300FB6015E0114B1800FFF72EFB0300FB600EE00F4B1800FFF734
:4027800027FB0300FB6007E087239B011800FFF71FFB0300FB60C046FB681800BD4604B080BDC0464CDB01007420000084200000782000007C200000C821000080B584B085
:4027C00000AF78600023FB607B681B68FB607B685B681B02FA681343FB607B689B681B04FA681343FB60FB68044A19001000FFF7CFFAC046BD4604B080BDC046A8210000C3
:4028000080B584B000AF7860224B1800FFF7E0FA0300FB60FB6880221340FB607B68DB68FA681343FB607B681B7C012B03D1FB6810221343FB607B685B7C012B03D1FB682C
:4028400040221343FB607B685B681B02FA681343FB607B681B681B03FA681343FB607B689B689B03FA681343FB60FB68094A19001000FFF78DFA7B681B7D002B05D08023C7
:402880005B0201211800FFF7C1FAC046BD4604B080BDC0464420000080B582B000AF78607B681B881A00104B11001800FFF770FA7B685B881A000D4B11001800FFF768FA41
:4028C0007B689B881A000A4B11001800FFF760FA7B68DB881A00074B11001800FFF758FAC046BD4602B080BDA8200000AC200000B0200000B420000080B584B000AF7860A7
:402900000023FB607B681B7A012B03D1FB6801221343FB607B685B681B01FA681343FB607B681B68DB01FA681343FB60FB68044A19001000FFF72CFAC046BD4604B080BD50
:40294000C421000080B584B000AF78600023FB601E4B1800FFF73CFA0300BB607B685B68032B0AD1BB6880221343BB60BB68174A19001000FFF70CFA0FE0BB688022934321
:40298000BB60BB68114A19001000FFF701FA7B685B681B05FA681343FB607B681B681B01FA681343FB607B681B7A012B03D1FB6801221343FB60FB68054A19001000FFF776
:4029C000E7F9C046BD4604B080BDC04644200000D020000080B584B000AF7860214B00211800FFF7D5F9204B1800FFF7F1F90300FB60FB683F221340FB607B685B685B0214
:402A0000FA681343FB607B689B689B01FA681343FB60FB68144A19001000FFF7B9F97B681B691B04114A19001000FFF7B1F90023FB607B681B78012B04D1FB6880221201A5
:402A40001343FB607B68DB685B03FA681343FB60FB68044A19001000FFF79AF9C046BD4604B080BD08200000D8210000E021000080B584B000AF78600A00FB1C1A700023D1
:402A8000FB60FB1C1B78012B04D1FB68802212011343FB607B685B03FA681343FB60FB68044A19001000FFF773F9C046BD4604B080BDC0460820000080B500AF88239B0164
:402AC0001800FFF785F903001B0C1800BD4680BD80B584B000AF7860284B1800FFF778F90300BB60254B00211800FFF751F9244B1800FFF76DF90300FB60FB683F22934304
:402B0000FB60FB6808221343FB607B681B68FA681343FB60FB681A4A19001000FFF738F97B68DB79002B09D0164B00211800FFF72FF9154B00211800FFF72AF90023FB6049
:402B40007B681B79012B03D1FB6801221343FB607B689B681B02FA681343FB60FB68094A19001000FFF714F9BB68044A19001000FFF70EF9C046BD4604B080BD08200000F6
:402B8000D8210000042000006420000080B584B000AF0200FB1D1A700E4B1800FFF718F90300FB60FB1D1B78012B04D1FB6801221343FB6003E0FB6801229343FB60FB6802
:402BC000044A19001000FFF7E3F8C046BD4604B080BDC0460420000080B582B000AF78607B68032B0BD801227B689A4013001A008623DB0011001800FFF7CAF800E0C0462F
:402C0000BD4602B080BDC04680B584B000AFF860B9607A6010E0FB685A1CFA600B4A19001000FFF7B5F8BB681A1DBA601B68084A19001000FFF7ACF87B685A1E7A60002B89
:402C4000E9D1C046BD4604B080BDC046D42100007020000080B582B000AF78607B681B68012B11D004D3022B1AD0032B24D02FE07B689B681A047B685B6813431D4A190015
:402C80001000FFF785F823E07B689B681A047B685B681343184A19001000FFF779F817E07B689B681A047B685B681343134A19001000FFF76DF80BE07B689B681A047B68F2
:402CC0005B6813430E4A19001000FFF761F8C0467B681B7B012B08D17B6858687B6819697B689B681A00FFF78FFFC046BD4602B080BDC046CC210000E8210000D0210000F6
:402D0000E421000080B582B000AF78607B68044A19001000FFF73CF8C046BD4602B080BD5420000080B584B000AF78607B685B6B1B041B0C814A19001000FFF729F87B68E3
:402D40005B6B1B0C0F2213407D4A19001000FFF71FF87B685B6A1B041A0C81231B0111001800FFF715F87B685B6A1B0C0F221340744A19001000FFF70BF87B689B6B1B04D1
:402D80001B0C714A19001000FFF702F87B689B6B1B0C0F2213406D4A19001000FEF7F8FF7B689B6A1B041A0C82231B0111001800FEF7EEFF7B689B6A1B0C0F221340644A7E
:402DC00019001000FEF7E4FF7B68DB6B1B041B0C604A19001000FEF7DBFF7B68DB6B1B0C0F2213405C4A19001000FEF7D1FF7B68DB6A1B041A0C83231B0111001800FEF70C
:402E0000C7FF7B68DB6A1B0C0F221340534A19001000FEF7BDFF7B681B6C1B041B0C504A19001000FEF7B4FF7B681B6C1B0C0F2213404C4A19001000FEF7AAFF7B681B6B8C
:402E40001B041A0C84231B0111001800FEF7A0FF7B681B6B1B0C0F221340434A19001000FEF796FF414B01211800FEF791FF0023FB607B685B6803221340FA681343FB603F
:402E80007B689B689B000C221340FA681343FB607B68DB681B0130221340FA681343FB607B681B699B01FF221340FA681343FB607B685B691A02C0239B001340FA6813432D
:402EC000FB607B689B699A02C0231B011340FA681343FB607B68DB691A03C0239B011340FA681343FB607B681B6A9B031B041B0CFA681343FB60FB681D4A19001000FEF71F
:402F000047FF0023FB607B6844229B5C012B03D1FB6801221343FB607B681B685B00FA681343FB60FA6880231B0111001800FEF72FFFC046BD4604B080BDC0460808000005
:402F40000C08000014080000180800001C08000024080000280800002C08000034080000380800003C080000440800001C0A00000408000080B584B000AF0200FB1D1A7053
:402F800080231B011800FEF723FF02000E23FB181A800E23FB180E22BA18128801218A431A80FB1D1B78012B07D10E23FB180E22BA18128801210A431A800E23FB181A885C
:402FC00080231B0111001800FEF7E2FEC046BD4604B080BD80B586B000AFF860B960FB1D1A70134B3B61FB68012B01D1114B3B613B699BB21800FEF7EBFE03007B61FB1DBC
:403000001B78012B04D17A69BB6813437B6104E0BB68DA437B6913407B613B699BB27A6911001800FEF7B4FEC046BD4606B080BD083000000C30000080B584B000AF786089
:403040007B68002B06D1094B1800FEF7C1FE0300FB6005E0064B1800FEF7BAFE0300FB60FB681800BD4604B080BDC046083000000C30000080B582B000AF78607B68044A8C
:4030800019001000FEF784FEC046BD4602B080BD0430000080B584B000AF786039607B68002B01D10A4B00E00A4BFB60FB689BB21800FEF78DFE0300BB60BB683A68134078
:4030C00001D0012300E000231800BD4604B080BD103000001430000080B582B000AF78607B68044A19001000FEF752FEC046BD4602B080BD1821000080B500AF064B002134
:403100001800FEF745FE044B01211800FEF740FEC046BD4680BDC0461C21000080B584B000AF78600023FB60FB680133FB608023DB001800FEF74CFE02000A4B9A4209D0B9
:403140007B68002B04DD7B68FA689A4204D8EBE7C046E9E7C04600E0C046FB681800BD4604B080BD4441000080B584B000AF3B0001229A703B0001225A703B0001221A704B
:403180003B0001221A723B0001225A713B0001229A713B0000221A733B000022DA723B0000229A723B0000225A723B0000221A713B000022DA703B000022DA713B001800E4
:4031C000FEF798FEC046BD4604B080BD80B584B000AF78600023FB600420FFF74BFF154B01211800FEF712FE012001F031FD04210120FFF74FFF031E05D00120FFF78AFA7E
:403200000300FB600CE07B681B68013304D07B681B685A1E7B681A607B681B68002BE3D1044B00211800FEF7F1FDFB681800BD4604B080BD00010100B0B5F8B000AFF86066
:40324000B960E023FF33FB1800221A70EF235B00FB1800221A70D64BF0225200BA18D218D44B100019006C231A0007F06AFAD24BF02252009446BC446344D04A13CA13C3B9
:4032800003CA03C3FB68002B03D103235B4200F0E0FEFB685B680021181C04F067FC031E03D002235B4200F0D4FEFB689B691A2B03D902235B4200F0CCFEFB689B69002BA8
:4032C00003D102235B4200F0C4FEBB68002B03D103235B4200F0BDFEFB68DB68B849181C04F05EFC031E04D0E023FF33FB1801221A70FB681B680021181C04F037FC031E60
:4033000004D0EF235B00FB1801221A7096235B00FB18E6225200BA181360AC23FB18E4225200BA181360FB689A69A14BF02149008C46BC4463449200D358E2225200BA183D
:403340001360FB685B68181C07F0C2F800229D4B06F056FA03000C0025001C00E2235B00FB18186807F07CF802000B002000290005F022FE03000C001800210007F0FCF833
:40338000031CE0225200BA1813608F49E0235B00FB18186804F0D8FD031C8C49181C04F09DFF031C191C181C04F058FC031C181C04F00AFC030001335B08EC225200BA1822
:4033C0001360EC235B00FB181B68814A934204D97F4BEC225200BA181360EC235B00FB18186805F07FFA031C7A49181C04F076FF031C7649181C04F0A7FD031CE022520067
:40340000BA181360FB685B687349181C04F026FC031C191CE0235B00FB18186804F094FD031C1C1CE2235B00FB18186805F05AFA031C191C201C04F051FF031CDE22520079
:40344000BA181360E2235B00FB18186805F04AFA031C191CDE235B00FB18186804F074FD031C1A1CFB685B68191C101C04F036FF031CDC225200BA181360DC235B00FB180D
:403480001968564804F060FD031CDA225200BA1813605349DA235B00FB18186804F08AFB031E05D00423E8225200BA18136034E08121C905DA235B00FB18186804F07AFB54
:4034C000031E05D00323E8225200BA18136024E08021C905DA235B00FB18186804F06AFB031E05D00223E8225200BA18136014E0FF218905DA235B00FB18186804F05AFBC6
:40350000031E05D00123E8225200BA18136004E00023E8225200BA181360DE235B00FB1819682E4804F010FD031CDA225200BA1813602B49DA235B00FB18186804F03AFB87
:40354000031E05D00423EA225200BA1813604EE08121C905DA235B00FB18186804F02AFB031E05D00323EA225200BA1813603EE08021C905DA235B00FB18186804F01AFBA9
:40358000031E05D00223EA225200BA1813602EE0FF218905DA235B00FB18186804F00AFB031E1FD00123EA225200BA1813601EE060FEFFFFD4DB01004CFEFFFF40DC010067
:4035C0000050C34B000099400080094500E0FF44160500000000FA440000C84200803B45000010410023EA225200BA181360A54BF02252009446BC446344EA225200BA1824
:4036000012689200D0589F4BF02252009446BC446344E8225200BA1812689200D358191C04F092FC031CD8225200BA18136080239B011800FEF7CCFB0300D6225200BA1889
:4036400013600120FFF7F8FC0300D4225200BA181360012206210120FFF7BCFC01235B421800FFF707FD884B00211800FEF7CEFBFFF77AFDAC23FB1844211800FEF7B8F815
:40368000824BF02252009446BC44634403225A61E023FF33FB181B785A425341DBB21A007A4BF02149008C46BC4463449A61FB685A6A764BF02149008C46BC4463441A61FD
:4036C000FB681A6A714BF02149008C46BC446344DA606E4BF02252009446BC44634401221A776A4BF02252009446BC44634400225A77664BF02252009446BC446344202263
:4037000001219954FB6828331900AC23FB182C330C22180007F015F8AC23FB181800FEF7D9FFF023FB183C211800FEF761F8FB681B695A1E9341DBB21A00F023FB181A60EE
:40374000F023FB18802212015A83F023FB1820229A83F023FB1800221A76F023FB1811221A61F023FB1800225A61F023FB1801225A60F023FB180122DA60F023FB1801228E
:403780009A60F023FB1801225A76FB681A69F023FB181A62FB68DA69F023FB181A63F023FB18382201219954F023FB18392201219954F023FB1804229A62FB689A69F02345
:4037C000FB18DA62F023FB1800225A62FB681B7D012B02D1B0235A0001E0A0235A00F023FB185A63F023FB181800FEF745FE96235B00FB1874211800FDF7FAFF96235B0023
:40380000FB18602200219954FB681B69002B01D1012200E0022296235B00FB181A6596235B00FB181F22DA6596235B00FB1805229A6696235B00FB180B225A6696235B0017
:40384000FB1805221A6796235B00FB180B22DA6696235B00FB1800225A6596235B00FB1800221A6196235B00FB1800225A6196235B00FB18FF229A61FB681B69002B07D1FC
:40388000412206E04CFEFFFFE0FF3900CCFEFFFF812296235B00FB181A6096235B00FB1801225A6096235B00FB18802292009A6096235B00FB1890221201DA60EF235B0067
:4038C000FB181B78002B00D173E101235B423B6196235B00FB180022DA6196235B00FB18EC225200BA181268DA6496235B00FB1820220021995496235B00FB1821220021DE
:40390000995496235B00FB181800FEF787FBEC235B00FB181B6880221201944663441800FEF732FD9923DB0101211800FEF76EFAE6235B00FB181B6801221A60E6235B0048
:40394000FB181B6801225A60E6235B00FB181B68802292009A60E6235B00FB181B6890221201DA60E6235B00FB181B681800FEF771FBFA239B00180001F06AF9E4235B00BA
:40398000FB181B6814225A60E4235B00FB181B6824221A60E4235B00FB181B68E8225200BA1812689A60E4235B00FB181B681800FEF704FF322001F04BF91023FB18180042
:4039C000FFF704FC0300D2225200BA181360FB681B69002B0CD1E4235B00FB181B6802225A60E4235B00FB181B6821221A600BE0E4235B00FB181B6803225A60E4235B00A5
:403A0000FB181B6822221A60E4235B00FB181B68EA225200BA1812689A60E4235B00FB181B681800FEF7CAFE322001F011F91023FB181800FFF7CAFB0300D0225200BA184A
:403A40001360FB681B69002B01D1412200E08122E6235B00FB181B681A60E6235B00FB181B6801225A60E6235B00FB181B68802292009A60E6235B00FB181B6890221201D7
:403A8000DA60E6235B00FB181B681800FEF7E2FAFA239B00180001F0DBF8AC23FB18E4225200BA181360E4235B00FB181B6814225A60E4235B00FB181B6824221A60E4232F
:403AC0005B00FB181B68E8225200BA1812689A60E4235B00FB181B681800FEF76FFE322001F0B6F81023FB181800FFF76FFB03001A00D2235B00FB181B68D21A854BF02142
:403B000049008C46BC4463441A60824BF02252009446BC44634400225A60FB681B69002B0CD1E4235B00FB181B6802225A60E4235B00FB181B6821221A600BE0E4235B00F4
:403B4000FB181B6803225A60E4235B00FB181B6822221A60E4235B00FB181B68EA225200BA1812689A60E4235B00FB181B681800FEF724FE322001F06BF81023FB18180053
:403B8000FFF724FB03001A00D0235B00FB181B68D21A614BF02149008C46BC4463441A605D4BF02252009446BC44634400225A607CE196235B00FB18EC225200BA18126871
:403BC0001A64FB681A68FB689B68191C101CFEF7F1FB020096235B00FB18DA6396235B00FB1800225A6496235B00FB1800229A6496235B00FB180022DA6496235B00FB1858
:403C00000222DA6196235B00FB1820220021995496235B00FB1821220021995496235B00FB181800FEF7FAF90220FFF723FAC0231B0101211800FEF7E9F8642001F008F856
:403C4000AC23FB18E4225200BA181360E4235B00FB181B6814225A60E4235B00FB181B6824221A60E4235B00FB181B68E8225200BA1812689A60E4235B00FB181B6818007B
:403C8000FEF79CFD8123DB0101211800FEF7BEF8192000F0DDFF81231B0201211800FEF7B5F8C04602210120FFF7F4F9031EF9D01A4B00211800FEF7A9F80220FFF7DAF939
:403CC0000320FEF727FD03001A00124BF02149008C46BC4463441A600420FEF71BFD03001A000C4BF02149008C46BC4463445A60FB681B69002B13D1E4235B00FB181B68A1
:403D000002225A60E4235B00FB181B6821221A6012E0C04644FEFFFF3CFEFFFF80C10000E4235B00FB181B6803225A60E4235B00FB181B6822221A60E4235B00FB181B68BA
:403D4000EA225200BA1812689A60E4235B00FB181B681800FEF732FD8123DB0101211800FEF754F8192000F073FF81231B0201211800FEF74BF8C04602210120FFF78AF9DF
:403D8000031EF9D0B54B00211800FEF73FF80220FFF770F90320FEF7BDFC03001A00B04BF02149008C46BC4463441A600420FEF7B1FC03001A00AA4BF02149008C46BC44F9
:403DC00063445A60A74BF02252009446BC4463441A6880239B02134011D0A24BF02252009446BC4463441B681A009F4B13431A009C4BF02149008C46BC4463441A60994BB4
:403E0000F02252009446BC4463445A6880239B02134011D0934BF02252009446BC4463445B681A00904B13431A008E4BF02149008C46BC4463445A60894BF0225200944604
:403E4000BC4463441A6880239B02134011D0844BF02252009446BC4463441B681A00824B13431A007E4BF02149008C46BC4463441A607B4BF02252009446BC4463445A6894
:403E800080239B02134011D0754BF02252009446BC4463445B681A00734B13431A00704BF02149008C46BC4463445A606C4BF02252009446BC4463445B685A42684BF021D7
:403EC00049008C46BC4463445A60664BF02252009446BC4463445B685A42624BF02149008C46BC4463445A60604BF0225200BA18D4183B002422BA181C2179181800FDF71D
:403F0000E5FC5B4BF0225200BA18D218230003CA03C3564BF02252009446BC4463441C68FB685B68D8225200BA181168181C04F00BF8031C191C201C04F0D0F9031C1A1C90
:403F40004A4BF02149008C46BC4463441A60474BF02252009446BC4463445C68FB685B68D8225200BA181168181C03F0EDFF031C191C201C04F0B2F9031C1A1C3B4BF02139
:403F800049008C46BC4463445A60FB685B6B002B12D1364BF02252009446BC4463441A68BB681A60314BF02252009446BC4463445A68BB685A600FE01423FB181800FDF784
:403FC0002DFD021CBB681A601423FB181800FDF755FD021CBB685A60D4235B00FB181B680222134004D1002202210120FEF7F2FFD4235B00FB181B680422134004D1002261
:4040000004210120FEF7E6FFD6235B00FB181A6880239B0111001800FDF7BAFE96235B00FB1800221A6096235B00FB1800225A6096235B00FB1800229A6096235B00FB1833
:404040000022DA6096235B00FB181800FEF702F800231800BD4678B0B0BDC04680C100003CFEFFFF44FEFFFF0000FCFF34FEFFFF20FEFFFF80B582B000AF78607B68002BE1
:4040800004D07B68044A1A60002301E002235B421800BD4602B080BDB00B002080B598B000AF786039607B68012B40D002DC002B05D06BE0022B45D0042B48D066E0364BA1
:4040C0001800FDF785FE354B6C229B5C002B02D164235B425BE00823FB184422012199540823FB1800221A600823FB1800225A600823FB1803225A62284BDA69274B9B6ADC
:40410000191C101C04F0EAF8031C181C03F05CFD03005A1F0823FB185A630823FB181800FEF700FE1D4B9C22002199502EE01A4B1800FDF74DFE0020FEF71CFF0020FEF7AA
:4041400019FF23E0154B9822012199541EE000210120FFF7A3FF5023FB180D220021180006F0F8FA5023FB181800FDF7C3FE0823FB183C220021180006F0ECFA0823FB180B
:404180001800FEF779F9FEF7B7FFC04600231800BD4618B080BDC04674200000B00B002080B5ACB000AF0023AC22BA1813600120FDF706F89423FB1801221A709423FB184D
:4041C00001229A709423FB1801225A709423FB1800221A739423FB180022DA729423FB1800225A729423FB1800229A729423FB1801221A719423FB180122DA709423FB1801
:4042000001225A719423FB1801229A719423FB180022DA719423FB181800FDF76BFE5823FB1800221A605823FB1800225A605823FB181E221A615823FB1800229A60582320
:40424000FB180022DA605823FB1800225A615823FB1800221A765823FB1801225A768F4BDB6D8F49181C04F04DF9031C8D49181C03F06AFE031C181C03F0A6FC03009AB280
:404280005823FB189A83854B1B6E8749181C03F05BFE031C181C04F0BBFA03009AB25823FB189B8B9B019BB2D3189AB25823FB185A835823FB185B8B1A005823FB189B8BDE
:4042C0009B019A4207DD5823FB185B8B013B9AB25823FB185A835823FB1800221A625823FB1800221A635823FB183822012199545823FB18392201219954684BDA6C58233F
:40430000FB185A62654B1A6D5823FB189A62634B64229B5C012B08D15823FB180022DA625823FB18614A5A6308E05C4B9A6C5823FB18DA625823FB185D4A5A635823FB18FC
:404340001800FEF799F81423FB1810225A601423FB1814221A60514BDA6B1423FB189A601423FB18243308220021180006F0F2F91423FB182C330C220021180006F0EAF97C
:404380001423FB1803225A611423FB1801229A61424B41229B5C1A001423FB181A613F4B40229B5C1A001423FB18DA601423FB1800225A771423FB1800221A771423FB18A0
:4043C0002022012199541423FB1838330C220021180006F0BFF91423FB181800FEF77AF93B1D00221A603B1D00225A603B1D00229A603B1D0022DA603B1D1800FDF72AFEFC
:404400002C4B01211800FDF701FD80235B0200211800FDF7FBFC0020FEF774FC81231B061800FCF757FDA423FA18A823FB1811001800FCF7A7FE0300AC22BA18136000205E
:40444000FCF7BEFEAC23FB181B68002B1ED1134B01221A67114B5A68104B5A67A823FB181A680E4B80215A50A423FB181A680B4B9A670A4B5B6FA822BA181168A422BA184F
:4044800012681800FEF7C0FB002302E0AC23FB181B681800BD462CB080BDC046B00B002000004843998809429988093F34320000343000002000010080B58CB000AF0023AD
:4044C000FB623B0002221A603B0001225A603F4B41229B5C1A003B00DA603C4B40229B5C1A003B009A603B0000221A61374B9A69364B1B6A191C101C03F026FD031C1A1C9D
:404500003B00DA612023FA183B0011001800FDF713F83B6A0F333B620120FCF751FE0420FEF7F0FB2A4B01211800FDF76FFCFA231B011800FCF7CEFC80235B00012118000E
:40454000FDF764FC3B6A9B009B081800FCF7C2FC204B00211800FDF759FC0020FEF7D2FBFEF7CAFD2423FA182823FB1811001800FCF708FE0300FB620020FCF721FEFB6AE0
:40458000002B1DD1114B8422002199500F4B5A6F0E4B9B6FD2180D4B88215A50BA6A0B4B94215A507A6A094B8C215A50074B88229B58B96A7A6A1800FEF726FB002300E02C
:4045C000FB6A1800BD460CB080BDC046B00B0020800001008001010080B590B000AF3B0038211800FDF704F93B0001225A63294B1A6A3B00DA60274B9A693B009A603B0030
:4046000001221A623B0000225A623B0009229A623B000022DA623B003022012199541D4B1B6A8121C905181C03F08EFC031C1A49181C03F089FC031C8A21C905181C03F030
:4046400083FC031C1549181C03F048FE031C1A1C3B001A600F4B1A6B3B005A600D4B9A6C3B009A613B000022DA613B0000221A753823FA183B0011001800FEF7DDFD054BEB
:404680003822BA18543303CA03C300231800BD4610B080BDB00B00200000B0410000404080B58CB000AF786039600023FB620A20FEF734FD03000A2B02D909235B42BFE051
:4046C0002023FB1801221A602023FB1800225A712023FB1800229A712023FB180122DA712023FB1800221A712023FB1800229A602023FB181800FEF7EBF9534B1B7D012B1F
:4047000004D0514B6C229B5C002B0AD14E4B64229B5C002B05D1FFF75FFF4B4B00221A7503E0494B9A6E484B5A6500210120FEF79FF90C23FB1801221A700C23FB180222D7
:404740005A600C23FB1802229A603F4B5A6C0C23FB18DA603C4B5A6A0C23FB181A610C23FB181800FEF736F901235B421800FEF781FC354B6C229B5C002B03D0324B1B786F
:40478000012B26D17B68002B02D102235B4257E03B68002B02D102235B4251E03A687B6811001800FCF7C2FCFFF7FAFC0300FB62FB6A002B01D0FB6A42E0FFF77DFE030061
:4047C000FB62FB6A002B01D0FB6A39E01E4B00221A701D4B7C22002199541C4B1800FEF739FA2023FB1801221A712023FB181800FEF76EF9144B1B6F1800FEF7EDF9C046FD
:4048000080231B0219000120FEF744FC031EF7D00D4B9022002199540D4B1800FEF71AFA0120FEF7B3F900F02DFA074B9B6B03211800FDF747FB044B6C220121995400231E
:404840001800BD460CB080BDB00B0020200C0020340C002080B582B000AF78603960144BDB6A002B15DD124B9C229A583B681B689B08D2180E4B9C215A500D4B9C229A58CD
:404880000B4BDB6A9A4204D30020FEF773FB00230AE0074B98229B5C012B04D10020FEF769FB002300E000231800BD4602B080BDB00B002090B587B000AF786039603B6853
:4048C0001B683B617B68FB6000237B611CE07B699B007A68D3187A69920079688A1812681204120C1A607B699B00FA68D4187B699B007A68D3181B68180000F015F9031C23
:4049000023607B6901337B617A693B699A42DED300231800BD4607B090BDC04680B584B000AF786039600A20FEF7F8FB03000A2B02D909235B4235E00020FEF7CDFB3B6898
:4049400000221A6080239B0419000020FEF7A2FB0300012B25D1FEF7AFF80300FB60FA687B6811001800FDF79DF980239B041800FEF780FB0C23FA187B6811001800FFF76A
:4049800069FF0A4B1800FEF7A7FB0C23FA187B6811001800FFF78EFFFA683B681A60002300E000231800BD4604B080BDE5470A0090B587B000AF7860564B3B6100237B6195
:4049C0000023FB607B68544A94466344FB60534BDB6B042B00D998E09A00514BD3181B689F46F86803F036FF031C8E21C905181C03F0AAFA031C1A1C484B5B6B191C101CF1
:404A000003F06CFC031C3969181C03F067FC031C7B617AE0F86803F01DFF031C8E21C905181C03F091FA031C1C1C3C4B5B6BFF218905181C03F088FA031C191C201C03F040
:404A40004DFC031C3969181C03F048FC031C7B615BE0F86803F0FEFE031C8E21C905181C03F072FA031C1C1C2C4B5B6B8021C905181C03F069FA031C191C201C03F02EFCD3
:404A8000031C3969181C03F029FC031C7B613CE0F86803F0DFFE031C8E21C905181C03F053FA031C1C1C1D4B5B6B8121C905181C03F04AFA031C191C201C03F00FFC031C85
:404AC0003969181C03F00AFC031C7B611DE0F86803F0C0FE031C8E21C905181C03F034FA031C1C1C0D4B5B6B0E49181C03F02CFA031C191C201C03F0F1FB031C3969181C70
:404B000003F0ECFB031C7B61C0467B69181CBD4607B090BD110E813F0080FFFFB00B002098DC01000000104180B584B000AF78600023FB607B681800FFF73AFF031CFB606B
:404B40000A4B5B6D191CF86803F0FEF9031CBB60BB688022120653400549181C03F0BEFB031C181CBD4604B080BDC046B00B00200024744990B587B000AFF860B9607A6042
:404B8000FB68002B05D0BB68002B02D07B68002B02D101235B4244E0002000F0DBFE022001F07EFB00237B6130E001F0F3F801F001F9031EF9D1FA687B69D3181B7818009A
:404BC00001F008F9194B3B6105E03B69013B3B61012001F065FB01F0EDF8031E02D13B69002BF2D13B69002B05D1012000F0B2FE01235B4215E0BA687B69D41801F0CAF8D3
:404C00000300DBB223707B6901337B617A697B689A42CCD3022001F043FB012000F09AFE00231800BD4607B090BDC0461027000080B500AF002000F08DFEC046BD4680BDDE
:404C400080B500AF012000F085FEC046BD4680BD80B584B000AF78607B68002B0DD00023FB6005E00A2001F01BFBFB680133FB60FA687B689A42F5D300E0C046BD4604B08F
:404C800080BDC04680B500AF01231800BD4680BD80B582B000AF7860012000F05BFE012000F0A4FF0A2001F0D5FA00231800BD4602B080BD80B582B000AF786039603A6805
:404CC0007B680021180005F045FDC046BD4602B080BDC04680B500AF054B03221A60054B03221A60044B00221A60C046BD4680BD3000304030003140000E3F4080B500AFBE
:404D000005F0E4FC03001B680C2B00D1FEE7FEE780B584B000AF7860104B1A687B68D3181A000F4BD21A8023DB009A4209DC0B4B1B68FB60094B1A687B68D218074B1A6069
:404D400007E005F0C3FC03000C221A6001235B42FB60FB681800BD4604B080BD500C0020882B002080B586B000AF224B7B61224B3B61204B7B6135E03B691B68FB603B6925
:404D80005B68BB603B699B683B6000237B600CE0FB681A68BB681A60BB680433BB60FB680433FB607B6804337B607A683B689A42EED13B69DB683B6000237B6008E0BB685D
:404DC00000221A60BB680433BB607B6804337B607A683B689A42F2D13B6910333B617B69013B7B617B69002BC6D105F075FCFBF759FFFEE70100000030E2010080B582B054
:404E000000AF154B144A126801218A431A6000237B600FE07B68032B04D8104B7A689200D35800E00E4B0F4A796889008B507B6801337B607B682F2BECD9FBF777F90A4BCC
:404E400000221A60044B044A126801210A431A60C046BD4602B080BD0000104000000000FD4C000000000020C000002080B500AF094B00221A70094B00221A70084B0022AC
:404E80001A7000F013F8074B00221A70064B00221A70C046BD4680BD7F2B0020782B00207E2B0020602B0020682B002080B500AF00F024FDC046BD4680BDC046B0B594B08E
:404EC00004AF78603E23FB1800221A802823FA183D4B1000190014231A0005F032FC3B4B1B78002B04D1FFF7C1FF384B01221A707B68002B5CD0364B7A681A603E23FB18EB
:404F00001B88002B29D11023FB181C22BA185A601023FB182022BA181A601023FB1800221A812023FB181B221A802023FB181B225A802023FB1804221A711C23FB180822A5
:404F40001A703E23FC180E23FA181023FB181100180006F0BDFE030023803E23FB181B88002B29D13E23FC182823FD18AE231A0118491948194B0293194B019305230093BE
:404F80002B0006F0FBFD030023803E23FB181B88002B11D1134B01221A703E23FC18124B11222221180013F049FB0300238003E03E23FB1801221A803E23FB181B88180073
:404FC000BD4610B0B0BDC046B8DC010011120020642B0020C8000020D95400007902000000EB0100762B002004DD010090B593B000AF0200FB1D1A704623FB1800221A80C2
:40500000614B1B781A00012313401ED04623FC18FB1D1B7818000EF0BFFB030023804623FB181B88002B10D1574B1B7801229343DAB2554B1A70544B1B781A000223134041
:4050400003D04623FB1828221A804623FB181B88002B03D0FB1D1B78002B2CD04A4B1B781A000223134026D0484B1B78042B22D8464B1B781A0013009B009B185B009E2255
:4050800092009A18424BD318591C4623FC18FB1D1B7840480A220EF065FB030023804623FB181B88002B06D1374B1B7802229343DAB2354B1A704623FB181B88002B03D0FC
:4050C000FB1D1B78002B57D02F4B1B781A000C23134051D02C4B1B781A00082313401FD00823FB1832220021180005F033FB4623FC18FB1D1B7828490822B81832220EF085
:4051000031FB030023804623FB181B88002B33D11D4B1B7808229343DAB21B4B1A702BE03C23FB1818000A231A00002105F012FB1A4B1B781A0013009B009B185B009E224B
:4051400092009A18124BD318591C4623FC18FB1D1B783C22B8180A220EF004FB030023804623FB181B88002B06D1074B1B7804229343DAB2044B1A704623FB181B8818006B
:40518000BD4613B090BDC046602B00207C2B002000EB01006C2B002079ED01001212002090B585B000AF0200FB1D1A70FB1D1B78022B04D90E23FB1801221A804AE0294BF5
:4051C0001B78042B41D1284B1B78DBB21A00042313403AD1FB1D1B78002B0BD1234B1E221A82224B5B6820221A80204B5B6830225A8010E0FB1D1B78012B0CD11B4B962285
:405200001A821A4B5B68C822D2001A80174B5B68FA2212015A80164BFA1D12781A700E23FC18124B180011F02DFA030023800E23FB181B88002B0DD10B4B1B78DBB2042286
:405240001343DAB2084B1A7004E00E23FB180422FF321A800E23FB181B881800BD4605B090BDC046762B00207F2B0020A40C00207E2B002080B584B000AF78600A00FB1C17
:405280001A700023BB60BB68002B20D07B689A79BB681A700F23FB1800221A7012E00F23FB181B780133BA68D3180F22BA18127879688A5C1A700F23FB181A780F23FB184F
:4052C00001321A700F23FB181B78052BE7D9C046BD4604B080BDC04680B582B000AF78607B681B789AB27B6801331B789BB21B029BB213439BB21800BD4602B080BDC04665
:4053000090B585B000AF78600F23FB1800221A707B689B890F22934232D17B68181D7A680F23FC184023002113F0A0F9030023700F23FB181B78002B1AD17B685B681800C9
:40534000FFF7CAFF03001A00022313409BB2002B07D00F4B1B687968822252001000984706E00B4B1B6879680622FF3210009847084B1B78DBB201229343DAB2054B1A702D
:405380000F23FB181B781800BD4605B090BDC046642B00207F2B002090B585B000AF78600F23FC187B681800FFF7AAFF03002370154B1B78DBB21A00012313401FD10F23CF
:4053C000FB181B78002B16D00823FB1812229A707B689A890823FB181A800823FB180F22BA181278DA700823FA187B681100186812F094FA03E07B68186812F023FBC046DA
:40540000BD4605B090BDC0467F2B002080B582B000AF7860C046BD4602B080BD80B500AF044B00225A70034B00221A70C046BD4680BDC0467C2B002080B582B000AF786097
:40544000C046BD4602B080BD80B500AFC046BD4680BDC04680B584B000AF78600E23FB1800221A707B689B79002B1CD10F23FB1800221A7012E00F23FB181B787A68D35C49
:40548000002B04D00E23FB1801221A700BE00F23FB181A780F23FB1801321A700F23FB181B78052BE7D90E23FB181B781800BD4604B080BD80B582B000AF0200BB1D1A8003
:4054C000C046BD4602B080BD80B582B000AF7860C046BD4602B080BD80B588B000AF02003960FB1D1A70C94B1B78DBB201221343DAB2C64B1A70FB1D1B78412B00D160E178
:4055000023DC212B00D1C6E00DDC022B00D198E002DC012B3BD0D1E1052B00D196E0062B00D198E0CAE1272B00D1EEE006DC242B00D1E0E0262B00D1F3E0BFE1282B00D17B
:40554000EBE02A2B00D1DBE0B8E14F2B00D1A8E10BDC432B00D175E100DA54E14C2B00D18DE14E2B00D19EE1A8E1572B00D19CE106DC502B00D19AE1542B00D184E19DE1D3
:40558000712B00D117E1FA2B00D182E196E11423FB1807221A701423FB1800225A701423FB18180008F074FB1423FB1807221A701423FB1801225A701423FB18180008F02C
:4055C00067FB0B23002B01D006F096FA904B1B681800FFF73FFF031E11D08D4B1B68180006F09EFA8A4B1B6800211800FFF742FE874B1B6801211800FFF73CFE0DE0854BA9
:40560000180006F08DFA834B00211800FFF732FE804B01211800FFF72DFE032010F0C6FE1023FB183F221A701023FB1800225A701023FB18180010F0D7FE774B04221A7093
:405640003CE13B681800FFF7F7FE37E13B681A78724B1A7032E13B68BB61BB691B78002B00D026E1BB695B78002B0BD16C4B0022DA806B4B00229A80694B6A4A1A60BB691F
:40568000674A5A60614B1B78DBB201229343DAB25E4B1A700DE15D4B1B78DBB21A002023134000D007E1604B1B78102B02D15E4B0522DA705D4B1B785B4A1100180010F06E
:4056C0009FFF03001A000E23FB181A800E23FB181B88002B06D0564B1B680E22BA18110036209847494B1B78DBB201221343DAB2464B1A70DFE03B685A784E4B1A70DDE0D5
:405700003B681800FFF7E0FED8E03B681800FFF7DBFE414B02221A70D0E03F4B04221A70CCE03D4B1B78022B00D1C6E0374B1B78DBB21A000123134000D1BEE0334B1B7856
:40574000DBB21A00042313400BD0334B03221A702E4B1B78DBB204229343DAB22B4B1A70ABE02A4B1B78DBB21A00082313400BD0294B04221A70254B1B78DBB20822934398
:40578000DAB2224B1A7098E0234B1B78032B00D093E0214B04221A70274B1B78002B00D08BE00120FFF7FCFC031E00D085E01A4B03221A7081E03B681B881800FFF77AFE4F
:4057C0007CE01A4A3B681000190002231A0004F0B8FF124B00221A70144B1B781A0013009B009B185B009E2292009A18134BD3180133134A100019000A231A0004F0A1FF80
:40580000FFF722FE5AE0FFF709FE57E07F2B0020C00C0020B80C0020762B0020782B002014120020A80B0020180E00207C2B0020642B0020682B00207E2B002000EB010089
:405840006C2B00203B685B88162B05D81E23FB183A6852881A8003E01E23FB1817221A801E23FB1819883B681A8800231204120C1B0C1B041343180012F05AF81EE03B681F
:405880001800FFF789FD19E03B681800FFF7BEFD14E0174B1B7801221343DAB2144B1A700CE0C0460AE0C04608E0C04606E0C04604E0C04602E0C04600E0C0460D4B1B78B9
:4058C000DBB21A00112313400ED00A4B1B78DBB201229343DAB2074B1A70074B1B68FA1D1278396810009847C046BD4608B080BD602B00207F2B0020642B002080B500AFBA
:40590000C046BD4680BDC04680B584B000AF0200FB1D1A700E4B1B68DAB20F23FB1801218A431A70FB1D1B7801221340D9B20F23FB180F22BA1812780A431A70044B0F2264
:40594000BA1812781A60C046BD4604B080BDC0460005044080B584B000AF0200FB1D1A700F4B1B68DAB20F23FB1840218A431A70FB1D1B789B01DBB240221340D9B20F23A0
:40598000FB180F22BA1812780A431A70044B0F22BA1812781A60C046BD4604B080BDC0460001044080B582B000AF094B1B68DAB2FB1D10210A401A70054BFA1D12781A60D4
:4059C000FB1D1B781B09DBB21800BD4602B080BD1001044080B584B000AF0200FB1D1A700F4B1B68DAB20F23FB1802218A431A70FB1D1B78DB18DBB202221340D9B20F23A9
:405A0000FB180F22BA1812780A431A70044B0F22BA1812781A60C046BD4604B080BDC0460005044080B500AF00F054F8054B180000F010F8032000F01BF800F041F8C0467B
:405A4000BD4680BD495A000080B500AFC046BD4680BDC04680B582B000AF7860034B7A685A64C046BD4602B080BDC0460000002090B585B000AF0200FB1D1A700E23FB60C0
:405A80000B23FC1800F0B5FE030023700A4B0A4A12680A491140FA1D1078FA68904002000A431A600B23FB181B78180000F0A5FEC046BD4605B090BD00E400E0FF3FFFFF80
:405AC00080B500AF024B02221A60C046BD4680BD00E100E080B500AF024B02221A60C046BD4680BD80E100E080B500AF024B02221A60C046BD4680BD80E200E080B584B0BA
:405B000000AF0200FB1D1A700F4B1B68DAB20F23FB1802218A431A70FB1D1B78DB18DBB202221340D9B20F23FB180F22BA1812780A431A70044B0F22BA1812781A60C046B8
:405B4000BD4604B080BDC0460004044080B584B000AF0200FB1D1A700F4B1B68DAB20F23FB1840218A431A70FB1D1B789B01DBB240221340D9B20F23FB180F22BA181278DB
:405B80000A431A70044B0F22BA1812781A60C046BD4604B080BDC0460003044080B584B000AF0200FB1D1A700F4B1B68DAB20F23FB1820218A431A70FB1D1B785B01DBB2DB
:405BC00020221340D9B20F23FB180F22BA1812780A431A70044B0F22BA1812781A60C046BD4604B080BDC0460001044080B584B000AF0200FB1D1A700E4B1B68DAB20F23EB
:405C0000FB1801218A431A70FB1D1B7801221340D9B20F23FB180F22BA1812780A431A70044B0F22BA1812781A60C046BD4604B080BDC0460004044080B584B000AF0200CB
:405C4000FB1D1A700F4B1B68DAB20F23FB1810218A431A70FB1D1B781B01DBB210221340D9B20F23FB180F22BA1812780A431A70044B0F22BA1812781A60C046BD4604B02C
:405C800080BDC0460003044080B584B000AF0200FB1D1A700F4B1B68DAB20F23FB1820218A431A70FB1D1B785B01DBB220221340D9B20F23FB180F22BA1812780A431A70FB
:405CC000044B0F22BA1812781A60C046BD4604B080BDC0460003044080B584B000AF0200FB1D1A700D4B1B68DAB20F23FB187F210A401A70FB1D1B78DB01D9B20F23FB18D4
:405D00000F22BA1812780A431A70044B0F22BA1812781A60C046BD4604B080BD0003044080B500AF00F06CF8C046BD4680BDC04680B500AF064B064A1268802109060A43E8
:405D40001A6000F019F800F01DF8C046BD4680BD0000244080B500AF064B1B78002B04D1FFF7DEFF034B01221A70FFF7E1FFC046BD4680BD1C12002080B500AFC046BD460C
:405D800080BDC04680B500AF00F08CF8C046BD4680BDC04680B582B000AF00237B60044B1B687B607B681800BD4602B080BDC0464003244080B582B000AF054B1B681F2277
:405DC00013407B607B681800BD4602B080BDC0460803244080B582B000AF7860C046064B1B681F221340082BF9D0044B7A681A60C046BD4602B080BD080224404002244004
:405E000080B500AF174B184A1A60184B184A1A60184B194A1A60194B07221A60184B164A1A60184B00221A60174B00221A60174B00221A60164B00221A60164B00221A6088
:405E4000154B00221A60154B00221A60134B1B689AB2134B1A80002000F032F8C046BD4680BDC046000024400F000001200024400D000080000324400701008004032440A0
:405E80000002244004022440880E2440C80E2440480F2440080F2440C80F2440880F24401E12002080B500AF034B044A12881A60C046BD4680BDC046880F24401E120020F7
:405EC00080B584B000AF78600A4B1B68FB60FB68094A1340FB607B689A06C0231B051340FA681343FB60034BFA681A60C046BD4604B080BD20002440FFFFFFF390B585B01D
:405F000000AF78600F23FC1800F073FC030023700A4B7A68D104E02292031140074A1268074802400A431A600F23FB181B78180000F063FCC046BD4605B090BD00010B40F2
:405F4000FFFFC7FF90B585B000AF78600C23FC1800F04FFC030023707B68022B00D8B3E07B68302B00D9AFE05E4B1B78DBB21A007B689A420AD35C4A0F23FB1812781A70A9
:405F80005A4A0E23FB1812781A703FE0584B1B78DBB21A007B689A420AD3564A0F23FB1812781A70544A0E23FB1812781A702DE0524B1B78DBB21A007B689A420AD3504A44
:405FC0000F23FB1812781A704E4A0E23FB1812781A701BE04C4B1B78DBB21A007B689A420AD34A4A0F23FB1812781A70484A0E23FB1812781A7009E0464A0F23FB181278D1
:406000001A70454A0E23FB1812781A707B68DA1E0B23FB1841498A5C1A700B23FB181B782F2B0DD97B682A2B0AD93D4B19221A60052000F0D5FB0D23FB1819221A7007E099
:40604000374B1B68DAB20D23FB183F210A401A700B23FA180D23FB1812781B789A4208D22F4B7A68033A2D498A5C1A60052000F0B7FB7B68284A9A180A23FB1812781A7031
:40608000284B0A22BA1812781A60274B0F22BA1812781A60254B0E22BA1812781A60052000F0FEF80B23FA180D23FB1812781B789A420CD91A4B7A68033A18498A5C1A60CB
:4060C000052000F08DFB02E0002000F0B7F80C23FB181B78180000F090FBC046BD4605B090BDC04640F3FF0F41F3FF0F42F3FF0F43F3FF0F44F3FF0F45F3FF0F46F3FF0F0D
:4061000047F3FF0F48F3FF0F49F3FF0F4AF3FF0F4BF3FF0F4CF3FF0F4DF3FF0FACDF01002CFF0B4028FF0B401CFF0B4020FF0B4080B584B000AF78600023FB60154B154AE1
:40614000126801210A431A60134B144A1A60144B134A1268802109020A431A607B68002B12D01023FB600CE0012000F099F800F019F8031E02D00023FB6005E07B68013B5B
:406180007B607B68002BEFD1FB681800BD4604B080BDC04660F02E4078002E400220000010002E4080B582B000AF054B1B68012213407B607B681800BD4602B080BDC04650
:4061C0000C002E4080B584B000AF02003960FB1D1A7080239B05FB60FB1D1B781F2B02D9002000F02BF8FB1D1B7810339B00FA68D3181B68BB60FB1D1B7810339B00FA68D0
:40620000D3183A681A60BB681800BD4604B080BD80B582B000AF0200FB1D1A70064BFA1D12781F210A40012191400A001A60C046BD4602B080BDC04600E100E080B582B055
:4062400000AF0200FB1D1A7001BEC046BD4602B080BDC04680B582B000AF786009E00D4B1B68180000F0BCFA7B680B4A944663447B607A6880231B029A42F0D8074B1B68EF
:406280007A685343180000F0ABFAC046BD4602B080BDC0462C0E00200080FFFF240E002080B582B000AF0200BB1D1A80BB1D1B88044A12785343180000F092FAC046BD4681
:4062C00002B080BD280E002080B500AF164B164A1268920092081A60144B144A1268920092081A60124B124A1268920092081A60104B104A1268920092081A600E4B0E4A58
:406300001268920092081A600C4B0C4A1268920092081A600A4B0A4A1268920092081A60C046BD4680BDC04608000440080104400802044008030440080404400805044084
:406340000806044090B583B000AFFC1D00F051FA03002370074B074A126804218A431A6030BFFB1D1B78180000F047FAC046BD4603B090BD10ED00E090B583B000AFFC1D28
:4063800000F037FA03002370114B114A1268520052081A600F4B104A128892B21A600F4B0E4A126804210A431A600D4B1B683B600220FFF7A3FD30BF094B3A681A60FB1D06
:4063C0001B78180000F019FAC046BD4603B090BD00000B400C000B4052F2FF0F10ED00E000010B4090B583B000AFFC1D00F001FA03002370FFF768FF114B114A12688021D9
:4064000009060A431A600F4B0F4A128892B21A600E4B0E4A126804210A431A600C4B0C4A1268FF218A43F1210A431A6030BFFB1D1B78180000F0E1F9C046BD4603B090BDF2
:4064400000000B400C000B4050F2FF0F10ED00E02C000B4080B500AF0F4B0F4A126801218A431A600C4B0C4A126802218A431A600A4B0A4A126830218A4310210A431A6092
:40648000064B064A126807218A4301210A431A60C046BD4680BDC04600F02E4000FF2E4080B500AF0F4B0F4A126802218A431A600D4B0D4A126807218A4302210A431A6049
:4064C000094B094A126830218A4320210A431A60044B044A126801210A431A60C046BD4680BDC04600F02E4000FF2E4080B500AFFFF7B0FF044B044A1268802109060A43A1
:406500001A60C046BD4680BD00F02E4080B584B000AF78600C4B1B6801221340FB607B68002B02D0012B03D005E0FFF793FF06E0FFF7B6FF03E00020FFF780FEC046FB68E5
:406540001800BD4604B080BD00F02E4090B583B000AFFC1D00F04DF903002370074B074A1268C02109020A431A60FB1D1B78180000F043F9C046BD4603B090BD00010B4091
:4065800080B500AF054B1A68C0231B02134001D0012300E000231800BD4680BD00010B4090B583B000AFFC1D00F023F9030023700D4B0D4A12680D490A408021C9010A43D3
:4065C0001A60094B084A126808490A40802109020A431A60FB1D1B78180000F00EF9C046BD4603B090BDC04600010B40FF3FFFFF90B585B000AF78600B23FC1800F0F9F87E
:4066000003002370FFF7BCFF031E04D00123FB60FFF7C6FF01E00023FB607B680D4A13407B600D4B0C4A12680C4911407A680A431A60094B1B68FB68012B01D1FFF786FFF3
:406640000B23FB181B78180000F0D7F8C046BD4605B090BD0404040010020B40FBFBFBFF80B584B000AF786039600023FB607B68022B0AD8094B7A689200D358FB60074B72
:406680007A6892003968D15002E00020FFF7D6FDFB681800BD4604B080BDC0462C12002080B582B000AF78607B68022B13D80D4B7A689200D358DA430B4B1B681A400A4B81
:4066C0001A60084B7A689200D258084B1B681A43064B1A6002E00020FFF7B0FDC046BD4602B080BDDCDF010028120020380E002080B500AF344B1B68042213401FD0334B4C
:406700001B680422134017D0314B1B6804221340DA432E4B1B681A402C4B1A602C4B1B68042293431A002A4B1A602A4B1B68002B02D0284B1B6898470420FFF759FF224BF2
:406740001A688023DB00134022D0204B1A688023DB00134017D01E4B1A688023DB001340DA431A4B1B681A40184B1A60184B1B68194A1A40164B1A60164B5B68002B02D098
:40678000144B5B6898478023DB001800FFF730FF0D4B1A688023DB02134011D00B4B1A688023DB02134006D00A4B9B68002B02D0084B9B6898478023DB021800FFF718FFDF
:4067C000C046BD4680BDC04610020B40380E0020281200202C120020FFFBFFFF000000000230800803D00138FDD1C046C046C0467047EFF3108072B6704780F3108870476A
:4068000010B500F061F810BDF0B546464F46C0B48DB004000D0000F013F9294B009001911B785BB29846013312D022002B002000290003F0B3FD8146002809D10026002780
:4068400032003B002000290001F05CF9002806D1009801990DB00CBC90469946F0BD01230293184B0694079503934B460A93434604940595002B15D03B003200300039004D
:4068800002F09AFB434608900991022B0CD103F01DFF212303600A9B0093002B0AD108980999D7E70896099702A800F061FB0028F1D1ECE703F00AFF0A9B00930360EEE73B
:4068C00060110020E8DF0100F8B515004F4646465A001C006B42C0B42B434B4F5208DB0F88461343BB423AD84B005B0899464E4643420343DB0F3343BB4230D8434BE3186C
:406900002B4343D00226A3171E40CB0F1E434B4603432ED013002B4332D0BA4241D0B9452ED04B469A1A12153C2A32DC002C55DB2A00230002F040FB00F016FB00F076F9E4
:40694000012E46D0022E39D0002E0ED0304A314B03F0D0F9304A314B03F0CCF905E002000B002800210001F0FBFF0CBC90469946F8BD022E10D0032EF7D127482849F4E711
:4069800043462548002B0ADB2649EEE700F04EF9EBE721482349D3E71F482049E5E72249E3E791451FD0022EF6D0032EE5D000200021012ED9D180210906D6E7144A154B3E
:4069C00003F098F902000B001348144903F092F9CBE7802424060B191900C6E73C32A7DA00200021ACE7022E06D0032E09D00A48012E04D00D49B8E70D480E49B5E70E49AA
:406A0000B3E70B480D49B0E70000F07F000010C0075C143326A6A13C182D4454FB210940FB2109C0FB21F93FFB21F9BFFB21E93FD221337F7CD90240FB21E9BF7CD902C040
:406A4000F0B556464D4644465F46754BF0B40A000D00190083B0060004002940994200D1BAE0002D00DC94E02D1500D1A3E06D4B12039C468023120B5B0365441A43EB07BB
:406A800000D581E06B109846E30F9B189B18802216210026002764009203B818984202DC87181B1AB618E00F5B0001391B18640052080029F1D100220192944680221206FD
:406AC0002020914609E09F4241D0E10FC9180138CB186400520800281ED0614651189F42F1DA8D18AC46CD0FED07BA464D4539D0DB1B8C42BF417F42DB1B641A0199013859
:406B00008B46934459460191E10FC9185746CB18640052080028E0D123432BD1019B5B08414972108C466244F10702D5802109060B43414609058D181E002F0030003900F2
:406B400003B03CBC90469946A246AB46F0BDA1420ED88D18AC46CD0FED074D4548D09A460023CAE76546002DC2DB7D1CAA46BFE73B00AAE7019B01333ED0019A01239446BA
:406B8000134063445B08CBE7E30F52009A18640078E76B005B0803432F00002BCED00025002A31D1E20A153D6405002AFAD080235B031A4223D180200023400300E00B00D3
:406BC0005200591C0242FAD02020401AED1A2300C3408C401A434AE702002B00290002F00FFE32002B0001F0BBFE06000F00A5E76546002DB9DAB2E70136002390E70123A9
:406C000020205B420021E1E73B000200390003F071F802000B0002F0CFF906000F008DE70000F07F01FCFFFF0000E03FF8B556464D4644465F46A54BF0B44E008046894661
:406C40008A4676089E420CDDA14B9E4200DDA0E000D19BE05346002B00DCE3E09D4B9E4A9FE09E4B9E4200DDB1E09D4B9E4200DC9FE001235B429B4642464B4640464946AC
:406C800002F0BEFD02000B0006000F0002F0B8FD04000D00934A944B02F0B2FD934A944B01F05EFE22002B0002F0AAFD914A924B01F056FE22002B0002F0A2FD8F4A904B72
:406CC00001F04EFE22002B0002F09AFD8D4A8E4B01F046FE22002B0002F092FD8B4A8C4B01F03EFE32003B0002F08AFD894A8A4B06000F002000290002F082FD874A884BF4
:406D000002F0F8FF22002B0002F07AFD854A864B02F0F0FF22002B0002F072FD834A844B02F0E8FF22002B0002F06AFD814A824B02F0E0FF22002B0002F062FD0B005946B9
:406D40000200013100D170E059463000CC00390001F006FE42464B4602F052FD774D784B2D191C192268636802F0C4FF42464B4602F0C0FF02000B002868696802F0BAFFAC
:406D800053460A00002B48DB03000AE0002800D160E742464B464046494601F0E1FD03000A00180011003CBC90469946A246AB46F8BD644A644B01F0D3FD0022634B00F069
:406DC000B5FE002800D154E743464A46E9E700F0CBF85F4B04000D009E4237DC5D4B9E425DDC02000B0001F0BBFD0022574B02F081FF802306000F000022DB0520002900B2
:406E000001F0AEFD0B0002003900300002F0D4F80023804689469B462EE78022120603008A18BEE72B4B4C4ABBE73000390001F097FD42464B4602F0E3FC02000B004046B7
:406E4000494602F057FF03000A00AAE7434B9E421ADC0022424B02F04DFF002206000F003F4B2000290002F0CBFC0022374B01F077FD0B0002003900300002F09DF802235E
:406E8000804689469B46F7E60B0002003549002002F092F80323804689469B46ECE600222A4B02F027FF002206000F00274B2000290001F055FD0B0002003900300002F09E
:406EC0007BF80123804689469B46D5E6FFFF0F440000F07F182D4454FB21F93FFFFFDB3FFFFF1F3E11DA22E33AAD903FEB0D76244B7BA93F513DD0A0660DB13F6E204CC580
:406F0000CD45B73FFF8300922449C23F0D5555555555D53F2F6C6A2C44B4A2BF9AFDDE522DDEAD3F6D9A74AFF2B0B33F711623FEC671BC3FC4EB98999999C93F10E0010012
:406F4000F0DF01009C7500883CE4377E0000F03FFFFFF23FFFFFE53FFB21F9BFFF7F03400000F83F0000F0BF49004B08190070470020704780B5CCB000AFF860B960844BF5
:406F8000982149008C46BC4463441A80002392225200BA181360002390225200BA181360BB688A225200BA181360794B982252009446BC4463441A888A235B00FB181B68EB
:406FC000D318744A934200D9C2E08A235B00FB181B681B0A96225200BA18136096235B00FB181B681B028E225200BA1813609AE000238C225200BA1813600023942252006B
:40700000BA1813606BE08E235B00FB181A688A235B00FB181B689A423DD35D4B982252009446BC4463441A8892235B00FB181B689A4230D9FA6892235B00FB181B68D31840
:407040001978554B98225200BA18D21894235B00FB181B68D3180A1C1A708E235B00FB181B681B78DAB2F96892235B00FB181B68CB181B789A4204D001238C225200BA18F0
:40708000136092235B00FB181B68013392225200BA18136011E08E235B00FB181B681B78D9B23D4B98225200BA18D21894235B00FB181B68D3180A1C1A708E235B00FB18D5
:4070C0001B6801338E225200BA18136094235B00FB181B68013394225200BA18136094235B00FB181B68FF2B8DD98C235B00FB181B68002B0ED01423FA1896235B00FB1818
:407100001B681100180000F057FA030090225200BA18136096235B00FB181B68013396225200BA1813601A4B982252009446BC4463441A8892235B00FB181B689A420CD9EE
:4071400090235B00FB181B68002B00D150E704E0012390225200BA18136090235B00FB181B68002B0BD090235B00FB181B68012B05D001235B4290225200BA1813609023DB
:407180005B00FB181B681800BD464CB080BDC046D6FEFFFFFFFF0300E4FEFFFF80B582B000AF78600A00BB1C1A80BB1C1A887B681A60C046BD4602B080BDC04680B582B02D
:4071C00000AF78600A00BB1C1A80BB1C1A887B681A60C046BD4602B080BDC04680B584B000AF494B1B78DBB21B02484A1278D2B21343FB60464B1B78DBB21B02454A127898
:40720000D2B21343BB60BB68434A934207D1FB68072B04D1414BBB600423FB6009E0BA68D4231B019A4204D1FB68042B01D13B4BBB603B4BBA681A603A4BFA681A603A4B8D
