:400000000080002011000000095B0000095B000080B500AF05F0ACFD80B500AF2A4B12221A6007F0A7F8294B180007F01DFA012007F0B0F8302006F0FFFD254B254A1A6033
:40004000254B8022D2051A60244B244A126802210A431A60224B234A1A60234B00221A60224B224A126808218A431A60FA23DB00180006F0D7FE1E4B180006F08BFF1D4B77
:40008000802212061A601C4B802212031A601B4B1900082006F010FF082006F033FF0E4B174A1A60174B802212031A60C046154B1A6880231B031340F9D1124B8022520298
:4000C0001A60C046BD4680BD30001040001BB70004010B40060000800C020B4078002E407C002E406A2D000064F02E406CF02E40DC05000008010B4000010B40797300005F
:400100000000014E10020B4080B582B000AF72B6344B00221A60FB1D00221A7022E0FB1D1A7813005B009B185B002F4A9B183B603B681A78597809020A43997809040A433E
:40014000DB781B06134318003B681A795B791B0213439BB2190005F0B3FCFB1D1A78FB1D01321A70FB1D1B78012BD8D91F4BEE2212061A601E4B992212041A601D4B99222C
:4001800012041A601C4B992212041A601B4A1B4B1B78DBB206210B43DBB21370184B20221A60184B184A1A60184B50221A60184B184A1A60184B802292001A60174B184ACC
:4001C0001A60184B01221A60174B36221A60174B06221A60FFF720FF05F082FCC046BD4602B080BD6CF02E40D01002000000024000500F4010500F4030500F4000700F4003
:40020000000004400800044000E0D80000010440080104400020DB000C010440080304400090380000040440080404400805044010B5064C2378002B07D1054B002B02D096
:40024000044800E000BF0123237010BDF811002000000000CCF40100084B10B5002B03D00749084800E000BF07480368002B00D110BD064B002BFBD09847F9E70000000047
:40028000FC110020CCF40100A80B00200000000080B586B000AFA94B18000BF0ADFD012006F05EFA002006F023FB002006F052FB0A2006F049FE002006F0FAFB0A2006F01A
:4002C00043FE012006F0F4FB642006F03DFE9C4B18000BF091FD9B4B18000BF08DFD002006F03EFA642006F055FE012006F038FA0A2006F029FE002005F0CAFB924B18007D
:400300000BF07AFD0023FB600023BB601723FB1800221A7001233B6145E08023DB00180002F06EFC0300FB60884B180002F068FC0300BB60BB68FA68396985480BF0CCFC4B
:40034000FB68844A934210D1BB68834A934203D0BB68824A934208D11723FB1801221A707F4B18000BF048FD20E0FB68002B03D17C4B18000BF040FDFB687B4A934203D1FB
:400380007A4B18000BF038FD002006F0E9F9142006F000FE012006F0E3F9322006F0D4FD3B6901333B613B69032BB6DD1723FB181B78002B03D16E4B18000BF01DFD6D4BAE
:4003C00018000BF019FD02F039FC6B4B18000BF013FD642006F0B8FD684B18000BF00CFD674B180004F0CCFD654B1B68002B04D1644B18000BF000FD9CE0012003F0E2FDEE
:400400005F4B1B6801221A705D4B1B6800225A605B4B1B68802292009A60594B1B680022DA60574B1B68802292001A61544B1B68554A9A61524B1B68544ADA61504B1B685A
:40044000514A1A624E4B1B6800229A634C4B1B684F4A9A624A4B1B6801225242DA62484B1B6804225A62464B1B684A4A1A63444B1B68494A5A63424B1B686422002199544D
:400480003F4B1B6808229A643D4B1B680722DA643B4B1B6804221A65394B1B683F4ADA65374B1B6800221A66354B1B680122DA63334B1B68402201219954314B1B6841223A
:4004C000032199542E4B1B6800225A642C4B1B686C22002199542A4B1B68982200219954274B1B689C22002199502D4B18000BF083FC80239A002B4B1100180005F056F8D3
:4005000003007B607B68002B0ED1274B18000BF073FC1B4B1B686C229B5C1A00234B110018000BF0D9FB05E07A68214B110018000BF0D2FBBD4606B080BDC046D0F4010029
:40054000F8F401001CF5010048F501000404000074F50100444100000155000002550000A8F50100C8F50100FFFF000008F6010048F6010084F60100C0F60100E0F60100F9
:400580000C30002018F701000024744B0000FA460000204100401C46C3F5E83F0080894434F70100042800205CF701008CF70100A8F7010080B586B000AF714B18000BF0A4
:4005C0001BFC00233B610023FB600023BB6000237B6000237B616B4B18000BF00DFC00237B6113E08023DB00180002F009FB03003B617B69591C3A69634B18000BF06CFB59
:40060000322006F0A1FC7B6901337B617B69022BE8DD5E4B18000BF0EFFB8023DB00180002F0EEFA03003B613A69594B110018000BF052FB142006F087FC8023DB0018005B
:4006400002F0DEFA0300FB60FA68524B110018000BF042FB142006F077FC8023DB00180002F0CEFA0300BB60BA684B4B110018000BF032FB142006F067FC484B180002F0B4
:40068000BFFA03007B607A68454B110018000BF023FB444B18000BF0AFFB3B69424A934202D03B69802B3ED1FB683F4A934202D0FB68802B37D1BB683B4A934202D0BB6853
:4006C000802B30D1394B18000BF096FB384B18000BF092FB374B18000BF08EFB364B18000BF08AFB354B18000BF086FB344B18000BF082FB334B18000BF07EFB324B18000A
:400700000BF07AFB314B18000BF076FB304B18000BF072FB2F4B18000BF06EFB2E4B18000BF06AFB14E03A69FB689A4203D13A69BB689A4208D0294B18000BF05DFB284BF1
:4007400018000BF059FB03E0264B18000BF054FB254B18000BF050FB244B18000BF04CFB234B18000BF048FB224B18000BF044FB214B18000BF040FBC046BD4606B080BD8C
:40078000D8F7010004F8010040F8010064F8010094F80100B0F80100CCF8010074200000E8F8010004F901008080800010F9010040F901007CF9010090F90100D0F90100DA
:4007C00004FA01003CFA010084FA01009CFA0100D8FA010014FB010048FB010080FB0100B8FB0100F0FB010018FC010030FC010060FC010088FC0100A0FC010080B582B042
:4008000000AF394B18000BF0F7FA00237B60374B18000BF0F1FA364B1B68002B2FD0344B1B689C229A58334B110018000BF054FA2F4B1B685B6A1A002F4B110018000BF0B9
:400840004BFA2B4B1B686C229B5C1A002B4B110018000BF041FA264B1B6898229B5C1A00274B110018000BF037FA80239B041900002003F085FB0300012B0ED108E0214BF0
:4008800018000BF0B9FA204B18000BF0B5FA27E01E4B18000BF0B0FA07E01D4B18000BF0ABFA1C4B18000BF0A7FA1B4B18000BF0A3FA0F4B1B686C229B5C002B08D1174B18
:4008C00018000BF099FA164B18000BF095FA03E0144B18000BF090FA0B4B18000BF08CFABD4602B080BDC046B8FC0100E4FC01000C30002004FD01001CFD010030FD01004D
:4009000044FD01005CFD010078FD010090FD0100BCFD0100F4FD01002CFE01003CFE010074FE0100A8FE0100B0B500AF2A4B18000BF062FA294B18000BF05EFA06F006F91F
:4009400003001A00264B110018000BF0C5F906F033F903001A00234B110018000BF0BCF906F05CF903001A001F4B110018000BF0B3F91E4B18000BF03FFA1D4B18000BF0AF
:400980003BFA1C4B18000BF037FA1B4B18000BF033FA1A4B1B681B6E181C0AF0DDFB03000C0017491A00230008000BF095F9134B1B685B6D181C0AF0CFFB03000C001149F3
:4009C0001A00230008000BF087F90F4B18000BF013FAC046BD46B0BDD8FE0100FCFE010024FF010040FF01005CFF01007CFF010094FF0100D4FF0100180002000C3000205B
:400A00005800020080000200A000020090B589B002AF954B18000BF0EFF9944B18000BF0EBF900237B6108E00C23FA187B69D31800221A707B6901337B617B69032BF3DDDF
:400A400004F0F6FF022006F07FFA391D0C23FB180422180004F0A8FF022006F075FA04F0EFFF834B18000BF0C7F93B1D1B7819003B1D5B781A003B1D9B781C003B1DDB7806
:400A80007C48009323000BF027F9642006F05CFA794B18000BF0B0F900237B6108E00C23FA187B69D318FF221A707B6901337B617B69032BF3DD04F0BBFF022006F044FAD5
:400AC000391D0C23FB180422180004F06DFF022006F03AFA04F0B4FF684B18000BF08CF93B1D1B7819003B1D5B781A003B1D9B781C003B1DDB785F48009323000BF0ECF8CB
:400B0000642006F021FA5E4B18000BF075F90C23FB18AA221A700C23FB1855225A700C23FB18AA229A700C23FB185522DA7004F07FFF022006F008FA391D0C23FB18042276
:400B4000180004F031FF022006F0FEF904F078FF4C4B18000BF050F93B1D1B7819003B1D5B781A003B1D9B781C003B1DDB784148009323000BF0B0F8434B18000BF03CF999
:400B80003B1D1B78802B0BD13B1D5B78802B07D13B1D9B78802B03D13B1DDB78802B1FD03B1D1B78FF2B0BD13B1D5B78FF2B07D13B1D9B78FF2B03D13B1DDB78FF2B0FD0AB
:400BC0003B1D1B78002B42D13B1D5B78002B3ED13B1D9B78002B3AD13B1DDB78002B36D12A4B18000BF008F9294B18000BF004F93B1D1B78802B04D1264B18000BF0FCF8F9
:400C000010E03B1D1B78FF2B04D1234B18000BF0F3F807E03B1D1B78002B03D11F4B18000BF0EAF81E4B18000BF0E6F81D4B18000BF0E2F81C4B18000BF0DEF81B4B1800C1
:400C40000BF0DAF81A4B18000BF0D6F803E0194B18000BF0D1F8184B18000BF0CDF8C046BD4607B090BDC046BC000200D4000200000102001C010200400102006C01020088
:400C800088010200B401020004F90100D0010200FC0102001C02020058020200A0020200C4020200E0020200280302005403020084030200A8030200D403020080B500AFDD
:400CC000214B18000BF098F8204B18000BF094F81F4B18000BF090F81E4B18000BF08CF81D4B18000BF088F81C4B18000BF084F8FFF78CFE642006F027F9194B18000BF054
:400D00007BF8FFF757FC642006F01EF9154B18000BF072F8FFF772FD642006F015F9124B18000BF069F8FFF7FFFD104B18000BF063F80F4B18000BF05FF80E4B18000BF0E0
:400D40005BF8C046BD4680BDF0030200F4030200A4040200E404020024050200D405020000060200300602005C0602008C0602003C0702007C07020090B585B000AF78604F
:400D80000A00FB1C1A700023FB60FB1C1B78012B13D0022B21D0002B2FD178680AF0DCF91A4A1B4B08F04CFF03000C00180021000AF026FA031CFB6022E078680AF0CCF9CF
:400DC000144A154B08F03CFF03000C00180021000AF016FA031CFB6012E078680AF0BCF90E4A0F4B08F02CFF03000C00180021000AF006FA031CFB6002E00023FB60C046BE
:400E0000FB68181CBD4605B090BDC046D7A3703D0A573040B81E85EB51B844403333333333B3674080B582B000AF044B7B60044B7B607B68181CBD4602B080BD0000C84170
:400E40000000144280B586B000AF0200FB1D1A7000237B610023BB60494B180004F090F8FB1D1B78012B0DD0022B15D0002B1DD1012005F043FE002005F076FE002005F025
:400E8000A9FE13E0002005F039FE012005F06CFE002005F09FFE09E0002005F02FFE002005F062FE012005F095FEC046322006F04BF80021002004F077F803003B613B6959
:400EC000002B01D0002356E0FA235B00180006F03BF80823FA182B4B1100180004F0A4FC03003B613B69002B0DD1BB68002B0AD0244BFB60FB681B682349181C08F032F88E
:400F0000031C7B6101E000237B610021012004F04BF8322006F018F80021002004F044F803003B613B69002B01D0002323E0FA235B00180006F008F80823FA18134B1100FD
:400F4000180004F071FC03003B613B69002B0BD1BB68002B08D00D4B1B680B49181C08F001F8031C7B6101E000237B610021012004F01AF87B69181CBD4606B080BDC046FD
:400F80000C30002040120020286B6E4E0430002090B583B000AFFFF745FF021C3A4B1A600020FFF74FFF021C374B5A61364B5B690021181CFFF7E0FE021C334B5A6001209E
:400FC000FFF740FF021C304B9A612F4B9B690121181CFFF7D1FE021C2B4B9A600220FFF731FF021C284BDA61274BDB690221181CFFF7C2FE021C244BDA60234B1B68181C3E
:401000000AF0AAF80022214B09F0B8FC03000C00180021001E4A1F4B09F036FA03000C001800210000221C4B08F0DEFA03000C00180021000AF0E4F8031C7B60124B5B68BD
:401040007968181C07F08EFF031C1A1C0E4B5A600D4B9B687968181C07F084FF031C1A1C094B9A60084BDB687968181C07F07AFF031C1A1C044BDA60084B1A68024B1A614C
:40108000C046BD4603B090BD2012002000804240B81E85EB51B89E3F0000F03F1812002080B582B000AF0200FB1D1A70FB1D1B78002B03D0012005F0ABFC02E0002005F017
:4010C000A7FCC046BD4602B080BDC04680B582B000AF0200FB1D1A70FB1D1B78002B03D0012005F0BDFC02E0002005F0B9FCC046BD4602B080BDC046F0B595B002AFAE4BDF
:401100001B78022B00D052E1AC4B1B781A0007231340072B00D923E19A00A94BD3181B689F4604F08DFC642005F034FF05F040FB03001A00A349A44B18000AF067FE0FE123
:4011400004F076FC642005F025FF05F031FB03001A009E499C4B18000AF058FE04F070FCFEE01C23FA189A4B1000190006231A000AF02BF91423FB18180006231A00002134
:401180000AF02CF904F05CFC0A2005F003FF04F04FFC0A2005F0FEFE1423F9181C23FB180622180004F000FC0A2005F0F3FE04F047FC1423FB189B781C001423FB18DB7822
:4011C0001D001423FB181B791A001423FB185B7980497D48019300922B0022000AF016FEBEE08023DB00180001F00AFD03003B643A6C7949744B18000AF008FEB0E0774B4E
:40120000180001F0FDFC0300FB63FA6B74496E4B18000AF0FBFDA3E0704B180001F0F0FC0300BB633723FB18BA6B1A70BB6B1A0A3623FB181A70BB6B1A0C3523FB181A7075
:401240003723FA183623FB1812781B789A4210D13623FA183523FB1812781B789A4208D13723FB181A785F49574B18000AF0CEFD76E03723FB181A783623FB181C78352341
:40128000FB181B7858495048009323000AF0BEFD66E00C23FA18554B1000190006231A000AF093F83B1D180006231A0000210AF095F804F0C5FB142005F06CFE04F0B8FB83
:4012C000142005F067FE00237B6414E00C23FA187B6CD3181B78180004F00CFB0300D9B23A1D7B6CD3180A1C1A70142005F052FE7B6C01337B647B6C052BE7DD142005F0D3
:4013000049FE04F09DFB3B1D1B791B021AB23B1D5B791BB213431AB23223FB181A803223FB181A883249284B18000AF06FFD17E005F03EFA03001D0005F0FEFA03001E0020
:4013400005F030FB03001C0005F0C4FA030029491D480193009433002A000AF057FDC046164B1B780133DAB2144B1A702423FB1817221A812423FB18134A1A60124B180057
:401380000AF066FD03009AB22423FB189A802423F918194B1A785B781B021A4300231204120C1B0C1B041343180018F0E9FAC046BD4613B0F0BDC0464230002040160020F5
:4013C000F80802002C080200441600203C080200E80802004C08020064080200040400007C08020094080200A8080200F0080200BC080200CC08020048300020B0B588B096
:4014000002AF424B1B78022B00D07BE0404B1B781A0003231340012B16D002DC002B05D04DE0022B26D0032B36D048E08023DB00180001F0E5FB03007B617A693549364B0E
:4014400018000AF0E3FC3AE0344B1B68002B04D0324B1B686C229A5C00E063221323FB181A701323FB181A782D492B4B18000AF0CDFC24E0294B1B68002B04D0274B1B6813
:401480009C229B5800E00023FB60FA682549224B18000AF0BBFC12E005F058FB03001C0005F08AFB03001D0005F0B8FB03001E49194800932B0022000AF0A8FCC046144BCE
:4014C0001B780133DAB2124B1A703B0012221A813B00114A1A60104B18000AF0B9FC03009AB23B009A803900104B1A785B781B021A4300231204120C1B0C1B041343180054
:4015000018F03EFAC046BD4606B0B0BD423000207616002018090200781600200C300020240902002C0902003809020048300020B0B586B002AF494B1B78022B00D089E0BA
:40154000474B1B780521180007F01AF80B00DBB2042B5CD89A00434BD3181B689F46002005F0C6F90A2005F0EFFC05F0E5F903001A003D493D4B18000AF048FC47E001200F
:4015800005F0B6F90A2005F0DFFC05F0D5F903001A003749354B18000AF038FC37E005F007F903001C0005F0FDF903001D0005F091F903002F492D4800932B0022000AF0E8
:4015C00025FC24E00023FB600EE0012005F090F90A2005F0DFFC002005F08AF90A2005F0D9FCFB680133FB60FB68092BEDDD1F4B214A13CA13C31168196012791A7106E06C
:401600001A4B1E4A13CA13C313CA13C3C046144B1B780133DAB2124B1A703B0012221A813B00124A1A60114B18000AF011FC03009AB23B009A803900114B1A785B781B0287
:401640001A4300231204120C1B0C1B041343180018F096F9C046BD4604B0B0BD42300020A0160020B00902004C090200A41600205C0902006C0902008409020098090200DD
:401680004830002080B500AF0A4B1B78022B0ED1FFF74EFF322005F057FCFFF72DFD322005F052FCFFF7AAFE322005F04DFCC046BD4680BD4230002080B500AF0D4B1B7853
:4016C000032B0BD10C4B1B7801225340DAB20A4B1A70094B1B78180005F072F9074B1B685A1C064B1A60064B01221A70C046BD4680BDC04642300020AC0B00201812002063
:401700001C12002080B582B000AF786039607B68272B0DD004D8012B07D0262B0FD024E0282B09D0FA2B1DD01FE000F01FFA1CE0012005F045F918E000F018FA15E00D4BD2
:401740001B78042B10D1012005F03AF9002004F0E1FF05F03BF805F0B3F805F04FF805F085FC01E0C04600E0C046C046BD4602B080BDC0464230002080B500AF002005F0B9
:4017800097F9142005F0E0FB012005F091F9642005F0DAFBC046BD4680BDC04690B587B000AF62B6012004F0B5FF012005F008F9C34B18000AF020FBC24B180004F084FA66
:4017C00003001A00C04B1A80BF4B1B88002B04D0BE4B18000AF010FB03E0BD4B18000AF00BFBBC4B18000AF007FB002005F080F80A2005F0A9FBB84B18000AF0FDFAB74BD9
:4018000018000AF0F9FA0F23FC1805F095F8030023700E23FC1805F0C5F8030023700D23FC1805F057F8030023700C23FC1804F0BFFF030023700F23FB181A78A84B110034
:4018400018000AF049FA0E23FB181A78A54B110018000AF041FA0D23FB181A78A24B110018000AF039FA0C23FB181A789F4B110018000AF031FA9E4B18000AF0BDFA0020F9
:4018800005F036F8012005F085FB0B23FC1805F053F803002370012005F02AF8012005F079FB0A23FC1805F047F8030023700B23FB181A788F4B110018000AF00DFA0A2386
:4018C000FB181A788C4B110018000AF005FA0B23FB181B78002B09D10A23FB181B78012B04D1864B18000AF087FA03E0844B18000AF082FA0A200AF009FAFFF73DFF814BD4
:40190000180001F07DF903007B607F4B18000AF073FA002005F07CF8002005F0A1F8002005F0ECF8002005F01FF9002005F052F9764B18000AF060FA754B18000AF05CFAEF
:40194000FEF7A6FC734B18000AF056FA724B1900022005F0C9FC022005F0E6FC6F4B18000AF04AFA6E4B18000AF046FAFA235B00180005F0E9FAFFF7A1F9FA235B00180062
:4019800005F0E2FA674B18000AF036FA00237B610FE0642005F0D8FA7B6964337B61624B1B686C229B5C19007A69604B18000AF093F95D4B1B686C229B5C002B03D17B6945
:4019C0005B4A9342E5D9584B1B686C229B5C012B0CD1584B18000AF00FFA012005F08EF8012005F0C1F8012005F0F4F84E4B1B686C229B5C012B04D14F4B18000AF0FCF98D
:401A000003E04E4B18000AF0F7F900233B614C4B18000AF0F1F94B4B18000AF0EDF90CF07FFB494B1B78DBB2002B3CD0464B00221A70FFF7ADFA454B1A683B69D31A022B3D
:401A400008D9424B1B683B61414B1B78022B01D1FFF718FE3F4B1B683F49181C06F0E4FE031E07D13B4B9B683C49181C06F0DCFE031E09D00120FFF713FB394B180005F053
:401A800063FA0020FFF70CFB324B5B683549181C06F0CAFE031E03D00120FFF717FB02E00020FFF713FB304B1B78002BB7D0002004F0A2F903001A00034B1A80AFE7C046C9
:401AC000C40902000517000000280020DC090200000A0200180A02004C0A02006C0A0200980A0200C40A0200D80A0200EC0A0200180B0200380B0200540B0200700B020034
:401B0000940B020004040000C80B0200EC0B02000C0C02002C0C0200B9160000500C0200640C0200980C02000C300020C40C020087130000EC0C0200140D02003C0D020065
:401B4000700D0200900D02001C12002018120020423000202012002000001A420000A04010270000000020412C30002080B584B000AF002004F01AFA03001A001F4B1A801A
:401B80001E4B1B88002B08D01C4B1B881A001C4B110018000AF0A0F82BE01A4B18000AF09BF83B1D00229A713B1D18000CF0B4FA0E23FB1806221A8012E00E23FB181B883D
:401BC000013B3A1DD35C1A000F4B110018000AF083F80E23FB181A880E23FB18013A1A800E23FB181B88002BE7D1084B18000AF003F9C046BD4604B080BDC046002800209F
:401C0000A80D0200C40D0200DC0D0200E40D020080B584B000AF7860104B5A690F4BDB68D318FB600D4B5A68FB689A420DD90B4B9A680A4BDB689B00D3187A681A60074BE8
:401C4000DB685A1C054BDA6003E0044B042252429A61C046BD4604B080BDC0461030002080B584B000AF786039607B689B08FF2213407B600023FB6011E00E4B1A69FB68CE
:401C80009B00D3181B781A007B689A4204D13B68FA681A60002309E0FB680133FB60054BDA68FB689A42E8D807235B421800BD4604B080BD1030002080B582B000AF78602E
:401CC00039607B689BB2180000F09CFE02003B681A6000231800BD4602B080BD80B584B000AF02003960BB1D1A80184B5A69174BDB68D318FB60154B5A68FB689A421DD9A0
:401D0000124B1B691A1F114B1A61104B1B69BA1D1288920892B2D2B21A700C4B1B693A681202120A12021968FF2001400A431A60064B5B695A1C054B5A6103E0034B042220
:401D400052429A61C046BD4604B080BD1030002080B584B000AF0200BB1D1A80BB1D1B880C22BA1811001800FFF77AFF031E0FD0BB1D1B880822BA1811001800FFF79CFFAA
:401D8000BA68BB1D1B8811001800FFF7A7FF07E0064B1A69FB689B00D3181B681B0ABB60BB681800BD4604B080BDC0461030002080B584B000AF02003960BB1D1A80BB1DC8
:401DC0001B88274A934204D9264B052252429A6143E0BB1D1B880C22BA1811001800FFF73FFF031E20D11F4B1A69FB689B00D3183A681202120A12021968FF2001400A43FF
:401E00001A60BB1D1B889B089BB21A06FE23DB051A403B681B021B0A13438022120613431800FFF7F5FE18E03A68BB1D1B8811001800FFF753FFBB1D1B889B089BB21A06E5
:401E4000FE23DB051A403B681B021B0A13438022120613431800FFF7DBFEBD4604B080BDFF2100001030002080B582B000AF786039603B68012B1BD90F4B3A685A600E4B08
:401E80007A689A603B680D4A944663449B007A68D218094B1A61084B0022DA60064B00225A61054B00229A61034B00221A7000E0C046BD4602B080BD10300020FFFFFF3FDD
:401EC00080B584B000AF786039607B68002B03D0094B9A687B681A603B68002B03D0064BDA683B681A60044B9B69FB60FB681800BD4604B080BDC0461030002080B582B08A
:401F000000AF0200FB1D1A70FB1D1B78002B03D1084B00221A7008E0064B0022DA60054B00229A61034B01221A70C046BD4602B080BDC0461030002080B586B000AFB96017
:401F400011007B600F23FB18021C1A700E23FB180A1C1A7000237B6111E07B69BA68D3181B780F22BA1812789A4205D17B69DAB27B681A70012309E07B6901337B610E23D2
:401F8000FB181A787B699A42E7DC00231800BD4606B080BD80B58EB000AF786039607B68DB68012B03D17B681B68022B07D07B68DB68002B2CD17B681B68022B28D0302379
:401FC000FA184A4B1000190005231A0009F0FDF92823FA18464B1000190005231A0009F0F4F97B685B68D8B22723FB183022B9180522FFF7A1FF031E6CD02723FB181B78E7
:402000001A002823FB189A5C3B681A70012368E07B68DB68002B2CD17B681B68022B28D12423FA18334B1000190003231A0009F0CCF92023FA18304B1000190003231A0088
:4020400009F0C3F97B685B68D8B21F23FB182422B9180322FFF770FF031E3DD01F23FB181B781A002023FB189A5C3B681A70012337E07B68DB68012B2FD17B681B68022BBC
:402080002BD01823FA181D4B1000190006231A0009F09BF91023FA18194B1000190006231A0009F092F97B685B68D8B20F23FB181822B9180622FFF73FFF031E0DD00F23D2
:4020C000FB181B781A001023FB189A5C3B681A70012306E0C04600E0C0463B6800221A7000231800BD460EB080BDC046E80D0200F00D0200F80D0200FC0D0200000E02001B
:40210000080E020080B58CB000AF786039607B68DB68012B03D17B681B68022B07D07B68DB68002B2CD17B681B68022B28D02C23FA184A4B1000190002231A0009F045F9F8
:402140002823FA18464B1000190002231A0009F03CF97B685B68D8B22723FB182C22B9180222FFF7E9FE031E6CD02723FB181B781A002823FB189A5C3B681A70012368E0DA
:402180007B68DB68002B2CD17B681B68022B28D12423FA18334B1000190002231A0009F014F92023FA18304B1000190002231A0009F00BF97B685B68D8B21F23FB18242200
:4021C000B9180222FFF7B8FE031E3DD01F23FB181B781A002023FB189A5C3B681A70012337E07B68DB68012B2FD17B681B68022B2BD01823FA181D4B1000190006231A0059
:4022000009F0E3F81023FA18194B1000190006231A0009F0DAF87B685B68D8B20F23FB181822B9180622FFF787FE031E0DD00F23FB181B781A001023FB189A5C3B681A706E
:40224000012306E0C04600E0C0463B6800221A7000231800BD460CB080BDC046100E0200140E0200180E02001C0E0200200E0200280E020090B59DB000AF78603960002307
:40228000BB663423FA18A64B1000190034231A0009F09BF82423FB18A24A13CA13C312681A603B6800221A607B68002B00D12BE13B68002B00D129E17B68DB680B2B00D988
:4022C00026E17B689B68022B00D923E17B681B69032B00D920E17B681B68042B00D90EE19A00914BD3181B689F467B685A6813009B009B189B00180007F038F9021C7B6870
:40230000DB69191C101C06F02DFE031C181C06F09FFA0300BB66F3E07B685A6813009B009B189B0028331A007B6899682423FB188900CB5853431433180007F017F9021CE4
:402340007B68DB69191C101C06F00CFE031CFC218905181C06F0C6FA031C181C06F078FA0300BB66CCE07B685B685A1C7B68D9683423FB188900CB5853430133BB667B6872
:4023800001221A60BA6E7B685A606823FA187B6811001800FFF76EFF7B6802221A60BB6E0F33BB66ACE07B681B7E1A000C23FB18DA607B689A680C23FB181A607B68DA683E
:4023C0000C23FB185A606F23FB1800221A700B23FA180C23FB1811001800FFF7DBFD031E0BD00B23FB181A786F23FB181B78D318DAB26F23FB18013A1A700A23FA180C23C1
:40240000FB1811001800FFF77DFE031E0BD00A23FB181A786F23FB181B78D318DAB26F23FB18013A1A707B6802221A607B685A686F23FB181B78D2187B685A606823FA1886
:402440007B6811001800FFF715FF7B6804221A607B685A686F23FB181B78D21A7B685A60C0464DE07B685B69012B10D01AD3022B02D0032B29D03BE07B6800221A6068233F
:40248000FA187B6811001800FFF7F4FE30E07B6801221A606823FA187B6811001800FFF7E9FE25E07B685B7E002B03D07B6802221A6002E07B6804221A606823FA187B68DB
:4024C00011001800FFF7D6FE12E07B6801221A607B685A687B681B6901339A407B685A606823FA187B6811001800FFF7C3FEC0467B6803221A60BB6E1933BB6600E0C0465C
:40250000BA6E3B681A6008E0C04606E0C04604E0C04602E0C04600E0C046BD461DB090BD300E0200640E0200740E020080B582B000AF786039603A687B680021180008F032
:402540004DFFC046BD4602B080BDC04680B588B000AFF860B9607A60274BBB6100237B610023FB61FB68254A94466344180006F0B5FF031CFB61BB68042B24D8BB689A0003
:402580001F4BD3181B689F46FF218905F86906F01FFB031CFB6119E08021C905F86906F017FB031CFB6111E08121C905F86906F00FFB031CFB6109E01249F86906F008FB9D
:4025C000031CFB6102E0C04600E0C0467968F86906F0C8FC031C8E21C905181C06F0F8FA031CB969181C06F0BDFC031C7B617B69181CBD4608B080BD110E813F0080FFFF52
:40260000880E020000001041B0B588B000AFF860B9607A607B681B68180006F05FFF041C7B681B68180006F059FF031C191C201C06F098FC031C1C1C7B685B68180006F037
:402640004DFF051C7B685B68180006F047FF031C191C281C06F086FC031C191C201C06F041F9031CFB61BB681B68180006F036FF041C7B681B68180006F030FF031C191CA8
:40268000201C06F06FFC031C1C1CBB685B68180006F024FF051C7B685B68180006F01EFF031C191C281C06F05DFC031C191C201C06F018F9031C1A1C1423FB181A6014234F
:4026C000FB181B68F969181C06F082FA031C1A1C1423FB181A60BB685B68180006F0FEFE041C7B681B68180006F0F8FE031C191C201C06F037FC031C1C1CBB681B681800DB
:4027000006F0ECFE051C7B685B68180006F0E6FE031C191C281C06F025FC031C191C201C06F034FD031C1A1C1423FB185A601423FB185B68F969181C06F04AFA031C1A1C0F
:402740001423FB185A60FB681422BA1803CA03C3F868BD4608B0B0BD90B583B000AF78607B681A687B681B68191C101C06F0FAFB031C1C1C7B685A687B685B68191C101CB6
:4027800006F0F0FB031C191C201C06F0ABF8031C181C08F0E1FC03000C001800210004F077FE03000C001800210008F029FD031C181CBD4603B090BDB0B582B000AF78605C
:4027C0007B685B68181C08F0C7FC04000D007B681B68181C08F0C0FC02000B002000290004F052FE03000C001800210008F008FD031C181CBD4602B0B0BDC04680B584B022
:4028000000AF0200FB1D1A700C23FB18FA1D12781A700823F9180C23FB180122180003F0C3F80823FB181B781800BD4604B080BD80B584B000AF0200BB1D1A80BB1D1B888D
:402840001B0A9BB2DAB20C23FB181A70BB1D1B88DAB20C23FB185A700823F9180C23FB180222180003F0A0F80823FB181B781B021AB20823FB185B781BB213431BB29BB22E
:402880001800BD4604B080BD80B584B000AF78607B681B0EDAB20C23FB181A707B681B0CDAB20C23FB185A707B681B0ADAB20C23FB189A707B68DAB20C23FB18DA70082310
:4028C000F9180C23FB180422180003F06DF80823FB181B781A060823FB185B781B041A430823FB189B781B0213430822BA18D27813431800BD4604B080BDC04680B588B092
:4029000000AF02003960BB1D1A801423FB1820221A70BB1D1B881B0A9BB2DAB21423FB185A70BB1D1B88DAB21423FB189A7003F07FF8022004F02EFB0823F9181423FB18AE
:402940000322180003F030F8022004F023FB03F077F8022004F01EFB1423FB182D221A70BB1D1B88254A934220D9BB1D1B88244A93421BD83B681B0EDAB21423FB185A7042
:402980003B681B0CDAB21423FB189A703B681B0ADAB21423FB18DA703B68DAB21423FB181A711F23FB1805221A700EE03B681B0ADAB21423FB185A703B68DAB21423FB18AC
:4029C0009A701F23FB1803221A7003F031F8022004F0E0FA1F23FB181A780823F9181423FB18180002F0E0FF022004F0D3FA03F027F8C046BD4608B080BDC046FF0F000060
:402A00001430000080B588B000AF0200BB1D1A800023BB611023FB186D221A70BB1D1B881B0A9BB2DAB21023FB185A70BB1D1B88DAB21023FB189A701023FB18FF22DA7093
:402A40001023FB18FF221A711023FB18FF225A711023FB18FF229A711023FB18FF22DA710023FB6102F0E4FF022004F093FA0823F9181023FB180822180002F095FF0220AB
:402A800004F088FA02F0DCFFBB1D1B880F4A93420ED9BB1D1B880E4A934209D80823FB181B791B020822BA1852791343FB6108E00823FB181B791B020822BA18527913435E
:402AC000FB61FB691800BD4608B080BDFF0F00001430000090B585B000AF786039603B68022B28D802F0A4FF2020FFF787FE324B1800FFF79DFE02F0A3FF0023BB6015E00D
:402B000002F096FF6D20FFF779FE0020FFF776FEBB689B007A68D4180020FFF7B5FE0300236002F08DFFBB680133BB60BA683B689A42E5D33CE002F07BFF5F20FFF75EFE0D
:402B40000023FB6005E00020FFF758FEFB680133FB60FB68052BF6D90023FB600BE0FB689B007A68D4180020FFF78EFE03002360FB680133FB603B689A1EFB689A42EED883
:402B8000FB685A1CFA609B007A68D4180B4B1800FFF77AFE03002360FB689B007A68D418064B1800FFF770FE0300236002F048FFC046BD4605B090BD6C2000004444444418
:402BC00080B582B000AF02003960BB1D1A800B4B1B78012B07D13A68BB1D1B8811001800FFF7E6F806E03A68BB1D1B8811001800FFF784FEC046BD4602B080BD10300020AF
:402C000080B582B000AF0200BB1D1A800A4B1B78012B06D1BB1D1B881800FFF799F8030005E0BB1D1B881800FFF7ECFE03001800BD4602B080BDC0461030002080B59EB0B4
:402C400000AF3A1D264B1000190070231A0008F0BCFB244B0022DA60224B00225A61214B00229A611F4B00221A7002F0E9FE00237B670FE03B1D7A6FD200D05A3A1D7B6F59
:402C8000DB00D31804331B681900FFF799FF7B6F01337B677B6F0D2BECD9134B1800FFF7AFFF03007B677B6F104A934203D1104B01221A700FE07B6F0E4A934203D10C4BE1
:402CC00001221A7007E07A6FAA23DB019A4202D1074B00221A70C046BD461EB080BDC046040F0200103000200404000001550000E01600200255000080B584B000AF7860B7
:402D00000A00FB1C1A7080239B011800FFF778FF0300FB60FB1C1B78012B1DD17B682022134007D0FB6820229343FB607B68202293437B607A6880231B03134007D0FB68D7
:402D40001A4A1340FB607B68184A13407B60FA687B681343FB601EE07B682022134007D0FB6820221343FB607B68202293437B607A6880231B03134008D0FB688022120377
:402D80001343FB607B68094A13407B607B68DA43FB681340FB60FA6880239B0111001800FFF70EFFC046BD4604B080BDFFFFF7FF80B584B000AF786039607B68FB603B68C8
:402DC0009B00FA681343FB60FB68044A19001000FFF7F6FEC046BD4604B080BDF022000080B584B000AF786080239B011800FFF707FF0300FB60FB6820229343FB607B68FB
:402E00001B78002B03D1FB6820221343FB60FA6880239B0111001800FFF7D2FE86239B011800FFF7EDFE0300FB607B685B78012B03D1FB6801221343FB607B689B78012B6F
:402E400003D1FB6810221343FB607B68DB78012B03D1FB6804221343FB607B681B79012B03D1FB6820221343FB607B685B7A012B04D1FB68802252001343FB607B689B7A42
:402E8000012B03D1FB6802221343FB607B68DB7A012B03D1FB6808221343FB607B681B7B012B03D1FB6840221343FB60FA6886239B0111001800FFF783FE0023FB607B68CD
:402EC0009B79002B03D1FB6802221343FB607B685B79002B03D1FB6801221343FB607B68DB79012B03D1FB6804221343FB60FB68044A19001000FFF763FEC046BD4604B03B
:402F000080BDC0465020000080B582B000AF78607B681033180000F049F87B685033180000F0BEF87B68180000F00AF87B681C33180000F009F9C046BD4602B080BDC04636
:402F400080B582B000AF78607B681B68124A19001000FFF735FE7B685B68104A19001000FFF72EFE7B689B680D4A19001000FFF727FE7B68DB680B4A19001000FFF720FECB
:402F800080235B02084A19001000FFF719FEC046BD4602B080BDC0465021000058210000542100005C2100000C20000080B584B000AF78600023FB607B681B68012B04D1AE
:402FC000FB68802252011343FB607B685B68012B03D1FB6801221343FB607B689B685A00FF235B001340FA681343FB60FB68044A19001000FFF7E4FDC046BD4604B080BD1D
:403000001020000080B58AB000AFF860B9607A60BB680A2B02D9F8237B6222E0BB68022B04D9BB680833DB007B621AE01423FA18184B100019000F231A0008F0C6F97B68D2
:40304000042B0CD81423F918BA6813009B009B18CA187B68D3181B78DB007B6201E0F8237B627A6A7B6813437B62FB68002B06D07B6A094A19001000FFF7A2FD05E07B6A80
:40308000064A19001000FFF79BFDC046BD460AB080BDC046740F0200F4200000F820000080B584B000AF78607B68002B02D103235B4241E07B685B69022B02D802235B422D
:4030C0003AE07B685B690B2B02D902235B4233E07B689B69052B02D902235B422CE00023FB607B681B68FA681343FB60FB68144A19001000FFF764FD7B68DB685B01FB6054
:403100007B685B68FA681343FB607B681B7C012B03D1FB6810221343FB60FB68094A19001000FFF74DFD7B6859697B689B691A000020FFF767FF00231800BD4604B080BDA6
:40314000FC200000F020000080B584B000AF78607B681B68022B1CD17B681B6A394A19001000FFF72DFD7B685B6A374A19001000FFF726FD7B689B6A344A19001000FFF78F
:403180001FFD7B68DB6A324A19001000FFF718FD35E07B681B68032B2AD17B689B682D4A19001000FFF70CFD7B68DB682A4A19001000FFF705FD7B681B69284A1900100035
:4031C000FFF7FEFC7B685B69254A19001000FFF7F7FC7B689B69234A19001000FFF7F0FC7B68DB69204A19001000FFF7E9FC06E07B681B6B1D4A19001000FFF7E1FC0023EE
:40320000FB607B681B79012B03D1FB6820221343FB607B685B79012B03D1FB6810221343FB607B681B685B00FA681343FB60FB680F4A19001000FFF7C3FCC046BD4604B03E
:4032400080BDC046302000003C2000003820000034200000182000001C2000002020000028200000242000002C200000482000001420000080B582B000AF78607B681B059A
:403280001B0D7B607B68054A19001000FFF798FC00231800BD4602B080BDC04648200000B0B584B000AF786039601A23BB602A4B1B78012B01D11E23BB600021386805F062
:4032C00099FA031E01D0002341E0BB68203B002B03DB01229A4015000AE0BB682022D31A0122DA4013000021BA6891400D001D430122BB689A4014002000290005F0C0FA33
:40330000031C7968181C05F02DFE031C3968181C05F05EFC031CFC218905181C05F0E2FA031C181C05F094FA0300FB60BB681A2B01D10A4B00E00A4BFA68934206D2BB68FD
:403340001A2B01D1054B00E0054BFB60FB681800BD4604B0B0BDC046E0160020FFFF0F00FFFFFF0080B582B000AF78607B68180000F00AF87B682033180000F0BFF8C046C0
:40338000BD4602B080BDC04680B584B000AF78600023FB607B685B689B01FB607B689B681B01FA681343FB607B68DB68DB00FA681343FB607B685B699B00FA681343FB608C
:4033C0007B681B7E002B03D1FB6801221343FB607B685B7E002B03D1FB6802221343FB607B681B68002B18D1FB681A4A19001000FFF7E6FB7B685A8B7B689B8BDBB2190070
:40340000100000F02FF87B681B6920221343124A19001000FFF7D4FB17E0FB680F4A19001000FFF7CDFB7B685A8B7B689B8BDBB21900100000F03CF87B681B6920221343D8
:40344000074A19001000FFF7BBFBC046BD4604B080BDC0462821000024210000342100003021000080B582B000AF0200BB1D1A807B1D0A1C1A707B1D7A1D12783F210A40BD
:403480001A70BB1DBA1D12881205120D1A807B1D1B781A03BB1D1B881343044A19001000FFF78EFBC046BD4602B080BD2021000080B582B000AF0200BB1D1A807B1D0A1CD9
:4034C0001A707B1D7A1D12783F210A401A70BB1DBA1D12881205120D1A807B1D1B781A03BB1D1B881343044A19001000FFF768FBC046BD4602B080BD2C21000080B584B0A5
:4035000000AF78600023FB607B681B7E002B03D1FB6802221343FB607B685B7E002B03D1FB6801221343FB607B681B69042B04D1FB6804221343FB6005E07B681B69DB0015
:40354000FA681343FB607B68DB685B01FA681343FB607B689B689B02FA681343FB607B685B685B03FA681343FB607B681B68002B0DD1FB680E4A19001000FFF721FB7B68AE
:403580005B690C4A19001000FFF71AFB0CE0FB68094A19001000FFF713FB7B685B69074A19001000FFF70CFBC046BD4604B080BDEC200000E4200000E8200000E0200000BE
:4035C00080B582B000AF78607B68180000F06CF87B680C33180000F089F87B682433180000F0D0F87B682C33180000F021F97B683833180000F0F6F8C046BD4602B080BD39
:4036000080B584B000AF78600023FB607B68062B38D87B689A001E4BD3181B689F461D4B1800FFF7EDFA0300FB602BE082239B011800FFF7E5FA0300FB6023E0164B1800F1
:40364000FFF7DEFA0300FB601CE0144B1800FFF7D7FA0300FB6015E0114B1800FFF7D0FA0300FB600EE00F4B1800FFF7C9FA0300FB6007E087239B011800FFF7C1FA03008F
:40368000FB60C046FB681800BD4604B080BDC046840F02007420000084200000782000007C200000C821000080B584B000AF78600023FB607B681B68FB607B685B681B0258
:4036C000FA681343FB607B689B681B04FA681343FB60FB68044A19001000FFF771FAC046BD4604B080BDC046A821000080B584B000AF7860224B1800FFF782FA0300FB6056
:40370000FB6880221340FB607B68DB68FA681343FB607B681B7C012B03D1FB6810221343FB607B685B7C012B03D1FB6840221343FB607B685B681B02FA681343FB607B68F4
:403740001B681B03FA681343FB607B689B689B03FA681343FB60FB68094A19001000FFF72FFA7B681B7D002B05D080235B0201211800FFF7C1FAC046BD4604B080BDC0469A
:403780004420000080B582B000AF78607B681B881A00104B11001800FFF712FA7B685B881A000D4B11001800FFF70AFA7B689B881A000A4B11001800FFF702FA7B68DB8860
:4037C0001A00074B11001800FFF7FAF9C046BD4602B080BDA8200000AC200000B0200000B420000080B584B000AF78600023FB607B681B7A012B03D1FB6801221343FB60FE
:403800007B685B681B01FA681343FB607B681B68DB01FA681343FB60FB68044A19001000FFF7CEF9C046BD4604B080BDC421000080B584B000AF78600023FB601E4B1800F9
:40384000FFF7DEF90300BB607B685B68032B0AD1BB6880221343BB60BB68174A19001000FFF7AEF90FE0BB6880229343BB60BB68114A19001000FFF7A3F97B685B681B058A
:40388000FA681343FB607B681B681B01FA681343FB607B681B7A012B03D1FB6801221343FB60FB68054A19001000FFF789F9C046BD4604B080BDC04644200000D02000000A
:4038C00080B584B000AF7860214B00211800FFF777F9204B1800FFF793F90300FB60FB683F221340FB607B685B685B02FA681343FB607B689B689B01FA681343FB60FB68EA
:40390000144A19001000FFF75BF97B681B691B04114A19001000FFF753F90023FB607B681B78012B04D1FB68802212011343FB607B68DB685B03FA681343FB60FB68044A64
:4039400019001000FFF73CF9C046BD4604B080BD08200000D8210000E021000080B584B000AF78600A00FB1C1A700023FB60FB1C1B78012B04D1FB68802212011343FB604A
:403980007B685B03FA681343FB60FB68044A19001000FFF715F9C046BD4604B080BDC0460820000080B500AF88239B011800FFF727F903001B0C1800BD4680BD80B584B069
:4039C00000AF7860284B1800FFF71AF90300BB60254B00211800FFF7F3F8244B1800FFF70FF90300FB60FB683F229343FB60FB6808221343FB607B681B68FA681343FB6075
:403A0000FB681A4A19001000FFF7DAF87B68DB79002B09D0164B00211800FFF7D1F8154B00211800FFF7CCF80023FB607B681B79012B03D1FB6801221343FB607B689B68D5
:403A40001B02FA681343FB60FB68094A19001000FFF7B6F8BB68044A19001000FFF7B0F8C046BD4604B080BD08200000D8210000042000006420000080B584B000AF02007E
:403A8000FB1D1A700E4B1800FFF7BAF80300FB60FB1D1B78012B04D1FB6801221343FB6003E0FB6801229343FB60FB68044A19001000FFF785F8C046BD4604B080BDC04623
:403AC0000420000080B582B000AF78607B68032B0BD801227B689A4013001A008623DB0011001800FFF76CF800E0C046BD4602B080BDC04680B584B000AFF860B9607A606B
:403B000010E0FB685A1CFA600B4A19001000FFF757F8BB681A1DBA601B68084A19001000FFF74EF87B685A1E7A60002BE9D1C046BD4604B080BDC046D42100007020000052
:403B400080B582B000AF78607B681B68012B11D004D3022B1AD0032B24D02FE07B689B681A047B685B6813431D4A19001000FFF727F823E07B689B681A047B685B6813431D
:403B8000184A19001000FFF71BF817E07B689B681A047B685B681343134A19001000FFF70FF80BE07B689B681A047B685B6813430E4A19001000FFF703F8C0467B681B7B1B
:403BC000012B08D17B6858687B6819697B689B681A00FFF78FFFC046BD4602B080BDC046CC210000E8210000D0210000E421000080B582B000AF78607B68044A1900100002
:403C0000FEF7DEFFC046BD4602B080BD5420000080B584B000AF78607B685B6B1B041B0C814A19001000FEF7CBFF7B685B6B1B0C0F2213407D4A19001000FEF7C1FF7B68D8
:403C40005B6A1B041A0C81231B0111001800FEF7B7FF7B685B6A1B0C0F221340744A19001000FEF7ADFF7B689B6B1B041B0C714A19001000FEF7A4FF7B689B6B1B0C0F22DF
:403C800013406D4A19001000FEF79AFF7B689B6A1B041A0C82231B0111001800FEF790FF7B689B6A1B0C0F221340644A19001000FEF786FF7B68DB6B1B041B0C604A190092
:403CC0001000FEF77DFF7B68DB6B1B0C0F2213405C4A19001000FEF773FF7B68DB6A1B041A0C83231B0111001800FEF769FF7B68DB6A1B0C0F221340534A19001000FEF7F6
:403D00005FFF7B681B6C1B041B0C504A19001000FEF756FF7B681B6C1B0C0F2213404C4A19001000FEF74CFF7B681B6B1B041A0C84231B0111001800FEF742FF7B681B6B1B
:403D40001B0C0F221340434A19001000FEF738FF414B01211800FEF733FF0023FB607B685B6803221340FA681343FB607B689B689B000C221340FA681343FB607B68DB68DF
:403D80001B0130221340FA681343FB607B681B699B01FF221340FA681343FB607B685B691A02C0239B001340FA681343FB607B689B699A02C0231B011340FA681343FB6016
:403DC0007B68DB691A03C0239B011340FA681343FB607B681B6A9B031B041B0CFA681343FB60FB681D4A19001000FEF7E9FE0023FB607B6844229B5C012B03D1FB68012228
:403E00001343FB607B681B685B00FA681343FB60FA6880231B0111001800FEF7D1FEC046BD4604B080BDC046080800000C08000014080000180800001C080000240800003F
:403E4000280800002C08000034080000380800003C080000440800001C0A00000408000080B584B000AF0200FB1D1A7080231B011800FEF7C5FE02000E23FB181A800E2344
:403E8000FB180E22BA18128801218A431A80FB1D1B78012B07D10E23FB180E22BA18128801210A431A800E23FB181A8880231B0111001800FEF784FEC046BD4604B080BDF3
:403EC00080B586B000AFF860B960FB1D1A70134B3B61FB68012B01D1114B3B613B699BB21800FEF78DFE03007B61FB1D1B78012B04D17A69BB6813437B6104E0BB68DA43D2
:403F00007B6913407B613B699BB27A6911001800FEF756FEC046BD4606B080BD083000000C30000080B584B000AF78607B68002B06D1094B1800FEF763FE0300FB6005E0DE
:403F4000064B1800FEF75CFE0300FB60FB681800BD4604B080BDC046083000000C30000080B582B000AF78607B68044A19001000FEF726FEC046BD4602B080BD04300000B5
:403F800080B584B000AF786039607B68002B01D10A4B00E00A4BFB60FB689BB21800FEF72FFE0300BB60BB683A68134001D0012300E000231800BD4604B080BD103000004F
:403FC0001430000080B582B000AF78607B68044A19001000FEF7F4FDC046BD4602B080BD1021000080B582B000AF78607B68044A19001000FEF7E4FDC046BD4602B080BD10
:404000001821000080B500AF064B00211800FEF7D7FD044B01211800FEF7D2FDC046BD4680BDC0461C21000080B584B000AF78600023FB60FB680133FB608023DB00180044
:40404000FEF7DEFD02000A4B9A4209D07B68002B04DD7B68FA689A4204D8EBE7C046E9E7C04600E0C046FB681800BD4604B080BD4441000080B584B000AF3B0001229A7070
:404080003B0001225A703B0001221A703B0001221A723B0001225A713B0001229A713B0000221A733B000022DA723B0000229A723B0000225A723B0000221A713B0000220A
:4040C000DA703B000022DA713B001800FEF788FEC046BD4604B080BD80B584B000AF78600023FB600420FFF73BFF154B01211800FEF702FE012001F0ABFC04210120FFF7C0
:404100003FFF031E05D00120FFF77AFA0300FB600CE07B681B68013304D07B681B685A1E7B681A607B681B68002BE3D1044B00211800FEF7E1FDFB681800BD4604B080BDBE
:4041400000010100B0B5F8B000AFF860B960E023FF33FB1800221A70EF235B00FB1800221A70D64BF0225200BA18D218D44B100019006C231A0007F028F9D24BF022520025
:404180009446BC446344D04A13CA13C303CA03C3FB68002B03D103235B4200F0E0FEFB685B680021181C04F025FB031E03D002235B4200F0D4FEFB689B691A2B03D9022377
:4041C0005B4200F0CCFEFB689B69002B03D102235B4200F0C4FEBB68002B03D103235B4200F0BDFEFB68DB68B849181C04F01CFB031E04D0E023FF33FB1801221A70FB68CB
:404200001B680021181C04F0F5FA031E04D0EF235B00FB1801221A7096235B00FB18E6225200BA181360AC23FB18E4225200BA181360FB689A69A14BF02149008C46BC44DE
:4042400063449200D358E2225200BA181360FB685B68181C06F080FF00229D4B06F014F903000C0025001C00E2235B00FB18186806F03AFF02000B002000290005F0E0FCCA
:4042800003000C001800210006F0BAFF031CE0225200BA1813608F49E0235B00FB18186804F096FC031C8C49181C04F05BFE031C191C181C04F016FB031C181C04F0C8FAF5
:4042C000030001335B08EC225200BA181360EC235B00FB181B68814A934204D97F4BEC225200BA181360EC235B00FB18186805F03DF9031C7A49181C04F034FE031C764951
:40430000181C04F065FC031CE0225200BA181360FB685B687349181C04F0E4FA031C191CE0235B00FB18186804F052FC031C1C1CE2235B00FB18186805F018F9031C191C29
:40434000201C04F00FFE031CDE225200BA181360E2235B00FB18186805F008F9031C191CDE235B00FB18186804F032FC031C1A1CFB685B68191C101C04F0F4FD031CDC221E
:404380005200BA181360DC235B00FB181968564804F01EFC031CDA225200BA1813605349DA235B00FB18186804F048FA031E05D00423E8225200BA18136034E08121C9051B
:4043C000DA235B00FB18186804F038FA031E05D00323E8225200BA18136024E08021C905DA235B00FB18186804F028FA031E05D00223E8225200BA18136014E0FF2189051D
:40440000DA235B00FB18186804F018FA031E05D00123E8225200BA18136004E00023E8225200BA181360DE235B00FB1819682E4804F0CEFB031CDA225200BA1813602B49DF
:40444000DA235B00FB18186804F0F8F9031E05D00423EA225200BA1813604EE08121C905DA235B00FB18186804F0E8F9031E05D00323EA225200BA1813603EE08021C90502
:40448000DA235B00FB18186804F0D8F9031E05D00223EA225200BA1813602EE0FF218905DA235B00FB18186804F0C8F9031E1FD00123EA225200BA1813601EE060FEFFFF01
:4044C0000C1002004CFEFFFF781002000050C34B000099400080094500E0FF44160500000000FA440000C84200803B45000010410023EA225200BA181360A54BF0225200D6
:404500009446BC446344EA225200BA1812689200D0589F4BF02252009446BC446344E8225200BA1812689200D358191C04F050FB031CD8225200BA18136080239B011800E7
:40454000FEF75EFB0300D6225200BA1813600120FFF7E8FC0300D4225200BA181360012206210120FFF7ACFC01235B421800FFF7F7FC884B00211800FEF7BEFBFFF77AFDDE
:40458000AC23FB1844211800FDF7D0FF824BF02252009446BC44634403225A61E023FF33FB181B785A425341DBB21A007A4BF02149008C46BC4463449A61FB685A6A764B1A
:4045C000F02149008C46BC4463441A61FB681A6A714BF02149008C46BC446344DA606E4BF02252009446BC44634401221A776A4BF02252009446BC44634400225A77664B2D
:40460000F02252009446BC446344202201219954FB6828331900AC23FB182C330C22180006F0D3FEAC23FB181800FEF7C9FFF023FB183C211800FDF779FFFB681B695A1E02
:404640009341DBB21A00F023FB181A60F023FB18802212015A83F023FB1820229A83F023FB1800221A76F023FB1811221A61F023FB1800225A61F023FB1801225A60F0231D
:40468000FB180122DA60F023FB1801229A60F023FB1801225A76FB681A69F023FB181A62FB68DA69F023FB181A63F023FB18382201219954F023FB18392201219954F0232B
:4046C000FB1804229A62FB689A69F023FB18DA62F023FB1800225A62FB681B7D012B02D1B0235A0001E0A0235A00F023FB185A63F023FB181800FEF735FE96235B00FB1824
:4047000074211800FDF712FF96235B00FB18602200219954FB681B69002B01D1012200E0022296235B00FB181A6596235B00FB181F22DA6596235B00FB1805229A669623B1
:404740005B00FB180B225A6696235B00FB1805221A6796235B00FB180B22DA6696235B00FB1800225A6596235B00FB1800221A6196235B00FB1800225A6196235B00FB1884
:40478000FF229A61FB681B69002B07D1412206E04CFEFFFFE0FF3900CCFEFFFF812296235B00FB181A6096235B00FB1801225A6096235B00FB18802292009A6096235B00D1
:4047C000FB1890221201DA60EF235B00FB181B78002B00D173E101235B423B6196235B00FB180022DA6196235B00FB18EC225200BA181268DA6496235B00FB1820220021C8
:40480000995496235B00FB1821220021995496235B00FB181800FEF777FBEC235B00FB181B6880221201944663441800FEF722FD9923DB0101211800FEF75EFAE6235B0088
:40484000FB181B6801221A60E6235B00FB181B6801225A60E6235B00FB181B68802292009A60E6235B00FB181B6890221201DA60E6235B00FB181B681800FEF761FBFA238D
:404880009B00180001F0E4F8E4235B00FB181B6814225A60E4235B00FB181B6824221A60E4235B00FB181B68E8225200BA1812689A60E4235B00FB181B681800FEF7F4FE47
:4048C000322001F0C5F81023FB181800FFF704FC0300D2225200BA181360FB681B69002B0CD1E4235B00FB181B6802225A60E4235B00FB181B6821221A600BE0E4235B000F
:40490000FB181B6803225A60E4235B00FB181B6822221A60E4235B00FB181B68EA225200BA1812689A60E4235B00FB181B681800FEF7BAFE322001F08BF81023FB181800CF
:40494000FFF7CAFB0300D0225200BA181360FB681B69002B01D1412200E08122E6235B00FB181B681A60E6235B00FB181B6801225A60E6235B00FB181B68802292009A60B3
:40498000E6235B00FB181B6890221201DA60E6235B00FB181B681800FEF7D2FAFA239B00180001F055F8AC23FB18E4225200BA181360E4235B00FB181B6814225A60E423AF
:4049C0005B00FB181B6824221A60E4235B00FB181B68E8225200BA1812689A60E4235B00FB181B681800FEF75FFE322001F030F81023FB181800FFF76FFB03001A00D223CF
:404A00005B00FB181B68D21A854BF02149008C46BC4463441A60824BF02252009446BC44634400225A60FB681B69002B0CD1E4235B00FB181B6802225A60E4235B00FB18B4
:404A40001B6821221A600BE0E4235B00FB181B6803225A60E4235B00FB181B6822221A60E4235B00FB181B68EA225200BA1812689A60E4235B00FB181B681800FEF714FECB
:404A8000322000F0E5FF1023FB181800FFF724FB03001A00D0235B00FB181B68D21A614BF02149008C46BC4463441A605D4BF02252009446BC44634400225A607CE19623F8
:404AC0005B00FB18EC225200BA1812681A64FB681A68FB689B68191C101CFEF7E1FB020096235B00FB18DA6396235B00FB1800225A6496235B00FB1800229A6496235B00D9
:404B0000FB180022DA6496235B00FB180222DA6196235B00FB1820220021995496235B00FB1821220021995496235B00FB181800FEF7EAF90220FFF713FAC0231B01012130
:404B40001800FEF7D9F8642000F082FFAC23FB18E4225200BA181360E4235B00FB181B6814225A60E4235B00FB181B6824221A60E4235B00FB181B68E8225200BA181268A3
:404B80009A60E4235B00FB181B681800FEF78CFD8123DB0101211800FEF7AEF8192000F057FF81231B0201211800FEF7A5F8C04602210120FFF7E4F9031EF9D01A4B00217F
:404BC0001800FEF799F80220FFF7CAF90320FEF717FD03001A00124BF02149008C46BC4463441A600420FEF70BFD03001A000C4BF02149008C46BC4463445A60FB681B6940
:404C0000002B13D1E4235B00FB181B6802225A60E4235B00FB181B6821221A6012E0C04644FEFFFF3CFEFFFF80C10000E4235B00FB181B6803225A60E4235B00FB181B685A
:404C400022221A60E4235B00FB181B68EA225200BA1812689A60E4235B00FB181B681800FEF722FD8123DB0101211800FEF744F8192000F0EDFE81231B0201211800FEF7C7
:404C80003BF8C04602210120FFF77AF9031EF9D0B54B00211800FEF72FF80220FFF760F90320FEF7ADFC03001A00B04BF02149008C46BC4463441A600420FEF7A1FC03007F
:404CC0001A00AA4BF02149008C46BC4463445A60A74BF02252009446BC4463441A6880239B02134011D0A24BF02252009446BC4463441B681A009F4B13431A009C4BF0218A
:404D000049008C46BC4463441A60994BF02252009446BC4463445A6880239B02134011D0934BF02252009446BC4463445B681A00904B13431A008E4BF02149008C46BC4448
:404D400063445A60894BF02252009446BC4463441A6880239B02134011D0844BF02252009446BC4463441B681A00824B13431A007E4BF02149008C46BC4463441A607B4BB9
:404D8000F02252009446BC4463445A6880239B02134011D0754BF02252009446BC4463445B681A00734B13431A00704BF02149008C46BC4463445A606C4BF02252009446EB
:404DC000BC4463445B685A42684BF02149008C46BC4463445A60664BF02252009446BC4463445B685A42624BF02149008C46BC4463445A60604BF0225200BA18D4183B0036
:404E00002422BA181C2179181800FDF7FDFB5B4BF0225200BA18D218230003CA03C3564BF02252009446BC4463441C68FB685B68D8225200BA181168181C03F0C9FE031C38
:404E4000191C201C04F08EF8031C1A1C4A4BF02149008C46BC4463441A60474BF02252009446BC4463445C68FB685B68D8225200BA181168181C03F0ABFE031C191C201CB8
:404E800004F070F8031C1A1C3B4BF02149008C46BC4463445A60FB685B6B002B12D1364BF02252009446BC4463441A68BB681A60314BF02252009446BC4463445A68BB682C
:404EC0005A600FE01423FB181800FDF745FC021CBB681A601423FB181800FDF76DFC021CBB685A60D4235B00FB181B680222134004D1002202210120FEF7E2FFD4235B003B
:404F0000FB181B680422134004D1002204210120FEF7D6FFD6235B00FB181A6880239B0111001800FDF74CFE96235B00FB1800221A6096235B00FB1800225A6096235B00F2
:404F4000FB1800229A6096235B00FB180022DA6096235B00FB181800FDF7F2FF00231800BD4678B0B0BDC04680C100003CFEFFFF44FEFFFF0000FCFF34FEFFFF20FEFFFF82
:404F800080B582B000AF78607B68002B04D07B68044A1A60002301E002235B421800BD4602B080BDB00B002080B598B000AF786039607B68012B40D002DC002B05D06BE0E6
:404FC000022B45D0042B48D066E0364B1800FDF717FE354B6C229B5C002B02D164235B425BE00823FB184422012199540823FB1800221A600823FB1800225A600823FB18F9
:4050000003225A62284BDA69274B9B6A191C101C03F0A8FF031C181C03F01AFC03005A1F0823FB185A630823FB181800FEF7F0FD1D4B9C22002199502EE01A4B1800FDF7AD
:40504000DFFD0020FEF70CFF0020FEF709FF23E0154B9822012199541EE000210120FFF7A3FF5023FB180D220021180006F0B6F95023FB181800FDF7B3FE0823FB183C22A1
:405080000021180006F0AAF90823FB181800FEF769F9FEF7B7FFC04600231800BD4618B080BDC04674200000B00B002080B5ACB000AF0023AC22BA1813600120FCF71EFF61
:4050C0009423FB1801221A709423FB1801229A709423FB1801225A709423FB1800221A739423FB180022DA729423FB1800225A729423FB1800229A729423FB1801221A71B2
:405100009423FB180122DA709423FB1801225A719423FB1801229A719423FB180022DA719423FB181800FDF75BFE5823FB1800221A605823FB1800225A605823FB181E22C0
:405140001A615823FB1800229A605823FB180022DA605823FB1800225A615823FB1800221A765823FB1801225A768F4BDB6D8F49181C04F00BF8031C8D49181C03F028FD8E
:40518000031C181C03F064FB03009AB25823FB189A83854B1B6E8749181C03F019FD031C181C04F079F903009AB25823FB189B8B9B019BB2D3189AB25823FB185A83582328
:4051C000FB185B8B1A005823FB189B8B9B019A4207DD5823FB185B8B013B9AB25823FB185A835823FB1800221A625823FB1800221A635823FB183822012199545823FB1847
:40520000392201219954684BDA6C5823FB185A62654B1A6D5823FB189A62634B64229B5C012B08D15823FB180022DA625823FB18614A5A6308E05C4B9A6C5823FB18DA628F
:405240005823FB185D4A5A635823FB181800FEF789F81423FB1810225A601423FB1814221A60514BDA6B1423FB189A601423FB18243308220021180006F0B0F81423FB18DF
:405280002C330C220021180006F0A8F81423FB1803225A611423FB1801229A61424B41229B5C1A001423FB181A613F4B40229B5C1A001423FB18DA601423FB1800225A777C
:4052C0001423FB1800221A771423FB182022012199541423FB1838330C220021180006F07DF81423FB181800FEF76AF93B1D00221A603B1D00225A603B1D00229A603B1DE1
:405300000022DA603B1D1800FDF71AFE2C4B01211800FDF7F1FC80235B0200211800FDF7EBFC0020FEF764FC81231B061800FCF76FFCA423FA18A823FB1811001800FCF76C
:40534000BFFD0300AC22BA1813600020FCF7D6FDAC23FB181B68002B1ED1134B01221A67114B5A68104B5A67A823FB181A680E4B80215A50A423FB181A680B4B9A670A4BAE
:405380005B6FA822BA181168A422BA1812681800FEF7B0FB002302E0AC23FB181B681800BD462CB080BDC046B00B002000004843998809429988093F34320000343000009B
:4053C0002000010080B58CB000AF0023FB623B0002221A603B0001225A603F4B41229B5C1A003B00DA603C4B40229B5C1A003B009A603B0000221A61374B9A69364B1B6AF6
:40540000191C101C03F0E4FB031C1A1C3B00DA612023FA183B0011001800FCF72BFF3B6A0F333B620120FCF769FD0420FEF7E0FB2A4B01211800FDF75FFCFA231B01180057
:40544000FCF7E6FB80235B0001211800FDF754FC3B6A9B009B081800FCF7DAFB204B00211800FDF749FC0020FEF7C2FBFEF7CAFD2423FA182823FB1811001800FCF720FDBE
:405480000300FB620020FCF739FDFB6A002B1DD1114B8422002199500F4B5A6F0E4B9B6FD2180D4B88215A50BA6A0B4B94215A507A6A094B8C215A50074B88229B58B96A24
:4054C0007A6A1800FEF716FB002300E0FB6A1800BD460CB080BDC046B00B0020800001008001010080B590B000AF3B0038211800FDF71CF83B0001225A63294B1A6A3B0024
:40550000DA60274B9A693B009A603B0001221A623B0000225A623B0009229A623B000022DA623B003022012199541D4B1B6A8121C905181C03F04CFB031C1A49181C03F089
:4055400047FB031C8A21C905181C03F041FB031C1549181C03F006FD031C1A1C3B001A600F4B1A6B3B005A600D4B9A6C3B009A613B000022DA613B0000221A753823FA18E4
:405580003B0011001800FEF7DDFD054B3822BA18543303CA03C300231800BD4610B080BDB00B00200000B0410000404080B58CB000AF786039600023FB620A20FEF734FD3A
:4055C00003000A2B02D909235B42BFE02023FB1801221A602023FB1800225A712023FB1800229A712023FB180122DA712023FB1800221A712023FB1800229A602023FB18E8
:405600001800FEF7DBF9534B1B7D012B04D0514B6C229B5C002B0AD14E4B64229B5C002B05D1FFF75FFF4B4B00221A7503E0494B9A6E484B5A6500210120FEF78FF90C23BB
:40564000FB1801221A700C23FB1802225A600C23FB1802229A603F4B5A6C0C23FB18DA603C4B5A6A0C23FB181A610C23FB181800FEF726F901235B421800FEF771FC354BED
:405680006C229B5C002B03D0324B1B78012B26D17B68002B02D102235B4257E03B68002B02D102235B4251E03A687B6811001800FCF7DAFBFFF7FAFC0300FB62FB6A002B74
:4056C00001D0FB6A42E0FFF77DFE0300FB62FB6A002B01D0FB6A39E01E4B00221A701D4B7C22002199541C4B1800FEF729FA2023FB1801221A712023FB181800FEF75EF924
:40570000144B1B6F1800FEF7DDF9C04680231B0219000120FEF734FC031EF7D00D4B9022002199540D4B1800FEF70AFA0120FEF7A3F900F0A7F9074B9B6B03211800FDF745
:4057400037FB044B6C220121995400231800BD460CB080BDB00B0020200C0020340C002080B582B000AF78603960144BDB6A002B15DD124B9C229A583B681B689B08D21845
:405780000E4B9C215A500D4B9C229A580B4BDB6A9A4204D30020FEF763FB00230AE0074B98229B5C012B04D10020FEF759FB002300E000231800BD4602B080BDB00B0020DB
:4057C00090B587B000AF786039603B681B683B617B68FB6000237B611CE07B699B007A68D3187A69920079688A1812681204120C1A607B699B00FA68D4187B699B007A6878
:40580000D3181B68180000F059F8031C23607B6901337B617A693B699A42DED300231800BD4607B090BDC04680B584B000AF786039600A20FEF7F8FB03000A2B02D90923D5
:405840005B4235E00020FEF7CDFB3B6800221A6080239B0419000020FEF792FB0300012B25D1FEF79FF80300FB60FA687B6811001800FDF72FF980239B041800FEF770FB0A
:405880000C23FA187B6811001800FFF769FF0A4B1800FEF7A7FB0C23FA187B6811001800FFF78EFFFA683B681A60002300E000231800BD4604B080BDE5470A0080B582B01B
:4058C00000AF7860786803F051FE031C181CBD4602B080BD80B582B000AF00237B6002E07B6801337B607B68132BF9DDC046BD4602B080BD80B584B000AF0200FB1D1A7027
:405900000F23FB1800221A70002000F0F1FF0E23FB1807221A703AE0FB1D1A780E23FB181B785BB21A4113000122134003D0012001F010F802E0002001F00CF8FFF7CAFF50
:40594000012000F0D5FF0F23FA180F23FB181B78DB18137000F0BEFF031E07D00F23FB180F22BA18127801210A431A70FFF7B2FF002000F0BDFFFFF7ADFF0E23FB181B7854
:405980005BB2DBB2013BDAB20E23FB181A700E23FB181B787F2BBFD90F23FB181B781800BD4604B080BDC04690B587B000AFF860B9607A60FB68002B05D0BB68002B02D0BB
:4059C0007B68002B02D101235B422DE0012000F0C7FE002000F08CFF002000F0BBFFFFF779FF002000F0BCFEFFF774FF00237B610EE0BA687B69D418FA687B69D3181B7879
:405A00001800FFF777FF030023707B6901337B617A697B689A42ECD3FFF75CFF012000F09FFEFFF757FF00231800BD4607B090BD80B500AF002000F093FEC046BD4680BD9F
:405A400080B500AF012000F08BFEC046BD4680BD80B584B000AF78607B68002B0DD00023FB6005E00A2001F095FAFB680133FB60FA687B689A42F5D300E0C046BD4604B002
:405A800080BDC04680B500AF01231800BD4680BD80B582B000AF7860012000F061FE012001F006F8002000F023FF002000F052FF0A2001F049FA00231800BD4602B080BDB7
:405AC00080B582B000AF786039603A687B680021180005F083FCC046BD4602B080BDC04680B500AF054B03221A60054B03221A60044B00221A60C046BD4680BD300030405C
:405B000030003140000E3F4080B500AF05F022FC03001B680C2B00D1FEE7FEE780B584B000AF7860104B1A687B68D3181A000F4BD21A8023DB009A4209DC0B4B1B68FB607A
:405B4000094B1A687B68D218074B1A6007E005F001FC03000C221A6001235B42FB60FB681800BD4604B080BD500C00205030002080B586B000AF224B7B61224B3B61204BB4
:405B80007B6135E03B691B68FB603B695B68BB603B699B683B6000237B600CE0FB681A68BB681A60BB680433BB60FB680433FB607B6804337B607A683B689A42EED13B691F
:405BC000DB683B6000237B6008E0BB6800221A60BB680433BB607B6804337B607A683B689A42F2D13B6910333B617B69013B7B617B69002BC6D105F0B3FBFBF7CFFDFEE729
:405C0000010000008817020080B582B000AF154B144A126801218A431A6000237B600FE07B68032B04D8104B7A689200D35800E00E4B0F4A796889008B507B6801337B606E
:405C40007B682F2BECD9FAF75FFA0A4B00221A60044B044A126801210A431A60C046BD4602B080BD0000104000000000095B000000000020C000002080B500AF094B0022E1
:405C80001A70094B00221A70084B00221A7000F013F8074B00221A70064B00221A70C046BD4680BD4B300020443000204A3000202C3000203430002080B500AF00F024FD61
:405CC000C046BD4680BDC046B0B594B004AF78603E23FB1800221A802823FA183D4B1000190014231A0005F070FB3B4B1B78002B04D1FFF7C1FF384B01221A707B68002B28
:405D00005CD0364B7A681A603E23FB181B88002B29D11023FB181C22BA185A601023FB182022BA181A601023FB1800221A812023FB181B221A802023FB181B225A8020235A
:405D4000FB1804221A711C23FB1808221A703E23FC180E23FA181023FB181100180008F0BBFA030023803E23FB181B88002B29D13E23FC182823FD18AE231A011849194820
:405D8000194B0293194B0193052300932B0008F0F9F9030023803E23FB181B88002B11D1134B01221A703E23FC18124B11222221180014F037FC0300238003E03E23FB18B9
:405DC00001221A803E23FB181B881800BD4610B0B0BDC046DC100200E116002030300020C8000020E56200007902000000200200423000202811020090B593B000AF02002A
:405E0000FB1D1A704623FB1800221A80614B1B781A00012313401ED04623FC18FB1D1B7818000FF0ADFC030023804623FB181B88002B10D1574B1B7801229343DAB2554BB7
:405E40001A70544B1B781A000223134003D04623FB1828221A804623FB181B88002B03D0FB1D1B78002B2CD04A4B1B781A000223134026D0484B1B78042B22D8464B1B788F
:405E80001A0013009B009B185B009E2292009A18424BD318591C4623FC18FB1D1B7840480A220FF053FC030023804623FB181B88002B06D1374B1B7802229343DAB2354B0F
:405EC0001A704623FB181B88002B03D0FB1D1B78002B57D02F4B1B781A000C23134051D02C4B1B781A00082313401FD00823FB1832220021180005F071FA4623FC18FB1DE3
:405F00001B7828490822B81832220FF01FFC030023804623FB181B88002B33D11D4B1B7808229343DAB21B4B1A702BE03C23FB1818000A231A00002105F050FA1A4B1B7856
:405F40001A0013009B009B185B009E2292009A18124BD318591C4623FC18FB1D1B783C22B8180A220FF0F2FB030023804623FB181B88002B06D1074B1B7804229343DAB2E8
:405F8000044B1A704623FB181B881800BD4613B090BDC0462C30002048300020002002003830002079220200E216002090B585B000AF0200FB1D1A70FB1D1B78022B04D9C3
:405FC0000E23FB1801221A804AE0294B1B78042B41D1284B1B78DBB21A00042313403AD1FB1D1B78002B0BD1234B1E221A82224B5B6820221A80204B5B6830225A8010E0AA
:40600000FB1D1B78012B0CD11B4B96221A821A4B5B68C822D2001A80174B5B68FA2212015A80164BFA1D12781A700E23FC18124B180012F01BFB030023800E23FB181B885B
:40604000002B0DD10B4B1B78DBB204221343DAB2084B1A7004E00E23FB180422FF321A800E23FB181B881800BD4605B090BDC046423000204B300020A40C00204A30002002
:4060800080B584B000AF78600A00FB1C1A700023BB60BB68002B20D07B689A79BB681A700F23FB1800221A7012E00F23FB181B780133BA68D3180F22BA18127879688A5CD6
:4060C0001A700F23FB181A780F23FB1801321A700F23FB181B78052BE7D9C046BD4604B080BDC04680B582B000AF78607B681B789AB27B6801331B789BB21B029BB213430E
:406100009BB21800BD4602B080BDC04690B585B000AF78600F23FB1800221A707B689B890F22934232D17B68181D7A680F23FC184023002114F08EFA030023700F23FB18D5
:406140001B78002B1AD17B685B681800FFF7CAFF03001A00022313409BB2002B07D00F4B1B687968822252001000984706E00B4B1B6879680622FF3210009847084B1B78A4
:40618000DBB201229343DAB2054B1A700F23FB181B781800BD4605B090BDC046303000204B30002090B585B000AF78600F23FC187B681800FFF7AAFF03002370154B1B7873
:4061C000DBB21A00012313401FD10F23FB181B78002B16D00823FB1812229A707B689A890823FB181A800823FB180F22BA181278DA700823FA187B681100186813F082FB08
:4062000003E07B68186813F011FCC046BD4605B090BDC0464B30002080B582B000AF7860C046BD4602B080BD80B500AF044B00225A70034B00221A70C046BD4680BDC04611
:406240004830002080B582B000AF7860C046BD4602B080BD80B500AFC046BD4680BDC04680B584B000AF78600E23FB1800221A707B689B79002B1CD10F23FB1800221A7090
:4062800012E00F23FB181B787A68D35C002B04D00E23FB1801221A700BE00F23FB181A780F23FB1801321A700F23FB181B78052BE7D90E23FB181B781800BD4604B080BDA4
:4062C00080B582B000AF0200BB1D1A80C046BD4602B080BD80B582B000AF7860C046BD4602B080BD80B588B000AF02003960FB1D1A70C94B1B78DBB201221343DAB2C64B93
:406300001A70FB1D1B78412B00D160E123DC212B00D1C6E00DDC022B00D198E002DC012B3BD0D1E1052B00D196E0062B00D198E0CAE1272B00D1EEE006DC242B00D1E0E073
:40634000262B00D1F3E0BFE1282B00D1EBE02A2B00D1DBE0B8E14F2B00D1A8E10BDC432B00D175E100DA54E14C2B00D18DE14E2B00D19EE1A8E1572B00D19CE106DC502B8B
:4063800000D19AE1542B00D184E19DE1712B00D117E1FA2B00D182E196E11423FB1807221A701423FB1800225A701423FB18180009F0F6FE1423FB1807221A701423FB1860
:4063C00001225A701423FB18180009F0E9FE0B23002B01D007F098FE904B1B681800FFF73FFF031E11D08D4B1B68180007F09CFE8A4B1B6800211800FFF742FE874B1B68EB
:4064000001211800FFF73CFE0DE0854B180007F08BFE834B00211800FFF732FE804B01211800FFF72DFE032011F0B4FF1023FB183F221A701023FB1800225A701023FB18CA
:40644000180011F0C5FF774B04221A703CE13B681800FFF7F7FE37E13B681A78724B1A7032E13B68BB61BB691B78002B00D026E1BB695B78002B0BD16C4B0022DA806B4B04
:4064800000229A80694B6A4A1A60BB69674A5A60614B1B78DBB201229343DAB25E4B1A700DE15D4B1B78DBB21A002023134000D007E1604B1B78102B02D15E4B0522DA7027
:4064C0005D4B1B785B4A1100180012F08DF803001A000E23FB181A800E23FB181B88002B06D0564B1B680E22BA18110036209847494B1B78DBB201221343DAB2464B1A70E9
:40650000DFE03B685A784E4B1A70DDE03B681800FFF7E0FED8E03B681800FFF7DBFE414B02221A70D0E03F4B04221A70CCE03D4B1B78022B00D1C6E0374B1B78DBB21A002B
:406540000123134000D1BEE0334B1B78DBB21A00042313400BD0334B03221A702E4B1B78DBB204229343DAB22B4B1A70ABE02A4B1B78DBB21A00082313400BD0294B0422AD
:406580001A70254B1B78DBB208229343DAB2224B1A7098E0234B1B78032B00D093E0214B04221A70274B1B78002B00D08BE00120FFF7FCFC031E00D085E01A4B03221A7054
:4065C00081E03B681B881800FFF77AFE7CE01A4A3B681000190002231A0004F0F6FE124B00221A70144B1B781A0013009B009B185B009E2292009A18134BD3180133134A0C
:40660000100019000A231A0004F0DFFEFFF722FE5AE0FFF709FE57E04B300020C00C0020B80C00204230002044300020E4160020A80B0020100E00204830002030300020C1
:40664000343000204A30002000200200383000203B685B88162B05D81E23FB183A6852881A8003E01E23FB1817221A801E23FB1819883B681A8800231204120C1B0C1B0463
:406680001343180013F048F91EE03B681800FFF789FD19E03B681800FFF7BEFD14E0174B1B7801221343DAB2144B1A700CE0C0460AE0C04608E0C04606E0C04604E0C04611
:4066C00002E0C04600E0C0460D4B1B78DBB21A00112313400ED00A4B1B78DBB201229343DAB2074B1A70074B1B68FA1D1278396810009847C046BD4608B080BD2C3000207F
:406700004B3000203030002080B500AFC046BD4680BDC04680B584B000AF0200FB1D1A700E4B1B68DAB20F23FB1801218A431A70FB1D1B7801221340D9B20F23FB180F220A
:40674000BA1812780A431A70044B0F22BA1812781A60C046BD4604B080BDC0460005044080B584B000AF0200FB1D1A700F4B1B68DAB20F23FB1840218A431A70FB1D1B787A
:406780009B01DBB240221340D9B20F23FB180F22BA1812780A431A70044B0F22BA1812781A60C046BD4604B080BDC0460001044080B500AF044B1B68402213409B09DBB290
:4067C0001800BD4680BDC0460401044080B582B000AF094B1B68DAB2FB1D10210A401A70054BFA1D12781A60FB1D1B781B09DBB21800BD4602B080BD1001044080B500AF52
:4068000000F054F8054B180000F010F8032000F01BF800F041F8C046BD4680BD2168000080B500AFC046BD4680BDC04680B582B000AF7860034B7A685A64C046BD4602B0D7
:4068400080BDC0460000002090B585B000AF0200FB1D1A700E23FB600B23FC1800F00DFE030023700A4B0A4A12680A491140FA1D1078FA68904002000A431A600B23FB18E7
:406880001B78180000F0FDFDC046BD4605B090BD00E400E0FF3FFFFF80B500AF024B02221A60C046BD4680BD00E100E080B500AF024B02221A60C046BD4680BD80E100E00C
:4068C00080B500AF024B02221A60C046BD4680BD80E200E080B500AF044B1B68202213405B09DBB21800BD4680BDC0460400044080B584B000AF0200FB1D1A700D4B1B68C8
:40690000DAB20F23FB187F210A401A70FB1D1B78DB01D9B20F23FB180F22BA1812780A431A70044B0F22BA1812781A60C046BD4604B080BD0001044080B500AF044B1B680C
:4069400080221340DB09DBB21800BD4680BDC0460401044080B584B000AF0200FB1D1A700F4B1B68DAB20F23FB1810218A431A70FB1D1B781B01DBB210221340D9B20F2382
:40698000FB180F22BA1812780A431A70044B0F22BA1812781A60C046BD4604B080BDC0460000044080B500AF044B1B68102213401B09DBB21800BD4680BDC0460400044034
:4069C00080B584B000AF0200FB1D1A700F4B1B68DAB20F23FB1802218A431A70FB1D1B78DB18DBB202221340D9B20F23FB180F22BA1812780A431A70044B0F22BA18127801
:406A00001A60C046BD4604B080BDC0460004044080B584B000AF0200FB1D1A700F4B1B68DAB20F23FB1840218A431A70FB1D1B789B01DBB240221340D9B20F23FB180F22E8
:406A4000BA1812780A431A70044B0F22BA1812781A60C046BD4604B080BDC0460003044080B584B000AF0200FB1D1A700F4B1B68DAB20F23FB1820218A431A70FB1D1B7899
:406A80005B01DBB220221340D9B20F23FB180F22BA1812780A431A70044B0F22BA1812781A60C046BD4604B080BDC0460001044080B584B000AF0200FB1D1A700E4B1B68F1
:406AC000DAB20F23FB1801218A431A70FB1D1B7801221340D9B20F23FB180F22BA1812780A431A70044B0F22BA1812781A60C046BD4604B080BDC0460004044080B584B0F0
:406B000000AF0200FB1D1A700F4B1B68DAB20F23FB1810218A431A70FB1D1B781B01DBB210221340D9B20F23FB180F22BA1812780A431A70044B0F22BA1812781A60C04663
:406B4000BD4604B080BDC0460003044080B500AF044B1B68102213401B09DBB21800BD4680BDC0460403044080B584B000AF0200FB1D1A700F4B1B68DAB20F23FB18202194
:406B80008A431A70FB1D1B785B01DBB220221340D9B20F23FB180F22BA1812780A431A70044B0F22BA1812781A60C046BD4604B080BDC0460003044080B500AF044B1B68CE
:406BC000202213405B09DBB21800BD4680BDC0460403044080B584B000AF0200FB1D1A700D4B1B68DAB20F23FB187F210A401A70FB1D1B78DB01D9B20F23FB180F22BA1830
:406C000012780A431A70044B0F22BA1812781A60C046BD4604B080BD0003044080B500AF044B1B6880221340DB09DBB21800BD4680BDC0460403044090B585B000AF786096
:406C40000C23FC1800F019FC030023707B68022B00D8B3E07B68302B00D9AFE05E4B1B78DBB21A007B689A420AD35C4A0F23FB1812781A705A4A0E23FB1812781A703FE07C
:406C8000584B1B78DBB21A007B689A420AD3564A0F23FB1812781A70544A0E23FB1812781A702DE0524B1B78DBB21A007B689A420AD3504A0F23FB1812781A704E4A0E2330
:406CC000FB1812781A701BE04C4B1B78DBB21A007B689A420AD34A4A0F23FB1812781A70484A0E23FB1812781A7009E0464A0F23FB1812781A70454A0E23FB1812781A7075
:406D00007B68DA1E0B23FB1841498A5C1A700B23FB181B782F2B0DD97B682A2B0AD93D4B19221A60052000F09FFB0D23FB1819221A7007E0374B1B68DAB20D23FB183F21FF
:406D40000A401A700B23FA180D23FB1812781B789A4208D22F4B7A68033A2D498A5C1A60052000F081FB7B68284A9A180A23FB1812781A70284B0A22BA1812781A60274BA7
:406D80000F22BA1812781A60254B0E22BA1812781A60052000F0FEF80B23FA180D23FB1812781B789A420CD91A4B7A68033A18498A5C1A60052000F057FB02E0002000F04C
:406DC000B7F80C23FB181B78180000F05AFBC046BD4605B090BDC04640F3FF0F41F3FF0F42F3FF0F43F3FF0F44F3FF0F45F3FF0F46F3FF0F47F3FF0F48F3FF0F49F3FF0FEA
:406E00004AF3FF0F4BF3FF0F4CF3FF0F4DF3FF0FD01302002CFF0B4028FF0B401CFF0B4020FF0B4080B584B000AF78600023FB60154B154A126801210A431A60134B144A37
:406E40001A60144B134A1268802109020A431A607B68002B12D01023FB600CE0012000F099F800F019F8031E02D00023FB6005E07B68013B7B607B68002BEFD1FB68180049
:406E8000BD4604B080BDC04660F02E4078002E400220000010002E4080B582B000AF054B1B68012213407B607B681800BD4602B080BDC0460C002E4080B584B000AF0200D3
:406EC0003960FB1D1A7080239B05FB60FB1D1B781F2B02D9002000F02BF8FB1D1B7810339B00FA68D3181B68BB60FB1D1B7810339B00FA68D3183A681A60BB681800BD4612
:406F000004B080BD80B582B000AF0200FB1D1A70064BFA1D12781F210A40012191400A001A60C046BD4602B080BDC04600E100E080B582B000AF0200FB1D1A7001BEC04675
:406F4000BD4602B080BDC04680B582B000AF786009E00D4B1B68180000F086FA7B680B4A944663447B607A6880231B029A42F0D8074B1B687A685343180000F075FAC0463B
:406F8000BD4602B080BDC046240E00200080FFFF1C0E002080B582B000AF0200BB1D1A80BB1D1B88044A12785343180000F05CFAC046BD4602B080BD200E002080B500AFC4
:406FC000164B164A1268920092081A60144B144A1268920092081A60124B124A1268920092081A60104B104A1268920092081A600E4B0E4A1268920092081A600C4B0C4AA7
:407000001268920092081A600A4B0A4A1268920092081A60C046BD4680BDC0460800044008010440080204400803044008040440080504400806044090B583B000AFFC1DB2
:4070400000F01BFA03002370074B074A126804218A431A6030BFFB1D1B78180000F011FAC046BD4603B090BD10ED00E090B583B000AFFC1D00F001FA03002370FFF79EFF05
:40708000114B114A1268802109060A431A600F4B0F4A128892B21A600E4B0E4A126804210A431A600C4B0C4A1268FF218A43F1210A431A6030BFFB1D1B78180000F0E1F99D
:4070C000C046BD4603B090BD00000B400C000B4050F2FF0F10ED00E02C000B4080B500AF0F4B0F4A126801218A431A600C4B0C4A126802218A431A600A4B0A4A12683021C2
:407100008A4310210A431A60064B064A126807218A4301210A431A60C046BD4680BDC04600F02E4000FF2E4080B500AF0F4B0F4A126802218A431A600D4B0D4A12680721AE
:407140008A4302210A431A60094B094A126830218A4320210A431A60044B044A126801210A431A60C046BD4680BDC04600F02E4000FF2E4080B500AFFFF7B0FF044B044AD4
:407180001268802109060A431A60C046BD4680BD00F02E4080B584B000AF78600C4B1B6801221340FB607B68002B02D0012B03D005E0FFF793FF06E0FFF7B6FF03E00020BF
:4071C000FFF7B6FEC046FB681800BD4604B080BD00F02E4090B583B000AFFC1D00F04DF903002370074B074A1268C02109020A431A60FB1D1B78180000F043F9C046BD463E
:4072000003B090BD00010B4080B500AF054B1A68C0231B02134001D0012300E000231800BD4680BD00010B4090B583B000AFFC1D00F023F9030023700D4B0D4A12680D49FC
