:400000000080002011000000491D0000491D000080B500AF01F0CCFE80B500AF2A4B12221A6003F04DF9294B180003F0C1FA012003F056F9302002F0A5FE254B254A1A6089
:40004000254B8022D2051A60244B244A126802210A431A60224B234A1A60234B00221A60224B224A126808218A431A60FA23DB00180002F07DFF1E4B180003F031F81D4B38
:40008000802212061A601C4B802212031A601B4B1900082002F0B6FF082002F0D9FF0E4B174A1A60174B802212031A60C046154B1A6880231B031340F9D1124B8022520254
:4000C0001A60C046BD4680BD30001040001BB70004010B40060000800C020B4078002E407C002E406A2D000064F02E406CF02E40DC05000008010B4000010B40C534000052
:400100000000014E10020B4080B582B000AF72B6344B00221A60FB1D00221A7022E0FB1D1A7813005B009B185B002F4A9B183B603B681A78597809020A43997809040A433E
:40014000DB781B06134318003B681A795B791B0213439BB2190001F0D3FDFB1D1A78FB1D01321A70FB1D1B78012BD8D91F4BEE2212061A601E4B992212041A601D4B99220F
:4001800012041A601C4B992212041A601B4A1B4B1B78DBB206210B43DBB21370184B20221A60184B184A1A60184B50221A60184B184A1A60184B802292001A60174B184ACC
:4001C0001A60184B01221A60174B36221A60174B06221A60FFF720FF01F0A2FDC046BD4602B080BD6CF02E40DCAD01000000024000500F4010500F4030500F4000700F403E
:40020000000004400800044000E0D80000010440080104400020DB000C010440080304400090380000040440080404400805044010B5064C2378002B07D1054B002B02D096
:40024000044800E000BF0123237010BDF811002000000000BCAA0100084B10B5002B03D00749084800E000BF07480368002B00D110BD064B002BFBD09847F9E700000000A1
:40028000FC110020BCAA0100A80B00200000000090B585B000AF78600A00FB1C1A700023FB60FB1C1B78012B13D0022B21D0002B2FD1786806F092FA1A4A1B4B05F002F890
:4002C00003000C001800210006F0DCFA031CFB6022E0786806F082FA144A154B04F0F2FF03000C001800210006F0CCFA031CFB6012E0786806F072FA0E4A0F4B04F0E2FF40
:4003000003000C001800210006F0BCFA031CFB6002E00023FB60C046FB68181CBD4605B090BDC046D7A3703D0A573040B81E85EB51B844403333333333B3674080B586B0B8
:4003400000AF0200FB1D1A7000237B610023BB60494B180001F0EEFAFB1D1B78012B0DD0022B15D0002B1DD1012002F097FC002002F0BCFC002002F0E1FC13E0002002F025
:400380008DFC012002F0B2FC002002F0D7FC09E0002002F083FC002002F0A8FC012002F0CDFCC046322002F075FE0021002001F0D5FA03003B613B69002B01D0002356E0AC
:4003C000FA235B00180002F065FE0823FA182B4B1100180001F0A8FB03003B613B69002B0DD1BB68002B0AD0244BFB60FB681B682349181C04F0F8F8031C7B6101E0002301
:400400007B610021012001F0A9FA322002F042FE0021002001F0A2FA03003B613B69002B01D0002323E0FA235B00180002F032FE0823FA18134B1100180001F075FB030079
:400440003B613B69002B0BD1BB68002B08D00D4B1B680B49181C04F0C7F8031C7B6101E000237B610021012001F078FA7B69181CBD4606B080BDC046A02F002070120020D4
:40048000286B6E4E982F0020B0B500AF002002F005FC012002F02AFC002002F04FFC0120FFF74CFF021C144B9A61134B9B690121181CFFF7EDFE021C0F4B9A600E4B9B6907
:4004C000181C06F08BF903000C000C491A002300080006F043FF084B094A1A60064B00225A60054B0022DA60064B1A68024B1A61C046BD46B0BDC0462C120020A4AC0100AE
:400500000000C84124120020F0B58FB002AF1F4B1B78022B36D11E4B5B68181C06F05EF905000E001A4B5B69181C06F057F903000C001849381D009301942A00330006F0F3
:4005400093FF2423FB1817221A812423FB183A1D1A603B1D180006F0A9FF03009AB22423FB189A802423F9180B4B1A785B781B021A4300231204120C1B0C1B041343180027
:4005800014F0F6FCC046BD460DB0F0BDD62F00202C120020C0AC0100DC2F0020F0B58FB002AF1F4B1B78022B36D11E4B9B68181C06F014F905000E001A4B9B69181C06F0A8
:4005C0000DF903000C001849381D009301942A00330006F049FF2423FB1812221A812423FB183A1D1A603B1D180006F05FFF03009AB22423FB189A802423F9180B4B1A7852
:400600005B781B021A4300231204120C1B0C1B041343180014F0ACFCC046BD460DB0F0BDD62F00202C120020C0AC0100DC2F002090B589B000AF1B4B1B78022B2DD11A4B72
:400640001B68181C06F0CAF803000C00174938001A00230006F008FF1423FB181B221A811423FB183A001A603B00180006F01EFF03009AB21423FB189A801423F9180C4B52
:400680001A785B781B021A4300231204120C1B0C1B041343180014F06BFCC046BD4609B090BDC046D62F00202C120020D4AC0100DC2F002080B500AF0A4B1B78022B0ED1C9
:4006C000FFF7B6FF322002F0E5FCFFF71DFF322002F0E0FCFFF762FF322002F0DBFCC046BD4680BDD62F002080B500AF0D4B1B78032B0BD10C4B1B7801225340DAB20A4BC1
:400700001A70094B1B78180002F050FA074B1B685A1C064B1A60064B01221A70C046BD4680BDC046D62F0020AC0B0020241200202812002080B582B000AF786039607B687E
:40074000272B0DD004D8012B07D0262B0FD024E0282B09D0FA2B1DD01FE000F027FA1CE0012002F023FA18E000F020FA15E00D4B1B78042B10D1012002F018FA002002F094
:40078000E9F802F035F902F0ADF902F049F902F013FD01E0C04600E0C046C046BD4602B080BDC046D62F0020B0B588B000AFF860B9607A603B60FA6880231B02134005D0FE
:4007C000FB681E4A94466344FB6101E0FB68FB61F86904F0C5F9031C7968181C03F004FF031C181C05F0FAFF0022154B04F06AFD03000C0025001C00386805F0EFFF020081
:400800000B002000290004F05DFD03000C001800210006F037F8031CBB61B968B86903F019FD031C7B610749786903F0DDFE031C3B613B69181CBD4608B0B0BD0000FFFF70
:400840000000E040286B6E4E90B58BB000AF804B1B78052B00D9F7E09A007E4BD3181B689F467D4B1B78012B0DD0022B15D0002B1DD1012002F012FA002002F037FA0020D5
:4008800002F05CFA13E0002002F008FA012002F02DFA002002F052FA09E0002002F0FEF9002002F023FA012002F048FAC0466B4B1A686B4B1A60664B02221A70C4E0674BB8
:4008C0001A68674B1B689A4200D1BCE0604B03221A70B8E0634B180000F06EFC03007B627B6A9AB22223FB185205520D1A802223FB181B88002B44D05B4B180000F05CFCED
:400900000300FB61FB691B041B0CBB61574B7B61574B3B61FF239B05FB60FB683A697969B869FFF741FF031CBB604B4B1B78012B0FD0022B19D0002B23D14E4BBA685A6161
:40094000BB680021181CFFF7A3FC021C494B5A6017E0484BBA689A61BB680121181CFFF797FC021C434B9A600BE0424BBA68DA61BB680221181CFFF78BFC021C3D4BDA6003
:40098000C046334B04221A705EE0334B1B780133DAB2314B1A70304B1B78022B49D92E4B00221A70334B1B68181C05F017FF0022314B05F025FB03000C00180021002F4AB8
:4009C0002F4B05F0A3F803000C001800210000222C4B04F04BF903000C001800210005F051FF031C7B60234B5B687968181C03F0FBFD031C1A1C1F4B5A601E4B9B68796856
:400A0000181C03F0F1FD031C1A1C1A4B9A60194BDB687968181C03F0E7FD031C1A1C154BDA600E4B1A68134B1A61094B05221A700AE0074B01221A7006E0054B00221A70E7
:400A400002E0C04600E0C046C046BD460BB090BD4C120020DCAC01004D1200202412002050120020842000008820000000401C46C3F5E83F2C12002000804240B81E85EBC6
:400A800051B89E3F0000F03F80B500AF62B6012001F060FF012002F089F8364B180006F0D9FC354B180001F02FFA03001A00334B1A80002002F0A2F8002002F0C7F8002038
:400AC00002F0ECF8012002F011F9002002F036F92B4B1900022002F0ADFC022002F0CAFC284B180006F0B6FC08F012FE264B1B78082B17D1254B1B78012B13D1244B1B782D
:400B0000DBB2002B0CD0234B1B78002B08D1204B00221A701F4B01221A701F4B00221A70FFF792FE1A4B1B78DBB2002B15D0184B00221A70FFF7A8FC184B1A68184B1B6849
:400B4000D31A022B09D9154B1A68154B1A60154B1B78022B01D1FFF7ADFD134B1B78002BC2D0002001F068FA03001A00034B1A80BAE7C04664AD0100350700009427002035
:400B8000E90600007CAD01006B1200206A120020281200204C1200204D1200202412002020120020D62F0020C02F002080B584B000AF002001F01AFB03001A001F4B1A8051
:400BC0001E4B1B88002B08D01C4B1B881A001C4B1100180006F0C2FB2BE01A4B180006F0BDFB3B1D00229A713B1D180008F08CFD0E23FB1806221A8012E00E23FB181B88F4
:400C0000013B3A1DD35C1A000F4B1100180006F0A5FB0E23FB181A880E23FB18013A1A800E23FB181B88002BE7D1084B180006F011FCC046BD4604B080BDC04694270020AD
:400C40009CAD0100B8AD0100D0AD0100D8AD010080B584B000AF7860104B5A690F4BDB68D318FB600D4B5A68FB689A420DD90B4B9A680A4BDB689B00D3187A681A60074B6C
:400C8000DB685A1C054BDA6003E0044B042252429A61C046BD4604B080BDC046A42F002080B584B000AF786039607B689B08FF2213407B600023FB6011E00E4B1A69FB680B
:400CC0009B00D3181B781A007B689A4204D13B68FA681A60002309E0FB680133FB60054BDA68FB689A42E8D807235B421800BD4604B080BDA42F002080B582B000AF78606B
:400D000039607B689BB2180000F084F902003B681A6000231800BD4602B080BD80B584B000AF02003960BB1D1A80184B5A69174BDB68D318FB60154B5A68FB689A421DD98C
:400D4000124B1B691A1F114B1A61104B1B69BA1D1288920892B2D2B21A700C4B1B693A681202120A12021968FF2001400A431A60064B5B695A1C054B5A6103E0034B0422F0
:400D800052429A61C046BD4604B080BDA42F002080B584B000AF0200BB1D1A80BB1D1B880C22BA1811001800FFF77AFF031E0FD0BB1D1B880822BA1811001800FFF79CFFE7
:400DC000BA68BB1D1B8811001800FFF7A7FF07E0064B1A69FB689B00D3181B681B0ABB60BB681800BD4604B080BDC046A42F002080B584B000AF02003960BB1D1A80BB1D05
:400E00001B88274A934204D9264B052252429A6143E0BB1D1B880C22BA1811001800FFF73FFF031E20D11F4B1A69FB689B00D3183A681202120A12021968FF2001400A43CE
:400E40001A60BB1D1B889B089BB21A06FE23DB051A403B681B021B0A13438022120613431800FFF7F5FE18E03A68BB1D1B8811001800FFF753FFBB1D1B889B089BB21A06B5
:400E8000FE23DB051A403B681B021B0A13438022120613431800FFF7DBFEBD4604B080BDFF210000A42F002080B584B000AF0200FB1D1A700C23FB18FA1D12781A7008234A
:400EC000F9180C23FB180122180000F0D9FE0823FB181B781800BD4604B080BD80B584B000AF0200BB1D1A80BB1D1B881B0A9BB2DAB20C23FB181A70BB1D1B88DAB20C23B9
:400F0000FB185A700823F9180C23FB180222180000F0B6FE0823FB181B781B021AB20823FB185B781BB213431BB29BB21800BD4604B080BD80B584B000AF78607B681B0E66
:400F4000DAB20C23FB181A707B681B0CDAB20C23FB185A707B681B0ADAB20C23FB189A707B68DAB20C23FB18DA700823F9180C23FB180422180000F083FE0823FB181B789E
:400F80001A060823FB185B781B041A430823FB189B781B0213430822BA18D27813431800BD4604B080BDC04680B582B000AF02003960BB1D1A8000F093FE2020FFF774FFC5
:400FC000BB1D1B881800FFF789FF00F091FE00F087FE2D20FFF768FFBB1D1B880B4A934209D9BB1D1B880A4A934204D83B681800FFF7A0FF04E03B689BB21800FFF76EFF9C
:4010000000F076FEC046BD4602B080BDFF0F00001430000080B584B000AF0200BB1D1A800023FB6000F05CFE2020FFF73DFFBB1D1B881800FFF752FF00F05AFE00F050FEDC
:401040006D20FFF731FF0020FFF72EFFBB1D1B880C4A93420AD9BB1D1B880B4A934205D80020FFF767FF0300FB6004E00020FFF735FF0300FB6000F03BFEFB681800BD4662
:4010800004B080BDFF0F00001430000090B585B000AF786039603B68022B28D800F020FE2020FFF701FF324B1800FFF717FF00F01FFE0023BB6015E000F012FE6D20FFF7DB
:4010C000F3FE0020FFF7F0FEBB689B007A68D4180020FFF72FFF0300236000F009FEBB680133BB60BA683B689A42E5D33CE000F0F7FD5F20FFF7D8FE0023FB6005E0002015
:40110000FFF7D2FEFB680133FB60FB68052BF6D90023FB600BE0FB689B007A68D4180020FFF708FF03002360FB680133FB603B689A1EFB689A42EED8FB685A1CFA609B009D
:401140007A68D4180B4B1800FFF7F4FE03002360FB689B007A68D418064B1800FFF7EAFE0300236000F0C4FDC046BD4605B090BD6C2000004444444480B582B000AF0200BC
:401180003960BB1D1A800B4B1B78012B07D13A68BB1D1B8811001800FFF72AFE06E03A68BB1D1B8811001800FFF7FEFEC046BD4602B080BDA42F002080B582B000AF0200B2
:4011C000BB1D1A800A4B1B78012B06D1BB1D1B881800FFF7DDFD030005E0BB1D1B881800FFF718FF03001800BD4602B080BDC046A42F002080B584B000AF786080239B0172
:401200001800FFF7D9FF0300FB60FB6820229343FB607B681B78002B03D1FB6820221343FB60FA6880239B0111001800FFF7A4FF86239B011800FFF7BFFF0300FB607B6814
:401240005B78012B03D1FB6801221343FB607B689B78012B03D1FB6810221343FB607B68DB78012B03D1FB6804221343FB607B681B79012B03D1FB6820221343FB607B6808
:401280005B7A012B04D1FB68802252001343FB607B689B7A012B03D1FB6802221343FB607B68DB7A012B03D1FB6808221343FB607B681B7B012B03D1FB6840221343FB60BB
:4012C000FA6886239B0111001800FFF755FF0023FB607B689B79002B03D1FB6802221343FB607B685B79002B03D1FB6801221343FB607B68DB79012B03D1FB680422134325
:40130000FB60FB68044A19001000FFF735FFC046BD4604B080BDC0465020000080B582B000AF78607B68180000F00AF87B682033180000F0BFF8C046BD4602B080BDC04610
:4013400080B584B000AF78600023FB607B685B689B01FB607B689B681B01FA681343FB607B68DB68DB00FA681343FB607B685B699B00FA681343FB607B681B7E002B03D169
:40138000FB6801221343FB607B685B7E002B03D1FB6802221343FB607B681B68002B18D1FB681A4A19001000FFF7E6FE7B685A8B7B689B8BDBB21900100000F02FF87B683E
:4013C0001B6920221343124A19001000FFF7D4FE17E0FB680F4A19001000FFF7CDFE7B685A8B7B689B8BDBB21900100000F03CF87B681B6920221343074A19001000FFF7CD
:40140000BBFEC046BD4604B080BDC0462821000024210000342100003021000080B582B000AF0200BB1D1A807B1D0A1C1A707B1D7A1D12783F210A401A70BB1DBA1D1288B7
:401440001205120D1A807B1D1B781A03BB1D1B881343044A19001000FFF78EFEC046BD4602B080BD2021000080B582B000AF0200BB1D1A807B1D0A1C1A707B1D7A1D1278C6
:401480003F210A401A70BB1DBA1D12881205120D1A807B1D1B781A03BB1D1B881343044A19001000FFF768FEC046BD4602B080BD2C21000080B584B000AF78600023FB6040
:4014C0007B681B7E002B03D1FB6802221343FB607B685B7E002B03D1FB6801221343FB607B681B69042B04D1FB6804221343FB6005E07B681B69DB00FA681343FB607B6885
:40150000DB685B01FA681343FB607B689B689B02FA681343FB607B685B685B03FA681343FB607B681B68002B0DD1FB680E4A19001000FFF721FE7B685B690C4A19001000BE
:40154000FFF71AFE0CE0FB68094A19001000FFF713FE7B685B69074A19001000FFF70CFEC046BD4604B080BDEC200000E4200000E8200000E020000080B500AF88239B012D
:401580001800FFF719FE03001B0C1800BD4680BD80B584B000AF78607B685B6B1B041B0C814A19001000FFF7E7FD7B685B6B1B0C0F2213407D4A19001000FFF7DDFD7B68E0
:4015C0005B6A1B041A0C81231B0111001800FFF7D3FD7B685B6A1B0C0F221340744A19001000FFF7C9FD7B689B6B1B041B0C714A19001000FFF7C0FD7B689B6B1B0C0F2235
:4016000013406D4A19001000FFF7B6FD7B689B6A1B041A0C82231B0111001800FFF7ACFD7B689B6A1B0C0F221340644A19001000FFF7A2FD7B68DB6B1B041B0C604A1900E7
:401640001000FFF799FD7B68DB6B1B0C0F2213405C4A19001000FFF78FFD7B68DB6A1B041A0C83231B0111001800FFF785FD7B68DB6A1B0C0F221340534A19001000FFF74A
:401680007BFD7B681B6C1B041B0C504A19001000FFF772FD7B681B6C1B0C0F2213404C4A19001000FFF768FD7B681B6B1B041A0C84231B0111001800FFF75EFD7B681B6B57
:4016C0001B0C0F221340434A19001000FFF754FD414B01211800FFF74FFD0023FB607B685B6803221340FA681343FB607B689B689B000C221340FA681343FB607B68DB6850
:401700001B0130221340FA681343FB607B681B699B01FF221340FA681343FB607B685B691A02C0239B001340FA681343FB607B689B699A02C0231B011340FA681343FB60BC
:401740007B68DB691A03C0239B011340FA681343FB607B681B6A9B031B041B0CFA681343FB60FB681D4A19001000FFF705FD0023FB607B6844229B5C012B03D1FB680122B2
:401780001343FB607B681B685B00FA681343FB60FA6880231B0111001800FFF7EDFCC046BD4604B080BDC046080800000C08000014080000180800001C08000024080000CB
:4017C000280800002C08000034080000380800003C080000440800001C0A00000408000080B584B000AF0200FB1D1A7080231B011800FFF7E1FC02000E23FB181A800E23D0
:40180000FB180E22BA18128801218A431A80FB1D1B78012B07D10E23FB180E22BA18128801210A431A800E23FB181A8880231B0111001800FFF7A0FCC046BD4604B080BD7E
:4018400080B582B000AF78607B68044A19001000FFF792FCC046BD4602B080BD0430000080B584B000AF786039607B68002B01D10A4B00E00A4BFB60FB689BB21800FFF764
:401880009BFC0300BB60BB683A68134001D0012300E000231800BD4604B080BD103000001430000080B582B000AF78607B68044A19001000FFF760FCC046BD4602B080BD41
:4018C0001821000080B500AF064B00211800FFF753FC044B01211800FFF74EFCC046BD4680BDC0461C21000080B584B000AF78600023FB60FB680133FB608023DB001800B4
:40190000FFF75AFC02000A4B9A4209D07B68002B04DD7B68FA689A4204D8EBE7C046E9E7C04600E0C046FB681800BD4604B080BD4441000080B582B000AF78607B68002BDF
:4019400004D07B68044A1A60002301E002235B421800BD4602B080BDB00B002080B598B000AF786039607B68012B40D002DC002B05D06BE0022B45D0042B48D066E0364B08
:401980001800FFF719FC354B6C229B5C002B02D164235B425BE00823FB184422012199540823FB1800221A600823FB1800225A600823FB1803225A62284BDA69274B9B6AAF
:4019C000191C101C02F010FE031C181C02F02AFC03005A1F0823FB185A630823FB181800FFF7D6FD1D4B9C22002199502EE01A4B1800FFF7E1FB0020FFF7F2FE0020FFF7DC
:401A0000EFFE23E0154B9822012199541EE000210120FFF7A3FF5023FB180D220021180005F01EF85023FB181800FFF7E3FB0823FB183C220021180005F012F80823FB1838
:401A40001800FFF76BFCFFF73DFFC04600231800BD4618B080BDC04674200000B00B002080B582B000AF78603960144BDB6A002B15DD124B9C229A583B681B689B08D218F9
:401A80000E4B9C215A500D4B9C229A580B4BDB6A9A4204D30020FFF7A3FE00230AE0074B98229B5C012B04D10020FFF799FE002300E000231800BD4602B080BDB00B002090
:401AC00090B587B000AF786039603B681B683B617B68FB6000237B611CE07B699B007A68D3187A69920079688A1812681204120C1A607B699B00FA68D4187B699B007A68B5
:401B0000D3181B68180000F059F8031C23607B6901337B617A693B699A42DED300231800BD4607B090BDC04680B584B000AF786039600A20FFF7D8FE03000A2B02D909232E
:401B40005B4235E00020FFF7ADFE3B6800221A6080239B0419000020FFF782FE0300012B25D1FFF709FD0300FB60FA687B6811001800FFF78BFA80239B041800FFF760FEAC
:401B80000C23FA187B6811001800FFF769FF0A4B1800FFF787FE0C23FA187B6811001800FFF78EFFFA683B681A60002300E000231800BD4604B080BDE5470A0080B582B074
:401BC00000AF7860786803F013F8031C181CBD4602B080BD80B584B000AF0200FB1D1A700E23FB1800221A700F23FB1800221A7039E0FB1D1B785BB2002B03DA012000F0B4
:401C0000ADFF02E0002000F0A9FFFA1DFB1D1B78DB181370012001F063FA012000F07AFF022001F05DFA0E23FA180E23FB181B78DB18137000F060FF031E07D00E23FB18A8
:401C40000E22BA18127801210A431A70002000F061FF012001F044FA0F23FB181A780F23FB1801321A700F23FB181B78072BC0D90E23FB181B781800BD4604B080BDC046BA
:401C800090B587B000AFF860B9607A60FB68002B05D0BB68002B02D07B68002B02D101235B4219E000237B6111E0BA687B69D418FA687B69D3181B781800FFF78BFF03004F
:401CC0002370022001F00CFA7B6901337B617A697B689A42E9D300231800BD4607B090BD80B500AF002000F05BFEC046BD4680BD80B500AF012000F053FEC046BD4680BD85
:401D000080B582B000AF786039603A687B680021180004F0A5FEC046BD4602B080BDC04680B500AF054B03221A60054B03221A60044B00221A60C046BD4680BD3000304036
:401D400030003140000E3F4080B500AF04F044FE03001B680C2B00D1FEE7FEE780B584B000AF7860104B1A687B68D3181A000F4BD21A8023DB009A4209DC0B4B1B68FB6055
:401D8000094B1A687B68D218074B1A6007E004F023FE03000C221A6001235B42FB60FB681800BD4604B080BD500C0020E82F002080B586B000AF224B7B61224B3B61204BF8
:401DC0007B6135E03B691B68FB603B695B68BB603B699B683B6000237B600CE0FB681A68BB681A60BB680433BB60FB680433FB607B6804337B607A683B689A42EED13B691D
:401E0000DB683B6000237B6008E0BB6800221A60BB680433BB607B6804337B607A683B689A42F2D13B6910333B617B69013B7B617B69002BC6D104F0D5FDFEF725FEFEE7A9
:401E40000100000048B4010080B582B000AF154B144A126801218A431A6000237B600FE07B68032B04D8104B7A689200D35800E00E4B0F4A796889008B507B6801337B6010
:401E80007B682F2BECD9FEF73FF90A4B00221A60044B044A126801210A431A60C046BD4602B080BD0000104000000000491D000000000020C000002080B500AF094B0022FA
:401EC0001A70094B00221A70084B00221A7000F013F8074B00221A70064B00221A70C046BD4680BDDF2F0020D82F0020DE2F0020C02F0020C82F002080B500AF00F024FD80
:401F0000C046BD4680BDC046B0B594B004AF78603E23FB1800221A802823FA183D4B1000190014231A0004F092FD3B4B1B78002B04D1FFF7C1FF384B01221A707B68002B02
:401F40005CD0364B7A681A603E23FB181B88002B29D11023FB181C22BA185A601023FB182022BA181A601023FB1800221A812023FB181B221A802023FB181B225A80202358
:401F8000FB1804221A711C23FB1808221A703E23FC180E23FA181023FB181100180007F093FC030023803E23FB181B88002B29D13E23FC182823FD18AE231A011849194845
:401FC000194B0293194B0193052300932B0007F0D1FB030023803E23FB181B88002B11D1134B01221A703E23FC18124B11222221180013F00FFE0300238003E03E23FB1805
:4020000001221A803E23FB181B881800BD4610B0B0BDC046E8AD010074160020C42F0020C8000020252500007902000000BD0100D62F002034AE010090B593B000AF02007F
:40204000FB1D1A704623FB1800221A80614B1B781A00012313401ED04623FC18FB1D1B7818000EF085FE030023804623FB181B88002B10D1574B1B7801229343DAB2554BDC
:402080001A70544B1B781A000223134003D04623FB1828221A804623FB181B88002B03D0FB1D1B78002B2CD04A4B1B781A000223134026D0484B1B78042B22D8464B1B788D
:4020C0001A0013009B009B185B009E2292009A18424BD318591C4623FC18FB1D1B7840480A220EF02BFE030023804623FB181B88002B06D1374B1B7802229343DAB2354B34
:402100001A704623FB181B88002B03D0FB1D1B78002B57D02F4B1B781A000C23134051D02C4B1B781A00082313401FD00823FB1832220021180004F093FC4623FC18FB1DBD
:402140001B7828490822B81832220EF0F7FD030023804623FB181B88002B33D11D4B1B7808229343DAB21B4B1A702BE03C23FB1818000A231A00002104F072FC1A4B1B7859
:402180001A0013009B009B185B009E2292009A18124BD318591C4623FC18FB1D1B783C22B8180A220EF0CAFD030023804623FB181B88002B06D1074B1B7804229343DAB20D
:4021C000044B1A704623FB181B881800BD4613B090BDC046C02F0020DC2F002000BD0100CC2F002079BF01007516002090B585B000AF0200FB1D1A70FB1D1B78022B04D93D
:402200000E23FB1801221A804AE0294B1B78042B41D1284B1B78DBB21A00042313403AD1FB1D1B78002B0BD1234B1E221A82224B5B6820221A80204B5B6830225A8010E0A7
:40224000FB1D1B78012B0CD11B4B96221A821A4B5B68C822D2001A80174B5B68FA2212015A80164BFA1D12781A700E23FC18124B180011F0F3FC030023800E23FB181B8881
:40228000002B0DD10B4B1B78DBB204221343DAB2084B1A7004E00E23FB180422FF321A800E23FB181B881800BD4605B090BDC046D62F0020DF2F0020A40C0020DE2F002047
:4022C00080B584B000AF78600A00FB1C1A700023BB60BB68002B20D07B689A79BB681A700F23FB1800221A7012E00F23FB181B780133BA68D3180F22BA18127879688A5CD4
:402300001A700F23FB181A780F23FB1801321A700F23FB181B78052BE7D9C046BD4604B080BDC04680B582B000AF78607B681B789AB27B6801331B789BB21B029BB213430B
:402340009BB21800BD4602B080BDC04690B585B000AF78600F23FB1800221A707B689B890F22934232D17B68181D7A680F23FC184023002113F066FC030023700F23FB18FA
:402380001B78002B1AD17B685B681800FFF7CAFF03001A00022313409BB2002B07D00F4B1B687968822252001000984706E00B4B1B6879680622FF3210009847084B1B78A2
:4023C000DBB201229343DAB2054B1A700F23FB181B781800BD4605B090BDC046C42F0020DF2F002090B585B000AF78600F23FC187B681800FFF7AAFF03002370154B1B784B
:40240000DBB21A00012313401FD10F23FB181B78002B16D00823FB1812229A707B689A890823FB181A800823FB180F22BA181278DA700823FA187B681100186812F05AFD2C
:4024400003E07B68186812F0E9FDC046BD4605B090BDC046DF2F002080B582B000AF7860C046BD4602B080BD80B500AF044B00225A70034B00221A70C046BD4680BDC046A4
:40248000DC2F002080B582B000AF7860C046BD4602B080BD80B500AFC046BD4680BDC04680B584B000AF78600E23FB1800221A707B689B79002B1CD10F23FB1800221A70FB
:4024C00012E00F23FB181B787A68D35C002B04D00E23FB1801221A700BE00F23FB181A780F23FB1801321A700F23FB181B78052BE7D90E23FB181B781800BD4604B080BDA2
:4025000080B582B000AF0200BB1D1A80C046BD4602B080BD80B582B000AF7860C046BD4602B080BD80B588B000AF02003960FB1D1A70C94B1B78DBB201221343DAB2C64B90
:402540001A70FB1D1B78412B00D160E123DC212B00D1C6E00DDC022B00D198E002DC012B3BD0D1E1052B00D196E0062B00D198E0CAE1272B00D1EEE006DC242B00D1E0E071
:40258000262B00D1F3E0BFE1282B00D1EBE02A2B00D1DBE0B8E14F2B00D1A8E10BDC432B00D175E100DA54E14C2B00D18DE14E2B00D19EE1A8E1572B00D19CE106DC502B89
:4025C00000D19AE1542B00D184E19DE1712B00D117E1FA2B00D182E196E11423FB1807221A701423FB1800225A701423FB18180009F0CEF81423FB1807221A701423FB188C
:4026000001225A701423FB18180009F0C1F80B23002B01D007F070F8904B1B681800FFF73FFF031E11D08D4B1B68180007F074F88A4B1B6800211800FFF742FE874B1B6872
:4026400001211800FFF73CFE0DE0854B180007F063F8834B00211800FFF732FE804B01211800FFF72DFE032011F08CF91023FB183F221A701023FB1800225A701023FB1824
:40268000180011F09DF9774B04221A703CE13B681800FFF7F7FE37E13B681A78724B1A7032E13B68BB61BB691B78002B00D026E1BB695B78002B0BD16C4B0022DA806B4B30
:4026C00000229A80694B6A4A1A60BB69674A5A60614B1B78DBB201229343DAB25E4B1A700DE15D4B1B78DBB21A002023134000D007E1604B1B78102B02D15E4B0522DA7025
:402700005D4B1B785B4A1100180011F065FA03001A000E23FB181A800E23FB181B88002B06D0564B1B680E22BA18110036209847494B1B78DBB201221343DAB2464B1A700D
:40274000DFE03B685A784E4B1A70DDE03B681800FFF7E0FED8E03B681800FFF7DBFE414B02221A70D0E03F4B04221A70CCE03D4B1B78022B00D1C6E0374B1B78DBB21A0029
:402780000123134000D1BEE0334B1B78DBB21A00042313400BD0334B03221A702E4B1B78DBB204229343DAB22B4B1A70ABE02A4B1B78DBB21A00082313400BD0294B0422AB
:4027C0001A70254B1B78DBB208229343DAB2224B1A7098E0234B1B78032B00D093E0214B04221A70274B1B78002B00D08BE00120FFF7FCFC031E00D085E01A4B03221A7052
:4028000081E03B681B881800FFF77AFE7CE01A4A3B681000190002231A0004F018F9124B00221A70144B1B781A0013009B009B185B009E2292009A18134BD3180133134AEC
:40284000100019000A231A0004F001F9FFF722FE5AE0FFF709FE57E0DF2F0020C00C0020B80C0020D62F0020D82F002078160020A80B0020100E0020DC2F0020C42F00202F
:40288000C82F0020DE2F002000BD0100CC2F00203B685B88162B05D81E23FB183A6852881A8003E01E23FB1817221A801E23FB1819883B681A8800231204120C1B0C1B040C
:4028C0001343180012F020FB1EE03B681800FFF789FD19E03B681800FFF7BEFD14E0174B1B7801221343DAB2144B1A700CE0C0460AE0C04608E0C04606E0C04604E0C04636
:4029000002E0C04600E0C0460D4B1B78DBB21A00112313400ED00A4B1B78DBB201229343DAB2074B1A70074B1B68FA1D1278396810009847C046BD4608B080BDC02F0020E9
:40294000DF2F0020C42F002080B500AFC046BD4680BDC04680B584B000AF0200FB1D1A700E4B1B68DAB20F23FB1801218A431A70FB1D1B7801221340D9B20F23FB180F22E2
:40298000BA1812780A431A70044B0F22BA1812781A60C046BD4604B080BDC0460005044080B584B000AF0200FB1D1A700F4B1B68DAB20F23FB1840218A431A70FB1D1B7878
:4029C0009B01DBB240221340D9B20F23FB180F22BA1812780A431A70044B0F22BA1812781A60C046BD4604B080BDC0460001044080B582B000AF094B1B68DAB2FB1D102168
:402A00000A401A70054BFA1D12781A60FB1D1B781B09DBB21800BD4602B080BD1001044080B500AF00F054F8054B180000F010F8032000F01BF800F041F8C046BD4680BD87
:402A4000452A000080B500AFC046BD4680BDC04680B582B000AF7860034B7A685A64C046BD4602B080BDC0460000002090B585B000AF0200FB1D1A700E23FB600B23FC1822
:402A800000F09FFD030023700A4B0A4A12680A491140FA1D1078FA68904002000A431A600B23FB181B78180000F08FFDC046BD4605B090BD00E400E0FF3FFFFF80B500AF3C
:402AC000024B02221A60C046BD4680BD00E100E080B500AF024B02221A60C046BD4680BD80E100E080B500AF024B02221A60C046BD4680BD80E200E080B500AF044B1B6881
:402B0000202213405B09DBB21800BD4680BDC0460400044080B584B000AF0200FB1D1A700D4B1B68DAB20F23FB187F210A401A70FB1D1B78DB01D9B20F23FB180F22BA1833
:402B400012780A431A70044B0F22BA1812781A60C046BD4604B080BD0001044080B584B000AF0200FB1D1A700F4B1B68DAB20F23FB1810218A431A70FB1D1B781B01DBB219
:402B800010221340D9B20F23FB180F22BA1812780A431A70044B0F22BA1812781A60C046BD4604B080BDC0460000044080B584B000AF0200FB1D1A700F4B1B68DAB20F236B
:402BC000FB1802218A431A70FB1D1B78DB18DBB202221340D9B20F23FB180F22BA1812780A431A70044B0F22BA1812781A60C046BD4604B080BDC0460004044080B584B06B
:402C000000AF0200FB1D1A700F4B1B68DAB20F23FB1840218A431A70FB1D1B789B01DBB240221340D9B20F23FB180F22BA1812780A431A70044B0F22BA1812781A60C046C2
:402C4000BD4604B080BDC0460003044080B584B000AF0200FB1D1A700F4B1B68DAB20F23FB1820218A431A70FB1D1B785B01DBB220221340D9B20F23FB180F22BA1812788B
:402C80000A431A70044B0F22BA1812781A60C046BD4604B080BDC0460001044080B584B000AF0200FB1D1A700F4B1B68DAB20F23FB1810218A431A70FB1D1B781B01DBB25C
:402CC00010221340D9B20F23FB180F22BA1812780A431A70044B0F22BA1812781A60C046BD4604B080BDC0460003044080B584B000AF0200FB1D1A700F4B1B68DAB20F2327
:402D0000FB1820218A431A70FB1D1B785B01DBB220221340D9B20F23FB180F22BA1812780A431A70044B0F22BA1812781A60C046BD4604B080BDC0460003044080B584B085
:402D400000AF0200FB1D1A700D4B1B68DAB20F23FB187F210A401A70FB1D1B78DB01D9B20F23FB180F22BA1812780A431A70044B0F22BA1812781A60C046BD4604B080BDD5
:402D80000003044090B585B000AF78600C23FC1800F017FC030023707B68022B00D8B3E07B68302B00D9AFE05E4B1B78DBB21A007B689A420AD35C4A0F23FB1812781A7050
:402DC0005A4A0E23FB1812781A703FE0584B1B78DBB21A007B689A420AD3564A0F23FB1812781A70544A0E23FB1812781A702DE0524B1B78DBB21A007B689A420AD3504A36
:402E00000F23FB1812781A704E4A0E23FB1812781A701BE04C4B1B78DBB21A007B689A420AD34A4A0F23FB1812781A70484A0E23FB1812781A7009E0464A0F23FB181278C2
:402E40001A70454A0E23FB1812781A707B68DA1E0B23FB1841498A5C1A700B23FB181B782F2B0DD97B682A2B0AD93D4B19221A60052000F09DFB0D23FB1819221A7007E0C3
:402E8000374B1B68DAB20D23FB183F210A401A700B23FA180D23FB1812781B789A4208D22F4B7A68033A2D498A5C1A60052000F07FFB7B68284A9A180A23FB1812781A705B
:402EC000284B0A22BA1812781A60274B0F22BA1812781A60254B0E22BA1812781A60052000F0FEF80B23FA180D23FB1812781B789A420CD91A4B7A68033A18498A5C1A60BD
:402F0000052000F055FB02E0002000F0B7F80C23FB181B78180000F058FBC046BD4605B090BDC04640F3FF0F41F3FF0F42F3FF0F43F3FF0F44F3FF0F45F3FF0F46F3FF0F6E
:402F400047F3FF0F48F3FF0F49F3FF0F4AF3FF0F4BF3FF0F4CF3FF0F4DF3FF0FDCB001002CFF0B4028FF0B401CFF0B4020FF0B4080B584B000AF78600023FB60154B154AD2
:402F8000126801210A431A60134B144A1A60144B134A1268802109020A431A607B68002B12D01023FB600CE0012000F099F800F019F8031E02D00023FB6005E07B68013B4D
:402FC0007B607B68002BEFD1FB681800BD4604B080BDC04660F02E4078002E400220000010002E4080B582B000AF054B1B68012213407B607B681800BD4602B080BDC04642
:403000000C002E4080B584B000AF02003960FB1D1A7080239B05FB60FB1D1B781F2B02D9002000F02BF8FB1D1B7810339B00FA68D3181B68BB60FB1D1B7810339B00FA68C1
:40304000D3183A681A60BB681800BD4604B080BD80B582B000AF0200FB1D1A70064BFA1D12781F210A40012191400A001A60C046BD4602B080BDC04600E100E080B582B047
:4030800000AF0200FB1D1A7001BEC046BD4602B080BDC04680B582B000AF786009E00D4B1B68180000F084FA7B680B4A944663447B607A6880231B029A42F0D8074B1B6819
:4030C0007A685343180000F073FAC046BD4602B080BDC046240E00200080FFFF1C0E002080B582B000AF0200BB1D1A80BB1D1B88044A12785343180000F05AFAC046BD46F3
:4031000002B080BD200E002080B500AF164B164A1268920092081A60144B144A1268920092081A60124B124A1268920092081A60104B104A1268920092081A600E4B0E4A51
:403140001268920092081A600C4B0C4A1268920092081A600A4B0A4A1268920092081A60C046BD4680BDC04608000440080104400802044008030440080404400805044076
:403180000806044090B583B000AFFC1D00F019FA03002370074B074A126804218A431A6030BFFB1D1B78180000F00FFAC046BD4603B090BD10ED00E090B583B000AFFC1D8A
:4031C00000F0FFF903002370FFF79EFF114B114A1268802109060A431A600F4B0F4A128892B21A600E4B0E4A126804210A431A600C4B0C4A1268FF218A43F1210A431A6007
:4032000030BFFB1D1B78180000F0DFF9C046BD4603B090BD00000B400C000B4050F2FF0F10ED00E02C000B4080B500AF0F4B0F4A126801218A431A600C4B0C4A1268022101
:403240008A431A600A4B0A4A126830218A4310210A431A60064B064A126807218A4301210A431A60C046BD4680BDC04600F02E4000FF2E4080B500AF0F4B0F4A126802218A
:403280008A431A600D4B0D4A126807218A4302210A431A60094B094A126830218A4320210A431A60044B044A126801210A431A60C046BD4680BDC04600F02E4000FF2E4061
:4032C00080B500AFFFF7B0FF044B044A1268802109060A431A60C046BD4680BD00F02E4080B584B000AF78600C4B1B6801221340FB607B68002B02D0012B03D005E0FFF7BE
:4033000093FF06E0FFF7B6FF03E00020FFF7B6FEC046FB681800BD4604B080BD00F02E4090B583B000AFFC1D00F04BF903002370074B074A1268C02109020A431A60FB1DF8
:403340001B78180000F041F9C046BD4603B090BD00010B4080B500AF054B1A68C0231B02134001D0012300E000231800BD4680BD00010B4090B583B000AFFC1D00F021F934
:40338000030023700D4B0D4A12680D490A408021C9010A431A60094B084A126808490A40802109020A431A60FB1D1B78180000F00CF9C046BD4603B090BDC04600010B403B
:4033C000FF3FFFFF90B585B000AF78600B23FC1800F0F7F803002370FFF7BCFF031E04D00123FB60FFF7C6FF01E00023FB607B680D4A13407B600D4B0C4A12680C49114064
:403400007A680A431A60094B1B68FB68012B01D1FFF786FF0B23FB181B78180000F0D5F8C046BD4605B090BD0404040010020B40FBFBFBFF80B584B000AF78603960002377
:40344000FB607B68022B0AD8094B7A689200D358FB60074B7A6892003968D15002E00020FFF70CFEFB681800BD4604B080BDC0468C16002080B582B000AF78607B68022BF2
:4034800013D80D4B7A689200D358DA430B4B1B681A400A4B1A60084B7A689200D258084B1B681A43064B1A6002E00020FFF7E6FDC046BD4602B080BD0CB1010088160020CD
:4034C000300E002080B500AF344B1B68042213401FD0334B1B680422134017D0314B1B6804221340DA432E4B1B681A402C4B1A602C4B1B68042293431A002A4B1A602A4B6F
:403500001B68002B02D0284B1B6898470420FFF759FF224B1A688023DB00134022D0204B1A688023DB00134017D01E4B1A688023DB001340DA431A4B1B681A40184B1A6075
:40354000184B1B68194A1A40164B1A60164B5B68002B02D0144B5B6898478023DB001800FFF730FF0D4B1A688023DB02134011D00B4B1A688023DB02134006D00A4B9B6889
:40358000002B02D0084B9B6898478023DB021800FFF718FFC046BD4680BDC04610020B40300E0020881600208C160020FFFBFFFF0230800803D00138FDD1C046C046C0460F
:4035C0007047EFF3108072B6704780F31088704780B5CCB000AFF860B960844B982149008C46BC4463441A80002392225200BA181360002390225200BA181360BB688A22A3
:403600005200BA181360794B982252009446BC4463441A888A235B00FB181B68D318744A934200D9C2E08A235B00FB181B681B0A96225200BA18136096235B00FB181B68AD
:403640001B028E225200BA1813609AE000238C225200BA181360002394225200BA1813606BE08E235B00FB181A688A235B00FB181B689A423DD35D4B982252009446BC4490
:4036800063441A8892235B00FB181B689A4230D9FA6892235B00FB181B68D3181978554B98225200BA18D21894235B00FB181B68D3180A1C1A708E235B00FB181B681B78D2
:4036C000DAB2F96892235B00FB181B68CB181B789A4204D001238C225200BA18136092235B00FB181B68013392225200BA18136011E08E235B00FB181B681B78D9B23D4B4A
:4037000098225200BA18D21894235B00FB181B68D3180A1C1A708E235B00FB181B6801338E225200BA18136094235B00FB181B68013394225200BA18136094235B00FB1813
:403740001B68FF2B8DD98C235B00FB181B68002B0ED01423FA1896235B00FB181B681100180000F057FA030090225200BA18136096235B00FB181B68013396225200BA182A
:4037800013601A4B982252009446BC4463441A8892235B00FB181B689A420CD990235B00FB181B68002B00D150E704E0012390225200BA18136090235B00FB181B68002BA4
:4037C0000BD090235B00FB181B68012B05D001235B4290225200BA18136090235B00FB181B681800BD464CB080BDC046D6FEFFFFFFFF0300E4FEFFFF80B582B000AF7860A0
:403800000A00BB1C1A80BB1C1A887B681A60C046BD4602B080BDC04680B582B000AF78600A00BB1C1A80BB1C1A887B681A60C046BD4602B080BDC04680B584B000AF494B50
:403840001B78DBB21B02484A1278D2B21343FB60464B1B78DBB21B02454A1278D2B21343BB60BB68434A934207D1FB68072B04D1414BBB600423FB6009E0BA68D4231B01D0
:403880009A4204D1FB68042B01D13B4BBB603B4BBA681A603A4BFA681A603A4B1B78DBB21B02394A1278D2B21343FB60FA6880239B019A4202D0FB68002B01D1334BFB6043
:4038C000334BFA681A60334B1B78DBB21B02324A1278D2B21343FB60FB68304A934206D0FB682F4A934202D0FB68052B01D12D4BFB602D4BFA681A602C4B1B681B097B60E8
:403900002B4B1B68AA2B29D17B68012B26D9214B1B78DBB20E2B21D1264B1B78DBB29BB21B0299B2244B1B78DBB29AB2BB1C0A431A80224BBA1C12881A60214B1B78DBB238
:403940009BB21B0299B21F4B1B78DBB29AB23B000A431A801C4B3A0012881A60C046BD4604B080BD59F1FF0F58F1FF0F5FF1FF0F5EF1FF0F580B0000580D00006C002E40DF
:4039800074002E405BF1FF0F5AF1FF0F0220000078002E405DF1FF0F5CF1FF0F0F0F000005050000050F000080002E40EC0F00F0E00F00F06DF2FF0F6CF2FF0F84002E40F4
:4039C0006FF2FF0F6EF2FF0F94002E4080B582B000AF0200BB1D1A80BB1D1B881800FFF77FFBC046BD4602B080BDC04680B582B000AF78607B681800FFF74CFBC046BD462E
:403A000002B080BD80B500AF00F0ECF8C046BD4680BDC04680B500AF00F0F0F8C046BD4680BDC04680B500AF00F0E8F8044B180000F0A2F8032000F0ADF8C046BD4680BDE8
:403A4000393E000080B500AF034B180000F080F8C046BD4680BDC046393E000080B500AF014B1800BD4680BD0202000080B582B000AF78602B231800BD4602B080BDC04682
:403A800080B582B000AF78602B231800BD4602B080BDC04680B582B000AF78602B231800BD4602B080BDC04680B582B000AF78602B231800BD4602B080BDC04680B582B0BB
:403AC00000AF78602B231800BD4602B080BDC04680B582B000AF78602B231800BD4602B080BDC04680B582B000AF78602B231800BD4602B080BDC04680B582B000AF78605B
:403B00002B231800BD4602B080BDC04680B500AF2B231800BD4680BD80B582B000AF0200FB1D1A702B231800BD4602B080BDC04680B582B000AF786039602B231800BD4695
:403B400002B080BD80B500AFC046BD4680BDC04680B582B000AF786000F050F87B68180000F00AF8032000F015F800F03BF8C046BD4602B080BDC04680B582B000AF7860E4
:403B8000034B7A681A67C046BD4602B080BDC0460000002090B585B000AF0200FB1D1A700623FB600B23FC18FFF70BFD030023700B4B0B4A1268C0218A431100FA1D10788C
:403BC000FA68904002000A431A600B23FB181B781800FFF7FAFCC046BD4605B090BDC0460CE400E080B500AF034B802252011A60C046BD4680BDC04600E100E080B500AF7F
:403C0000034B802252011A60C046BD4680BDC04680E100E090B5C9B000AF7860396000238C225200BA18136000238A225200BA1813607B686C4A934200D9C7E03B68002BD2
:403C400000D1C3E080235A0039680C23FB180833180002F0FCFE7B68644A934201D9644A00E0644A644B902149008C46BC4463441A60614B902252009446BC446344FF2247
:403C80005A605E4B0C22BA181A605D4B5D4A1A60C0465A4B1B681B0F1A07F0231B069A4204D1564B1B68FF2213400DE0534B1B681B0F1A07A0231B069A4204D04F4B1B685E
:403CC000FF22134000E000238C225200BA1813608C235B00FB181B68002B00D07BE02023FF33FC18FFF76DFC0300237000F090F803008A225200BA1813608C235B00FB18B9
:403D00001B68002B3FD13C4B902252009446BC4463443D4A1A60384B902252009446BC4463441A687B681B041A43334B902149008C46BC4463441A60304B0C22BA181A606F
:403D40002F4B324A1A60C0462C4B1B681B0F1A07F0231B069A4204D1284B1B68FF2213400DE0264B1B681B0F1A07A0231B069A4204D0224B1B68FF22134000E000238C2264
:403D80005200BA1813608A235B00FB181B68002B14D100F047F803008A225200BA1813608A235B00FB181B68002B07D08A235B00FB181B688C225200BA1813602023FF3351
:403DC000FB181B781800FFF700FC04E004238C225200BA1813608C235B00FB181B681800BD4649B090BDC046FF030000FF010000B6D70001B6D70000ECFEFFFF080010405F
:403E00000400104004000080B6D800000500008080B582B000AF00237B607B681800BD4602B080BD80B582B000AF00237B607B681800BD4602B080BD80B500AF16F02AFE83
:403E4000C046BD4680BDC046002243088B4274D303098B425FD3030A8B4244D3030B8B4228D3030C8B420DD3FF22090212BA030C8B4202D31212090265D0030B8B4219D313
:403E800000E0090AC30B8B4201D3CB03C01A5241830B8B4201D38B03C01A5241430B8B4201D34B03C01A5241030B8B4201D30B03C01A5241C30A8B4201D3CB02C01A5241BF
:403EC000830A8B4201D38B02C01A5241430A8B4201D34B02C01A5241030A8B4201D30B02C01A5241CDD2C3098B4201D3CB01C01A524183098B4201D38B01C01A5241430913
:403F00008B4201D34B01C01A524103098B4201D30B01C01A5241C3088B4201D3CB00C01A524183088B4201D38B00C01A524143088B4201D34B00C01A5241411A00D2014621
:403F4000524110467047FFE701B5002000F0F0F802BDC0460029F7D076E7704703460B437FD4002243088B4274D303098B425FD3030A8B4244D3030B8B4228D3030C8B422B
:403F80000DD3FF22090212BA030C8B4202D31212090265D0030B8B4219D300E0090AC30B8B4201D3CB03C01A5241830B8B4201D38B03C01A5241430B8B4201D34B03C01A6F
:403FC0005241030B8B4201D30B03C01A5241C30A8B4201D3CB02C01A5241830A8B4201D38B02C01A5241430A8B4201D34B02C01A5241030A8B4201D30B02C01A5241CDD2C5
:40400000C3098B4201D3CB01C01A524183098B4201D38B01C01A524143098B4201D34B01C01A524103098B4201D30B01C01A5241C3088B4201D3CB00C01A524183088B42EC
:4040400001D38B00C01A524143088B4201D34B00C01A5241411A00D201465241104670475DE0CA0F00D04942031000D34042534000229C4603098B422DD3030A8B4212D3B4
:40408000FC22890112BA030A8B420CD3890192118B4208D3890192118B4204D389013AD0921100E08909C3098B4201D3CB01C01A524183098B4201D38B01C01A524143096C
:4040C0008B4201D34B01C01A524103098B4201D30B01C01A5241C3088B4201D3CB00C01A524183088B4201D38B00C01A5241D9D243088B4201D34B00C01A5241411A00D2FC
:404100000146634652415B10104601D34042002B00D54942704763465B1000D3404201B5002000F005F802BD0029F8D016E770477047C0468446101C62468C46191C634608
:4041400000E0C0461FB501F077FC002801D40021C8421FBD10B501F0CBFB4042013010BD10B501F069FC002801DB002010BD012010BDC04610B501F05FFC002801DD0020EA
:4041800010BD012010BDC04610B501F0F1FB002801DC002010BD012010BDC04610B501F0E7FB002801DA002010BD012010BDC0468446081C6146FFE71FB500F0D1F9002809
:4041C00001D40021C8421FBD10B500F05DF94042013010BD10B500F0C3F9002801DB002010BD012010BDC04610B500F0B9F9002801DD002010BD012010BDC04610B500F0FF
:404200006BF9002801DC002010BD012010BDC04610B500F061F9002801DA002010BD012010BDC0469E2110B5C905041CFFF7F0FF002803D1201C00F071FC10BD9E21201C8D
:40424000C90500F0E5FA00F069FC80231B069C466044F2E7F0B5564644465F464D46F0B444024600C70F83B08846650A360EBA463DD0FF2E22D00023EC00802599469B46CC
:40428000ED0425437F3E43465C025800DB0F640A000E984636D0FF2830D080230021E400DB041C437F38301A0190484642460843724E800030587A4013008746002D44D1BB
:4042C00008239946063B9B46DDE70122FF2000241A406402C305640AD2071C431443200003B03CBC90469946A246AB46F0BD002D20D104239946033B9B46C4E7002C17D1DB
:40430000022102E0002C0AD10121321A01924A4643460A435A48920082587B409746200002F03CFB431F76309C4040420021BAE70321B8E7280002F031FB431F9D40002388
:404340007630464299469B469DE70C239946093B9B4698E780240022E403FF20B9E70024C2468B465A465346022AAED0032A7DD0012A31D1012200201A400024A9E70122B2
:40438000101A1B2856DD1A4000200024A1E78023DB031D424BD18023DB032B435C02640A3A00FF2095E76D016001854230D2019A0024013A01921B220127290064006D0027
:4043C000002901DBA84201D82D1A3C43013A002AF3D16A1E95412C4301987F300028CEDD620704D00F222240042A00D00434220103D5244A019814408030FE2800DD64E7C4
:404400000122A401640AC0B21A4062E72C00A9E72D1A1A220124CFE76B02BCD500248023DB031C436402640A4246FF2051E71C42B3D1F4E721002022C140101A8440621ED3
:4044400094410C43620704D00F222240042A00D00434620104D5012201201A40002438E70122A401640A1A40002032E78023DB031C436402640A5246FF202AE718B10100E6
:4044800058B10100FFFFFFF7430270B542004C005D0AC30F4802120E460A240EC90FFF2A0FD0FF2C11D00120A24200D070BDB542FCD18B420DD0002AF8D12800431E984130
:4044C000F4E70120002DF1D1EBE70120002EEDD1E9E70020EAE7C0464302F0B542005D0AC30F4802440A4800120E000EC90FFF2A1FD0FF2822D0002A09D16E426E41002824
:404500000FD1002C0DD10020002D09D005E0002801D1002C01D08B4213D0584201231843F0BD002EF7D048424141012049420843F6E7002DDDD002204042F1E7002CDAD018
:40454000F9E78242E9DC04DBA542E6D80020A542E6D25842434101205B421843E0E7C0464302F0B542004C005E0AC30F4802120E450A240EC90FFF2A17D0FF2C19D0002AC8
:404580000BD170427041002C17D0002807D048424141012049420843F0BD002C13D08B4214D0584201231843F6E70220002EF3D1E3E70220002DEFD1E1E7002DE5D100208C
:4045C000002EE9D0EDE7002DE9D1EAE7A242E8DC04DBAE42E5D80020AE42DDD25842434101205B421843D7E7F0B557464E4645464300E0B446028846760A1F0EC40F002F63
:4046000047D0FF2F25D0002380259A469946F600ED042E437F3F434642465D02D20F5B006D0A1B0E904640D0FF2B39D080220020ED00D20415437F3BFB1842465746591CFA
:4046400062408C4607430F2F5CD86F49BF00C9598F46002E45D108239A46063B9946DAE7424602282DD0032800D1C3E0012800D0A2E0002500260240D4B27602ED05760AA6
:404680002E43E407264330001CBC90469946A246F0BD002E1AD104239A46033B9946BAE72A00511E8A41901CC6E70120002DC3D0280002F073F9431F76309D404342002057
:4046C000BAE70124FF2514400026D6E7300002F065F9431F9E400023763047429A46994699E70C239A46093B994694E780260024F603FF25C1E735004846B2E73500220059
:404700004846AEE72904090C0800370C3604360C2C0C7943704367437443060C64183619B14203D980214902884647440004000C310409188D01681E8541890E2943350CD0
:40474000ED19AD010D43290104D5012369081D4063460D4319007F31002925DD680704D00F202840042800D00435280103D5274980330D401900FE29A3DC0124AD016E0AC9
:404780001440CDB279E78020C003064207D0054205D128434602760A4446FF256DE706437602760AFF2568E70124611A1B2905DD14400025002660E76346CBE72E002023C6
:4047C000CE40591A8D406B1E9D412E43730704D00F233340042B00D00436730104D5012401251440002648E70124B601760A1440002542E780260124F6032E437602760AFB
:404800001440FF2539E7C04698B10100FFFFFFF7F8B54A024E0043024400240EC50F9B09360EC90F9209FF2E00D183E001204140A01BA9425CD0002800DC95E0002E1CD102
:40484000002A00D081E05A0704D00F221A40042A00D004335A013BD50134FF2C00D191E001209B015B0AE4B205405B02E4055B0AED0723432B431800F8BDFF2CE3D080211F
:40488000C9040A431B2800DD90E016002021C640081A8240511E8A4132439B1A5A0115D59B019E09300002F079F80538864084426CDC041B330020200134E340041BA6408E
:4048C000721E964100243343BDE70D005A07BCD1DF0801231D40FF2C33D1002F00D190E08022D20313003B435B025B0AFF24BCE700284FDD002E2ED0FF2CA4D08025ED04CC
:404900002A431B2800DD97E016002025C640281A8240501E824132439B185A01D5D50134FF2C6DD001227B481A405B08034013430D0088E7002A00D07AE777E7031EC5D1EB
:4049400000257B025B0AE4B28FE701380028A4D0FF2C97D177E7002A00D174E701380028DAD0FF2CCDD16EE7002821D1601CC0B2012858DD80279E1AFF0437402FD0D61AB1
:404980000D008FE701231D4000236EE7624B241A334058E7002851D1601CC6B2012E33DDFF282DD09B185B0804004CE7012274E7002C1AD0FF2E1FD08024E40440422343CC
:4049C0001B2800DD96E01D002024C540201A8340581E83412B43D31A34000D005EE7002E00D05FE700250024ABE7002B44D0C0430028F0D0FF2EE3D11300FF240D0022E72D
:404A00000D00FF24002330E7002C5DD1002B7DD0002A00D117E79B185A0100D456E73E4A040013400FE7002C1ED1002B2FD1002A65D013000D0006E701226DE7002C1FD108
:404A4000002B59D0C04300280BD0FF2E4FD01B285EDC1D002024C540201A8340581E83412B439B18340058E7002B1CD1002A49D013000D00FF24E6E6130034000D00E2E65C
:404A8000FF2E34D08024E40440422343DFE7002A00D1D8E68027981AFF04074000D14DE7D31A0D00CFE6FF24002A00D1CBE68020DB08C003034204D0D208024201D113004A
:404AC0000D00DB00FF24BEE6002B10D0FF24002A00D1B8E68020DB08C003034203D0D208024200D11300DB000D00FF24ABE61300FF24A8E601236EE713003400A3E6002710
:404B000000251EE780270025FF03E9E613009AE60123A6E7FFFFFF7DFFFFFFFB4302590A4300C20F1B0E00207E2B0EDD9D2B0DDC802000040143952B0BDC9620C31AD94073
:404B40000B005842002A00D118007047034BD018FBE7963B99400B00F3E7C046FFFFFF7F70B5002830D0C317C5185D40C40F280001F014FF9E231B1A962B0DDC9622D21AB9
:404B800095406A02520AD8B25202C005520AE40702432243100070BD992B19DC9922D21A9540124A2A40690704D00F210D40042D00D00432510103D50C4B1A409F231B1AC2
:404BC0009201520AD8B2DFE7002400200022DBE705222E00121AB921D6402A00C91A8A40551EAA4135001543DBE7C046FFFFFFFB70B5041E28D001F0D1FE9E231B1A962BA5
:404C00000ADC9622D21A94406202520AD8B25202520AC005104370BD992B18DC9922D21A9440114A2240610704D00F210C40042C00D00432510103D50B4B1A409F231B1A28
:404C40009201520AD8B2E2E700200022DFE705222500121AB921D5402200C91A8A40541EA2412C001443DCE7FFFFFFFBF8B556465F464D464446F0B40F00FD0FAA4609035B
:404C80007C002E005F00450F490A7F0D2943C5001803BC46400A570F640DDB0F3843D2009A4500D1AAE06646A61B002E00DCFFE06346002B39D10300134300D0D9E06B0750
:404CC00009D00F232B40042B05D02B1DAB42AD416D4249191D000B0200D482E0CA4B01349C4200D1FEE00A005646C84BED081A405007640552020543120B640D00211203A7
:404D00000B0D1B056405120B1A436308C04CF60714401C43640064083443280021003CBC90469946A246AB46F8BDB74B9C42C6D080231B041843382E00DDEBE01F2E00DD9B
:404D40001EE120239B1B9C4603006746BB40984613004746F3403B436746BA40571EBA4113430200F240EB1A9D42B6411D008A1A7642911B0B0231D54A02560A002E00D120
:404D8000B4E0300001F00AFE0300083B1F2B00DDB5E020222900D21AD1409E400A009D4032439C4200DDB1E01C1B631C1F2B00DDD5E0202114002800C91A8C40D8408D40A3
:404DC0000443DA40681E854111002543002476E74146314300D134E2310045466B0700D06FE756464807ED08C9080543864B9C4235D00A036405120B640D7FE76346E31A19
:404E00009B46002B00DC8BE06746002F3CD07E4FBC4200D153E780273F0438435B46382B00DCF7E00243501E82410020D2B253194218AB4289411D00494289180B02CDD5B6
:404E4000714B01349C4200D13DE101206F4A6B080A4028401843D507054351082FE72B000B4300D1CBE180231B030B431A03120B44E7013E002E6DD1AE1AB5429B41091AB4
:404E80005B42C91A350075E70700174300D116E701235B429C46E3445B46002B00D0E0E0AA18AA429B4109185B4259181500C5E7002E75D1661C7605760D012E00DCF3E040
:404EC000AE1AB0464545BF410E1A7F42F61B370200D48FE0551BAA42B641411A76428E1B9A464BE756460022002507E7280001F055FD20300300083B1F2B00DC49E72A0081
:404F00002838824000259C4200DC4DE73F49E41A1140D4E60243501E8241D3B2002222E7002B00D0F3E0631C9C465B055B0D012B00DC9FE0344B9C4500D1C3E0AA18091850
:404F4000AA42804140424118CD075208154349086446B4E62C4B9C4200D0ECE6AFE611001F3CE1400C00202B00D17FE04021CB1A9A4015436A1E95410021254300242DE757
:404F800033000700203BDF403B00202E70D04027BE1BB0400243501E824113430022E2E6002C4FD0184CA44500D1ABE08024240476422143382E00DDDFE01F2E00DD43E162
:404FC0002027BC1BA1460C004F46BC40A0462C004746F4403C434F46BD406F1EBD41F1402C43151BAA429241411A5242891A64469A46BFE641464546314300D0BEE6002630
:4050000000240025F2E6C046FF070000FFFF7FFFFFFF0F801F2B59DC2027FF1ABC46070063469F405B46B9461700DF40B8464F4643461F4363469A40531E9A415B463A4389
:40504000D840F4E60C002C435CD0F643002E55D1551BAA42A441411A6442091B9A46644688E6964FBC4200D0D8E628E6002280E700208FE70B002B43002C00D0C2E0002BCC
:4050800000D101E10300134300D118E6AB18AB42B6410918764271180A0200D409E1884A1D00114064460AE6002C5BD10E002E4300D08AE00100114300D1C2E00100150079
:4050C0009A46FCE56446002100258FE620235B429C46DC4463460700DF405B46BC46202B00D1ACE040235F46DB1B98400243501E8241634613431A00002098E66F4CA445E7
:4051000000D057E70100150064469A46D7E5002C39D10C002C436ED0DB43002B1AD0674CA44568D0382B00DDA4E01F2B00DDAEE020240F00E41AA740B9462F00DF40B84613
:40514000A3464F46444627435C46A5406C1EA541D9403D43AD1895429B4109185B42591864466BE60C002C4315D1010011437BD0010015009A46514CA1E50D43691E8D41CC
:405180000021ECB22DE74D4CA44534D0802424045B422143C6E7040014434ED0ED084C072C438025C9082D03294208D0C6082E4205D1D208410711430C009A463100620FEB
:4051C000C900E50011433D4C79E50600164300D175E5AE1AB0464545BF410E1A7F42F61B370200D4F4E5551BAA42B641411A7642891B9A4663E50100150064465FE50022BC
:4052000000257BE5002B3BD00300134315D0ED084B072B438025C9082D03294207D0C4082C4204D141070B002100D2081343C9005A0F1143DD00214C41E5204C3FE500207F
:4052400054E700260025D1E534000F00203CE7403C00202E2BD04027BE1BB1400D43691E8D4100212C43BCE6802100260903134C0025BBE50D43691E8D410021EDB269E7F3
:40528000010015000D4C1AE50100150017E51C000F00203CE7403C00202B0CD04027FB1A99400D43691E8D410021254352E70021D4E71D0092E50021F3E7C046FF0700002A
:4052C000FFFF7FFFF0B556464D4644465F46F0B41D000E034C00CB0F87B0070092468146360B640D98466AD06D4B9C4235D08022430F12041343F6001E43C3009946694BE8
:4053000000279C460023644402932B0368001B0BED0F51469B46400D009500D178E0604B98426CD05B46DA004B0F802109040B4313439B465346D9005A4B9C460023604440
:405340004246201A6A40924601901F430F2F00D9B0E05548BF00C0598746374300D088E0002399460233082700260293CDE74346B34649460093029B009A9246022B00D0D6
:40538000BFE1002153460122002689461A40444B002136030C0D2405360B2643434C1B0526401E437600D207760816434846310007B03CBC90469946A246AB46F0BD3300D4
:4053C00003434FD0002E00D1BCE1300001F0E6FA03000B3B1C2B00DDADE11D220100D31A08393A008F408E40DA40B9461643304B00279C46002360444442029385E753468E
:405400005A4613432CD1002300219B46023397E70B4320D05B46002B00D19EE1584601F0BDFA03000B3B1C2B00DD8FE102005946083A91408B461D21CB1A5146D9400B00C1
:4054400059460B4351469B469140194B9C4660444042002374E7002300219B4601336FE703236DE70023994601330427002602934BE703230C27029347E70122D51A382D02
:4054800000DCB0E153461A4000210023002689467EE700238026994600223603004B77E7FF07000001FCFFFFD8B10100FFFF0F80F30300005E4500D972E100D16DE1019BAA
:4054C0004D46013B01930023340002935B461E020B0E1E430B020393330C994633041B0C494620000093FEF7AFFC009B370043430600494620009846FEF72CFD2C0C0904D3
:405500000C43A04509D9E419731EA74200D95CE1A04500D859E1023EE4194346E41A49462000FEF791FC0300009A80465343494620009B46FEF70EFD2A040904120C0A43AD
:4055400093450DD94346D219013B974200D93AE1934500D837E102235B429C46D219E0445B46D21A4346360433439B460399180C0B0C1D00059309045B46090C0C001B0454
:405580001B0C4443049159436B4368431B190D0CEB189C4203D980246402A44660441C0C09041B04090C20185D18824200D2DEE000D1D7E0161A029B9C465D1BAC459B412B
:4055C0005B42F61AB74200D106E149463000FEF73BFC009B04004343494630009846FEF7B9FC2E0C09040E43B04509D9F619631EB74200D9F3E0B04500D8F0E0023CF61968
:405600004346F31A494618000293FEF71DFC009B06004343494602989846FEF79BFC2D0409042D0C0D43A84509D9ED19731EAF4200D9D6E0A84500D8D3E0023EED1924043D
:40564000210043463143049E059A3000ED1A0B040C0C1B0C58436643534354439A19030C9B189E4203D980225202944664441A0C00041B04000C14191B18A54250D34DD050
:4056800001231943964A019B94466344002B00DCF3E64A0709D00F220A40042A05D00A1D8A42894149428B4411005A46D20108D55A468C4B1A4093468022D2009446019BD9
:4056C0006344894A934200DD5BE65A46C908500708435602514601225B058146360B5B0D0A4055E680231B031E4211D05A461A420ED15E461E433603360B2A0089467B4BA8
:4057000046E6032B00D1E1E0012BBBD11A40BBE61E433603360B4246744B39E6002BB1D07D194A1EAF4252D91100A542A8D1039A9A42A5D1A6E703003E00283B9E40002331
:40574000994654E601F02AF9203041E603005246283B9A400021934677E6504601F01EF920305EE6029B0026AB4200D323E7039E0299B44661448846B045B6415B467642A9
:40578000F619B218013B0291974213D290424FD800D18EE0161A9B460DE7894500D28EE674084B46F60735005B081D434B46DB0702938BE69742EDD10399029CA142E5D945
:4057C0003E1A9B46F7E69846CAE61E00A5E6AC423ED874D0110053E70121494252E71C000EE71E002BE71F2D3CDC20230A0058465B1B9840EA4099400243481E81415E46F1
:405800001143EE404B0709D00F230B40042B05D00B00191D99429B415B42F61833023CD55346012200211A40002601238946AFE502235B429C46039CE344A446029B6344D5
:405840009846A045B6417642F6190293B218B1E603988A1E41008142B6417642F619AD19039161E71F225242D31A5A46DA401300202D29D040225846551BA8400143481E33
:40588000814107200B4318400026002809D00F2200261A401900042ABBD10B0070077602360BDB0803439946012253461A4000236EE502998D42BBD89B4600267BE60398DF
:4058C0009842C5D3110032E70020D7E780265B4636031E433603360B009A8946034B57E5FF030000FFFFFFFEFE070000FF070000F0B55F4656464D464446F0B41F035C00B3
:40590000DB0F9A46194B0E034D00C90F8046360B6D0D8B4691463F0B640D9D4219D0134B9C421BD00123A54206D018003CBC90469946A246AB46F0BDBE42F6D1C845F4D16B
:40594000D34510D0002DF0D1304303005A1E9341EBE7310001230143E7D1E0E73A430123002AE2D1DEE70023DFE7C046FF070000F0B55F46444656464D46F0B41F033C0B4D
:405980002C4F0E034D00A3465C008446360B6D0DC90F9046640DDB0FBD422BD0254FBC422ED0002D0ED130430700814678427841002C17D15F463A4314D14B460020002B1A
:4059C0000AD006E0002C02D15846024301D099421AD00123484218433CBC90469946A246AB46F0BD0028F2D058425841012240421043F1E737000743D0D002204042EBE7AF
:405A00005F461743CDD0F8E7A542E2DC05DB5E45DFD808D000205E45DED248424841012340421843D8E7C445D3D80020C445F4D3D2E7C046FF070000F0B55F464D4644461E
:405A40005646F0B41C03240BA4462F4C0F034D005E00C90F80463F0B6D0D8B469146760DDB0FA54220D0284CA64222D0002D12D1384344424441002E20D0002C0DD05C427F
:405A8000634101245B421C4320003CBC90469946A246AB46F0BD002E17D05B4519D05B465C4201231C43EFE7390002240143EBD1D9E7614602241143E6D1D7E761460A43EF
:405AC000DBD100240028DFD0E9E761460A43E4D1E5E7B54203DD01225C421443D4E7B542CDDB6745DBD809D000246745CCD259464C426141012449420C43C5E7C845CED89E
:405B00000024C845F3D3BFE7FF070000F0B55F4656464D464446F0B40D0399464E002B0B87B00700924680469B46760DCC0F002E69D06D4B9E4235D05B468022DD00120453
:405B4000430F13432B439B46C3009846674B00279C460023664401934A4615035000D20F53462D0B400D914600D176E05E4A90426CD080225B0F120413435C4AED009446E1
:405B80001D4353460022DB00604449463618701C6140029017430F2F00D9AFE05448BF00C759BF465B461F4300D088E000239B469846023308270193CEE74946022A6AD070
:405BC000032A00D109E2012A00D0BBE111400022002300259046CCB200212D030A0D12052D0B1543434A1B0515401D436D00E4076D0825434046290007B03CBC904699465D
:405C0000A246AB46F0BD034352D05B46002B00D18AE1584600F0C2FE03000B3B1C2B00DD7BE11D22D31A3A0001005D46DA4008398D4013008F402B439B46B8462E4B002756
:405C40009C46002360444642019385E752462A432CD100250023022297E752462A4321D0002D00D154E1280000F098FE03000B3B1C2B00DD46E11D21CB1A51460200D940C7
:405C80005346083A954093400D431B4A944660444042002279E7012400220C40124B0025904699E70025002301226EE703226CE700239B4698460133042701934CE7032359
:405CC0000C27019348E700238025984600242D03054B81E75D464346019A6FE75D4643462100019A6AE7C046FF07000001FCFFFF18B20100FFFF0F80F30300004246120CAB
:405D000091461A0C9446424617044A461B041B0C5A43604690464A4642431000039262461C003F0C7A437C4342440192220C9246019A5244904506D9824680204002804641
:405D4000C24450460390100C049048462404240C1204121905922A0C2D042D0C68432C00824648467C4350438146200C8046574357444744BA4503D9802040028046C14466
:405D8000380C3F04B84648442404240C01900498A044404404905846000C814658460404200C8246070048465F434C464343604660436446834650464443380C8446E41814
:405DC0006444A34203D980235B029C46E34448463F04230C3F0C2404E419574668436F4384464D46504655434243380C814662444A445B44944503D98020400284466544CF
:405E000003983F04834604983F0C8446E344C345804140428246100484460198674484466744A344BC46A345A4419946D44464428742BF41D4458041E144A04699459B417E
:405E40007F424042C8440743120CBA18A045A4415F423B0064422343D71843467D19DB0D6D021D435B465A02059B1A43531E9A415B46DB0D1A4343465B021343EA0107D5F3
:405E800001225C0813402343EA07029E13436D08574AB218002A4BDD580709D00F201840042805D0181D98429B415B42ED180300E80104D54F4A15408022D200B2184E48B5
:405EC000824200DDE7E60124DB08680718436D02530580462D0B5B0D0C407DE6802259461203114208D0154206D115432D0398462D0B4C46414B6FE65D4615432D032D0B63
:405F00003E4B69E603005546283B9D400023BCE6504600F043FD2030A8E60300283B9F400023BB46984689E600F038FD203073E60124A61A382E07DD00220C4000230025D9
:405F4000904649E6029EA3E71F2E20DC20222C001800921BF040944093400443581E83411C43F540630709D00F232340042B05D023001C1D9C4292415242AD182B021FD527
:405F8000012400220C4001230025904624E61F202C004042821AD440202E1CD04022961BB5402B43581E83410720234318400025002809D00F2200251A401C00042AD8D1F0
:405FC000230068076D022D0B0124DB08034398460C40002300E60025E3E780220124120315432D0398462D0B0C40044BF4E5C046FF030000FFFFFFFEFE070000FF070000FC
:40600000F0B557464E464546E0B40E001100F20F9246C500420F180337037400400A4E0F7F0A3043CF4E17435A00640D520DDB0FC900B24200D1E5E001267340A61AB4467F
:40604000534500D1AFE0002E00DC0DE1002A3AD103000B4300D0E4E06B0709D00F232B40042B05D02B1DAB42AD416D427F191D003B0200D488E0BB4B01349C4200D110E14F
:406080003A00B94B51461A4001235007ED08520264050543120B640D0B400021280012030D0D120B64052D0515436208AF4CDB072C401443640064081C4321001CBC9046D3
:4060C0009946A246F0BDA74B9C42C5D080231B0418436346382B00DDFDE01F2B00DD30E1624620239B1A02009A40664690460A009940F24046464B1E994132431143634658
:406100000200DA40691A8D429B410D00BA1A5B42D71A3B0235D57A02530A98464346002B00D1C4E0404600F039FC0300083B1F2B00DDC5E020222900D21A4746D1409F40EE
:406140000A009D403A439C4200DDC0E01C1B631C1F2B00DDE4E0202114002800C91AD8408C408D400443DA40681E854117002543002471E7424663461A4300D14CE26746CC
:4061800045466B0700D069E7012351467807ED08FA080B40054373498C4238D012036405120B640D79E7002E00DC9AE0002A47D06C4A944200D14FE78022120410436246F5
:4061C000382A00DC08E10143481E81410022C9B24919D219A942BF410D007F42BF183A0200D442E15F4A0134944200D14EE101205D4A69083A4028400843D50705435708C2
:406200009A4629E706000E4300D017E714E72900114300D1F9E1802109030A431203120B3BE701235B429846C4446346002B72D1691A8D429B413F1A5B42FF1A0D0068E781
:4062400002000A4300D107E7012252429046C4446246002A00D0E6E06918A942B6413F187642F7190D00BAE7002E00D080E0621C5205520D012A00DCF9E06A1A91464D4584
:40628000B6413A1A7642921B9046120200D499E04D1BA9428941C71B49427A1A90469A463CE752460123002513400022F5E6280000F074FB20300300083B1F2B00DC39E76C
:4062C0002A002838824000259C4200DC3EE7264FE41A1740C0E60143481E81410022C9B210E7002E00D0F1E0621C94465205520D012A00DCA0E01B4A944500D1C5E0691845
:40630000A94292413F185242D2194908D5070D4357086446A0E6134B9C4200D0D9E69BE611001F3CE1400C00202B00D180E04021CB1A9A4015436A1E9541002725430024D3
:406340001FE763460200203BDA406346202B71D0402366469B1B98400143481E814111430022CFE6FF070000FFFF7FFFFFFF0F80002C48D0CA4CA24200D1A2E07442A14651
:406380008024240427434C46382C00DDDBE01F2C00DD44E14E462024A41B3E00A640A246B0464C462E00E640B4464646644626435446A5406C1EA54134002C434D46EF4060
:4063C0000D1B28E04A4643464D461A4300D0A5E6002300240025DEE61F2A5ADC66462022921B060096409146B04662460E00D640424616434A4691404A1E91410200604626
:406400003143C240E4E63C002C435AD0F443A146002C52D14D1BA9428941C71B49427F1A14009A4675E69E4A944200D0C7E613E600227FE700208FE7002C00D0C8E03B0037
:406440002B4300D10FE103000B4300D104E66918A9429B413F185B42DF193B0200D41AE1904B0D001F406446F6E59A4689E63A002A43002C5CD1002A75D102000A4300D1F6
:40648000CAE007000D009A46E6E564460022002581E662460600203AD6406246B046202A00D1B7E040226646921B904001434246481E8141114300228AE6794CA24200D0CF
:4064C00061E707000D0014009A46C5E5002C41D13C002C4378D0F443A146002C20D0704CA24271D04C46382C00DDB2E01F2C00DDBCE02026341BA2463C005646B4404E4650
:40650000A0462C00F440A446444666463443A4465446A54064466E1EB54125434C46E7406D188D4289413F184942CF19140056E6002A2FD102000A4300D184E007000D00CE
:406540009A46574C88E53D436F1EBD41ECB200270D1B60E7524CA24236D0744280263604A1463743BEE702000A4300D174E56A1A90464545B6413A1A7642921B94461202CD
:4065800000D4F7E54D1BA9428941C71B49427F1A9A4661E502000A433AD0ED087C072C438025FA082D032A4208D0C7082F4205D145072C003A009A46C9080C43670FD20077
:4065C000E5001743364C47E507000D00140043E53A002A4343D002000A4319D0ED087C072C438025FA082D032A4207D0C6082E4204D147073C003200C9080C43D700620F34
:40660000E50017439A46264C26E50022002544E5234C21E5002049E700230025BBE54C463E00203CE6404C46B446202C31D040244E46A61BB7403D436C1EA54164462C43BD
:4066400000270D1BE7E6802200231203144C0025A1E53D436F1EBD410027EDB260E707000D000F4CF8E407000D00F5E44E463C00203EF440A0464C46202C0ED040244E46CD
:40668000A41BA7403D436F1EBD4144460027254346E70027CFE70D0073E50027F2E7C046FF070000FFFF7FFF70B50E4E0C031D0349005B00240B490D2D0B5B0DB14204D0D9
:4066C000084900208B4208D070BD04430120002CFAD1044900208B42F6D115432800451EA841F1E7FF07000070B5002830D0C317C4185C40C50F200000F050F9174B184ABD
:406700001B1AD21A1F2A18DD164AD21A9440002224035B05240B5B0D0021100024030A0D1205240B1443104A1B0514401C436400ED0764082C43210070BD210091400A00E4
:406740000B21081AC4405B052403240B5B0DE3E70025002300240022DEE7C0461E0400003304000013040000FFFF0F8070B5051E28D000F013F9154B154A1B1AD21A1F2A24
:4067800016DD2C00134A0025D21A94405A052403240B520D002124030B0D240B1B0523430D4C1205234013435B002800590870BD0B212C00081AC440954024035A05240B0D
:4067C000520DE7E700220024E4E7C0461E0400003304000013040000FFFF0F804200120E511C4302C9B270B55D0AC40F012915DDE02189008C466D071B0B62440021280069
:406800000D0D2D052B431C4D52052B40520813435B00E4075B082343190070BD002A15D1002D1FD0280000F0B9F80A281DDC0B232A001B1ADA4013000200153295400F4A1D
:406840001B03121A52051B0B520DD7E7002D06D080221B0B120313436D07094ACEE7084A0023CBE700220023C8E703000B3B9D402B000025E3E7C046FFFF0F808903000008
:40688000FF0700004B0070B55E0D0C03751C640A420F6D052243C90FC4006D0D012D2ADD3B4BF318FE2B1ADC002B42DD8001451EA841D2001043620F0243500704D00F207A
:4068C0001040042800D004328020C004104021D00133FF2B03D09201520ADBB201E0FF2300225202520ADB0513435B00C9075B080B43180070BD002E07D01443EFD08020DD
:40690000D20080040243FF23D7E722430023002A03D00522D208FF2B03D05202520ADBB2DFE7002A32D08020C00302435202520AD7E71800173014DB8020000402431E209F
:40694000C01A1F280FDC2500124BF3189D406E1EB5419A402B0013432200C2401A430023ABE70023D5E702256D42EB1A1500DD40202809D0084BF3189A401443621E94419D
:40698000220000232A4398E70022F6E70022A8E780FCFFFF82FCFFFFA2FCFFFF1C2101231B04984201D3000C10391B0A984201D3000A08391B09984201D30009043902A207
:4069C000105C40187047C04604030202010101010000000000000000014B18687047C046B81100200E4B70B500251E000D4CE41AA410A54204D0AB00F35898470135F8E724
:406A000014F010FD084B00251E00084CE41AA410A54204D0AB00F35898470135F8E770BD30B4010030B4010030B4010038B4010030B50024A24208D0035D651C0C5DA34247
:406A400001D0181B02E02C00F4E7002030BD002310B59A4203D0CC5CC4540133F9E710BD03008218934202D019700133FAE77047F0B58BB014001D1E129906DA8024240643
:406A80001B191D0014002D2300E000230B702023149E03229E43462E07D03300453B59424B411099013ACB18109309AB049308AB0393139B00920293109B220001932B0024
:406AC00000F050FE0700472E02D1119BDB072DD5109BFB180793462E14D13B78302B0CD10022002320002900FDF734FB002804D10123109A9B1A139A1360139B079A1B68BA
:406B0000D31807930022002320002900FDF722FB3022002802D0079B099307E0099B0799994203D9591C09911A70F7E73800099B159ADB1B13600BB0F0BDF7B52B230700F1
:406B40000C000270861C002901DA2D234C427B70092C1CDD6B46DD1D20000A21FDF7E4FA013D3031297020000A21FDF7F7F904000928F1DC013D30342C706B460733300070
:406B8000AB4209D92B78013533700136F5E73023E4183370B01C7470C01BFEBDF0B595B00C000A920B931A9D099001F029FD036818000D9300F07AFC0023129323680E902E
:406BC0000C930C99277E2B680722C90501D59B1800E0073393431A0008322A601A685B68A264E3640122E56CA66C6B005B080F935242C04B30000F99FFF756FD002819D171
:406C00000122BC4B524230000F99FDF7B3FA002810D10022002330002900FDF7A1FA002803D023002D2243331A70B34D472F0ED8B24D0CE032002B0030002900FFF734FD56
:406C4000002800D19AE1AE4D472F00D8AD4D03230C9A236101339A432260002642E0672F00D193E1472F00D190E10C9A0021134312AA059211AA03922322236006910193EC
:406C800008A9636852180292009332002B0004970998FFF7EDFE20233A0005009A43472A00D18EE11199652F00D996E1200001393A0050301191FFF740FF129A0600831877
:406CC0002361012A00DD85E12268D20700D581E1232308AA9B181B78002B03D023002D2243331A700B9B13AA009321000A9B099800F0A4F9431C02D1012040429BE1226895
:406D0000530501D4236964E0652F00D8CCE0A06CE16C00220023FDF71DFA00282CD00123794A0A9909980B9DA847431CE4D0119B129A934208DB2368DB0705D42368002596
:406D40009B0700D50FE113E10B9D0E9B0D9A0A990998A8470025431CCED0129B013B9D42ECDA220001231A320A9909980B9EB047431CC1D00135F0E7119B002B2BDC012368
:406D8000614A0A9909980B9EB047431CB4D0119B002B05D1129B002B02D12368DB07CDD50B9E0E9B0D9A0A990998B0470026431CA2D0119B5B429E420ADA220001231A3230
:406DC0000A9909980B9FB847431C95D00136F0E7129B2A00ACE0A36D129E9E4200DD1E00002E05DC00230C93F343DB170F9315E033002A000A9909980B9FB847431CF1D1DB
:406E00007AE7220001231A320A9909980B9FB847431C00D170E70C9B01330C930F9BA26D0C993340D31A9942EBDBAE18119B129A93420DDB2368DB070AD4129B119AED188F
:406E4000AD1B9B1A9D4200DD1D00002D09DC11E00E9B0D9A0A9909980B9FB847431CECD14AE72B0032000A9909980B9EB047431C00D141E7EF43FB1700260C930AE0220081
:406E800001231A320A9909980B9FB847431C00D132E70136119A129B0C999B1A2A000A409B1A9E42EBDB49E7129B012B02DC01231A4245D001232A000A9909980B9FB847BD
:406EC000431C00D118E70E9B0D9A0A9909980B9FB847431C00D10FE7A06CE16C00220023FDF738F9002801D000251AE0129B6A1C013B26E0FFFFEF7F64B2010060B201001A
:406F00006CB2010068B2010070B20100220001231A320A9909980B9FB847431C00D1EBE60135129B013B9D42F0DB2200330050320A9909980B9DA847431C00D0FEE6DBE625
:406F40002A000A9909980B9DA847431CEDD1D3E62200012319320A9909980B9EB047431C00D1C9E60135E368139A9B1A9D42EFDB139BE06898425EDA18005CE0802362688D
:406F8000DB00511C00D06AE6073202E0002A02D10122626069E60C9908A80B430021069112A9059111A90391232109182360019300922B000497029132000998FFF758FD9E
:406FC0000500119BDA1C02DB626893421CDD023FFFB267E6013323617AE6662F15D16368002909DD2161002B02D12268D2071ED50133591821611AE0002B03D10122216827
:40700000114213D09A1C11E06727119B129A934206DB22682361D20709D50133236106E00121002B01DC4918C91A8A182261119B0026A3654CE615B0F0BDC046F7B517009A
:4070400001938A680B6900900C00934200DA130022003B6043321278002A01D001333B6023689B0602D53B6802333B60062523681D401ED0230043331B785A1E93412268B9
:4070800092061CD53020E1184331087021005A1C45310978A2184332023311700FE022000123193201990098089EB047431C0ED00135E3683A689B1A9D42F0DBDAE72200AE
:4070C000019943320098089DA847431C02D10120404220E006232068E1683A6803400025042B03D18D1AEB43DB171D40A3682269934201DD9B1AED180027BD420AD0220030
:4071000001231A3201990098089EB047431CDED00137F2E70020FEBDF0B58BB006920A0043320793059004920A7E0C00109B6E2A00D1ABE011D8632A22D009D8002A00D1E4
:40714000B5E0582A00D0C5E045310A70814A4FE0642A1DD0692A1BD0BCE0732A00D1AAE009D86F2A29D0702A00D0B3E0202209680A43226037E0752A1FD0782A33D0A9E047
:407180000E001A684236111D196013683370A4E021681A68080606D4490604D5111D19600023D55E02E0111D19601568002D3BDA2D23049A6D42137036E021681A680806CF
:4071C00006D4490604D51568111D1960ADB202E0111D196015685F4B227E039308276F2A1DD00A271BE022007821453211705A4A19680392081D226818600D68100602D44E
:40720000500600D5ADB2D30702D520231A4322601027002D03D1202322689A4322602300002243331A7002E00A274A4B03936368A360002B09DB0422216891432160002DFC
