:4000000000800020110000001D1700001D17000080B500AF01F0B6FB80B500AF2A4B12221A6002F087FE294B180002F0FDFF012002F090FE302002F0DFFB254B254A1A6013
:40004000254B8022D2051A60244B244A126802210A431A60224B234A1A60234B00221A60224B224A126808218A431A60FA23DB00180002F0B7FC1E4B180002F06BFD1D4BC3
:40008000802212061A601C4B802212031A601B4B1900082002F0F0FC082002F013FD0E4B174A1A60174B802212031A60C046154B1A6880231B031340F9D1124B80225202E5
:4000C0001A60C046BD4680BD30001040001BB70004010B40060000800C020B4078002E407C002E406A2D000064F02E406CF02E40DC05000008010B4000010B40392F0000E3
:400100000000014E10020B4080B582B000AF72B6344B00221A60FB1D00221A7022E0FB1D1A7813005B009B185B002F4A9B183B603B681A78597809020A43997809040A433E
:40014000DB781B06134318003B681A795B791B0213439BB2190001F0BDFAFB1D1A78FB1D01321A70FB1D1B78012BD8D91F4BEE2212061A601E4B992212041A601D4B992228
:4001800012041A601C4B992212041A601B4A1B4B1B78DBB206210B43DBB21370184B20221A60184B184A1A60184B50221A60184B184A1A60184B802292001A60174B184ACC
:4001C0001A60184B01221A60174B36221A60174B06221A60FFF720FF01F08CFAC046BD4602B080BD6CF02E40C8A501000000024000500F4010500F4030500F4000700F4073
:40020000000004400800044000E0D80000010440080104400020DB000C010440080304400090380000040440080404400805044010B5064C2378002B07D1054B002B02D096
:40024000044800E000BF0123237010BD5811002000000000B8980100084B10B5002B03D00749084800E000BF07480368002B00D110BD064B002BFBD09847F9E70000000057
:400280005C110020B8980100A80B00200000000080B586B000AF434B180005F0D9FF82239B01180001F062F903007B617A693E4B1100180005F050FF7B690122134001D078
:4002C0003A4B00E03A4B3B4A1900100005F044FF7B699B0807221A40374B1100180005F03BFF88239B01180001F040F903003B613B691B0C5B055B0DFB60FA682F4B110047
:40030000180005F029FF80239B01180001F02EF90300BB60BA682A4B1100180005F01CFFBB680122134001D0264B00E0264B274A1900100005F010FFBB680222134001D0F6
:400340001A4B00E01A4B224A1900100005F004FF8C239B01180001F009F903007B607A681C4B1100180005F0F7FE88239B01180001F0FCF803003B603A68174B11001800A7
:4003800005F0EAFE3B680122134001D0074B00E0074B124A1900100005F0DEFEC046BD4606B080BD1C9E0100449E0100609E0100649E0100789E01008C9E0100A49E01007B
:4003C000B89E0100D49E0100D89E0100EC9E0100009F0100149F0100309F01004C9F010080B582B000AF214B180005F031FF204B180001F0BBF803007B607B680122134301
:400400007B607A6882239B011100180001F08EF87B681C2293437B607B680C2213437B607A6882239B011100180001F07FF882239B01180001F09AF803003B603A680D4BE2
:400440001100180005F088FE3B680122134004D0094B180005F0FCFE03E0084B180005F0F7FEC046BD4602B080BDC046609F010008200000809F01009C9F0100B09F010086
:40048000B0B586B002AF494B1B78022B00D089E0474B1B780521180003F098FA0B00DBB2042B5CD89A00434BD3181B689F46002002F028F80A2002F027FB02F047F8030061
:4004C0001A003D493D4B180005F0CCFE47E0012002F018F80A2002F017FB02F037F803001A003749354B180005F0BCFE37E001F069FF03001C0002F05FF803001D0001F097
:40050000F3FF03002F492D4800932B00220005F0A9FE24E00023FB600EE0012001F0F2FF0A2002F017FB002001F0ECFF0A2002F011FBFB680133FB60FB68092BEDDD1F4BDB
:40054000214A13CA13C31168196012791A7106E01A4B1E4A13CA13C313CA13C3C046144B1B780133DAB2124B1A703B0012221A813B00124A1A60114B180005F095FE030083
:400580009AB23B009A803900114B1A785B781B021A4300231204120C1B0C1B041343180013F0E4FBC046BD4604B0B0BDDE2F0020141600205CA00100F89F010018160020B5
:4005C00008A0010018A0010030A0010044A00100E42F002080B500AF0D4B1B78032B0BD10C4B1B7801225340DAB20A4B1A70094B1B78180001F0EEFF074B1B685A1C064B53
:400600001A60064B01221A70C046BD4680BDC046DE2F0020AC0B0020801100208411002080B582B000AF786039607B68272B0DD004D8012B07D0262B0FD024E0282B09D0B4
:40064000FA2B1DD01FE000F001FD1CE0012001F0C1FF18E000F0FAFC15E00D4B1B78042B10D1012001F0B6FF002001F05DFE01F0B7FE01F02FFF01F0CBFE02F0D7FA01E089
:40068000C04600E0C046C046BD4602B080BDC046DE2F002090B593B000AF62B6012001F043FE012001F096FFB54B180005F0D0FDB44B180001F012F903001A00B24B1A8039
:4006C000002001F0AFFF002001F0D4FF002002F01FF8002002F044F8002002F069F8AB4B1900022002F0E0FB022002F0FDFBA84B180005F0ADFD07F009FFA64B1B78022B09
:4007000000D0A1E2A44B1B78092B00D99CE29A00A24BD3181B689F469F4B01221A7093E29F4B180005F094FD002001F0CBFF0A2002F0EAF9012001F0C5FF642002F0E4F9E8
:40074000012001F017FE002001F0DCFE142002F0DBF9914B02221A7076E2924B180005F077FD8023DB00180000F000FF03003B648D4B180000F0FAFE0300FB638B4B3A6C51
:400780001A608B4BFA6B1A603B6C8A4A934212D1FB6B894A934203D0FB6B884A93420AD1874B180005F054FD864B00221A707A4B03221A7048E2844B180005F049FD834BD3
:4007C00002221A70744B09221A703DE27D4B1B780D2B1ED87B4B1B781A007D4BD200D05A784B1B787A4ADB00D31804331B68190000F09CFE734B1B78591C764B0E221800EC
:4008000005F0AAFC6F4B1B780133DAB26D4B1A701AE2714B180005F01BFD5F4B04221A7012E26E4B180005F013FD6D4B180000F09DFE02006B4B1A606A4B1A686A4B110043
:40084000180005F089FC544B05221A70FCE1674B180005F0FDFC80239B01180000F086FE0200634B1A60624B1A68624B1100180005F072FC484B06221A70E5E15E4B1800D8
:4008800005F0E6FCFFF704FD5C4B180000F06EFE0300BB6388239B01180000F067FE03007B63574B180005F0D3FCBA6B554B1100180005F051FC7A6B534B1100180005F04A
:4008C0004BFC524BBA6B1A60BB6B0122134026D14F4B180005F0BCFCFFF782FD0A2002F013F982239B01180000F040FE03003B633A6B484B1100180005F02EFC3B6B012275
:40090000134004D1444B180005F0A2FC0BE0434B180005F09DFC3D4B3A6B1A6003E0404B180005F095FC7B6B9BB25B055B0D9AB23C4B1A80184B07221A7085E13A4B180002
:4009400005F086FC274B1B681B041B0C374A93420AD1374B180005F07BFC1C4B01221A700D4B08221A706FE1324B180005F070FC164B02221A70084B09221A7064E1C046C6
:4009800070A00100210600009C270020D505000088A00100DE2F0020E4110020F8A40100A8A00100C4A0010004040000A8110020AC1100204441000001550000025500009C
:4009C000DCA00100E5110020F0A00100BE110020C098010008A1010020A1010040A1010008090000B011002064A101008CA10100B4110020ACA10100C0A10100082000005A
:400A0000F4A101000CA2010030A20100B811002054A2010084A20100ACA20100D8A20100F8A20100BC11002014A30100C902000034A301004CA30100E34B180000F096FD31
:400A40000300FB62FB6AE14A1340FB62FB6A01221343FB62FB6ADC4A1900100000F066FDC82002F051F8DA4ADA4B1100180000F05DFDA1231B010321180000F057FDFA2338
:400A80005B00180002F040F8A1231B01180000F06DFD0300BB62D04B0121180000F046FD322002F031F8CD4B7B627B6ACC4A1900100000F03BFD0A2002F026F8C94ACA4B8F
:400AC0001100180000F032FDC84AC94B1100180000F02CFDC74B3321180000F027FDC64AC64B1100180000F021FDC54AC54B1100180000F01BFD80239B02C34A1900100096
:400B000000F014FD012001F003FE642001F0FCFF00237B64BD4B3B6248E080239B010121180000F003FD142001F0EEFF80239B01180000F01BFD02000123134018D03A6A83
:400B400080239B011100180000F0F0FC322001F0DBFF80239B01180000F008FD0300FB61FB690122134003D0FB698022134021D180239B010021180000F0D8FC0A2001F01A
:400B8000C3FF7B6C052B0ED1914A924B1100180000F0CCFCA1231B010321180000F0C6FC642001F0B1FF7B6C01337B647B6C092BB3DD00E0C04688239B01180000F0D6FC45
:400BC0000300BB61BB691B0C5B055B0D7B617B69002B06D08E4B180000F0C8FC02008D4B1A608D4B874A1A608C4BBA691A6080239B01180000F0BAFC0200894B1A607A4B60
:400C0000180000F0B3FC0200864B1A60864B7A691A60734B180000F0A9FC0200834B1A606D4B180000F0A2FC0200814B1A60A1231B01180000F09AFC02007E4B1A607E4B9B
:400C400009221A7000E0C0467C4B1B78DBB2002B00D1B5E1794B00221A70774B1B78092B19D188239B01180000F080FC03003B613B691B0C9BB25B055B0D9AB2704B1A8092
:400C80006F4B1B88002B06D0614B180000F06EFC0200604B1A606B4B1B78022B00D08FE1654B1B78092B00D96DE19A00664BD3181B689F46654B664A03CA03C363E1634BBA
:400CC000644A13CA13C312781A705CE15F4B624A13CA13C31188198092789A7053E15F4B1B781A005E4959480E2305F0BBFA4AE1564B5C4A13CA13C312781A7043E1534B4A
:400D0000594A13CA13C312681A603CE14F4B574A13CA13C31168196012791A7133E14B4B534A13CA13C31188198092789A702AE1464B504A13CA13C313CA13C323E14E4BDD
:400D40001B78012B00D00AE14C4B1B781A000F2313400F2B00D9FBE09A00494BD3181B689F46374B1B881A004649384B180005F079FAEDE0444B1A684449344B180005F0F9
:400D800071FAE5E0424B1A684249304B180005F069FADDE0404B1B681B041A0C3F492B4B180005F05FFAD3E03D4B1A683D49274B180005F057FACBE03B4B1A683B49234B52
:400DC000180005F04FFAC3E014210000FFFEFFFF14CB00000C0A0000040A0000A1EE0300EC20000004080000F0210000240B0000D4210000A8210000AFA587DE3022000014
:400E00000D02000008200000E0210000930109006C200000D0110020C0110020C4110020C8110020D8110020CC110020D4110020DC110020E0110020E4110020841100207E
:400E4000BC110020DE2F002020A501005416002068A3010070A3010080A30100E511002090A30100A0A30100B0A30100C0A30100D4A30100E4A30100BE1100207C160020DD
:400E800048A50100FCA30100A811002004A40100AC11002010A40100B01100201CA40100B411002028A40100B811002038A401004B4B1A684B494C4B180005F0D3F947E033
:400EC0004A4B1A684A49484B180005F0CBF93FE0484B1A684849444B180005F0C3F937E0464B1A684649404B180005F0BBF92FE0444B1A6844493C4B180005F0B3F927E0CE
:400F0000424B1A684249384B180005F0ABF91FE0404B1A684049344B180005F0A3F917E03E4B1A683E49304B180005F09BF90FE03C4B1A683C492C4B180005F093F907E00D
:400F4000274B1A683949284B180005F08BF9C046374B1B780133DAB2354B1A7012E0354B1B78022B06D1204B334A03CA03C312881A8007E01C4B314A03CA03C311881980CC
:400F800092789A70C0463B1D12221A813B1D164A1A60154B180005F087F903009AB23B1D9A80391D264B1A785B781B021A4300231204120C1B0C1B041343180012F0D6FE89
:400FC000204B1B78002B01D1FFF795FB002000F01DFD03001A001C4B1A80FFF78CFBC046CC11002048A4010054160020C011002058A40100C411002068A40100C811002048
:4010000078A40100D411002088A40100D811002094A40100DC110020A0A40100E0110020B0A40100D0110020C0A40100D0A401007C160020BE110020E0A40100ECA40100D5
:40104000E42F0020C82F00209C27002080B584B000AF002000F0B4FD03001A001F4B1A801E4B1B88002B08D01C4B1B881A001C4B1100180005F070F82BE01A4B180005F0AC
:401080006BF83B1D00229A713B1D180007F03AFA0E23FB1806221A8012E00E23FB181B88013B3A1DD35C1A000F4B1100180005F053F80E23FB181A880E23FB18013A1A8030
:4010C0000E23FB181B88002BE7D1084B180005F0BFF8C046BD4604B080BDC0469C27002088A50100A4A50100BCA50100C4A5010080B584B000AF7860104B5A690F4BDB683D
:40110000D318FB600D4B5A68FB689A420DD90B4B9A680A4BDB689B00D3187A681A60074BDB685A1C054BDA6003E0044B042252429A61C046BD4604B080BDC046AC2F0020E1
:4011400080B584B000AF786039607B689B08FF2213407B600023FB6011E00E4B1A69FB689B00D3181B781A007B689A4204D13B68FA681A60002309E0FB680133FB60054BCF
:40118000DA68FB689A42E8D807235B421800BD4604B080BDAC2F002080B582B000AF786039607B689BB2180000F084F902003B681A6000231800BD4602B080BD80B584B02F
:4011C00000AF02003960BB1D1A80184B5A69174BDB68D318FB60154B5A68FB689A421DD9124B1B691A1F114B1A61104B1B69BA1D1288920892B2D2B21A700C4B1B693A6821
:401200001202120A12021968FF2001400A431A60064B5B695A1C054B5A6103E0034B042252429A61C046BD4604B080BDAC2F002080B584B000AF0200BB1D1A80BB1D1B884A
:401240000C22BA1811001800FFF77AFF031E0FD0BB1D1B880822BA1811001800FFF79CFFBA68BB1D1B8811001800FFF7A7FF07E0064B1A69FB689B00D3181B681B0ABB60DC
:40128000BB681800BD4604B080BDC046AC2F002080B584B000AF02003960BB1D1A80BB1D1B88274A934204D9264B052252429A6143E0BB1D1B880C22BA1811001800FFF757
:4012C0003FFF031E20D11F4B1A69FB689B00D3183A681202120A12021968FF2001400A431A60BB1D1B889B089BB21A06FE23DB051A403B681B021B0A134380221206134309
:401300001800FFF7F5FE18E03A68BB1D1B8811001800FFF753FFBB1D1B889B089BB21A06FE23DB051A403B681B021B0A13438022120613431800FFF7DBFEBD4604B080BD1A
:40134000FF210000AC2F002080B584B000AF0200FB1D1A700C23FB18FA1D12781A700823F9180C23FB180122180000F073F90823FB181B781800BD4604B080BD80B584B0CE
:4013800000AF0200BB1D1A80BB1D1B881B0A9BB2DAB20C23FB181A70BB1D1B88DAB20C23FB185A700823F9180C23FB180222180000F050F90823FB181B781B021AB20823DA
:4013C000FB185B781BB213431BB29BB21800BD4604B080BD80B584B000AF78607B681B0EDAB20C23FB181A707B681B0CDAB20C23FB185A707B681B0ADAB20C23FB189A70E8
:401400007B68DAB20C23FB18DA700823F9180C23FB180422180000F01DF90823FB181B781A060823FB185B781B041A430823FB189B781B0213430822BA18D27813431800F9
:40144000BD4604B080BDC04680B582B000AF02003960BB1D1A8000F02DF92020FFF774FFBB1D1B881800FFF789FF00F02BF900F021F92D20FFF768FFBB1D1B880B4A934212
:4014800009D9BB1D1B880A4A934204D83B681800FFF7A0FF04E03B689BB21800FFF76EFF00F010F9C046BD4602B080BDFF0F00001430000080B584B000AF0200BB1D1A805C
:4014C0000023FB6000F0F6F82020FFF73DFFBB1D1B881800FFF752FF00F0F4F800F0EAF86D20FFF731FF0020FFF72EFFBB1D1B880C4A93420AD9BB1D1B880B4A934205D895
:401500000020FFF767FF0300FB6004E00020FFF735FF0300FB6000F0D5F8FB681800BD4604B080BDFF0F00001430000080B582B000AF02003960BB1D1A800B4B1B78012B8F
:4015400007D13A68BB1D1B8811001800FFF7A0FE06E03A68BB1D1B8811001800FFF774FFC046BD4602B080BDAC2F002080B582B000AF0200BB1D1A800A4B1B78012B06D1BC
:40158000BB1D1B881800FFF753FE030005E0BB1D1B881800FFF78EFF03001800BD4602B080BDC046AC2F002080B584B000AF0200FB1D1A700E23FB1800221A700F23FB1854
:4015C00000221A7039E0FB1D1B785BB2002B03DA012000F0C9FF02E0002000F0C5FFFA1DFB1D1B78DB181370012001F0B3FA012000F088FF022001F0ADFA0E23FA180E231A
:40160000FB181B78DB18137000F06EFF031E07D00E23FB180E22BA18127801210A431A70002000F06FFF012001F094FA0F23FB181A780F23FB1801321A700F23FB181B78A1
:40164000072BC0D90E23FB181B781800BD4604B080BDC04690B587B000AFF860B9607A60FB68002B05D0BB68002B02D07B68002B02D101235B4219E000237B6111E0BA6810
:401680007B69D418FA687B69D3181B781800FFF78BFF03002370022001F05CFA7B6901337B617A697B689A42E9D300231800BD4607B090BD80B500AF002000F05BFEC04618
:4016C000BD4680BD80B500AF012000F053FEC046BD4680BD80B582B000AF786039603A687B680021180004F0B9F8C046BD4602B080BDC04680B500AF054B03221A60054B13
:4017000003221A60044B00221A60C046BD4680BD3000304030003140000E3F4080B500AF04F058F803001B680C2B00D1FEE7FEE780B584B000AF7860104B1A687B68D318F0
:401740001A000F4BD21A8023DB009A4209DC0B4B1B68FB60094B1A687B68D218074B1A6007E004F037F803000C221A6001235B42FB60FB681800BD4604B080BDB00B00200C
:40178000F02F002080B586B000AF224B7B61224B3B61204B7B6135E03B691B68FB603B695B68BB603B699B683B6000237B600CE0FB681A68BB681A60BB680433BB60FB6898
:4017C0000433FB607B6804337B607A683B689A42EED13B69DB683B6000237B6008E0BB6800221A60BB680433BB607B6804337B607A683B689A42F2D13B6910333B617B6926
:40180000013B7B617B69002BC6D103F0E9FFFEF741FFFEE70100000070AB010080B582B000AF154B144A126801218A431A6000237B600FE07B68032B04D8104B7A68920078
:40184000D35800E00E4B0F4A796889008B507B6801337B607B682F2BECD9FEF755FC0A4B00221A60044B044A126801210A431A60C046BD4602B080BD0000104000000000F3
:401880001D17000000000020C000002080B500AF094B00221A70094B00221A70084B00221A7000F013F8074B00221A70064B00221A70C046BD4680BDE72F0020E02F002070
:4018C000E62F0020C82F0020D02F002080B500AF00F024FDC046BD4680BDC046B0B594B004AF78603E23FB1800221A802823FA183D4B1000190014231A0003F0A6FF3B4B5B
:401900001B78002B04D1FFF7C1FF384B01221A707B68002B5CD0364B7A681A603E23FB181B88002B29D11023FB181C22BA185A601023FB182022BA181A601023FB1800228F
:401940001A812023FB181B221A802023FB181B225A802023FB1804221A711C23FB1808221A703E23FC180E23FA181023FB181100180006F0A7FE030023803E23FB181B88A6
:40198000002B29D13E23FC182823FD18AE231A0118491948194B0293194B0193052300932B0006F0E5FD030023803E23FB181B88002B11D1134B01221A703E23FC18124B29
:4019C00011222221180013F023F80300238003E03E23FB1801221A803E23FB181B881800BD4610B0B0BDC046D4A501007D160020CC2F0020C8000020F91E0000790200005A
:401A000000B40100DE2F002020A6010090B593B000AF0200FB1D1A704623FB1800221A80614B1B781A00012313401ED04623FC18FB1D1B7818000EF099F80300238046234E
:401A4000FB181B88002B10D1574B1B7801229343DAB2554B1A70544B1B781A000223134003D04623FB1828221A804623FB181B88002B03D0FB1D1B78002B2CD04A4B1B78B2
:401A80001A000223134026D0484B1B78042B22D8464B1B781A0013009B009B185B009E2292009A18424BD318591C4623FC18FB1D1B7840480A220EF03FF803002380462344
:401AC000FB181B88002B06D1374B1B7802229343DAB2354B1A704623FB181B88002B03D0FB1D1B78002B57D02F4B1B781A000C23134051D02C4B1B781A00082313401FD014
:401B00000823FB1832220021180003F0A7FE4623FC18FB1D1B7828490822B81832220EF00BF8030023804623FB181B88002B33D11D4B1B7808229343DAB21B4B1A702BE0E4
:401B40003C23FB1818000A231A00002103F086FE1A4B1B781A0013009B009B185B009E2292009A18124BD318591C4623FC18FB1D1B783C22B8180A220DF0DEFF030023806B
:401B80004623FB181B88002B06D1074B1B7804229343DAB2044B1A704623FB181B881800BD4613B090BDC046C82F0020E42F002000B40100D42F002079B601007E16002068
:401BC00090B585B000AF0200FB1D1A70FB1D1B78022B04D90E23FB1801221A804AE0294B1B78042B41D1284B1B78DBB21A00042313403AD1FB1D1B78002B0BD1234B1E225E
:401C00001A82224B5B6820221A80204B5B6830225A8010E0FB1D1B78012B0CD11B4B96221A821A4B5B68C822D2001A80174B5B68FA2212015A80164BFA1D12781A700E23DB
:401C4000FC18124B180010F007FF030023800E23FB181B88002B0DD10B4B1B78DBB204221343DAB2084B1A7004E00E23FB180422FF321A800E23FB181B881800BD4605B014
:401C800090BDC046DE2F0020E72F0020040C0020E62F002080B584B000AF78600A00FB1C1A700023BB60BB68002B20D07B689A79BB681A700F23FB1800221A7012E00F233A
:401CC000FB181B780133BA68D3180F22BA18127879688A5C1A700F23FB181A780F23FB1801321A700F23FB181B78052BE7D9C046BD4604B080BDC04680B582B000AF786090
:401D00007B681B789AB27B6801331B789BB21B029BB213439BB21800BD4602B080BDC04690B585B000AF78600F23FB1800221A707B689B890F22934232D17B68181D7A68D1
:401D40000F23FC184023002112F07AFE030023700F23FB181B78002B1AD17B685B681800FFF7CAFF03001A00022313409BB2002B07D00F4B1B687968822252001000984797
:401D800006E00B4B1B6879680622FF3210009847084B1B78DBB201229343DAB2054B1A700F23FB181B781800BD4605B090BDC046CC2F0020E72F002090B585B000AF78601C
:401DC0000F23FC187B681800FFF7AAFF03002370154B1B78DBB21A00012313401FD10F23FB181B78002B16D00823FB1812229A707B689A890823FB181A800823FB180F22BA
:401E0000BA181278DA700823FA187B681100186811F06EFF03E07B68186811F0FDFFC046BD4605B090BDC046E72F002080B582B000AF7860C046BD4602B080BD80B500AF89
:401E4000044B00225A70034B00221A70C046BD4680BDC046E42F002080B582B000AF7860C046BD4602B080BD80B500AFC046BD4680BDC04680B584B000AF78600E23FB1864
:401E800000221A707B689B79002B1CD10F23FB1800221A7012E00F23FB181B787A68D35C002B04D00E23FB1801221A700BE00F23FB181A780F23FB1801321A700F23FB18A2
:401EC0001B78052BE7D90E23FB181B781800BD4604B080BD80B582B000AF0200BB1D1A80C046BD4602B080BD80B582B000AF7860C046BD4602B080BD80B588B000AF0200F6
:401F00003960FB1D1A70C94B1B78DBB201221343DAB2C64B1A70FB1D1B78412B00D160E123DC212B00D1C6E00DDC022B00D198E002DC012B3BD0D1E1052B00D196E0062BD9
:401F400000D198E0CAE1272B00D1EEE006DC242B00D1E0E0262B00D1F3E0BFE1282B00D1EBE02A2B00D1DBE0B8E14F2B00D1A8E10BDC432B00D175E100DA54E14C2B00D115
:401F80008DE14E2B00D19EE1A8E1572B00D19CE106DC502B00D19AE1542B00D184E19DE1712B00D117E1FA2B00D182E196E11423FB1807221A701423FB1800225A70142316
:401FC000FB18180008F0E2FA1423FB1807221A701423FB1801225A701423FB18180008F0D5FA0B23002B01D006F084FA904B1B681800FFF73FFF031E11D08D4B1B681800C8
:4020000006F088FA8A4B1B6800211800FFF742FE874B1B6801211800FFF73CFE0DE0854B180006F077FA834B00211800FFF732FE804B01211800FFF72DFE032010F0A0FB55
:402040001023FB183F221A701023FB1800225A701023FB18180010F0B1FB774B04221A703CE13B681800FFF7F7FE37E13B681A78724B1A7032E13B68BB61BB691B78002B76
:4020800000D026E1BB695B78002B0BD16C4B0022DA806B4B00229A80694B6A4A1A60BB69674A5A60614B1B78DBB201229343DAB25E4B1A700DE15D4B1B78DBB21A0020231E
:4020C000134000D007E1604B1B78102B02D15E4B0522DA705D4B1B785B4A1100180010F079FC03001A000E23FB181A800E23FB181B88002B06D0564B1B680E22BA181100D7
:4021000036209847494B1B78DBB201221343DAB2464B1A70DFE03B685A784E4B1A70DDE03B681800FFF7E0FED8E03B681800FFF7DBFE414B02221A70D0E03F4B04221A708D
:40214000CCE03D4B1B78022B00D1C6E0374B1B78DBB21A000123134000D1BEE0334B1B78DBB21A00042313400BD0334B03221A702E4B1B78DBB204229343DAB22B4B1A70F7
:40218000ABE02A4B1B78DBB21A00082313400BD0294B04221A70254B1B78DBB208229343DAB2224B1A7098E0234B1B78032B00D093E0214B04221A70274B1B78002B00D04F
:4021C0008BE00120FFF7FCFC031E00D085E01A4B03221A7081E03B681B881800FFF77AFE7CE01A4A3B681000190002231A0003F02CFB124B00221A70144B1B781A001300C1
:402200009B009B185B009E2292009A18134BD3180133134A100019000A231A0003F015FBFFF722FE5AE0FFF709FE57E0E72F0020200C0020180C0020DE2F0020E02F0020FE
:4022400080160020A80B0020700D0020E42F0020CC2F0020D02F0020E62F002000B40100D42F00203B685B88162B05D81E23FB183A6852881A8003E01E23FB1817221A80A6
:402280001E23FB1819883B681A8800231204120C1B0C1B041343180011F034FD1EE03B681800FFF789FD19E03B681800FFF7BEFD14E0174B1B7801221343DAB2144B1A7036
:4022C0000CE0C0460AE0C04608E0C04606E0C04604E0C04602E0C04600E0C0460D4B1B78DBB21A00112313400ED00A4B1B78DBB201229343DAB2074B1A70074B1B68FA1DB1
:402300001278396810009847C046BD4608B080BDC82F0020E72F0020CC2F002080B500AFC046BD4680BDC04680B584B000AF0200FB1D1A700E4B1B68DAB20F23FB18012162
:402340008A431A70FB1D1B7801221340D9B20F23FB180F22BA1812780A431A70044B0F22BA1812781A60C046BD4604B080BDC0460005044080B584B000AF0200FB1D1A7056
:402380000F4B1B68DAB20F23FB1840218A431A70FB1D1B789B01DBB240221340D9B20F23FB180F22BA1812780A431A70044B0F22BA1812781A60C046BD4604B080BDC046A4
:4023C0000001044080B500AF044B1B68402213409B09DBB21800BD4680BDC0460401044080B582B000AF094B1B68DAB2FB1D10210A401A70054BFA1D12781A60FB1D1B78A9
:402400001B09DBB21800BD4602B080BD1001044080B500AF00F054F8054B180000F010F8032000F01BF800F041F8C046BD4680BD3524000080B500AFC046BD4680BDC046EE
:4024400080B582B000AF7860034B7A685A64C046BD4602B080BDC0460000002090B585B000AF0200FB1D1A700E23FB600B23FC1800F0E3FD030023700A4B0A4A12680A49EB
:402480001140FA1D1078FA68904002000A431A600B23FB181B78180000F0D3FDC046BD4605B090BD00E400E0FF3FFFFF80B500AF024B02221A60C046BD4680BD00E100E0A4
:4024C00080B500AF024B02221A60C046BD4680BD80E100E080B500AF024B02221A60C046BD4680BD80E200E080B500AF044B1B68202213405B09DBB21800BD4680BDC04695
:402500000400044080B584B000AF0200FB1D1A700D4B1B68DAB20F23FB187F210A401A70FB1D1B78DB01D9B20F23FB180F22BA1812780A431A70044B0F22BA1812781A6066
:40254000C046BD4604B080BD0001044080B500AF044B1B6880221340DB09DBB21800BD4680BDC0460401044080B584B000AF0200FB1D1A700F4B1B68DAB20F23FB181021BE
:402580008A431A70FB1D1B781B01DBB210221340D9B20F23FB180F22BA1812780A431A70044B0F22BA1812781A60C046BD4604B080BDC0460000044080B500AF044B1B6867
:4025C000102213401B09DBB21800BD4680BDC0460400044080B584B000AF0200FB1D1A700F4B1B68DAB20F23FB1802218A431A70FB1D1B78DB18DBB202221340D9B20F23BC
:40260000FB180F22BA1812780A431A70044B0F22BA1812781A60C046BD4604B080BDC0460004044080B584B000AF0200FB1D1A700F4B1B68DAB20F23FB1840218A431A7063
:40264000FB1D1B789B01DBB240221340D9B20F23FB180F22BA1812780A431A70044B0F22BA1812781A60C046BD4604B080BDC0460003044080B584B000AF0200FB1D1A7044
:402680000F4B1B68DAB20F23FB1820218A431A70FB1D1B785B01DBB220221340D9B20F23FB180F22BA1812780A431A70044B0F22BA1812781A60C046BD4604B080BDC04621
:4026C0000001044080B584B000AF0200FB1D1A700E4B1B68DAB20F23FB1801218A431A70FB1D1B7801221340D9B20F23FB180F22BA1812780A431A70044B0F22BA18127882
:402700001A60C046BD4604B080BDC0460004044080B584B000AF0200FB1D1A700F4B1B68DAB20F23FB1810218A431A70FB1D1B781B01DBB210221340D9B20F23FB180F220B
:40274000BA1812780A431A70044B0F22BA1812781A60C046BD4604B080BDC0460003044080B584B000AF0200FB1D1A700F4B1B68DAB20F23FB1820218A431A70FB1D1B78DC
:402780005B01DBB220221340D9B20F23FB180F22BA1812780A431A70044B0F22BA1812781A60C046BD4604B080BDC0460003044080B584B000AF0200FB1D1A700D4B1B6833
:4027C000DAB20F23FB187F210A401A70FB1D1B78DB01D9B20F23FB180F22BA1812780A431A70044B0F22BA1812781A60C046BD4604B080BD0003044090B585B000AF786041
:402800000C23FC1800F019FC030023707B68022B00D8B3E07B68302B00D9AFE05E4B1B78DBB21A007B689A420AD35C4A0F23FB1812781A705A4A0E23FB1812781A703FE000
:40284000584B1B78DBB21A007B689A420AD3564A0F23FB1812781A70544A0E23FB1812781A702DE0524B1B78DBB21A007B689A420AD3504A0F23FB1812781A704E4A0E23B4
:40288000FB1812781A701BE04C4B1B78DBB21A007B689A420AD34A4A0F23FB1812781A70484A0E23FB1812781A7009E0464A0F23FB1812781A70454A0E23FB1812781A70F9
:4028C0007B68DA1E0B23FB1841498A5C1A700B23FB181B782F2B0DD97B682A2B0AD93D4B19221A60052000F09FFB0D23FB1819221A7007E0374B1B68DAB20D23FB183F2184
:402900000A401A700B23FA180D23FB1812781B789A4208D22F4B7A68033A2D498A5C1A60052000F081FB7B68284A9A180A23FB1812781A70284B0A22BA1812781A60274B2B
:402940000F22BA1812781A60254B0E22BA1812781A60052000F0FEF80B23FA180D23FB1812781B789A420CD91A4B7A68033A18498A5C1A60052000F057FB02E0002000F0D0
:40298000B7F80C23FB181B78180000F05AFBC046BD4605B090BDC04640F3FF0F41F3FF0F42F3FF0F43F3FF0F44F3FF0F45F3FF0F46F3FF0F47F3FF0F48F3FF0F49F3FF0F6E
:4029C0004AF3FF0F4BF3FF0F4CF3FF0F4DF3FF0FC8A801002CFF0B4028FF0B401CFF0B4020FF0B4080B584B000AF78600023FB60154B154A126801210A431A60134B144A30
:402A00001A60144B134A1268802109020A431A607B68002B12D01023FB600CE0012000F099F800F019F8031E02D00023FB6005E07B68013B7B607B68002BEFD1FB681800CD
:402A4000BD4604B080BDC04660F02E4078002E400220000010002E4080B582B000AF054B1B68012213407B607B681800BD4602B080BDC0460C002E4080B584B000AF020057
:402A80003960FB1D1A7080239B05FB60FB1D1B781F2B02D9002000F02BF8FB1D1B7810339B00FA68D3181B68BB60FB1D1B7810339B00FA68D3183A681A60BB681800BD4696
:402AC00004B080BD80B582B000AF0200FB1D1A70064BFA1D12781F210A40012191400A001A60C046BD4602B080BDC04600E100E080B582B000AF0200FB1D1A7001BEC046FA
:402B0000BD4602B080BDC04680B582B000AF786009E00D4B1B68180000F086FA7B680B4A944663447B607A6880231B029A42F0D8074B1B687A685343180000F075FAC046BF
:402B4000BD4602B080BDC046840D00200080FFFF7C0D002080B582B000AF0200BB1D1A80BB1D1B88044A12785343180000F05CFAC046BD4602B080BD800D002080B500AF2B
:402B8000164B164A1268920092081A60144B144A1268920092081A60124B124A1268920092081A60104B104A1268920092081A600E4B0E4A1268920092081A600C4B0C4A2B
:402BC0001268920092081A600A4B0A4A1268920092081A60C046BD4680BDC0460800044008010440080204400803044008040440080504400806044090B583B000AFFC1D37
:402C000000F01BFA03002370074B074A126804218A431A6030BFFB1D1B78180000F011FAC046BD4603B090BD10ED00E090B583B000AFFC1D00F001FA03002370FFF79EFF89
:402C4000114B114A1268802109060A431A600F4B0F4A128892B21A600E4B0E4A126804210A431A600C4B0C4A1268FF218A43F1210A431A6030BFFB1D1B78180000F0E1F921
:402C8000C046BD4603B090BD00000B400C000B4050F2FF0F10ED00E02C000B4080B500AF0F4B0F4A126801218A431A600C4B0C4A126802218A431A600A4B0A4A1268302146
:402CC0008A4310210A431A60064B064A126807218A4301210A431A60C046BD4680BDC04600F02E4000FF2E4080B500AF0F4B0F4A126802218A431A600D4B0D4A1268072133
:402D00008A4302210A431A60094B094A126830218A4320210A431A60044B044A126801210A431A60C046BD4680BDC04600F02E4000FF2E4080B500AFFFF7B0FF044B044A58
:402D40001268802109060A431A60C046BD4680BD00F02E4080B584B000AF78600C4B1B6801221340FB607B68002B02D0012B03D005E0FFF793FF06E0FFF7B6FF03E0002043
:402D8000FFF7B6FEC046FB681800BD4604B080BD00F02E4090B583B000AFFC1D00F04DF903002370074B074A1268C02109020A431A60FB1D1B78180000F043F9C046BD46C2
:402DC00003B090BD00010B4080B500AF054B1A68C0231B02134001D0012300E000231800BD4680BD00010B4090B583B000AFFC1D00F023F9030023700D4B0D4A12680D4981
:402E00000A408021C9010A431A60094B084A126808490A40802109020A431A60FB1D1B78180000F00EF9C046BD4603B090BDC04600010B40FF3FFFFF90B585B000AF786096
:402E40000B23FC1800F0F9F803002370FFF7BCFF031E04D00123FB60FFF7C6FF01E00023FB607B680D4A13407B600D4B0C4A12680C4911407A680A431A60094B1B68FB6841
:402E8000012B01D1FFF786FF0B23FB181B78180000F0D7F8C046BD4605B090BD0404040010020B40FBFBFBFF80B584B000AF786039600023FB607B68022B0AD8094B7A685B
:402EC0009200D358FB60074B7A6892003968D15002E00020FFF70CFEFB681800BD4604B080BDC0469416002080B582B000AF78607B68022B13D80D4B7A689200D358DA43F4
:402F00000B4B1B681A400A4B1A60084B7A689200D258084B1B681A43064B1A6002E00020FFF7E6FDC046BD4602B080BDF8A8010090160020900D002080B500AF344B1B68C3
:402F4000042213401FD0334B1B680422134017D0314B1B6804221340DA432E4B1B681A402C4B1A602C4B1B68042293431A002A4B1A602A4B1B68002B02D0284B1B689847E3
:402F80000420FFF759FF224B1A688023DB00134022D0204B1A688023DB00134017D01E4B1A688023DB001340DA431A4B1B681A40184B1A60184B1B68194A1A40164B1A60D2
:402FC000164B5B68002B02D0144B5B6898478023DB001800FFF730FF0D4B1A688023DB02134011D00B4B1A688023DB02134006D00A4B9B68002B02D0084B9B6898478023B8
:40300000DB021800FFF718FFC046BD4680BDC04610020B40900D00209016002094160020FFFBFFFF000000000230800803D00138FDD1C046C046C0467047EFF3108072B6A9
:40304000704780F31088704780B5CCB000AFF860B960844B982149008C46BC4463441A80002392225200BA181360002390225200BA181360BB688A225200BA181360794B1E
:40308000982252009446BC4463441A888A235B00FB181B68D318744A934200D9C2E08A235B00FB181B681B0A96225200BA18136096235B00FB181B681B028E225200BA189D
:4030C00013609AE000238C225200BA181360002394225200BA1813606BE08E235B00FB181A688A235B00FB181B689A423DD35D4B982252009446BC4463441A8892235B00AE
:40310000FB181B689A4230D9FA6892235B00FB181B68D3181978554B98225200BA18D21894235B00FB181B68D3180A1C1A708E235B00FB181B681B78DAB2F96892235B00B3
:40314000FB181B68CB181B789A4204D001238C225200BA18136092235B00FB181B68013392225200BA18136011E08E235B00FB181B681B78D9B23D4B98225200BA18D21804
:4031800094235B00FB181B68D3180A1C1A708E235B00FB181B6801338E225200BA18136094235B00FB181B68013394225200BA18136094235B00FB181B68FF2B8DD98C239F
:4031C0005B00FB181B68002B0ED01423FA1896235B00FB181B681100180000F057FA030090225200BA18136096235B00FB181B68013396225200BA1813601A4B982252008E
:403200009446BC4463441A8892235B00FB181B689A420CD990235B00FB181B68002B00D150E704E0012390225200BA18136090235B00FB181B68002B0BD090235B00FB1811
:403240001B68012B05D001235B4290225200BA18136090235B00FB181B681800BD464CB080BDC046D6FEFFFFFFFF0300E4FEFFFF80B582B000AF78600A00BB1C1A80BB1CCF
:403280001A887B681A60C046BD4602B080BDC04680B582B000AF78600A00BB1C1A80BB1C1A887B681A60C046BD4602B080BDC04680B584B000AF494B1B78DBB21B02484A59
:4032C0001278D2B21343FB60464B1B78DBB21B02454A1278D2B21343BB60BB68434A934207D1FB68072B04D1414BBB600423FB6009E0BA68D4231B019A4204D1FB68042BE2
:4033000001D13B4BBB603B4BBA681A603A4BFA681A603A4B1B78DBB21B02394A1278D2B21343FB60FA6880239B019A4202D0FB68002B01D1334BFB60334BFA681A60334B33
:403340001B78DBB21B02324A1278D2B21343FB60FB68304A934206D0FB682F4A934202D0FB68052B01D12D4BFB602D4BFA681A602C4B1B681B097B602B4B1B68AA2B29D17D
:403380007B68012B26D9214B1B78DBB20E2B21D1264B1B78DBB29BB21B0299B2244B1B78DBB29AB2BB1C0A431A80224BBA1C12881A60214B1B78DBB29BB21B0299B21F4B67
:4033C0001B78DBB29AB23B000A431A801C4B3A0012881A60C046BD4604B080BD59F1FF0F58F1FF0F5FF1FF0F5EF1FF0F580B0000580D00006C002E4074002E405BF1FF0F48
:403400005AF1FF0F0220000078002E405DF1FF0F5CF1FF0F0F0F000005050000050F000080002E40EC0F00F0E00F00F06DF2FF0F6CF2FF0F84002E406FF2FF0F6EF2FF0FD8
:4034400094002E4080B582B000AF0200BB1D1A80BB1D1B881800FFF77DFBC046BD4602B080BDC04680B582B000AF78607B681800FFF74AFBC046BD4602B080BD80B500AFC1
:4034800000F0ECF8C046BD4680BDC04680B500AF00F0F0F8C046BD4680BDC04680B500AF00F0E8F8044B180000F0A2F8032000F0ADF8C046BD4680BDB138000080B500AF74
:4034C000034B180000F080F8C046BD4680BDC046B138000080B500AF014B1800BD4680BD0202000080B582B000AF78602B231800BD4602B080BDC04680B582B000AF786003
:403500002B231800BD4602B080BDC04680B582B000AF78602B231800BD4602B080BDC04680B582B000AF78602B231800BD4602B080BDC04680B582B000AF78602B23180041
:40354000BD4602B080BDC04680B582B000AF78602B231800BD4602B080BDC04680B582B000AF78602B231800BD4602B080BDC04680B582B000AF78602B231800BD4602B0B2
:4035800080BDC04680B500AF2B231800BD4680BD80B582B000AF0200FB1D1A702B231800BD4602B080BDC04680B582B000AF786039602B231800BD4602B080BD80B500AF63
:4035C000C046BD4680BDC04680B582B000AF786000F050F87B68180000F00AF8032000F015F800F03BF8C046BD4602B080BDC04680B582B000AF7860034B7A681A67C04686
:40360000BD4602B080BDC0460000002090B585B000AF0200FB1D1A700623FB600B23FC18FFF70BFD030023700B4B0B4A1268C0218A431100FA1D1078FA68904002000A4347
:403640001A600B23FB181B781800FFF7FAFCC046BD4605B090BDC0460CE400E080B500AF034B802252011A60C046BD4680BDC04600E100E080B500AF034B802252011A60C8
:40368000C046BD4680BDC04680E100E090B5C9B000AF7860396000238C225200BA18136000238A225200BA1813607B686C4A934200D9C7E03B68002B00D1C3E080235A00A4
:4036C00039680C23FB180833180002F0BEF87B68644A934201D9644A00E0644A644B902149008C46BC4463441A60614B902252009446BC446344FF225A605E4B0C22BA181F
:403700001A605D4B5D4A1A60C0465A4B1B681B0F1A07F0231B069A4204D1564B1B68FF2213400DE0534B1B681B0F1A07A0231B069A4204D04F4B1B68FF22134000E00023CF
:403740008C225200BA1813608C235B00FB181B68002B00D07BE02023FF33FC18FFF76DFC0300237000F090F803008A225200BA1813608C235B00FB181B68002B3FD13C4B70
:40378000902252009446BC4463443D4A1A60384B902252009446BC4463441A687B681B041A43334B902149008C46BC4463441A60304B0C22BA181A602F4B324A1A60C046C4
:4037C0002C4B1B681B0F1A07F0231B069A4204D1284B1B68FF2213400DE0264B1B681B0F1A07A0231B069A4204D0224B1B68FF22134000E000238C225200BA1813608A231C
:403800005B00FB181B68002B14D100F047F803008A225200BA1813608A235B00FB181B68002B07D08A235B00FB181B688C225200BA1813602023FF33FB181B781800FFF766
:4038400000FC04E004238C225200BA1813608C235B00FB181B681800BD4649B090BDC046FF030000FF010000B6D70001B6D70000ECFEFFFF080010400400104004000080C0
:40388000B6D800000500008080B582B000AF00237B607B681800BD4602B080BD80B582B000AF00237B607B681800BD4602B080BD80B500AF15F0ECFFC046BD4680BDC046D3
:4038C000002243088B4274D303098B425FD3030A8B4244D3030B8B4228D3030C8B420DD3FF22090212BA030C8B4202D31212090265D0030B8B4219D300E0090AC30B8B4257
:4039000001D3CB03C01A5241830B8B4201D38B03C01A5241430B8B4201D34B03C01A5241030B8B4201D30B03C01A5241C30A8B4201D3CB02C01A5241830A8B4201D38B0217
:40394000C01A5241430A8B4201D34B02C01A5241030A8B4201D30B02C01A5241CDD2C3098B4201D3CB01C01A524183098B4201D38B01C01A524143098B4201D34B01C01A8C
:40398000524103098B4201D30B01C01A5241C3088B4201D3CB00C01A524183088B4201D38B00C01A524143088B4201D34B00C01A5241411A00D20146524110467047FFE7E8
:4039C00001B5002000F0F0F802BDC0460029F7D076E7704703460B437FD4002243088B4274D303098B425FD3030A8B4244D3030B8B4228D3030C8B420DD3FF22090212BA5F
:403A0000030C8B4202D31212090265D0030B8B4219D300E0090AC30B8B4201D3CB03C01A5241830B8B4201D38B03C01A5241430B8B4201D34B03C01A5241030B8B4201D38A
:403A40000B03C01A5241C30A8B4201D3CB02C01A5241830A8B4201D38B02C01A5241430A8B4201D34B02C01A5241030A8B4201D30B02C01A5241CDD2C3098B4201D3CB0153
:403A8000C01A524183098B4201D38B01C01A524143098B4201D34B01C01A524103098B4201D30B01C01A5241C3088B4201D3CB00C01A524183088B4201D38B00C01A5241DF
:403AC00043088B4201D34B00C01A5241411A00D201465241104670475DE0CA0F00D04942031000D34042534000229C4603098B422DD3030A8B4212D3FC22890112BA030A85
:403B00008B420CD3890192118B4208D3890192118B4204D389013AD0921100E08909C3098B4201D3CB01C01A524183098B4201D38B01C01A524143098B4201D34B01C01AAB
:403B4000524103098B4201D30B01C01A5241C3088B4201D3CB00C01A524183088B4201D38B00C01A5241D9D243088B4201D34B00C01A5241411A00D20146634652415B105A
:403B8000104601D34042002B00D54942704763465B1000D3404201B5002000F005F802BD0029F8D016E770477047C0468446101C62468C46191C634600E0C0461FB500F0D2
:403BC00019FF002801D40021C8421FBD10B500F06DFE4042013010BD10B500F00BFF002801DB002010BD012010BDC04610B500F001FF002801DD002010BD012010BDC046C9
:403C000010B500F093FE002801DC002010BD012010BDC04610B500F089FE002801DA002010BD012010BDC046F8B556465F464D464446F0B40F00FD0FAA4609037C002E00C8
:403C40005F00450F490A7F0D2943C5001803BC46400A570F640DDB0F3843D2009A4500D1AAE06646A61B002E00DCFFE06346002B39D10300134300D0D9E06B0709D00F233F
:403C80002B40042B05D02B1DAB42AD416D4249191D000B0200D482E0CA4B01349C4200D1FEE00A005646C84BED081A405007640552020543120B640D002112030B0D1B05CA
:403CC0006405120B1A436308C04CF60714401C43640064083443280021003CBC90469946A246AB46F8BDB74B9C42C6D080231B041843382E00DDEBE01F2E00DD1EE12023E2
:403D00009B1B9C4603006746BB40984613004746F3403B436746BA40571EBA4113430200F240EB1A9D42B6411D008A1A7642911B0B0231D54A02560A002E00D1B4E03000EE
:403D400001F02AFD0300083B1F2B00DDB5E020222900D21AD1409E400A009D4032439C4200DDB1E01C1B631C1F2B00DDD5E0202114002800C91A8C40D8408D400443DA4037
:403D8000681E854111002543002476E74146314300D134E2310045466B0700D06FE756464807ED08C9080543864B9C4235D00A036405120B640D7FE76346E31A9B46002BBE
:403DC00000DC8BE06746002F3CD07E4FBC4200D153E780273F0438435B46382B00DCF7E00243501E82410020D2B253194218AB4289411D00494289180B02CDD5714B013422
:403E00009C4200D13DE101206F4A6B080A4028401843D507054351082FE72B000B4300D1CBE180231B030B431A03120B44E7013E002E6DD1AE1AB5429B41091A5B42C91A75
:403E4000350075E70700174300D116E701235B429C46E3445B46002B00D0E0E0AA18AA429B4109185B4259181500C5E7002E75D1661C7605760D012E00DCF3E0AE1AB04652
:403E80004545BF410E1A7F42F61B370200D48FE0551BAA42B641411A76428E1B9A464BE756460022002507E7280001F075FC20300300083B1F2B00DC49E72A00283882404E
:403EC00000259C4200DC4DE73F49E41A1140D4E60243501E8241D3B2002222E7002B00D0F3E0631C9C465B055B0D012B00DC9FE0344B9C4500D1C3E0AA180918AA42804116
:403F000040424118CD075208154349086446B4E62C4B9C4200D0ECE6AFE611001F3CE1400C00202B00D17FE04021CB1A9A4015436A1E95410021254300242DE7330007001A
:403F4000203BDF403B00202E70D04027BE1BB0400243501E824113430022E2E6002C4FD0184CA44500D1ABE08024240476422143382E00DDDFE01F2E00DD43E12027BC1BCE
:403F8000A1460C004F46BC40A0462C004746F4403C434F46BD406F1EBD41F1402C43151BAA429241411A5242891A64469A46BFE641464546314300D0BEE600260024002555
:403FC000F2E6C046FF070000FFFF7FFFFFFF0F801F2B59DC2027FF1ABC46070063469F405B46B9461700DF40B8464F4643461F4363469A40531E9A415B463A43D840F4E631
:404000000C002C435CD0F643002E55D1551BAA42A441411A6442091B9A46644688E6964FBC4200D0D8E628E6002280E700208FE70B002B43002C00D0C2E0002B00D101E15B
:404040000300134300D118E6AB18AB42B6410918764271180A0200D409E1884A1D00114064460AE6002C5BD10E002E4300D08AE00100114300D1C2E0010015009A46FCE5BB
:404080006446002100258FE620235B429C46DC4463460700DF405B46BC46202B00D1ACE040235F46DB1B98400243501E8241634613431A00002098E66F4CA44500D057E7EA
:4040C0000100150064469A46D7E5002C39D10C002C436ED0DB43002B1AD0674CA44568D0382B00DDA4E01F2B00DDAEE020240F00E41AA740B9462F00DF40B846A3464F46F4
:40410000444627435C46A5406C1EA541D9403D43AD1895429B4109185B42591864466BE60C002C4315D1010011437BD0010015009A46514CA1E50D43691E8D410021ECB2DB
:404140002DE74D4CA44534D0802424045B422143C6E7040014434ED0ED084C072C438025C9082D03294208D0C6082E4205D1D208410711430C009A463100620FC900E5004C
:4041800011433D4C79E50600164300D175E5AE1AB0464545BF410E1A7F42F61B370200D4F4E5551BAA42B641411A7642891B9A4663E50100150064465FE5002200257BE535
:4041C000002B3BD00300134315D0ED084B072B438025C9082D03294207D0C4082C4204D141070B002100D2081343C9005A0F1143DD00214C41E5204C3FE5002054E70026F4
:404200000025D1E534000F00203CE7403C00202E2BD04027BE1BB1400D43691E8D4100212C43BCE6802100260903134C0025BBE50D43691E8D410021EDB269E7010015008E
:404240000D4C1AE50100150017E51C000F00203CE7403C00202B0CD04027FB1A99400D43691E8D410021254352E70021D4E71D0092E50021F3E7C046FF070000FFFF7FFF14
:40428000F0B556464D4644465F46F0B41D000E034C00CB0F87B0070092468146360B640D98466AD06D4B9C4235D08022430F12041343F6001E43C3009946694B00279C46AB
:4042C0000023644402932B0368001B0BED0F51469B46400D009500D178E0604B98426CD05B46DA004B0F802109040B4313439B465346D9005A4B9C46002360444246201AD8
:404300006A40924601901F430F2F00D9B0E05548BF00C0598746374300D088E0002399460233082700260293CDE74346B34649460093029B009A9246022B00D0BFE1002127
:4043400053460122002689461A40444B002136030C0D2405360B2643434C1B0526401E437600D207760816434846310007B03CBC90469946A246AB46F0BD330003434FD080
:40438000002E00D1BCE1300001F006FA03000B3B1C2B00DDADE11D220100D31A08393A008F408E40DA40B9461643304B00279C46002360444442029385E753465A4613432D
:4043C0002CD1002300219B46023397E70B4320D05B46002B00D19EE1584601F0DDF903000B3B1C2B00DD8FE102005946083A91408B461D21CB1A5146D9400B0059460B43FC
:4044000051469B469140194B9C4660444042002374E7002300219B4601336FE703236DE70023994601330427002602934BE703230C27029347E70122D51A382D00DCB0E1D2
:4044400053461A4000210023002689467EE700238026994600223603004B77E7FF07000001FCFFFF04A90100FFFF0F80F30300005E4500D972E100D16DE1019B4D46013B74
:4044800001930023340002935B461E020B0E1E430B020393330C994633041B0C494620000093FFF70DFA009B370043430600494620009846FFF78AFA2C0C09040C43A04505
:4044C00009D9E419731EA74200D95CE1A04500D859E1023EE4194346E41A49462000FFF7EFF90300009A80465343494620009B46FFF76CFA2A040904120C0A4393450DD9BC
:404500004346D219013B974200D93AE1934500D837E102235B429C46D219E0445B46D21A4346360433439B460399180C0B0C1D00059309045B46090C0C001B041B0C4443B4
:40454000049159436B4368431B190D0CEB189C4203D980246402A44660441C0C09041B04090C20185D18824200D2DEE000D1D7E0161A029B9C465D1BAC459B415B42F61A7C
:40458000B74200D106E149463000FFF799F9009B04004343494630009846FFF717FA2E0C09040E43B04509D9F619631EB74200D9F3E0B04500D8F0E0023CF6194346F31A16
:4045C000494618000293FFF77BF9009B06004343494602989846FFF7F9F92D0409042D0C0D43A84509D9ED19731EAF4200D9D6E0A84500D8D3E0023EED19240421004346C2
:404600003143049E059A3000ED1A0B040C0C1B0C58436643534354439A19030C9B189E4203D980225202944664441A0C00041B04000C14191B18A54250D34DD001231943CA
:40464000964A019B94466344002B00DCF3E64A0709D00F220A40042A05D00A1D8A42894149428B4411005A46D20108D55A468C4B1A4093468022D2009446019B6344894A2F
:40468000934200DD5BE65A46C908500708435602514601225B058146360B5B0D0A4055E680231B031E4211D05A461A420ED15E461E433603360B2A0089467B4B46E6032B18
:4046C00000D1E1E0012BBBD11A40BBE61E433603360B4246744B39E6002BB1D07D194A1EAF4252D91100A542A8D1039A9A42A5D1A6E703003E00283B9E400023994654E6C3
:4047000001F04AF8203041E603005246283B9A400021934677E6504601F03EF820305EE6029B0026AB4200D323E7039E0299B44661448846B045B6415B467642F619B218FB
:40474000013B0291974213D290424FD800D18EE0161A9B460DE7894500D28EE674084B46F60735005B081D434B46DB0702938BE69742EDD10399029CA142E5D93E1A9B4635
:40478000F7E69846CAE61E00A5E6AC423ED874D0110053E70121494252E71C000EE71E002BE71F2D3CDC20230A0058465B1B9840EA4099400243481E81415E461143EE40F8
:4047C0004B0709D00F230B40042B05D00B00191D99429B415B42F61833023CD55346012200211A40002601238946AFE502235B429C46039CE344A446029B63449846A045E5
:40480000B6417642F6190293B218B1E603988A1E41008142B6417642F619AD19039161E71F225242D31A5A46DA401300202D29D040225846551BA8400143481E814107205D
:404840000B4318400026002809D00F2200261A401900042ABBD10B0070077602360BDB0803439946012253461A4000236EE502998D42BBD89B4600267BE603989842C5D3A6
:40488000110032E70020D7E780265B4636031E433603360B009A8946034B57E5FF030000FFFFFFFEFE070000FF070000F0B55F4656464D464446F0B41F035C00DB0F9A46AB
:4048C000194B0E034D00C90F8046360B6D0D8B4691463F0B640D9D4219D0134B9C421BD00123A54206D018003CBC90469946A246AB46F0BDBE42F6D1C845F4D1D34510D08E
:40490000002DF0D1304303005A1E9341EBE7310001230143E7D1E0E73A430123002AE2D1DEE70023DFE7C046FF070000F0B55F46444656464D46F0B41F033C0B2C4F0E0309
:404940004D00A3465C008446360B6D0DC90F9046640DDB0FBD422BD0254FBC422ED0002D0ED130430700814678427841002C17D15F463A4314D14B460020002B0AD006E036
:40498000002C02D15846024301D099421AD00123484218433CBC90469946A246AB46F0BD0028F2D058425841012240421043F1E737000743D0D002204042EBE75F461743C0
:4049C000CDD0F8E7A542E2DC05DB5E45DFD808D000205E45DED248424841012340421843D8E7C445D3D80020C445F4D3D2E7C046FF070000F0B55F464D4644465646F0B42E
:404A00001C03240BA4462F4C0F034D005E00C90F80463F0B6D0D8B469146760DDB0FA54220D0284CA64222D0002D12D1384344424441002E20D0002C0DD05C426341012446
:404A40005B421C4320003CBC90469946A246AB46F0BD002E17D05B4519D05B465C4201231C43EFE7390002240143EBD1D9E7614602241143E6D1D7E761460A43DBD1002438
:404A80000028DFD0E9E761460A43E4D1E5E7B54203DD01225C421443D4E7B542CDDB6745DBD809D000246745CCD259464C426141012449420C43C5E7C845CED80024C8458D
:404AC000F3D3BFE7FF070000F0B55F4656464D464446F0B40D0399464E002B0B87B00700924680469B46760DCC0F002E69D06D4B9E4235D05B468022DD001204430F13432D
:404B00002B439B46C3009846674B00279C460023664401934A4615035000D20F53462D0B400D914600D176E05E4A90426CD080225B0F120413435C4AED0094461D435346E0
:404B40000022DB00604449463618701C6140029017430F2F00D9AFE05448BF00C759BF465B461F4300D088E000239B469846023308270193CEE74946022A6AD0032A00D1BB
:404B800009E2012A00D0BBE111400022002300259046CCB200212D030A0D12052D0B1543434A1B0515401D436D00E4076D0825434046290007B03CBC90469946A246AB46D2
:404BC000F0BD034352D05B46002B00D18AE1584600F0E2FD03000B3B1C2B00DD7BE11D22D31A3A0001005D46DA4008398D4013008F402B439B46B8462E4B00279C4600235C
:404C000060444642019385E752462A432CD100250023022297E752462A4321D0002D00D154E1280000F0B8FD03000B3B1C2B00DD46E11D21CB1A51460200D9405346083A22
:404C4000954093400D431B4A944660444042002279E7012400220C40124B0025904699E70025002301226EE703226CE700239B4698460133042701934CE703230C270193BD
:404C800048E700238025984600242D03054B81E75D464346019A6FE75D4643462100019A6AE7C046FF07000001FCFFFF44A90100FFFF0F80F30300004246120C91461A0CA2
:404CC0009446424617044A461B041B0C5A43604690464A4642431000039262461C003F0C7A437C4342440192220C9246019A5244904506D98246802040028046C2445046F3
:404D00000390100C049048462404240C1204121905922A0C2D042D0C68432C00824648467C4350438146200C8046574357444744BA4503D9802040028046C144380C3F04CB
:404D4000B84648442404240C01900498A044404404905846000C814658460404200C8246070048465F434C464343604660436446834650464443380C8446E4186444A3425E
:404D800003D980235B029C46E34448463F04230C3F0C2404E419574668436F4384464D46504655434243380C814662444A445B44944503D9802040028446654403983F04CE
:404DC000834604983F0C8446E344C345804140428246100484460198674484466744A344BC46A345A4419946D44464428742BF41D4458041E144A04699459B417F4240426A
:404E0000C8440743120CBA18A045A4415F423B0064422343D71843467D19DB0D6D021D435B465A02059B1A43531E9A415B46DB0D1A4343465B021343EA0107D501225C08FF
:404E400013402343EA07029E13436D08574AB218002A4BDD580709D00F201840042805D0181D98429B415B42ED180300E80104D54F4A15408022D200B2184E48824200DDEB
:404E8000E7E60124DB08680718436D02530580462D0B5B0D0C407DE6802259461203114208D0154206D115432D0398462D0B4C46414B6FE65D4615432D032D0B3E4B69E67C
:404EC00003005546283B9D400023BCE6504600F063FC2030A8E60300283B9F400023BB46984689E600F058FC203073E60124A61A382E07DD00220C4000230025904649E6BF
:404F0000029EA3E71F2E20DC20222C001800921BF040944093400443581E83411C43F540630709D00F232340042B05D023001C1D9C4292415242AD182B021FD50124002235
:404F40000C4001230025904624E61F202C004042821AD440202E1CD04022961BB5402B43581E83410720234318400025002809D00F2200251A401C00042AD8D123006807F5
:404F80006D022D0B0124DB08034398460C40002300E60025E3E780220124120315432D0398462D0B0C40044BF4E5C046FF030000FFFFFFFEFE070000FF070000F0B557469C
:404FC0004E464546E0B40E001100F20F9246C500420F180337037400400A4E0F7F0A3043CF4E17435A00640D520DDB0FC900B24200D1E5E001267340A61AB446534500D1A9
:40500000AFE0002E00DC0DE1002A3AD103000B4300D0E4E06B0709D00F232B40042B05D02B1DAB42AD416D427F191D003B0200D488E0BB4B01349C4200D110E13A00B94BCA
:4050400051461A4001235007ED08520264050543120B640D0B400021280012030D0D120B64052D0515436208AF4CDB072C401443640064081C4321001CBC90469946A2469A
:40508000F0BDA74B9C42C5D080231B0418436346382B00DDFDE01F2B00DD30E1624620239B1A02009A40664690460A009940F24046464B1E99413243114363460200DA4053
:4050C000691A8D429B410D00BA1A5B42D71A3B0235D57A02530A98464346002B00D1C4E0404600F059FB0300083B1F2B00DDC5E020222900D21A4746D1409F400A009D4055
:405100003A439C4200DDC0E01C1B631C1F2B00DDE4E0202114002800C91AD8408C408D400443DA40681E854117002543002471E7424663461A4300D14CE2674645466B0706
:4051400000D069E7012351467807ED08FA080B40054373498C4238D012036405120B640D79E7002E00DC9AE0002A47D06C4A944200D14FE78022120410436246382A00DC04
:4051800008E10143481E81410022C9B24919D219A942BF410D007F42BF183A0200D442E15F4A0134944200D14EE101205D4A69083A4028400843D507054357089A4629E760
:4051C00006000E4300D017E714E72900114300D1F9E1802109030A431203120B3BE701235B429846C4446346002B72D1691A8D429B413F1A5B42FF1A0D0068E702000A4373
:4052000000D107E7012252429046C4446246002A00D0E6E06918A942B6413F187642F7190D00BAE7002E00D080E0621C5205520D012A00DCF9E06A1A91464D45B6413A1AD8
:405240007642921B9046120200D499E04D1BA9428941C71B49427A1A90469A463CE752460123002513400022F5E6280000F094FA20300300083B1F2B00DC39E72A0028385E
:40528000824000259C4200DC3EE7264FE41A1740C0E60143481E81410022C9B210E7002E00D0F1E0621C94465205520D012A00DCA0E01B4A944500D1C5E06918A942924161
:4052C0003F185242D2194908D5070D4357086446A0E6134B9C4200D0D9E69BE611001F3CE1400C00202B00D180E04021CB1A9A4015436A1E95410027254300241FE7634633
:405300000200203BDA406346202B71D0402366469B1B98400143481E814111430022CFE6FF070000FFFF7FFFFFFF0F80002C48D0CA4CA24200D1A2E07442A1468024240484
:4053400027434C46382C00DDDBE01F2C00DD44E14E462024A41B3E00A640A246B0464C462E00E640B4464646644626435446A5406C1EA54134002C434D46EF400D1B28E04C
:405380004A4643464D461A4300D0A5E6002300240025DEE61F2A5ADC66462022921B060096409146B04662460E00D640424616434A4691404A1E9141020060463143C24030
:4053C000E4E63C002C435AD0F443A146002C52D14D1BA9428941C71B49427F1A14009A4675E69E4A944200D0C7E613E600227FE700208FE7002C00D0C8E03B002B4300D1BF
:405400000FE103000B4300D104E66918A9429B413F185B42DF193B0200D41AE1904B0D001F406446F6E59A4689E63A002A43002C5CD1002A75D102000A4300D1CAE00700D4
:405440000D009A46E6E564460022002581E662460600203AD6406246B046202A00D1B7E040226646921B904001434246481E8141114300228AE6794CA24200D061E7070081
:405480000D0014009A46C5E5002C41D13C002C4378D0F443A146002C20D0704CA24271D04C46382C00DDB2E01F2C00DDBCE02026341BA2463C005646B4404E46A0462C00DD
:4054C000F440A446444666463443A4465446A54064466E1EB54125434C46E7406D188D4289413F184942CF19140056E6002A2FD102000A4300D184E007000D009A46574CAE
:4055000088E53D436F1EBD41ECB200270D1B60E7524CA24236D0744280263604A1463743BEE702000A4300D174E56A1A90464545B6413A1A7642921B9446120200D4F7E5F0
:405540004D1BA9428941C71B49427F1A9A4661E502000A433AD0ED087C072C438025FA082D032A4208D0C7082F4205D145072C003A009A46C9080C43670FD200E500174338
:40558000364C47E507000D00140043E53A002A4343D002000A4319D0ED087C072C438025FA082D032A4207D0C6082E4204D147073C003200C9080C43D700620FE500174384
:4055C0009A46264C26E50022002544E5234C21E5002049E700230025BBE54C463E00203CE6404C46B446202C31D040244E46A61BB7403D436C1EA54164462C4300270D1BFE
:40560000E7E6802200231203144C0025A1E53D436F1EBD410027EDB260E707000D000F4CF8E407000D00F5E44E463C00203EF440A0464C46202C0ED040244E46A41BA740C6
:405640003D436F1EBD4144460027254346E70027CFE70D0073E50027F2E7C046FF070000FFFF7FFF70B50E4E0C031D0349005B00240B490D2D0B5B0DB14204D0084900205E
:405680008B4208D070BD04430120002CFAD1044900208B42F6D115432800451EA841F1E7FF07000070B5002830D0C317C4185C40C50F200000F070F8174B184A1B1AD21A3E
:4056C0001F2A18DD164AD21A9440002224035B05240B5B0D0021100024030A0D1205240B1443104A1B0514401C436400ED0764082C43210070BD210091400A000B21081A08
:40570000C4405B052403240B5B0DE3E70025002300240022DEE7C0461E0400003304000013040000FFFF0F8070B5051E28D000F033F8154B154A1B1AD21A1F2A16DD2C0084
:40574000134A0025D21A94405A052403240B520D002124030B0D240B1B0523430D4C1205234013435B002800590870BD0B212C00081AC440954024035A05240B520DE7E74F
:4057800000220024E4E7C0461E0400003304000013040000FFFF0F801C2101231B04984201D3000C10391B0A984201D3000A08391B09984201D30009043902A2105C4018B4
:4057C0007047C04604030202010101010000000000000000014B18687047C046181100200E4B70B500251E000D4CE41AA410A54204D0AB00F35898470135F8E715F0A6F9F6
:40580000084B00251E00084CE41AA410A54204D0AB00F35898470135F8E770BD58AB010058AB010058AB010060AB010030B50024A24208D0035D651C0C5DA34201D0181BEA
:4058400002E02C00F4E7002030BD002310B59A4203D0CC5CC4540133F9E710BD03008218934202D019700133FAE77047F0B58BB014001D1E129906DA802424061B191D0008
:4058800014002D2300E000230B702023149E03229E43462E07D03300453B59424B411099013ACB18109309AB049308AB0393139B00920293109B220001932B0000F050FE49
:4058C0000700472E02D1119BDB072DD5109BFB180793462E14D13B78302B0CD10022002320002900FEF772F9002804D10123109A9B1A139A1360139B079A1B68D318079348
:405900000022002320002900FEF760F93022002802D0079B099307E0099B0799994203D9591C09911A70F7E73800099B159ADB1B13600BB0F0BDF7B52B2307000C000270CD
:40594000861C002901DA2D234C427B70092C1CDD6B46DD1D20000A21FEF722F9013D3031297020000A21FEF735F804000928F1DC013D30342C706B4607333000AB4209D9B5
:405980002B78013533700136F5E73023E4183370B01C7470C01BFEBDF0B595B00C000A920B931A9D099001F029FD036818000D9300F07AFC0023129323680E900C930C99CB
:4059C000277E2B680722C90501D59B1800E0073393431A0008322A601A685B68A264E3640122E56CA66C6B005B080F935242C04B30000F99FFF736FE002819D10122BC4BBC
:405A0000524230000F99FEF7F1F8002810D10022002330002900FEF7DFF8002803D023002D2243331A70B34D472F0ED8B24D0CE032002B0030002900FFF714FE002800D13E
:405A40009AE1AE4D472F00D8AD4D03230C9A236101339A432260002642E0672F00D193E1472F00D190E10C9A0021134312AA059211AA0392232223600691019308A963687B
:405A800052180292009332002B0004970998FFF7EDFE20233A0005009A43472A00D18EE11199652F00D996E1200001393A0050301191FFF740FF129A060083182361012A56
:405AC00000DD85E12268D20700D581E1232308AA9B181B78002B03D023002D2243331A700B9B13AA009321000A9B099800F0A4F9431C02D1012040429BE12268530501D429
:405B0000236964E0652F00D8CCE0A06CE16C00220023FEF75BF800282CD00123794A0A9909980B9DA847431CE4D0119B129A934208DB2368DB0705D4236800259B0700D521
:405B40000FE113E10B9D0E9B0D9A0A990998A8470025431CCED0129B013B9D42ECDA220001231A320A9909980B9EB047431CC1D00135F0E7119B002B2BDC0123614A0A99A3
:405B800009980B9EB047431CB4D0119B002B05D1129B002B02D12368DB07CDD50B9E0E9B0D9A0A990998B0470026431CA2D0119B5B429E420ADA220001231A320A9909984C
:405BC0000B9FB847431C95D00136F0E7129B2A00ACE0A36D129E9E4200DD1E00002E05DC00230C93F343DB170F9315E033002A000A9909980B9FB847431CF1D17AE72200AE
:405C000001231A320A9909980B9FB847431C00D170E70C9B01330C930F9BA26D0C993340D31A9942EBDBAE18119B129A93420DDB2368DB070AD4129B119AED18AD1B9B1AA7
:405C40009D4200DD1D00002D09DC11E00E9B0D9A0A9909980B9FB847431CECD14AE72B0032000A9909980B9EB047431C00D141E7EF43FB1700260C930AE0220001231A32A0
:405C80000A9909980B9FB847431C00D132E70136119A129B0C999B1A2A000A409B1A9E42EBDB49E7129B012B02DC01231A4245D001232A000A9909980B9FB847431C00D10F
:405CC00018E70E9B0D9A0A9909980B9FB847431C00D10FE7A06CE16C00220023FDF776FF002801D000251AE0129B6A1C013B26E0FFFFEF7F90A901008CA9010098A9010090
:405D000094A901009CA90100220001231A320A9909980B9FB847431C00D1EBE60135129B013B9D42F0DB2200330050320A9909980B9DA847431C00D0FEE6DBE62A000A9943
:405D400009980B9DA847431CEDD1D3E62200012319320A9909980B9EB047431C00D1C9E60135E368139A9B1A9D42EFDB139BE06898425EDA18005CE080236268DB00511C24
:405D800000D06AE6073202E0002A02D10122626069E60C9908A80B430021069112A9059111A90391232109182360019300922B000497029132000998FFF758FD0500119B47
:405DC000DA1C02DB626893421CDD023FFFB267E6013323617AE6662F15D16368002909DD2161002B02D12268D2071ED50133591821611AE0002B03D101222168114213D0B4
:405E00009A1C11E06727119B129A934206DB22682361D20709D50133236106E00121002B01DC4918C91A8A182261119B0026A3654CE615B0F0BDC046F7B5170001938A685C
:405E40000B6900900C00934200DA130022003B6043321278002A01D001333B6023689B0602D53B6802333B60062523681D401ED0230043331B785A1E9341226892061CD5C8
:405E80003020E1184331087021005A1C45310978A2184332023311700FE022000123193201990098089EB047431C0ED00135E3683A689B1A9D42F0DBDAE72200019943323A
:405EC0000098089DA847431C02D10120404220E006232068E1683A6803400025042B03D18D1AEB43DB171D40A3682269934201DD9B1AED180027BD420AD0220001231A32E1
:405F000001990098089EB047431CDED00137F2E70020FEBDF0B58BB006920A0043320793059004920A7E0C00109B6E2A00D1ABE011D8632A22D009D8002A00D1B5E0582A4F
:405F400000D0C5E045310A70814A4FE0642A1DD0692A1BD0BCE0732A00D1AAE009D86F2A29D0702A00D0B3E0202209680A43226037E0752A1FD0782A33D0A9E00E001A68E0
:405F80004236111D196013683370A4E021681A68080606D4490604D5111D19600023D55E02E0111D19601568002D3BDA2D23049A6D42137036E021681A68080606D4490648
:405FC00004D51568111D1960ADB202E0111D196015685F4B227E039308276F2A1DD00A271BE022007821453211705A4A19680392081D226818600D68100602D4500600D55E
:40600000ADB2D30702D520231A4322601027002D03D1202322689A4322602300002243331A7002E00A274A4B03936368A360002B09DB0422216891432160002D05D1049EC1
:40604000002B11D07BE0002D79D0049E28003900FDF7BCFC039B013E5B5C280033703900FDF72EFC051EF1D1082F09D12368DB0706D563682269934202DC3023013E337062
:40608000049B9B1B23612BE009681A68080607D4490605D5111D19601368A28A1A8004E0111D1960136862691A600023049E236116E01A68111D19601668002162683000C3
:4060C00001F00EFA002801D0801B6060636803E0260042363270012323610023049A1370079B09AA00932100069B0598FFF7A4FE431C02D10120404227E023693200069961
:406100000598079DA847431CF4D0236800259B070FD4099BE068984217DA180015E022000123193206990598079EB047431CE1D00135E368099A9B1A9D42F0DBE9E7260021
:40614000039B42361B7833708EE70BB0F0BDC0469EA90100AFA901000FB40B4B13B51C68002C05D0A369002B02D1200001F0B2F805AB049AA1682000019301F0E9FE16BC6F
:4061800008BC04B01847C0461811002070B505000E00002804D08369002B01D101F09AF8AB69AC68002B02D1280001F093F8254B9C4201D16C6808E0234B9C4201D1AC6841
:4061C00003E0224B9C4200D1EC68A3891B0702D52369002B11D12100280000F0C5F800280BD0012040422BE0013B0136A360002B08DB23685A1C226019703178A36800297A
:40620000F2D10BE0A269934201DB0A29F1D12200280000F051F8431CEFD1E2E7013BA360002B08DA22000A31280000F045F8431CD7D00A2004E00A2023685A1C226018704D
:4062400070BDC046D0A90100F0A9010010AA010010B5034B01001868FFF798FF10BDC046181100200EB410B59DB002A9029008610B48822488604861012040421FABC88125
:40628000084804CBA400006801938C8101F03AFD0023029A13701DB010BC08BC03B01847FFFFFF7F181100200023C25C0133002AFBD1581E70470000F8B505000F00140007
:4062C000002804D08369002B01D101F003F8234B9C4201D16C6808E0214B9C4201D1AC6803E0204B9C4200D1EC68A369A360A3891B070AD52369002B07D023682269FEB2E2
:40630000981A636998420FDB08E02100280000F02BF80028F1D0012040421DE02100280000F06AFF0028F6D1A3680130013BA36023685A1C22601F706369984205D0A38989
:406340003000DB0708D50A2E06D12100280000F053FF0028DFD13000F8BDC046D0A90100F0A9010010AA0100364B70B51D6806000C00002D05D0AB69002B02D1280000F099
:40638000A9FF314B9C4201D16C6808E02F4B9C4201D1AC6803E02E4B9C4200D1EC680C22A35E9AB2110723D4D10607D409220120326037321343A381404242E0530713D5CD
:4063C000616B002908D023004433994202D0300001F08AFB002363632422A3899343A38100236360236923600822A3891343A3812369002B0BD1A0238022A1899B0092007A
:406400000B40934203D02100300001F021F80123A289134005D00023A36063695B42A36103E0920700D46369A36000202369834207D10C22A35E1A0603D540221343A38199
:40644000013870BD18110020D0A90100F0A9010010AA0100F0B503690C6989B00700059100269C4279DC0B00013C1433A50003935B1904930300143302935D19049B286890
:406480001B68591C0193FDF71BFA0190B04233D0039B02989C460696634604CB9C46019B91B25943120C5A4389190B0CD3180793069A1E0C038889B29B1802685B1A110CFE
:4064C0006A46928B8A1A1914521811149BB21204134308C0049B06916345DDD22B68002B0AD1029B043DAB4201D33C6104E02B68002BFAD1013CF4E70599380001F00CFA3A
:40650000002829DB0020019B02990133039A019340CA0B881818B3B2C31A0868360C000C801B1D14451928149BB22D042B4308C1049B9342ECD2029AA300D3181A68002A83
:406540000AD1029A043B9A4201D33C6104E01A68002AFAD1013CF4E7019E300009B0F0BDF0B516001F00446A9DB00490259D06960797002C08D1102000F0A8FF049B5862E6
:40658000446084600460C460049B5B6A196800290BD05A68012393404A608B60049800F0E2FF0022049B5B6A1A60079B002B05DA01232B607B005B08079301E000232B60C5
:4065C000079CC84B220019931A409A4219D1C64B249A1360069AC54B002A02D1240300D1C34B269A1800002A01D100F07DFDD978DA1C002900D00532269918000A6000F01C
:4066000073FD069E079F0022002330003900FDF7DDFA051E0ED00123249A1360B54B269A1800002A01D100F05FFDB34A26990A6000F05AFD1AAB01931BAB009332003B0025
:40664000049801F0EFF9630005905B0D09D03A03AA4C120B1443AA4A300021009E1817951AE01A9B1B9A9E18A64BF318202B08DDA54A0698B218D0404022D31A9C402043E3
:4066800003E020220698D31A9840FFF74DF801239E4C013E0919179300229D4BFEF78EFC9C4A9D4BFEF710FA9C4A9D4BFDF7BCFA040030000D00FEF7F5FF9A4A9A4BFEF748
:4066C00003FA02000B0020002900FDF7ADFA04000D0001F07DFE00220390002320002900FDF77AFA00280DD00398FEF7DBFF02000B0020002900FDF769FA43424341039AE4
:40670000D31A039301231693039B162B11D88749DB00C91808684968069A079BFDF770FA002805D0039B013B03930023169300E016901A9B9E1B00230B93013E0C9604D54C
:406740000C9B5B420B9300230C93039B002B08DB039A0C9B944663440C9300231192089307E00B9B039A9B1A0B935342089300231193229B0125092B25D8052B02DD002548
:40678000043B2293229B981E032824D801F016FE060E0204012302E0012308E000231093239B002B20DD1F000A9321E00023239A1093039B9F187B1C0A930123FA18002A45
:4067C00016DD130014E0012700237F42229310950A97123305E0012701237F4210930A9711330022239203E001273B000A972397049A546A002262600432110014319942BA
:4068000004D86168520001316160F6E76168049800F071FE049B20605B6A1B680D930A9B0E2B00D981E1002D00D17EE1069B079C14931594039B002B31DD0F223B491340DD
:40684000DB00CB185C681B680E930F94039B02241D11EB060AD514981599354B15401A6A5B6AFDF70DFD069007910134304E002D0ED001231D4208D00E980F99E41832686C
:406880007368FEF721F90E900F916D100836EEE70E9A0F9B06980799FDF7F2FC4CE0039B02245D42002D49D0149815990F231F4A2B40DB00D3181A685B68FEF705F9002358
:4068C000069007911A4E2D11002D33D00122154205D0A41832687368FEF7F6F801236D100836F1E70000F07F0F270000C9A90100C0A901009CA901009DA901000000F03F3C
:4069000001FCFFFF3204000012040000000010FE0000F83F61436F63A787D23FB3C8608B288AC63FFB799F501344D33F38AA010010AB0100002B01D006900791169B002B88
:406940001DD0069D079E0022C74B28003100FDF743F9002813D00A9B002B10D0002F00DCDFE0039B3100013B0E930022BF4B2800FEF7AAF80134069007913E0002E0039BE8
:406980000A9E0E932000FEF78DFE069A079BFEF79BF80022B64BFDF747F9B64A12901391129C139D9446139B634418931D00002E1CD1069807990022AF4BFEF7FFFA2200AD
:4069C000189B06900791FDF71BF9002800D054E2AA481399844661440B00069807992200FDF7FAF8002800D03DE29AE0109A731EA349DB00002A49D0CB181A685B68002004
:406A0000A049FDF73DFC2B002200FEF7D7FA129013910D9D0698079901F0DAFC0400FEF741FE02000B0006980799FEF7C7FA01356B1E30341C70129A139B06900791FDF7D4
:406A4000CBF8002800D02EE3069A079B00208649FEF7B4FA129A139BFDF7BEF8002800D0C7E00D9BEB1AB3425BDA1298139900227E4BFEF729F800221290139106980799FF
:406A80007A4BFEF721F806900791C3E7C9182200086849682B00FEF717F80D9C12901391A5190698079901F093FC0600FEF7FAFD02000B0006980799FEF780FA30362670C5
:406AC0000134069007910022A54222D16D4B12981399FDF7A9F802000B0006980799FDF78FF8002800D084E0129A139B00206549FEF764FA02000B0006980799FDF76CF854
:406B000000280ED06B1E1A78302A00D0CBE21D00F8E706980799554BFDF7D6FF06900791BFE7149B159C069307941B9B002B00DA81E0039A0E2A00DD7DE0D300504AD318CF
:406B40005C681B6808930994239B002B15DA0A9B002B12DC00D088E1089809990022464BFDF7B2FF069A079BFDF754F80A9B08931E00002800D07BE182E10D9D069E079FA2
:406B8000089A099B30003900FDF77AFB01F020FC0400FEF787FD089A099BFDF795FF02000B0030003900FEF709FA220001356B1E30321A700D9B0A9AEB1A9A422ED10200FC
:406BC0000B00FDF731F806000F0002000B0008980999FDF701F800280FD10898099932003B00FCF7F3FF002800D15EE2E30704D45BE20E9B039300E01D006B1E1A78392A8E
:406C000008D10D9A9A42F7D1039A0D990132039230220A701A7801321A7046E20022134BFDF752FF0022002306000F00FCF7CEFF0028A5D039E2109A002A44D0229A012A7C
:406C40000BDC179A002A02D00F4A9B1802E036231A9A9B1A089D0B9C29E00A9B5D1E089BAB4213DB5D1B18E00000F03F0000244000001C400000C0FC000014400000C07C32
:406C800038AA01000000E03F33040000089B0895EA1A0025119B9B1811930A9B002B04DA0B9B0A9A9C1A002301E00B9C0A9B0B9A0121D2180B920C9A0498D3180C9300F027
:406CC000F2FC060002E0089D0B9C109E002C0ED00C9B002B0BDD0C9A2300944200DD13000B9AE41AD21A0B920C9AD31A0C93089B002B20DD109B002B17D0002D11D031004C
:406D00002A00049800F062FD059A01000600049800F0D2FC05990E90049800F024FC0E9B0593089B5A1B06D000E0089A0599049800F04CFD05900121049800F0B4FC119B93
:406D40000890002B00D1C0E11A000100049800F03DFD229B0890012B17DC0025069BAB420ED1079B1B03AB420AD1199B079A134206D00B9B013501330B930C9B01330C93C7
:406D8000119B0120002B0DD000E00025089B089A1B690E9303339B00D318586800F039FC2023181A0C9BC0181F23184009D001331B1A042B02DD1C23181A03E0042B08D0B5
:406DC00018001C300B9B24181B180B930C9B1B180C930B9B002B05DD1A000599049800F049FD05900C9B002B05DD1A000899049800F040FD0890169B002B1DD0089905985A
:406E000000F08AFD002817DA039B0A22013B039305990023049800F0BFFB109B0590002B00D159E1310000230A22049800F0B4FB0600002F37DC33E00A9B0A9F002B2ADC14
:406E4000229B022B27DD002F12D108993B000522049800F0A1FB08900100059800F05CFD00280DDC04E0089602E000231E000893239B0D9DDB4303930AE00E9B0896039334
:406E80000D9B0D9A5D1C31231370039B013303930A960026F3E0109B002B04D10D9DB5E0229B022BCFDC002C05DD31002200049800F0E0FC06000A96002D12D071680498C0
:406EC00000F019FB3100040033690C319A1C92000C30FEF7BAFC01222100049800F0CAFC0A900D9B7D1E0B935B190E9308990598FFF7B0FA310010900400059800F00CFDE2
:406F00000A9A05000899049800F021FD01230C93C36830340700002B04D10100059800F0FBFC0C903900049800F01DFB0C9B229A134308D1069A0133134204D1392C2AD017
:406F4000002D1CDC1DE0002D06DB229B1D431BD10123069A134217D10C9B002B11DD05990122049800F086FC0899059000F0D4FC002802DC05D1E30703D5392C0BD0109CC8
:406F800031340B9B5D1C0FE00B9B5F1C0C9B002B0CDD392C05D10B9B0B9A5D1C3923137057E03D000B9B01341C7068E00B9B0E9A3D001C7093423CD000230A220599049800
:406FC00000F0EAFA0A9B05909E4208D1310000230A22049800F0E0FA06000A900DE0310000230A22049800F0D7FA002306000A220A99049800F0D0FA0A900B9776E7002370
:407000000A220599049800F0C7FA059008990598FFF720FA0D9B3030287001350400EB1ABB42ECDB3D1E00DC01250A9600260D9B5D1905990122049800F01CFC08990590D7
:4070400000F06AFC002804DC13D1E30701D410E01D006B1E1A78392A08D10D9A9A42F7D1039B013303933123137008E001321A7005E06B1E1A78302A01D11D00F9E70899B2
:40708000049800F070FA0A9B002B0ED0002E05D09E4203D03100049800F065FA0A99049800F061FA01E00E9B03930498059900F05AFA00232B70039B249A01331360269BB0
:4070C0000D98002B10D01D600EE0229B012B00DC43E6119D012065E6002F00DDDEE6229B022B00DCDAE6AEE61DB0F0BDF7B58A8905000C0013075AD44B68002B02DC0B6CBE
:40710000002B19DDE76A002F16D000232E682B6080235B011A4001D0606D14E00123216A2800B847431C0ED12B68002B0BD01D2B01D0162B02D12E6000205AE04022A38949
:407140001343A38155E0A3895B0706D56368C01A636B002B01D0236CC01A00230200216A2800E76AB847A389421C06D129681D293AD8204ACA40D20736D5002262602269E6
:407180002260DB0405D5431C02D12B68002B00D16065616B2E600029CED023004433994202D0280000F0A0FC0020606321E00F69002FC1D00B680F60DB1B019300239207AE
:4071C00000D14B69A36003E0019B3F181B1A0193019B002BB0DD019B3A00216A2800A66AB0470028F0DCA389402201201343A3814042FEBD010040200B6970B505000C001F
:40720000002B01D100201CE0002804D08369002B01D100F05FF80B4B9C4201D16C6808E0094B9C4201D1AC6803E0084B9C4200D1EC680C22A35E002BE4D021002800FFF7A9
