:400000000080002011000000E1550000E155000080B500AF05F018FB80B500AF2F4B12221A6006F0A5FE2E4B180007F019F8012006F0AEFE302006F0FDFB2A4B2A4A1A6015
:400040002A4B8022D2051A60294B294A126802210A431A60274B284A1A60284B00221A60274B274A126808218A431A60FA23DB00180006F0D5FC234B180006F089FD224B4D
:40008000E82252011A60214B214A1A60214B802212061A60204B802212031A601F4B40221A601F4B1900082006F004FD082006F027FD0E4B1B4A1A601B4B802212031A60E3
:4000C000C046194B1A6880231B031340F9D1164B802252021A60C046BD4680BD30001040001BB70004010B40060000800C020B4078002E407C002E406A2D000064F02E4075
:400100006CF02E40DC050000000301400000014040FF008008010B4000010B4004010140756F00000000014E10020B4080B582B000AF72B6344B00221A60FB1D00221A703D
:4001400022E0FB1D1A7813005B009B185B002F4A9B183B603B681A78597809020A43997809040A43DB781B06134318003B681A795B791B0213439BB2190005F00DFAFB1DEE
:400180001A78FB1D01321A70FB1D1B78012BD8D91F4B204A1A60204BFF2212061A601F4B992212041A601E4B992212041A601D4B992212041A601C4A1B4B1B78DBB20621B5
:4001C0000B43DBB21370194B10221A60184B194A1A60194BD0221A60184B194A1A60194B802292001A60184B184A1A60184B36221A60184B36221A60FFF70EFF05F0DCF9B9
:40020000C046BD4602B080BD6CF02E40F40B0200000002400000FFEE0001024000500F4010500F4030500F4000700F40000004400800044000E0D8000001044008010440D3
:400240000020DB000C0104400803044000903800080404400805044010B5064C2378002B07D1054B002B02D0044800E000BF0123237010BDF811002000000000C4F001002B
:40028000084B10B5002B03D00749084800E000BF07480368002B00D110BD064B002BFBD09847F9E700000000FC110020C4F00100A80B00200000000080B584B000AFB24B96
:4002C00018000BF095FB002006F002F90A2006F039FC012006F0FCF8642006F033FCAB4B18000BF085FBAA4B18000BF081FB002005F040F9A74B18000BF07AFBA64B180063
:400300000BF076FB02F06CFAA44B18000BF070FB322006F017FCA24B180002F043FA0300FB60FA689F4B110018000BF0D1FAFB689D4A934218D0FB689C4A934214D0FA68F9
:400340009B4B110018000BF0C3FA642006F0FAFB934B180002F026FA0300FB60FA68954B110018000BF0B4FA934B18000BF040FB924B180004F0C6FB904B1B68002B04D199
:400380008F4B18000BF034FBFBE08C4B1A688D4B110018000BF09CFA8B4B18000BF028FB864B1B6801221A70844B1B6800225A60824B1B68802292009A60804B1B68002232
:4003C000DA607E4B1B68802292001A617B4B1B6800221A75794B1B687C4A9A61774B1B687B4ADA61754B1B68784A1A62734B1B6804225A62714B1B68764A9A626F4B1B68A5
:4004000001225242DA626D4B1B68734A1A636B4B1B68724A5A63694B1B6800229A63674B1B680122DA63654B1B68402201219954624B1B68412203219954604B1B6800221F
:400440005A645E4B1B6808229A645C4B1B680722DA645A4B1B6804221A65584B1B68604ADA65564B1B6800221A66544B1B68642200219954514B1B6800229A664F4B1B6823
:400480006C22002199544D4B1B689822002199544A4B1B689C2200219950524B18000BF0A7FA464B1B686C229B5C1A004E4B110018000BF00DFA4D4B18000BF099FA802334
:4004C0009A004B4B1100180004F032FE0300BB60BA68484B110018000BF0FAF9374B1B686C229B5C1A00444B110018000BF0F0F9BB68002B04D1414B18000BF079FA05E03B
:40050000BA683F4B110018000BF0E2F93D4B18000BF06EFA8023DB00180002F043F903007B601F4B180002F03DF903003B607A68354B110018000BF0CBF93A68334B1100A8
:4005400018000BF0C5F97B68314A934208D13B68164A934204D12F4B18000BF049FA10E07B682D4A934203D03B682B4A934204D12A4B18000BF03CFA03E0294B18000BF045
:4005800037FABD4604B080BDC8F00100ECF0010004F1010038F101005CF10100A0F1010004040000C4F101000255000001550000ECF1010018F201003CF20100E02F0020CE
:4005C00068F2010084F20100A8F201000024744B0000FA460000204100401C46C3F5E83F00808944E0F2010000F3010028F30100D827002050F3010070F3010098F3010006
:40060000C0F30100F0F301001CF401002CF40100444100003CF401008080800058F4010090F4010080B586B000AF704B18000BF0DFF900233B610023FB600023BB6000238A
:400640007B6000237B616A4B18000BF0D1F900237B6113E080239B01180002F0A3F803003B617B69591C3A69624B18000BF030F9322006F067FA7B6901337B617B69022B06
:40068000E8DD5D4B18000BF0B3F980239B01180002F088F803003B613A69584B110018000BF016F9142006F04DFA554B180002F079F80300FB60FA68524B110018000BF020
:4006C00007F9142006F03EFA4F4B180002F06AF80300BB60BA684D4B110018000BF0F8F8142006F02FFA4A4B180002F05BF803007B607A68474B110018000BF0E9F8464B79
:4007000018000BF075F93B69444A934202D03B69802B3ED1FB68414A934202D0FB68802B37D1BB683D4A934202D0BB68802B30D13B4B18000BF05CF93A4B18000BF058F95F
:40074000394B18000BF054F9384B18000BF050F9374B18000BF04CF9364B18000BF048F9354B18000BF044F9344B18000BF040F9334B18000BF03CF9324B18000BF038F9E5
:40078000314B18000BF034F9304B18000BF030F914E03A69FB689A4203D13A69BB689A4208D02B4B18000BF023F92A4B18000BF01FF903E0284B18000BF01AF9274B180057
:4007C0000BF016F9264B18000BF012F9254B18000BF00EF9244B18000BF00AF9234B18000BF006F9C046BD4606B080BDB0F40100DCF4010018F501003CF501006CF50100BD
:40080000A821000088F5010008200000A4F5010074200000C0F50100DCF5010080808000E8F5010018F6010054F6010068F60100A8F60100DCF6010014F701005CF70100AA
:4008400074F70100B0F70100ECF7010020F8010058F8010090F80100C8F80100F0F8010008F9010038F9010060F9010078F9010080B582B000AF394B18000BF0B9F8002362
:400880007B60374B18000BF0B3F8364B1B68002B2FD0344B1B689C229A58334B110018000BF016F82F4B1B685B6A1A002F4B110018000BF00DF82B4B1B686C229B5C1A0076
:4008C0002B4B110018000BF003F8264B1B6898229B5C1A00274B110018000AF0F9FF80239B041900002003F01DF90300012B0ED108E0214B18000BF07BF8204B18000BF02D
:4009000077F827E01E4B18000BF072F807E01D4B18000BF06DF81C4B18000BF069F81B4B18000BF065F80F4B1B686C229B5C002B08D1174B18000BF05BF8164B18000BF041
:4009400057F803E0144B18000BF052F80B4B18000BF04EF8BD4602B080BDC04690F90100BCF90100E02F0020DCF90100F4F9010008FA01001CFA010068F2010034FA01000B
:400980004CFA010078FA0100B0FA0100E8FA0100F8FA010030FB010064FB0100B0B500AF2A4B18000BF024F8294B18000BF020F805F0DCFD03001A00264B110018000AF09A
:4009C00087FF05F009FE03001A00234B110018000AF07EFF05F032FE03001A001F4B110018000AF075FF1E4B18000BF001F81D4B18000AF0FDFF1C4B18000AF0F9FF1B4B45
:400A000018000AF0F5FF1A4B1B681B6E181C0AF09FF903000C0017491A00230008000AF057FF134B1B685B6D181C0AF091F903000C0011491A00230008000AF049FF0F4BCA
:400A400018000AF0D5FFC046BD46B0BD94FB0100B8FB0100E0FB0100FCFB010018FC010038FC010050FC010090FC0100D4FC0100E02F002014FD01003CFD01005CFD010038
:400A800090B589B002AF954B18000AF0B1FF944B18000AF0ADFF00237B6108E00C23FA187B69D31800221A707B6901337B617B69032BF3DD04F02EFD022006F043F8391D87
:400AC0000C23FB180422180004F0C6FC022006F039F804F027FD834B18000AF089FF3B1D1B7819003B1D5B781A003B1D9B781C003B1DDB787C48009323000AF0E9FE64209D
:400B000006F020F8794B18000AF072FF00237B6108E00C23FA187B69D318FF221A707B6901337B617B69032BF3DD04F0F3FC022006F008F8391D0C23FB180422180004F023
:400B40008BFC022005F0FEFF04F0ECFC684B18000AF04EFF3B1D1B7819003B1D5B781A003B1D9B781C003B1DDB785F48009323000AF0AEFE642005F0E5FF5E4B18000AF056
:400B800037FF0C23FB18AA221A700C23FB1855225A700C23FB18AA229A700C23FB185522DA7004F0B7FC022005F0CCFF391D0C23FB180422180004F04FFC022005F0C2FF53
:400BC00004F0B0FC4C4B18000AF012FF3B1D1B7819003B1D5B781A003B1D9B781C003B1DDB784148009323000AF072FE434B18000AF0FEFE3B1D1B78802B0BD13B1D5B783E
:400C0000802B07D13B1D9B78802B03D13B1DDB78802B1FD03B1D1B78FF2B0BD13B1D5B78FF2B07D13B1D9B78FF2B03D13B1DDB78FF2B0FD03B1D1B78002B42D13B1D5B7873
:400C4000002B3ED13B1D9B78002B3AD13B1DDB78002B36D12A4B18000AF0CAFE294B18000AF0C6FE3B1D1B78802B04D1264B18000AF0BEFE10E03B1D1B78FF2B04D1234B31
:400C800018000AF0B5FE07E03B1D1B78002B03D11F4B18000AF0ACFE1E4B18000AF0A8FE1D4B18000AF0A4FE1C4B18000AF0A0FE1B4B18000AF09CFE1A4B18000AF098FE05
:400CC00003E0194B18000AF093FE184B18000AF08FFEC046BD4607B090BDC04678FD010090FD0100BCFD0100D8FD0100FCFD010028FE010044FE010070FE0100DCF50100BC
:400D00008CFE0100B8FE0100D8FE010014FF01005CFF010080FF01009CFF0100E4FF01001000020040000200640002009000020080B500AF214B18000AF05AFE204B1800A1
:400D40000AF056FE1F4B18000AF052FE1E4B18000AF04EFE1D4B18000AF04AFE1C4B18000AF046FEFFF78CFE642005F0EBFE194B18000AF03DFEFFF755FC642005F0E2FEE0
:400D8000154B18000AF034FEFFF772FD642005F0D9FE124B18000AF02BFEFFF7FFFD104B18000AF025FE0F4B18000AF021FE0E4B18000AF01DFEC046BD4680BDAC000200BB
:400DC000B000020060010200A0010200E001020090020200BC020200EC0202001803020048030200F80302003804020090B585B000AF78600A00FB1C1A700023FB60FB1C2E
:400E00001B78012B13D0022B21D0002B2FD1786809F09EFF1A4A1B4B08F00EFD03000C001800210009F0E8FF031CFB6022E0786809F08EFF144A154B08F0FEFC03000C00BB
:400E40001800210009F0D8FF031CFB6012E0786809F07EFF0E4A0F4B08F0EEFC03000C001800210009F0C8FF031CFB6002E00023FB60C046FB68181CBD4605B090BDC04689
:400E8000D7A3703D0A573040B81E85EB51B844403333333333B3674080B582B000AF044B7B60044B7B607B68181CBD4602B080BD0000C8410000144280B586B000AF020020
:400EC000FB1D1A7000237B610023BB60494B180003F018FEFB1D1B78012B0DD0022B15D0002B1DD1012005F019FB002005F04CFB002005F07FFB13E0002005F00FFB012037
:400F000005F042FB002005F075FB09E0002005F005FB002005F038FB012005F06BFBC046322005F00FFE0021002003F0FFFD03003B613B69002B01D0002356E0FA235B009E
:400F4000180005F0FFFD0823FA182B4B1100180004F02CFA03003B613B69002B0DD1BB68002B0AD0244BFB60FB681B682349181C07F0F4FD031C7B6101E000237B610021CA
:400F8000012003F0D3FD322005F0DCFD0021002003F0CCFD03003B613B69002B01D0002323E0FA235B00180005F0CCFD0823FA18134B1100180004F0F9F903003B613B6990
:400FC000002B0BD1BB68002B08D00D4B1B680B49181C07F0C3FD031C7B6101E000237B610021012003F0A2FD7B69181CBD4606B080BDC046E02F002040120020286B6E4EF7
:40100000D82F002090B583B000AFFFF745FF021C3A4B1A600020FFF74FFF021C374B5A61364B5B690021181CFFF7E0FE021C334B5A600120FFF740FF021C304B9A612F4B24
:401040009B690121181CFFF7D1FE021C2B4B9A600220FFF731FF021C284BDA61274BDB690221181CFFF7C2FE021C244BDA60234B1B68181C09F06CFE0022214B09F07AFAA2
:4010800003000C00180021001E4A1F4B08F0F8FF03000C001800210000221C4B08F0A0F803000C001800210009F0A6FE031C7B60124B5B687968181C07F050FD031C1A1C19
:4010C0000E4B5A600D4B9B687968181C07F046FD031C1A1C094B9A60084BDB687968181C07F03CFD031C1A1C044BDA60084B1A68024B1A61C046BD4603B090BD20120020DF
:4011000000804240B81E85EB51B89E3F0000F03F1812002080B582B000AF0200FB1D1A70FB1D1B78002B03D0012005F081F902E0002005F07DF9C046BD4602B080BDC046AA
:4011400080B582B000AF0200FB1D1A70FB1D1B78002B03D0012005F093F902E0002005F08FF9C046BD4602B080BDC046F0B587B002AF1D4B1B78022B32D11C4B5B68181CD7
:4011800009F0E6FD05000E00184B5B69181C09F0DFFD03000C0016491648009301942A0033000AF02FFC3B1D17221A813B1D114A1A60104B18000AF047FC03009AB23B1DEA
:4011C0009A80391D0C4B1A785B781B021A4300231204120C1B0C1B041343180018F0CCF9C046BD4605B0F0BD1630002020120020E8040200401600201C300020B0B588B0E1
:4012000002AF424B1B78022B00D07BE0404B1B781A0003231340012B16D002DC002B05D04DE0022B26D0032B36D048E080239B01180001F0B7FA03007B617A693549364B7E
:4012400018000AF0DFFB3AE0344B1B68002B04D0324B1B686C229A5C00E063221323FB181A701323FB181A782D492B4B18000AF0C9FB24E0294B1B68002B04D0274B1B681F
:401280009C229B5800E00023FB60FA682549224B18000AF0B7FB12E005F068F903001C0005F09AF903001D0005F0C8F903001E49194800932B0022000AF0A4FBC046144BB0
:4012C0001B780133DAB2124B1A703B0012221A813B00114A1A60104B18000AF0B5FB03009AB23B009A803900104B1A785B781B021A4300231204120C1B0C1B04134318005B
:4013000018F03AF9C046BD4606B0B0BD163000205E160020FC04020060160020E02F002008050200100502001C0502001C30002080B586B000AF214B1B78022B3AD18023DC
:401340009B01180001F02EFA03003B611723FB1800221A701A4B1B68002B06D0184B1A681723FB186C21525C1A701723FB181B783A69144914480AF045FB3B1D12221A818B
:401380003B1D114A1A60104B18000AF05DFB03009AB23B1D9A80391D0C4B1A785B781B021A4300231204120C1B0C1B041343180018F0E2F8C046BD4606B080BD163000209F
:4013C000E02F002030050200881600201C30002080B500AF0A4B1B78022B0ED1FFF7A8FF322005F0AFFBFFF7C1FE322005F0AAFBFFF704FF322005F0A5FBC046BD4680BD30
:401400001630002080B500AF0D4B1B78032B0BD10C4B1B7801225340DAB20A4B1A70094B1B78180004F0DCFF074B1B685A1C064B1A60064B01221A70C046BD4680BDC04634
:4014400016300020AC0B0020181200201C12002080B582B000AF786039607B68272B0DD004D8012B07D0262B12D02AE0282B09D0FA2B23D025E000F0B3F922E0012004F0E6
:40148000AFFF1EE000F0ACF9012004F015FF18E00E4B1B78042B13D1012004F0A1FF002004F0A4FE012004F007FF04F0EDFE04F08DFF04F029FF05F0D7FB01E0C04600E03C
:4014C000C046C046BD4602B080BDC0461630002080B584B000AF62B6012004F087FE012004F07EFF012004F0E7FE954B18000AF07FFA944B180004F053F903001A00924B90
:401500001A80914B1B88002B04D0904B18000AF06FFA03E08E4B18000AF06AFA8D4B18000AF066FA05F0B2F80A2005F00BFB8A4B18000AF05DFA894B18000AF059FA884BB3
:40154000180001F02FF903007B607A68854B110018000AF0BDF97B68834A934203D07B68824A934204D1824B18000AF041FA09E07A68804B110018000AF0AAF97E4B1800C9
:401580000AF036FA0A200AF0BDF97C4B18000AF02FFA002004F04CFF002004F071FF002004F0BCFF002004F0EFFF002005F022F8734B18000AF01CFA724B18000AF018FA7B
:4015C000FEF77AFE704B18000AF012FA6F4B1900022005F087FC022005F0A4FC6C4B18000AF006FA6B4B18000AF002FAFA235B00180005F0A7FAFFF79BFBFA235B001800B2
:4016000005F0A0FA644B18000AF0F2F90023FB600FE0642005F096FAFB686433FB605F4B1B686C229B5C1900FA685D4B18000AF04FF95A4B1B686C229B5C002B03D1FB6866
:40164000584A9342E5D9554B1B686C229B5C012B0CD1554B18000AF0CBF9012004F05EFF012004F091FF012004F0C4FF4B4B1B686C229B5C012B04D14C4B18000AF0B8F926
:4016800003E04B4B18000AF0B3F90023BB60494B18000AF0ADF9484B18000AF0A9F90CF03BFB464B1B78DBB2002B3CD0434B00221A70FFF7A7FC424B1A68BB68D31A022BE9
:4016C00008D93F4B1B68BB603E4B1B78022B01D1FFF77EFE3C4B1B683C49181C06F0A0FE031E07D1384B9B683949181C06F098FE031E09D00120FFF70DFD364B180005F093
:4017000021FA0020FFF706FD2F4B5B683249181C06F086FE031E03D00120FFF711FD02E00020FFF70DFD2D4B1B78002BB7D0002004F0CEF803001A00034B1A80AFE7C046BC
:401740004405020051140000D42700205C0502008005020098050200B4050200CC050200040400000406020002550000015500002806020064060200A8060200EC06020086
:40178000100702003007020050070200051400007407020088070200BC070200E02F0020E80702008713000010080200380802006008020094080200B40802001C12002068
:4017C00018120020163000202012002000001A420000A04010270000000020410030002080B584B000AF002004F04CF903001A001F4B1A801E4B1B88002B08D01C4B1B8818
:401800001A001C4B110018000AF062F82BE01A4B18000AF05DF83B1D00229A713B1D18000CF076FA0E23FB1806221A8012E00E23FB181B88013B3A1DD35C1A000F4B11004C
:4018400018000AF045F80E23FB181A880E23FB18013A1A800E23FB181B88002BE7D1084B18000AF0C5F8C046BD4604B080BDC046D4270020CC080200E80802000009020040
:401880000809020080B584B000AF7860104B5A690F4BDB68D318FB600D4B5A68FB689A420DD90B4B9A680A4BDB689B00D3187A681A60074BDB685A1C054BDA6003E0044B4C
:4018C000042252429A61C046BD4604B080BDC046E42F002080B584B000AF786039607B689B08FF2213407B600023FB6011E00E4B1A69FB689B00D3181B781A007B689A4202
:4019000004D13B68FA681A60002309E0FB680133FB60054BDA68FB689A42E8D807235B421800BD4604B080BDE42F002080B582B000AF786039607B689BB2180000F04EFEB3
:4019400002003B681A6000231800BD4602B080BD80B584B000AF02003960BB1D1A80184B5A69174BDB68D318FB60154B5A68FB689A421DD9124B1B691A1F114B1A61104B42
:401980001B69BA1D1288920892B2D2B21A700C4B1B693A681202120A12021968FF2001400A431A60064B5B695A1C054B5A6103E0034B042252429A61C046BD4604B080BD67
:4019C000E42F002080B584B000AF0200BB1D1A80BB1D1B880C22BA1811001800FFF77AFF031E0FD0BB1D1B880822BA1811001800FFF79CFFBA68BB1D1B8811001800FFF728
:401A0000A7FF07E0064B1A69FB689B00D3181B681B0ABB60BB681800BD4604B080BDC046E42F002080B584B000AF02003960BB1D1A80BB1D1B88274A934204D9264B0522D6
:401A400052429A6143E0BB1D1B880C22BA1811001800FFF73FFF031E20D11F4B1A69FB689B00D3183A681202120A12021968FF2001400A431A60BB1D1B889B089BB21A06DB
:401A8000FE23DB051A403B681B021B0A13438022120613431800FFF7F5FE18E03A68BB1D1B8811001800FFF753FFBB1D1B889B089BB21A06FE23DB051A403B681B021B0A2E
:401AC00013438022120613431800FFF7DBFEBD4604B080BDFF210000E42F002080B582B000AF786039603B68012B1BD90F4B3A685A600E4B7A689A603B680D4A94466344A2
:401B00009B007A68D218094B1A61084B0022DA60064B00225A61054B00229A61034B00221A7000E0C046BD4602B080BDE42F0020FFFFFF3F80B584B000AF786039607B6878
:401B4000002B03D0094B9A687B681A603B68002B03D0064BDA683B681A60044B9B69FB60FB681800BD4604B080BDC046E42F002080B582B000AF0200FB1D1A70FB1D1B78A8
:401B8000002B03D1084B00221A7008E0064B0022DA60054B00229A61034B01221A70C046BD4602B080BDC046E42F002080B586B000AFB96011007B600F23FB18021C1A70ED
:401BC0000E23FB180A1C1A7000237B6111E07B69BA68D3181B780F22BA1812789A4205D17B69DAB27B681A70012309E07B6901337B610E23FB181A787B699A42E7DC0023E4
:401C00001800BD4606B080BD80B58EB000AF786039607B68DB68012B03D17B681B68022B07D07B68DB68002B2CD17B681B68022B28D03023FA184A4B1000190005231A0035
:401C400009F0BFF92823FA18464B1000190005231A0009F0B6F97B685B68D8B22723FB183022B9180522FFF7A1FF031E6CD02723FB181B781A002823FB189A5C3B681A705D
:401C8000012368E07B68DB68002B2CD17B681B68022B28D12423FA18334B1000190003231A0009F08EF92023FA18304B1000190003231A0009F085F97B685B68D8B21F23FC
:401CC000FB182422B9180322FFF770FF031E3DD01F23FB181B781A002023FB189A5C3B681A70012337E07B68DB68012B2FD17B681B68022B2BD01823FA181D4B100019008E
:401D000006231A0009F05DF91023FA18194B1000190006231A0009F054F97B685B68D8B20F23FB181822B9180622FFF73FFF031E0DD00F23FB181B781A001023FB189A5CAE
:401D40003B681A70012306E0C04600E0C0463B6800221A7000231800BD460EB080BDC0460C090200140902001C09020020090200240902002C09020080B58CB000AF7860CC
:401D800039607B68DB68012B03D17B681B68022B07D07B68DB68002B2CD17B681B68022B28D02C23FA184A4B1000190002231A0009F007F92823FA18464B1000190002238E
:401DC0001A0009F0FEF87B685B68D8B22723FB182C22B9180222FFF7E9FE031E6CD02723FB181B781A002823FB189A5C3B681A70012368E07B68DB68002B2CD17B681B6825
:401E0000022B28D12423FA18334B1000190002231A0009F0D6F82023FA18304B1000190002231A0009F0CDF87B685B68D8B21F23FB182422B9180222FFF7B8FE031E3DD0E6
:401E40001F23FB181B781A002023FB189A5C3B681A70012337E07B68DB68012B2FD17B681B68022B2BD01823FA181D4B1000190006231A0009F0A5F81023FA18194B10005C
:401E8000190006231A0009F09CF87B685B68D8B20F23FB181822B9180622FFF787FE031E0DD00F23FB181B781A001023FB189A5C3B681A70012306E0C04600E0C0463B6824
:401EC00000221A7000231800BD460CB080BDC04634090200380902003C09020040090200440902004C09020090B59DB000AF786039600023BB663423FA18A64B10001900C6
:401F000034231A0009F05DF82423FB18A24A13CA13C312681A603B6800221A607B68002B00D12BE13B68002B00D129E17B68DB680B2B00D926E17B689B68022B00D923E1F6
:401F40007B681B69032B00D920E17B681B68042B00D90EE19A00914BD3181B689F467B685A6813009B009B189B00180007F0FAF8021C7B68DB69191C101C06F0EFFD031C83
:401F8000181C06F061FA0300BB66F3E07B685A6813009B009B189B0028331A007B6899682423FB188900CB5853431433180007F0D9F8021C7B68DB69191C101C06F0CEFD81
:401FC000031CFC218905181C06F088FA031C181C06F03AFA0300BB66CCE07B685B685A1C7B68D9683423FB188900CB5853430133BB667B6801221A60BA6E7B685A6068230D
:40200000FA187B6811001800FFF76EFF7B6802221A60BB6E0F33BB66ACE07B681B7E1A000C23FB18DA607B689A680C23FB181A607B68DA680C23FB185A606F23FB180022EB
:402040001A700B23FA180C23FB1811001800FFF7DBFD031E0BD00B23FB181A786F23FB181B78D318DAB26F23FB18013A1A700A23FA180C23FB1811001800FFF77DFE031E39
:402080000BD00A23FB181A786F23FB181B78D318DAB26F23FB18013A1A707B6802221A607B685A686F23FB181B78D2187B685A606823FA187B6811001800FFF715FF7B68DF
:4020C00004221A607B685A686F23FB181B78D21A7B685A60C0464DE07B685B69012B10D01AD3022B02D0032B29D03BE07B6800221A606823FA187B6811001800FFF7F4FEB6
:4021000030E07B6801221A606823FA187B6811001800FFF7E9FE25E07B685B7E002B03D07B6802221A6002E07B6804221A606823FA187B6811001800FFF7D6FE12E07B689C
:4021400001221A607B685A687B681B6901339A407B685A606823FA187B6811001800FFF7C3FEC0467B6803221A60BB6E1933BB6600E0C046BA6E3B681A6008E0C04606E08E
:40218000C04604E0C04602E0C04600E0C046BD461DB090BD54090200880902009809020080B582B000AF786039603A687B680021180008F00FFFC046BD4602B080BDC04666
:4021C00080B588B000AFF860B9607A60274BBB6100237B610023FB61FB68254A94466344180006F077FF031CFB61BB68042B24D8BB689A001F4BD3181B689F46FF218905A4
:40220000F86906F0E1FA031CFB6119E08021C905F86906F0D9FA031CFB6111E08121C905F86906F0D1FA031CFB6109E01249F86906F0CAFA031CFB6102E0C04600E0C0463E
:402240007968F86906F08AFC031C8E21C905181C06F0BAFA031CB969181C06F07FFC031C7B617B69181CBD4608B080BD110E813F0080FFFFAC09020000001041B0B588B033
:4022800000AFF860B9607A607B681B68180006F021FF041C7B681B68180006F01BFF031C191C201C06F05AFC031C1C1C7B685B68180006F00FFF051C7B685B68180006F018
:4022C00009FF031C191C281C06F048FC031C191C201C06F003F9031CFB61BB681B68180006F0F8FE041C7B681B68180006F0F2FE031C191C201C06F031FC031C1C1CBB68AC
:402300005B68180006F0E6FE051C7B685B68180006F0E0FE031C191C281C06F01FFC031C191C201C06F0DAF8031C1A1C1423FB181A601423FB181B68F969181C06F044FA84
:40234000031C1A1C1423FB181A60BB685B68180006F0C0FE041C7B681B68180006F0BAFE031C191C201C06F0F9FB031C1C1CBB681B68180006F0AEFE051C7B685B68180036
:4023800006F0A8FE031C191C281C06F0E7FB031C191C201C06F0F6FC031C1A1C1423FB185A601423FB185B68F969181C06F00CFA031C1A1C1423FB185A60FB681422BA18DD
:4023C00003CA03C3F868BD4608B0B0BD90B583B000AF78607B681A687B681B68191C101C06F0BCFB031C1C1C7B685A687B685B68191C101C06F0B2FB031C191C201C06F0BE
:402400006DF8031C181C08F0A3FC03000C001800210004F039FE03000C001800210008F0EBFC031C181CBD4603B090BDB0B582B000AF78607B685B68181C08F089FC0400E4
:402440000D007B681B68181C08F082FC02000B002000290004F014FE03000C001800210008F0CAFC031C181CBD4602B0B0BDC04680B584B000AF0200FB1D1A700C23FB1864
:40248000FA1D12781A700823F9180C23FB180122180002F0E1FF0823FB181B781800BD4604B080BD80B584B000AF0200BB1D1A80BB1D1B881B0A9BB2DAB20C23FB181A70B8
:4024C000BB1D1B88DAB20C23FB185A700823F9180C23FB180222180002F0BEFF0823FB181B781B021AB20823FB185B781BB213431BB29BB21800BD4604B080BD80B584B0E3
:4025000000AF78607B681B0EDAB20C23FB181A707B681B0CDAB20C23FB185A707B681B0ADAB20C23FB189A707B68DAB20C23FB18DA700823F9180C23FB180422180002F085
:402540008BFF0823FB181B781A060823FB185B781B041A430823FB189B781B0213430822BA18D27813431800BD4604B080BDC04680B582B000AF02003960BB1D1A8002F0CC
:40258000C9FF2020FFF774FFBB1D1B881800FFF789FF02F0C7FF02F0BDFF2D20FFF768FFBB1D1B880B4A934209D9BB1D1B880A4A934204D83B681800FFF7A0FF04E03B68AB
:4025C0009BB21800FFF76EFF02F0ACFFC046BD4602B080BDFF0F00001430000090B587B000AF0200BB1D1A8000237B6102F092FF012004F0CDFABB1D1B881B0A9BB25BB235
:402600008022524213435AB20F23FB181A700F23FB181B781800FFF72BFF0F23FB18BA1D12881A700F23FB181B781800FFF720FF0020FFF71DFF00233B6110E00E23FC18B8
:402640000020FFF715FF030023707B691A020E23FB181B7813437B613B6901333B613B69032BEBDD02F05EFF012004F091FA7B691800BD4607B090BD90B585B000AF786090
:4026800039603B68022B28D802F044FF2020FFF7EFFE324B1800FFF705FF02F043FF0023BB6015E002F036FF6D20FFF7E1FE0020FFF7DEFEBB689B007A68D4180020FFF746
:4026C0001DFF0300236002F02DFFBB680133BB60BA683B689A42E5D33CE002F01BFF5F20FFF7C6FE0023FB6005E00020FFF7C0FEFB680133FB60FB68052BF6D90023FB60E5
:402700000BE0FB689B007A68D4180020FFF7F6FE03002360FB680133FB603B689A1EFB689A42EED8FB685A1CFA609B007A68D4180B4B1800FFF7E2FE03002360FB689B009C
:402740007A68D418064B1800FFF7D8FE0300236002F0E8FEC046BD4605B090BD6C2000004444444480B582B000AF02003960BB1D1A800B4B1B78012B07D13A68BB1D1B8824
:4027800011001800FFF74EF906E03A68BB1D1B8811001800FFF7ECFEC046BD4602B080BDE42F002080B582B000AF0200BB1D1A800A4B1B78012B06D1BB1D1B881800FFF77E
:4027C00001F9030005E0BB1D1B881800FFF706FF03001800BD4602B080BDC046E42F002080B59EB000AF3A1D264B1000190070231A0008F0E6FB244B0022DA60224B002220
:402800005A61214B00229A611F4B00221A7002F089FE00237B670FE03B1D7A6FD200D05A3A1D7B6FDB00D31804331B681900FFF799FF7B6F01337B677B6F0D2BECD9134BE7
:402840001800FFF7AFFF03007B677B6F104A934203D1104B01221A700FE07B6F0E4A934203D10C4B01221A7007E07A6FAA23DB019A4202D1074B00221A70C046BD461EB0E7
:4028800080BDC046280A0200E42F00200404000001550000B01600200255000080B584B000AF78600A00FB1C1A7080239B011800FFF778FF0300FB60FB1C1B78012B1DD152
:4028C0007B682022134007D0FB6820229343FB607B68202293437B607A6880231B03134007D0FB681A4A1340FB607B68184A13407B60FA687B681343FB601EE07B6820220F
:40290000134007D0FB6820221343FB607B68202293437B607A6880231B03134008D0FB68802212031343FB607B68094A13407B607B68DA43FB681340FB60FA6880239B0192
:4029400011001800FFF70EFFC046BD4604B080BDFFFFF7FF80B584B000AF786039607B68FB603B689B00FA681343FB60FB68044A19001000FFF7F6FEC046BD4604B080BD67
:40298000F022000080B584B000AF786080239B011800FFF707FF0300FB60FB6820229343FB607B681B78002B03D1FB6820221343FB60FA6880239B0111001800FFF7D2FE33
:4029C00086239B011800FFF7EDFE0300FB607B685B78012B03D1FB6801221343FB607B689B78012B03D1FB6810221343FB607B68DB78012B03D1FB6804221343FB607B68BF
:402A00001B79012B03D1FB6820221343FB607B685B7A012B04D1FB68802252001343FB607B689B7A012B03D1FB6802221343FB607B68DB7A012B03D1FB6808221343FB6045
:402A40007B681B7B012B03D1FB6840221343FB60FA6886239B0111001800FFF783FE0023FB607B689B79002B03D1FB6802221343FB607B685B79002B03D1FB6801221343E2
:402A8000FB607B68DB79012B03D1FB6804221343FB60FB68044A19001000FFF763FEC046BD4604B080BDC0465020000080B582B000AF78607B681033180000F049F87B6869
:402AC0005033180000F0BEF87B68180000F00AF87B681C33180000F009F9C046BD4602B080BDC04680B582B000AF78607B681B68124A19001000FFF735FE7B685B68104A6C
:402B000019001000FFF72EFE7B689B680D4A19001000FFF727FE7B68DB680B4A19001000FFF720FE80235B02084A19001000FFF719FEC046BD4602B080BDC046502100001A
:402B400058210000542100005C2100000C20000080B584B000AF78600023FB607B681B68012B04D1FB68802252011343FB607B685B68012B03D1FB6801221343FB607B6820
:402B80009B685A00FF235B001340FA681343FB60FB68044A19001000FFF7E4FDC046BD4604B080BD1020000080B58AB000AFF860B9607A60BB680A2B02D9F8237B6222E064
:402BC000BB68022B04D9BB680833DB007B621AE01423FA18184B100019000F231A0008F0F0F97B68042B0CD81423F918BA6813009B009B18CA187B68D3181B78DB007B62DA
:402C000001E0F8237B627A6A7B6813437B62FB68002B06D07B6A094A19001000FFF7A2FD05E07B6A064A19001000FFF79BFDC046BD460AB080BDC046980A0200F4200000D8
:402C4000F820000080B584B000AF78607B68002B02D103235B4241E07B685B69022B02D802235B423AE07B685B690B2B02D902235B4233E07B689B69052B02D902235B42BC
:402C80002CE00023FB607B681B68FA681343FB60FB68144A19001000FFF764FD7B68DB685B01FB607B685B68FA681343FB607B681B7C012B03D1FB6810221343FB60FB6817
:402CC000094A19001000FFF74DFD7B6859697B689B691A000020FFF767FF00231800BD4604B080BDFC200000F020000080B584B000AF78607B681B68022B1CD17B681B6AC3
:402D0000394A19001000FFF72DFD7B685B6A374A19001000FFF726FD7B689B6A344A19001000FFF71FFD7B68DB6A324A19001000FFF718FD35E07B681B68032B2AD17B685C
:402D40009B682D4A19001000FFF70CFD7B68DB682A4A19001000FFF705FD7B681B69284A19001000FFF7FEFC7B685B69254A19001000FFF7F7FC7B689B69234A190010005F
:402D8000FFF7F0FC7B68DB69204A19001000FFF7E9FC06E07B681B6B1D4A19001000FFF7E1FC0023FB607B681B79012B03D1FB6820221343FB607B685B79012B03D1FB6885
:402DC00010221343FB607B681B685B00FA681343FB60FB680F4A19001000FFF7C3FCC046BD4604B080BDC046302000003C2000003820000034200000182000001C200000B6
:402E00002020000028200000242000002C200000482000001420000080B582B000AF78607B681B051B0D7B607B68054A19001000FFF798FC00231800BD4602B080BDC046D2
:402E400048200000B0B584B000AF786039601A23BB602A4B1B78012B01D11E23BB600021386805F0C3FA031E01D0002341E0BB68203B002B03DB01229A4015000AE0BB6828
:402E80002022D31A0122DA4013000021BA6891400D001D430122BB689A4014002000290005F0EAFA031C7968181C05F057FE031C3968181C05F088FC031CFC218905181CD3
:402EC00005F00CFB031C181C05F0BEFA0300FB60BB681A2B01D10A4B00E00A4BFA68934206D2BB681A2B01D1054B00E0054BFB60FB681800BD4604B0B0BDC046B016002005
:402F0000FFFF0F00FFFFFF0080B582B000AF78607B68180000F00AF87B682033180000F0BFF8C046BD4602B080BDC04680B584B000AF78600023FB607B685B689B01FB60AE
:402F40007B689B681B01FA681343FB607B68DB68DB00FA681343FB607B685B699B00FA681343FB607B681B7E002B03D1FB6801221343FB607B685B7E002B03D1FB680222DF
:402F80001343FB607B681B68002B18D1FB681A4A19001000FFF7E6FB7B685A8B7B689B8BDBB21900100000F02FF87B681B6920221343124A19001000FFF7D4FB17E0FB68DE
:402FC0000F4A19001000FFF7CDFB7B685A8B7B689B8BDBB21900100000F03CF87B681B6920221343074A19001000FFF7BBFBC046BD4604B080BDC046282100002421000033
:40300000342100003021000080B582B000AF0200BB1D1A807B1D0A1C1A707B1D7A1D12783F210A401A70BB1DBA1D12881205120D1A807B1D1B781A03BB1D1B881343044AAB
:4030400019001000FFF78EFBC046BD4602B080BD2021000080B582B000AF0200BB1D1A807B1D0A1C1A707B1D7A1D12783F210A401A70BB1DBA1D12881205120D1A807B1DFF
:403080001B781A03BB1D1B881343044A19001000FFF768FBC046BD4602B080BD2C21000080B584B000AF78600023FB607B681B7E002B03D1FB6802221343FB607B685B7E9D
:4030C000002B03D1FB6801221343FB607B681B69042B04D1FB6804221343FB6005E07B681B69DB00FA681343FB607B68DB685B01FA681343FB607B689B689B02FA681343EB
:40310000FB607B685B685B03FA681343FB607B681B68002B0DD1FB680E4A19001000FFF721FB7B685B690C4A19001000FFF71AFB0CE0FB68094A19001000FFF713FB7B68D5
:403140005B69074A19001000FFF70CFBC046BD4604B080BDEC200000E4200000E8200000E020000080B582B000AF78607B68180000F06CF87B680C33180000F089F87B6837
:403180002433180000F0D0F87B682C33180000F021F97B683833180000F0F6F8C046BD4602B080BD80B584B000AF78600023FB607B68062B38D87B689A001E4BD3181B6862
:4031C0009F461D4B1800FFF7EDFA0300FB602BE082239B011800FFF7E5FA0300FB6023E0164B1800FFF7DEFA0300FB601CE0144B1800FFF7D7FA0300FB6015E0114B1800EF
:40320000FFF7D0FA0300FB600EE00F4B1800FFF7C9FA0300FB6007E087239B011800FFF7C1FA0300FB60C046FB681800BD4604B080BDC046A80A020074200000842000003E
:40324000782000007C200000C821000080B584B000AF78600023FB607B681B68FB607B685B681B02FA681343FB607B689B681B04FA681343FB60FB68044A19001000FFF744
:4032800071FAC046BD4604B080BDC046A821000080B584B000AF7860224B1800FFF782FA0300FB60FB6880221340FB607B68DB68FA681343FB607B681B7C012B03D1FB68CC
:4032C00010221343FB607B685B7C012B03D1FB6840221343FB607B685B681B02FA681343FB607B681B681B03FA681343FB607B689B689B03FA681343FB60FB68094A1900E8
:403300001000FFF72FFA7B681B7D002B05D080235B0201211800FFF7C1FAC046BD4604B080BDC0464420000080B582B000AF78607B681B881A00104B11001800FFF712FA80
:403340007B685B881A000D4B11001800FFF70AFA7B689B881A000A4B11001800FFF702FA7B68DB881A00074B11001800FFF7FAF9C046BD4602B080BDA8200000AC20000012
:40338000B0200000B420000080B584B000AF78600023FB607B681B7A012B03D1FB6801221343FB607B685B681B01FA681343FB607B681B68DB01FA681343FB60FB68044A71
:4033C00019001000FFF7CEF9C046BD4604B080BDC421000080B584B000AF78600023FB601E4B1800FFF7DEF90300BB607B685B68032B0AD1BB6880221343BB60BB68174AC5
:4034000019001000FFF7AEF90FE0BB6880229343BB60BB68114A19001000FFF7A3F97B685B681B05FA681343FB607B681B681B01FA681343FB607B681B7A012B03D1FB689F
:4034400001221343FB60FB68054A19001000FFF789F9C046BD4604B080BDC04644200000D020000080B584B000AF7860214B00211800FFF777F9204B1800FFF793F90300CE
:40348000FB60FB683F221340FB607B685B685B02FA681343FB607B689B689B01FA681343FB60FB68144A19001000FFF75BF97B681B691B04114A19001000FFF753F90023F1
:4034C000FB607B681B78012B04D1FB68802212011343FB607B68DB685B03FA681343FB60FB68044A19001000FFF73CF9C046BD4604B080BD08200000D8210000E021000079
:4035000080B584B000AF78600A00FB1C1A700023FB60FB1C1B78012B04D1FB68802212011343FB607B685B03FA681343FB60FB68044A19001000FFF715F9C046BD4604B00F
:4035400080BDC0460820000080B500AF88239B011800FFF727F903001B0C1800BD4680BD80B584B000AF7860284B1800FFF71AF90300BB60254B00211800FFF7F3F8244B6A
:403580001800FFF70FF90300FB60FB683F229343FB60FB6808221343FB607B681B68FA681343FB60FB681A4A19001000FFF7DAF87B68DB79002B09D0164B00211800FFF768
:4035C000D1F8154B00211800FFF7CCF80023FB607B681B79012B03D1FB6801221343FB607B689B681B02FA681343FB60FB68094A19001000FFF7B6F8BB68044A1900100050
:40360000FFF7B0F8C046BD4604B080BD08200000D8210000042000006420000080B584B000AF0200FB1D1A700E4B1800FFF7BAF80300FB60FB1D1B78012B04D1FB680122C4
:403640001343FB6003E0FB6801229343FB60FB68044A19001000FFF785F8C046BD4604B080BDC0460420000080B582B000AF78607B68032B0BD801227B689A4013001A009F
:403680008623DB0011001800FFF76CF800E0C046BD4602B080BDC04680B584B000AFF860B9607A6010E0FB685A1CFA600B4A19001000FFF757F8BB681A1DBA601B68084A93
:4036C00019001000FFF74EF87B685A1E7A60002BE9D1C046BD4604B080BDC046D42100007020000080B582B000AF78607B681B68012B11D004D3022B1AD0032B24D02FE046
:403700007B689B681A047B685B6813431D4A19001000FFF727F823E07B689B681A047B685B681343184A19001000FFF71BF817E07B689B681A047B685B681343134A1900E0
:403740001000FFF70FF80BE07B689B681A047B685B6813430E4A19001000FFF703F8C0467B681B7B012B08D17B6858687B6819697B689B681A00FFF78FFFC046BD4602B014
:4037800080BDC046CC210000E8210000D0210000E421000080B582B000AF78607B68044A19001000FEF7DEFFC046BD4602B080BD5420000080B584B000AF78607B685B6BBB
:4037C0001B041B0C814A19001000FEF7CBFF7B685B6B1B0C0F2213407D4A19001000FEF7C1FF7B685B6A1B041A0C81231B0111001800FEF7B7FF7B685B6A1B0C0F22134003
:40380000744A19001000FEF7ADFF7B689B6B1B041B0C714A19001000FEF7A4FF7B689B6B1B0C0F2213406D4A19001000FEF79AFF7B689B6A1B041A0C82231B01110018003C
:40384000FEF790FF7B689B6A1B0C0F221340644A19001000FEF786FF7B68DB6B1B041B0C604A19001000FEF77DFF7B68DB6B1B0C0F2213405C4A19001000FEF773FF7B6840
:40388000DB6A1B041A0C83231B0111001800FEF769FF7B68DB6A1B0C0F221340534A19001000FEF75FFF7B681B6C1B041B0C504A19001000FEF756FF7B681B6C1B0C0F22CB
:4038C00013404C4A19001000FEF74CFF7B681B6B1B041A0C84231B0111001800FEF742FF7B681B6B1B0C0F221340434A19001000FEF738FF414B01211800FEF733FF0023A0
:40390000FB607B685B6803221340FA681343FB607B689B689B000C221340FA681343FB607B68DB681B0130221340FA681343FB607B681B699B01FF221340FA681343FB6062
:403940007B685B691A02C0239B001340FA681343FB607B689B699A02C0231B011340FA681343FB607B68DB691A03C0239B011340FA681343FB607B681B6A9B031B041B0C43
:40398000FA681343FB60FB681D4A19001000FEF7E9FE0023FB607B6844229B5C012B03D1FB6801221343FB607B681B685B00FA681343FB60FA6880231B0111001800FEF71D
:4039C000D1FEC046BD4604B080BDC046080800000C08000014080000180800001C08000024080000280800002C08000034080000380800003C080000440800001C0A0000B2
:403A00000408000080B584B000AF0200FB1D1A7080231B011800FEF7C5FE02000E23FB181A800E23FB180E22BA18128801218A431A80FB1D1B78012B07D10E23FB180E22C3
:403A4000BA18128801210A431A800E23FB181A8880231B0111001800FEF784FEC046BD4604B080BD80B586B000AFF860B960FB1D1A70134B3B61FB68012B01D1114B3B6112
:403A80003B699BB21800FEF78DFE03007B61FB1D1B78012B04D17A69BB6813437B6104E0BB68DA437B6913407B613B699BB27A6911001800FEF756FEC046BD4606B080BD41
:403AC000083000000C30000080B584B000AF78607B68002B06D1094B1800FEF763FE0300FB6005E0064B1800FEF75CFE0300FB60FB681800BD4604B080BDC04608300000B5
:403B00000C30000080B582B000AF78607B68044A19001000FEF726FEC046BD4602B080BD0430000080B584B000AF786039607B68002B01D10A4B00E00A4BFB60FB689BB2BE
:403B40001800FEF72FFE0300BB60BB683A68134001D0012300E000231800BD4604B080BD103000001430000080B582B000AF78607B68044A19001000FEF7F4FDC046BD4616
:403B800002B080BD1821000080B500AF064B00211800FEF7E7FD044B01211800FEF7E2FDC046BD4680BDC0461C21000080B584B000AF78600023FB60FB680133FB608023AD
:403BC000DB001800FEF7EEFD02000A4B9A4209D07B68002B04DD7B68FA689A4204D8EBE7C046E9E7C04600E0C046FB681800BD4604B080BD4441000080B584B000AF3B001F
:403C000001229A703B0001225A703B0001221A703B0001221A723B0001225A713B0001229A713B0000221A733B000022DA723B0000229A723B0000225A723B0000221A71BE
:403C40003B000022DA703B000022DA713B001800FEF798FEC046BD4604B080BD80B584B000AF78600023FB600420FFF74BFF154B01211800FEF712FE012001F05BFC04211E
:403C80000120FFF74FFF031E05D00120FFF78AFA0300FB600CE07B681B68013304D07B681B685A1E7B681A607B681B68002BE3D1044B00211800FEF7F1FDFB681800BD46ED
:403CC00004B080BD00010100B0B5F8B000AFF860B960E023FF33FB1800221A70EF235B00FB1800221A70D64BF0225200BA18D218D44B100019006C231A0007F062F9D24BE3
:403D0000F02252009446BC446344D04A13CA13C303CA03C3FB68002B03D103235B4200F0E0FEFB685B680021181C04F05FFB031E03D002235B4200F0D4FEFB689B691A2B5E
:403D400003D902235B4200F0CCFEFB689B69002B03D102235B4200F0C4FEBB68002B03D103235B4200F0BDFEFB68DB68B849181C04F056FB031E04D0E023FF33FB18012201
:403D80001A70FB681B680021181C04F02FFB031E04D0EF235B00FB1801221A7096235B00FB18E6225200BA181360AC23FB18E4225200BA181360FB689A69A14BF02149000D
:403DC0008C46BC4463449200D358E2225200BA181360FB685B68181C06F0BAFF00229D4B06F04EF903000C0025001C00E2235B00FB18186806F074FF02000B0020002900A0
:403E000005F01AFD03000C001800210006F0F4FF031CE0225200BA1813608F49E0235B00FB18186804F0D0FC031C8C49181C04F095FE031C191C181C04F050FB031C181C3B
:403E400004F002FB030001335B08EC225200BA181360EC235B00FB181B68814A934204D97F4BEC225200BA181360EC235B00FB18186805F077F9031C7A49181C04F06EFE4E
:403E8000031C7649181C04F09FFC031CE0225200BA181360FB685B687349181C04F01EFB031C191CE0235B00FB18186804F08CFC031C1C1CE2235B00FB18186805F052F93B
:403EC000031C191C201C04F049FE031CDE225200BA181360E2235B00FB18186805F042F9031C191CDE235B00FB18186804F06CFC031C1A1CFB685B68191C101C04F02EFE83
:403F0000031CDC225200BA181360DC235B00FB181968564804F058FC031CDA225200BA1813605349DA235B00FB18186804F082FA031E05D00423E8225200BA18136034E07E
:403F40008121C905DA235B00FB18186804F072FA031E05D00323E8225200BA18136024E08021C905DA235B00FB18186804F062FA031E05D00223E8225200BA18136014E06B
:403F8000FF218905DA235B00FB18186804F052FA031E05D00123E8225200BA18136004E00023E8225200BA181360DE235B00FB1819682E4804F008FC031CDA225200BA1828
:403FC00013602B49DA235B00FB18186804F032FA031E05D00423EA225200BA1813604EE08121C905DA235B00FB18186804F022FA031E05D00323EA225200BA1813603EE099
:404000008021C905DA235B00FB18186804F012FA031E05D00223EA225200BA1813602EE0FF218905DA235B00FB18186804F002FA031E1FD00123EA225200BA1813601EE0FC
:4040400060FEFFFF300B02004CFEFFFF9C0B02000050C34B000099400080094500E0FF44160500000000FA440000C84200803B45000010410023EA225200BA181360A54B24
:40408000F02252009446BC446344EA225200BA1812689200D0589F4BF02252009446BC446344E8225200BA1812689200D358191C04F08AFB031CD8225200BA181360802382
:4040C0009B011800FEF76EFB0300D6225200BA1813600120FFF7F8FC0300D4225200BA181360012206210120FFF7BCFC01235B421800FFF707FD884B00211800FEF7CEFBCB
:40410000FFF77AFDAC23FB1844211800FEF748F8824BF02252009446BC44634403225A61E023FF33FB181B785A425341DBB21A007A4BF02149008C46BC4463449A61FB6844
:404140005A6A764BF02149008C46BC4463441A61FB681A6A714BF02149008C46BC446344DA606E4BF02252009446BC44634401221A776A4BF02252009446BC4463440022AE
:404180005A77664BF02252009446BC446344202201219954FB6828331900AC23FB182C330C22180006F00DFFAC23FB181800FEF7D9FFF023FB183C211800FDF7F1FFFB683E
:4041C0001B695A1E9341DBB21A00F023FB181A60F023FB18802212015A83F023FB1820229A83F023FB1800221A76F023FB1811221A61F023FB1800225A61F023FB18012273
:404200005A60F023FB180122DA60F023FB1801229A60F023FB1801225A76FB681A69F023FB181A62FB68DA69F023FB181A63F023FB18382201219954F023FB1839220121E2
:404240009954F023FB1804229A62FB689A69F023FB18DA62F023FB1800225A62FB681B7D012B02D1B0235A0001E0A0235A00F023FB185A63F023FB181800FEF745FE962306
:404280005B00FB1874211800FDF78AFF96235B00FB18602200219954FB681B69002B01D1012200E0022296235B00FB181A6596235B00FB181F22DA6596235B00FB18052209
:4042C0009A6696235B00FB180B225A6696235B00FB1805221A6796235B00FB180B22DA6696235B00FB1800225A6596235B00FB1800221A6196235B00FB1800225A619623BE
:404300005B00FB18FF229A61FB681B69002B07D1412206E04CFEFFFFE0FF3900CCFEFFFF812296235B00FB181A6096235B00FB1801225A6096235B00FB18802292009A60FB
:4043400096235B00FB1890221201DA60EF235B00FB181B78002B00D173E101235B423B6196235B00FB180022DA6196235B00FB18EC225200BA181268DA6496235B00FB189B
:4043800020220021995496235B00FB1821220021995496235B00FB181800FEF787FBEC235B00FB181B6880221201944663441800FEF732FD9923DB0101211800FEF76EFADE
:4043C000E6235B00FB181B6801221A60E6235B00FB181B6801225A60E6235B00FB181B68802292009A60E6235B00FB181B6890221201DA60E6235B00FB181B681800FEF727
:4044000071FBFA239B00180001F094F8E4235B00FB181B6814225A60E4235B00FB181B6824221A60E4235B00FB181B68E8225200BA1812689A60E4235B00FB181B68180079
:40444000FEF704FF322001F075F81023FB181800FFF704FC0300D2225200BA181360FB681B69002B0CD1E4235B00FB181B6802225A60E4235B00FB181B6821221A600BE04D
:40448000E4235B00FB181B6803225A60E4235B00FB181B6822221A60E4235B00FB181B68EA225200BA1812689A60E4235B00FB181B681800FEF7CAFE322001F03BF810235D
:4044C000FB181800FFF7CAFB0300D0225200BA181360FB681B69002B01D1412200E08122E6235B00FB181B681A60E6235B00FB181B6801225A60E6235B00FB181B68802299
:4045000092009A60E6235B00FB181B6890221201DA60E6235B00FB181B681800FEF7E2FAFA239B00180001F005F8AC23FB18E4225200BA181360E4235B00FB181B681422A8
:404540005A60E4235B00FB181B6824221A60E4235B00FB181B68E8225200BA1812689A60E4235B00FB181B681800FEF76FFE322000F0E0FF1023FB181800FFF76FFB0300DB
:404580001A00D2235B00FB181B68D21A854BF02149008C46BC4463441A60824BF02252009446BC44634400225A60FB681B69002B0CD1E4235B00FB181B6802225A60E42398
:4045C0005B00FB181B6821221A600BE0E4235B00FB181B6803225A60E4235B00FB181B6822221A60E4235B00FB181B68EA225200BA1812689A60E4235B00FB181B681800E9
:40460000FEF724FE322000F095FF1023FB181800FFF724FB03001A00D0235B00FB181B68D21A614BF02149008C46BC4463441A605D4BF02252009446BC44634400225A60CB
:404640007CE196235B00FB18EC225200BA1812681A64FB681A68FB689B68191C101CFEF7F1FB020096235B00FB18DA6396235B00FB1800225A6496235B00FB1800229A644B
:4046800096235B00FB180022DA6496235B00FB180222DA6196235B00FB1820220021995496235B00FB1821220021995496235B00FB181800FEF7FAF90220FFF723FAC023BF
:4046C0001B0101211800FEF7E9F8642000F032FFAC23FB18E4225200BA181360E4235B00FB181B6814225A60E4235B00FB181B6824221A60E4235B00FB181B68E822520076
:40470000BA1812689A60E4235B00FB181B681800FEF79CFD8123DB0101211800FEF7BEF8192000F007FF81231B0201211800FEF7B5F8C04602210120FFF7F4F9031EF9D04D
:404740001A4B00211800FEF7A9F80220FFF7DAF90320FEF727FD03001A00124BF02149008C46BC4463441A600420FEF71BFD03001A000C4BF02149008C46BC4463445A60E5
:40478000FB681B69002B13D1E4235B00FB181B6802225A60E4235B00FB181B6821221A6012E0C04644FEFFFF3CFEFFFF80C10000E4235B00FB181B6803225A60E4235B008E
:4047C000FB181B6822221A60E4235B00FB181B68EA225200BA1812689A60E4235B00FB181B681800FEF732FD8123DB0101211800FEF754F8192000F09DFE81231B020121F3
:404800001800FEF74BF8C04602210120FFF78AF9031EF9D0B54B00211800FEF73FF80220FFF770F90320FEF7BDFC03001A00B04BF02149008C46BC4463441A600420FEF746
:40484000B1FC03001A00AA4BF02149008C46BC4463445A60A74BF02252009446BC4463441A6880239B02134011D0A24BF02252009446BC4463441B681A009F4B13431A0056
:404880009C4BF02149008C46BC4463441A60994BF02252009446BC4463445A6880239B02134011D0934BF02252009446BC4463445B681A00904B13431A008E4BF0214900A7
:4048C0008C46BC4463445A60894BF02252009446BC4463441A6880239B02134011D0844BF02252009446BC4463441B681A00824B13431A007E4BF02149008C46BC446344AC
:404900001A607B4BF02252009446BC4463445A6880239B02134011D0754BF02252009446BC4463445B681A00734B13431A00704BF02149008C46BC4463445A606C4BF0225B
:4049400052009446BC4463445B685A42684BF02149008C46BC4463445A60664BF02252009446BC4463445B685A42624BF02149008C46BC4463445A60604BF0225200BA18B5
:40498000D4183B002422BA181C2179181800FDF775FC5B4BF0225200BA18D218230003CA03C3564BF02252009446BC4463441C68FB685B68D8225200BA181168181C03F003
:4049C00003FF031C191C201C04F0C8F8031C1A1C4A4BF02149008C46BC4463441A60474BF02252009446BC4463445C68FB685B68D8225200BA181168181C03F0E5FE031C19
:404A0000191C201C04F0AAF8031C1A1C3B4BF02149008C46BC4463445A60FB685B6B002B12D1364BF02252009446BC4463441A68BB681A60314BF02252009446BC446344EA
:404A40005A68BB685A600FE01423FB181800FDF7BDFC021CBB681A601423FB181800FDF7E5FC021CBB685A60D4235B00FB181B680222134004D1002202210120FEF7F2FF2C
:404A8000D4235B00FB181B680422134004D1002204210120FEF7E6FFD6235B00FB181A6880239B0111001800FDF75CFE96235B00FB1800221A6096235B00FB1800225A6019
:404AC00096235B00FB1800229A6096235B00FB180022DA6096235B00FB181800FEF702F800231800BD4678B0B0BDC04680C100003CFEFFFF44FEFFFF0000FCFF34FEFFFF05
:404B000020FEFFFF80B582B000AF78607B68002B04D07B68044A1A60002301E002235B421800BD4602B080BDB00B002080B598B000AF786039607B68012B40D002DC002B6E
:404B400005D06BE0022B45D0042B48D066E0364B1800FDF727FE354B6C229B5C002B02D164235B425BE00823FB184422012199540823FB1800221A600823FB1800225A608B
:404B80000823FB1803225A62284BDA69274B9B6A191C101C03F0E2FF031C181C03F054FC03005A1F0823FB185A630823FB181800FEF700FE1D4B9C22002199502EE01A4B7B
:404BC0001800FDF7EFFD0020FEF71CFF0020FEF719FF23E0154B9822012199541EE000210120FFF7A3FF5023FB180D220021180006F0F0F95023FB181800FDF7C3FE082311
:404C0000FB183C220021180006F0E4F90823FB181800FEF779F9FEF7B7FFC04600231800BD4618B080BDC04674200000B00B002080B5ACB000AF0023AC22BA18136001203A
:404C4000FCF796FF9423FB1801221A709423FB1801229A709423FB1801225A709423FB1800221A739423FB180022DA729423FB1800225A729423FB1800229A729423FB185C
:404C800001221A719423FB180122DA709423FB1801225A719423FB1801229A719423FB180022DA719423FB181800FDF76BFE5823FB1800221A605823FB1800225A605823DA
:404CC000FB181E221A615823FB1800229A605823FB180022DA605823FB1800225A615823FB1800221A765823FB1801225A768F4BDB6D8F49181C04F045F8031C8D49181C9E
:404D000003F062FD031C181C03F09EFB03009AB25823FB189A83854B1B6E8749181C03F053FD031C181C04F0B3F903009AB25823FB189B8B9B019BB2D3189AB25823FB1804
:404D40005A835823FB185B8B1A005823FB189B8B9B019A4207DD5823FB185B8B013B9AB25823FB185A835823FB1800221A625823FB1800221A635823FB1838220121995401
:404D80005823FB18392201219954684BDA6C5823FB185A62654B1A6D5823FB189A62634B64229B5C012B08D15823FB180022DA625823FB18614A5A6308E05C4B9A6C5823D5
:404DC000FB18DA625823FB185D4A5A635823FB181800FEF799F81423FB1810225A601423FB1814221A60514BDA6B1423FB189A601423FB18243308220021180006F0EAF815
:404E00001423FB182C330C220021180006F0E2F81423FB1803225A611423FB1801229A61424B41229B5C1A001423FB181A613F4B40229B5C1A001423FB18DA601423FB186F
:404E400000225A771423FB1800221A771423FB182022012199541423FB1838330C220021180006F0B7F81423FB181800FEF77AF93B1D00221A603B1D00225A603B1D00227A
:404E80009A603B1D0022DA603B1D1800FDF72AFE2C4B01211800FDF701FD80235B0200211800FDF7FBFC0020FEF774FC81231B061800FCF7E7FCA423FA18A823FB181100F1
:404EC0001800FCF737FE0300AC22BA1813600020FCF74EFEAC23FB181B68002B1ED1134B01221A67114B5A68104B5A67A823FB181A680E4B80215A50A423FB181A680B4B8C
:404F00009A670A4B5B6FA822BA181168A422BA1812681800FEF7C0FB002302E0AC23FB181B681800BD462CB080BDC046B00B002000004843998809429988093F343200001D
:404F4000343000002000010080B58CB000AF0023FB623B0002221A603B0001225A603F4B41229B5C1A003B00DA603C4B40229B5C1A003B009A603B0000221A61374B9A691C
:404F8000364B1B6A191C101C03F01EFC031C1A1C3B00DA612023FA183B0011001800FCF7A3FF3B6A0F333B620120FCF7E1FD0420FEF7F0FB2A4B01211800FDF76FFCFA23BF
:404FC0001B011800FCF75EFC80235B0001211800FDF764FC3B6A9B009B081800FCF752FC204B00211800FDF759FC0020FEF7D2FBFEF7CAFD2423FA182823FB1811001800FD
:40500000FCF798FD0300FB620020FCF7B1FDFB6A002B1DD1114B8422002199500F4B5A6F0E4B9B6FD2180D4B88215A50BA6A0B4B94215A507A6A094B8C215A50074B8822BE
:405040009B58B96A7A6A1800FEF726FB002300E0FB6A1800BD460CB080BDC046B00B0020800001008001010080B590B000AF3B0038211800FDF794F83B0001225A63294BC9
:405080001A6A3B00DA60274B9A693B009A603B0001221A623B0000225A623B0009229A623B000022DA623B003022012199541D4B1B6A8121C905181C03F086FB031C1A493C
:4050C000181C03F081FB031C8A21C905181C03F07BFB031C1549181C03F040FD031C1A1C3B001A600F4B1A6B3B005A600D4B9A6C3B009A613B000022DA613B0000221A7501
:405100003823FA183B0011001800FEF7DDFD054B3822BA18543303CA03C300231800BD4610B080BDB00B00200000B0410000404080B58CB000AF786039600023FB620A2077
:40514000FEF734FD03000A2B02D909235B42BFE02023FB1801221A602023FB1800225A712023FB1800229A712023FB180122DA712023FB1800221A712023FB1800229A609C
:405180002023FB181800FEF7EBF9534B1B7D012B04D0514B6C229B5C002B0AD14E4B64229B5C002B05D1FFF75FFF4B4B00221A7503E0494B9A6E484B5A6500210120FEF791
:4051C0009FF90C23FB1801221A700C23FB1802225A600C23FB1802229A603F4B5A6C0C23FB18DA603C4B5A6A0C23FB181A610C23FB181800FEF736F901235B421800FEF788
:4052000081FC354B6C229B5C002B03D0324B1B78012B26D17B68002B02D102235B4257E03B68002B02D102235B4251E03A687B6811001800FCF752FCFFF7FAFC0300FB6212
:40524000FB6A002B01D0FB6A42E0FFF77DFE0300FB62FB6A002B01D0FB6A39E01E4B00221A701D4B7C22002199541C4B1800FEF739FA2023FB1801221A712023FB18180054
:40528000FEF76EF9144B1B6F1800FEF7EDF9C04680231B0219000120FEF744FC031EF7D00D4B9022002199540D4B1800FEF71AFA0120FEF7B3F900F057F9074B9B6B03218A
:4052C0001800FDF747FB044B6C220121995400231800BD460CB080BDB00B0020200C0020340C002080B582B000AF78603960144BDB6A002B15DD124B9C229A583B681B683B
:405300009B08D2180E4B9C215A500D4B9C229A580B4BDB6A9A4204D30020FEF773FB00230AE0074B98229B5C012B04D10020FEF769FB002300E000231800BD4602B080BD8D
:40534000B00B002090B587B000AF786039603B681B683B617B68FB6000237B611CE07B699B007A68D3187A69920079688A1812681204120C1A607B699B00FA68D4187B699E
:405380009B007A68D3181B68180000F059F8031C23607B6901337B617A693B699A42DED300231800BD4607B090BDC04680B584B000AF786039600A20FEF7F8FB03000A2BE4
:4053C00002D909235B4235E00020FEF7CDFB3B6800221A6080239B0419000020FEF7A2FB0300012B25D1FEF7AFF80300FB60FA687B6811001800FDF73FF980239B041800B8
:40540000FEF780FB0C23FA187B6811001800FFF769FF0A4B1800FEF7A7FB0C23FA187B6811001800FFF78EFFFA683B681A60002300E000231800BD4604B080BDE5470A0096
:4054400080B582B000AF7860786803F08BFE031C181CBD4602B080BD90B587B000AFF860B9607A60FB68002B05D0BB68002B02D07B68002B02D101235B4244E0002000F0CE
:40548000DBFE022001F084FB00237B6130E001F01DF901F02BF9031EF9D1FA687B69D3181B78180001F032F9194B3B6105E03B69013B3B61012001F06BFB01F017F9031E78
:4054C00002D13B69002BF2D13B69002B05D1012000F0B2FE01235B4215E0BA687B69D41801F0F4F80300DBB223707B6901337B617A697B689A42CCD3022001F049FB01208C
:4055000000F09AFE00231800BD4607B090BDC0461027000080B500AF002000F08DFEC046BD4680BD80B500AF012000F085FEC046BD4680BD80B584B000AF78607B68002BE3
:405540000DD00023FB6005E00A2001F021FBFB680133FB60FA687B689A42F5D300E0C046BD4604B080BDC04680B500AF01231800BD4680BD80B582B000AF7860012000F09A
:405580005BFE012000F0A4FF0A2001F0DBFA00231800BD4602B080BD80B582B000AF786039603A687B680021180005F013FDC046BD4602B080BDC04680B500AF054B032220
:4055C0001A60054B03221A60044B00221A60C046BD4680BD3000304030003140000E3F4080B500AF05F0B2FC03001B680C2B00D1FEE7FEE780B584B000AF7860104B1A6897
:405600007B68D3181A000F4BD21A8023DB009A4209DC0B4B1B68FB60094B1A687B68D218074B1A6007E005F091FC03000C221A6001235B42FB60FB681800BD4604B080BDBB
:40564000500C00202830002080B586B000AF224B7B61224B3B61204B7B6135E03B691B68FB603B695B68BB603B699B683B6000237B600CE0FB681A68BB681A60BB68043362
:40568000BB60FB680433FB607B6804337B607A683B689A42EED13B69DB683B6000237B6008E0BB6800221A60BB680433BB607B6804337B607A683B689A42F2D13B69103329
:4056C0003B617B69013B7B617B69002BC6D105F043FCFBF7FDFEFEE701000000A812020080B582B000AF154B144A126801218A431A6000237B600FE07B68032B04D8104BBD
:405700007A689200D35800E00E4B0F4A796889008B507B6801337B607B682F2BECD9FAF705FD0A4B00221A60044B044A126801210A431A60C046BD4602B080BD00001040D3
:4057400000000000E155000000000020C000002080B500AF094B00221A70094B00221A70084B00221A7000F013F8074B00221A70064B00221A70C046BD4680BD1F30002065
:40578000183000201E300020003000200830002080B500AF00F024FDC046BD4680BDC046B0B594B004AF78603E23FB1800221A802823FA183D4B1000190014231A0005F072
:4057C00000FC3B4B1B78002B04D1FFF7C1FF384B01221A707B68002B5CD0364B7A681A603E23FB181B88002B29D11023FB181C22BA185A601023FB182022BA181A60102344
:40580000FB1800221A812023FB181B221A802023FB181B225A802023FB1804221A711C23FB1808221A703E23FC180E23FA181023FB181100180008F04BFB030023803E2385
:40584000FB181B88002B29D13E23FC182823FD18AE231A0118491948194B0293194B0193052300932B0008F089FA030023803E23FB181B88002B11D1134B01221A703E2342
:40588000FC18124B11222221180014F0C7FC0300238003E03E23FB1801221A803E23FB181B881800BD4610B0B0BDC046000C0200B116002004300020C8000020BD5D0000B8
:4058C00079020000001B0200163000204C0C020090B593B000AF0200FB1D1A704623FB1800221A80614B1B781A00012313401ED04623FC18FB1D1B7818000FF03DFD030003
:4059000023804623FB181B88002B10D1574B1B7801229343DAB2554B1A70544B1B781A000223134003D04623FB1828221A804623FB181B88002B03D0FB1D1B78002B2CD0CF
:405940004A4B1B781A000223134026D0484B1B78042B22D8464B1B781A0013009B009B185B009E2292009A18424BD318591C4623FC18FB1D1B7840480A220FF0E3FC030080
:4059800023804623FB181B88002B06D1374B1B7802229343DAB2354B1A704623FB181B88002B03D0FB1D1B78002B57D02F4B1B781A000C23134051D02C4B1B781A0008234B
:4059C00013401FD00823FB1832220021180005F001FB4623FC18FB1D1B7828490822B81832220FF0AFFC030023804623FB181B88002B33D11D4B1B7808229343DAB21B4B37
:405A00001A702BE03C23FB1818000A231A00002105F0E0FA1A4B1B781A0013009B009B185B009E2292009A18124BD318591C4623FC18FB1D1B783C22B8180A220FF082FC82
:405A4000030023804623FB181B88002B06D1074B1B7804229343DAB2044B1A704623FB181B881800BD4613B090BDC046003000201C300020001B02000C300020791D0200FC
:405A8000B216002090B585B000AF0200FB1D1A70FB1D1B78022B04D90E23FB1801221A804AE0294B1B78042B41D1284B1B78DBB21A00042313403AD1FB1D1B78002B0BD125
:405AC000234B1E221A82224B5B6820221A80204B5B6830225A8010E0FB1D1B78012B0CD11B4B96221A821A4B5B68C822D2001A80174B5B68FA2212015A80164BFA1D1278EA
:405B00001A700E23FC18124B180012F0ABFB030023800E23FB181B88002B0DD10B4B1B78DBB204221343DAB2084B1A7004E00E23FB180422FF321A800E23FB181B88180070
:405B4000BD4605B090BDC046163000201F300020A40C00201E30002080B584B000AF78600A00FB1C1A700023BB60BB68002B20D07B689A79BB681A700F23FB1800221A705C
:405B800012E00F23FB181B780133BA68D3180F22BA18127879688A5C1A700F23FB181A780F23FB1801321A700F23FB181B78052BE7D9C046BD4604B080BDC04680B582B0F4
:405BC00000AF78607B681B789AB27B6801331B789BB21B029BB213439BB21800BD4602B080BDC04690B585B000AF78600F23FB1800221A707B689B890F22934232D17B6863
:405C0000181D7A680F23FC184023002114F01EFB030023700F23FB181B78002B1AD17B685B681800FFF7CAFF03001A00022313409BB2002B07D00F4B1B68796882225200CD
:405C40001000984706E00B4B1B6879680622FF3210009847084B1B78DBB201229343DAB2054B1A700F23FB181B781800BD4605B090BDC046043000201F30002090B585B043
:405C800000AF78600F23FC187B681800FFF7AAFF03002370154B1B78DBB21A00012313401FD10F23FB181B78002B16D00823FB1812229A707B689A890823FB181A80082378
:405CC000FB180F22BA181278DA700823FA187B681100186813F012FC03E07B68186813F0A1FCC046BD4605B090BDC0461F30002080B582B000AF7860C046BD4602B080BDAC
:405D000080B500AF044B00225A70034B00221A70C046BD4680BDC0461C30002080B582B000AF7860C046BD4602B080BD80B500AFC046BD4680BDC04680B584B000AF78608C
:405D40000E23FB1800221A707B689B79002B1CD10F23FB1800221A7012E00F23FB181B787A68D35C002B04D00E23FB1801221A700BE00F23FB181A780F23FB1801321A70A4
:405D80000F23FB181B78052BE7D90E23FB181B781800BD4604B080BD80B582B000AF0200BB1D1A80C046BD4602B080BD80B582B000AF7860C046BD4602B080BD80B588B063
:405DC00000AF02003960FB1D1A70C94B1B78DBB201221343DAB2C64B1A70FB1D1B78412B00D160E123DC212B00D1C6E00DDC022B00D198E002DC012B3BD0D1E1052B00D1D1
:405E000096E0062B00D198E0CAE1272B00D1EEE006DC242B00D1E0E0262B00D1F3E0BFE1282B00D1EBE02A2B00D1DBE0B8E14F2B00D1A8E10BDC432B00D175E100DA54E1B7
:405E40004C2B00D18DE14E2B00D19EE1A8E1572B00D19CE106DC502B00D19AE1542B00D184E19DE1712B00D117E1FA2B00D182E196E11423FB1807221A701423FB180022D0
:405E80005A701423FB18180009F086FF1423FB1807221A701423FB1801225A701423FB18180009F079FF0B23002B01D007F028FF904B1B681800FFF73FFF031E11D08D4B65
:405EC0001B68180007F02CFF8A4B1B6800211800FFF742FE874B1B6801211800FFF73CFE0DE0854B180007F01BFF834B00211800FFF732FE804B01211800FFF72DFE032003
:405F000012F044F81023FB183F221A701023FB1800225A701023FB18180012F055F8774B04221A703CE13B681800FFF7F7FE37E13B681A78724B1A7032E13B68BB61BB6954
:405F40001B78002B00D026E1BB695B78002B0BD16C4B0022DA806B4B00229A80694B6A4A1A60BB69674A5A60614B1B78DBB201229343DAB25E4B1A700DE15D4B1B78DBB2BE
:405F80001A002023134000D007E1604B1B78102B02D15E4B0522DA705D4B1B785B4A1100180012F01DF903001A000E23FB181A800E23FB181B88002B06D0564B1B680E22BB
:405FC000BA18110036209847494B1B78DBB201221343DAB2464B1A70DFE03B685A784E4B1A70DDE03B681800FFF7E0FED8E03B681800FFF7DBFE414B02221A70D0E03F4B5C
:4060000004221A70CCE03D4B1B78022B00D1C6E0374B1B78DBB21A000123134000D1BEE0334B1B78DBB21A00042313400BD0334B03221A702E4B1B78DBB204229343DAB248
:406040002B4B1A70ABE02A4B1B78DBB21A00082313400BD0294B04221A70254B1B78DBB208229343DAB2224B1A7098E0234B1B78032B00D093E0214B04221A70274B1B784B
:40608000002B00D08BE00120FFF7FCFC031E00D085E01A4B03221A7081E03B681B881800FFF77AFE7CE01A4A3B681000190002231A0004F086FF124B00221A70144B1B7895
:4060C0001A0013009B009B185B009E2292009A18134BD3180133134A100019000A231A0004F06FFFFFF722FE5AE0FFF709FE57E01F300020C00C0020B80C002016300020F1
:4061000018300020B4160020A80B0020100E00201C30002004300020083000201E300020001B02000C3000203B685B88162B05D81E23FB183A6852881A8003E01E23FB18B8
:4061400017221A801E23FB1819883B681A8800231204120C1B0C1B041343180013F0D8F91EE03B681800FFF789FD19E03B681800FFF7BEFD14E0174B1B7801221343DAB2AB
:40618000144B1A700CE0C0460AE0C04608E0C04606E0C04604E0C04602E0C04600E0C0460D4B1B78DBB21A00112313400ED00A4B1B78DBB201229343DAB2074B1A70074B63
:4061C0001B68FA1D1278396810009847C046BD4608B080BD003000201F3000200430002080B500AFC046BD4680BDC04680B584B000AF0200FB1D1A700E4B1B68DAB20F2354
:40620000FB1801218A431A70FB1D1B7801221340D9B20F23FB180F22BA1812780A431A70044B0F22BA1812781A60C046BD4604B080BDC0460005044080B584B000AF0200C4
:40624000FB1D1A700F4B1B68DAB20F23FB1840218A431A70FB1D1B789B01DBB240221340D9B20F23FB180F22BA1812780A431A70044B0F22BA1812781A60C046BD4604B046
:4062800080BDC0460001044080B582B000AF094B1B68DAB2FB1D10210A401A70054BFA1D12781A60FB1D1B781B09DBB21800BD4602B080BD1001044080B584B000AF020080
:4062C000FB1D1A700F4B1B68DAB20F23FB1802218A431A70FB1D1B78DB18DBB202221340D9B20F23FB180F22BA1812780A431A70044B0F22BA1812781A60C046BD4604B0EB
:4063000080BDC0460005044080B500AF00F054F8054B180000F010F8032000F01BF800F041F8C046BD4680BD2D63000080B500AFC046BD4680BDC04680B582B000AF78600E
:40634000034B7A685A64C046BD4602B080BDC0460000002090B585B000AF0200FB1D1A700E23FB600B23FC1800F083FE030023700A4B0A4A12680A491140FA1D1078FA68A7
:40638000904002000A431A600B23FB181B78180000F073FEC046BD4605B090BD00E400E0FF3FFFFF80B500AF024B02221A60C046BD4680BD00E100E080B500AF024B0222C1
:4063C0001A60C046BD4680BD80E100E080B500AF024B02221A60C046BD4680BD80E200E080B584B000AF0200FB1D1A700F4B1B68DAB20F23FB1802218A431A70FB1D1B78B6
:40640000DB18DBB202221340D9B20F23FB180F22BA1812780A431A70044B0F22BA1812781A60C046BD4604B080BDC0460004044080B584B000AF0200FB1D1A700F4B1B68FA
:40644000DAB20F23FB1840218A431A70FB1D1B789B01DBB240221340D9B20F23FB180F22BA1812780A431A70044B0F22BA1812781A60C046BD4604B080BDC0460003044039
:4064800080B584B000AF0200FB1D1A700F4B1B68DAB20F23FB1820218A431A70FB1D1B785B01DBB220221340D9B20F23FB180F22BA1812780A431A70044B0F22BA181278A1
:4064C0001A60C046BD4604B080BDC0460001044080B584B000AF0200FB1D1A700E4B1B68DAB20F23FB1801218A431A70FB1D1B7801221340D9B20F23FB180F22BA1812787D
:406500000A431A70044B0F22BA1812781A60C046BD4604B080BDC0460004044080B584B000AF0200FB1D1A700F4B1B68DAB20F23FB1810218A431A70FB1D1B781B01DBB2A0
:4065400010221340D9B20F23FB180F22BA1812780A431A70044B0F22BA1812781A60C046BD4604B080BDC0460003044080B500AF044B1B68102213401B09DBB21800BD46BE
:4065800080BDC0460403044080B584B000AF0200FB1D1A700F4B1B68DAB20F23FB1820218A431A70FB1D1B785B01DBB220221340D9B20F23FB180F22BA1812780A431A70EE
:4065C000044B0F22BA1812781A60C046BD4604B080BDC0460003044080B500AF044B1B68202213405B09DBB21800BD4680BDC0460403044080B584B000AF0200FB1D1A705D
:406600000D4B1B68DAB20F23FB187F210A401A70FB1D1B78DB01D9B20F23FB180F22BA1812780A431A70044B0F22BA1812781A60C046BD4604B080BD0003044080B500AF04
:40664000044B1B6880221340DB09DBB21800BD4680BDC0460403044080B500AF00F06CF8C046BD4680BDC04680B500AF064B064A1268802109060A431A6000F019F800F04E
:406680001DF8C046BD4680BD0000244080B500AF064B1B78002B04D1FFF7DEFF034B01221A70FFF7E1FFC046BD4680BDBC16002080B500AFC046BD4680BDC04680B500AF63
:4066C00000F08CF8C046BD4680BDC04680B582B000AF00237B60044B1B687B607B681800BD4602B080BDC0464003244080B582B000AF054B1B681F2213407B607B6818002C
:40670000BD4602B080BDC0460803244080B582B000AF7860C046064B1B681F221340082BF9D0044B7A681A60C046BD4602B080BD080224404002244080B500AF174B184A3B
:406740001A60184B184A1A60184B194A1A60194B07221A60184B164A1A60184B00221A60174B00221A60174B00221A60164B00221A60164B00221A60154B00221A60154B8B
:4067800000221A60134B1B689AB2134B1A80002000F032F8C046BD4680BDC046000024400F000001200024400D0000800003244007010080040324400002244004022440E3
:4067C000880E2440C80E2440480F2440080F2440C80F2440880F2440BE16002080B500AF034B044A12881A60C046BD4680BDC046880F2440BE16002080B584B000AF786046
:406800000A4B1B68FB60FB68094A1340FB607B689A06C0231B051340FA681343FB60034BFA681A60C046BD4604B080BD20002440FFFFFFF390B585B000AF78600C23FC18F9
:4068400000F017FC030023707B68022B00D8B3E07B68302B00D9AFE05E4B1B78DBB21A007B689A420AD35C4A0F23FB1812781A705A4A0E23FB1812781A703FE0584B1B788F
:40688000DBB21A007B689A420AD3564A0F23FB1812781A70544A0E23FB1812781A702DE0524B1B78DBB21A007B689A420AD3504A0F23FB1812781A704E4A0E23FB181278CD
:4068C0001A701BE04C4B1B78DBB21A007B689A420AD34A4A0F23FB1812781A70484A0E23FB1812781A7009E0464A0F23FB1812781A70454A0E23FB1812781A707B68DA1E3B
:406900000B23FB1841498A5C1A700B23FB181B782F2B0DD97B682A2B0AD93D4B19221A60052000F09DFB0D23FB1819221A7007E0374B1B68DAB20D23FB183F210A401A700C
:406940000B23FA180D23FB1812781B789A4208D22F4B7A68033A2D498A5C1A60052000F07FFB7B68284A9A180A23FB1812781A70284B0A22BA1812781A60274B0F22BA187E
:4069800012781A60254B0E22BA1812781A60052000F0FEF80B23FA180D23FB1812781B789A420CD91A4B7A68033A18498A5C1A60052000F055FB02E0002000F0B7F80C2377
:4069C000FB181B78180000F058FBC046BD4605B090BDC04640F3FF0F41F3FF0F42F3FF0F43F3FF0F44F3FF0F45F3FF0F46F3FF0F47F3FF0F48F3FF0F49F3FF0F4AF3FF0F83
:406A00004BF3FF0F4CF3FF0F4DF3FF0FF40E02002CFF0B4028FF0B401CFF0B4020FF0B4080B584B000AF78600023FB60154B154A126801210A431A60134B144A1A60144B8E
:406A4000134A1268802109020A431A607B68002B12D01023FB600CE0012000F099F800F019F8031E02D00023FB6005E07B68013B7B607B68002BEFD1FB681800BD4604B06F
:406A800080BDC04660F02E4078002E400220000010002E4080B582B000AF054B1B68012213407B607B681800BD4602B080BDC0460C002E4080B584B000AF02003960FB1DDD
:406AC0001A7080239B05FB60FB1D1B781F2B02D9002000F02BF8FB1D1B7810339B00FA68D3181B68BB60FB1D1B7810339B00FA68D3183A681A60BB681800BD4604B080BDD6
:406B000080B582B000AF0200FB1D1A70064BFA1D12781F210A40012191400A001A60C046BD4602B080BDC04600E100E080B582B000AF0200FB1D1A7001BEC046BD4602B0B5
:406B400080BDC04680B582B000AF786009E00D4B1B68180000F084FA7B680B4A944663447B607A6880231B029A42F0D8074B1B687A685343180000F073FAC046BD4602B043
:406B800080BDC046240E00200080FFFF1C0E002080B582B000AF0200BB1D1A80BB1D1B88044A12785343180000F05AFAC046BD4602B080BD200E002080B500AF164B164ABE
:406BC0001268920092081A60144B144A1268920092081A60124B124A1268920092081A60104B104A1268920092081A600E4B0E4A1268920092081A600C4B0C4A1268920060
:406C000092081A600A4B0A4A1268920092081A60C046BD4680BDC0460800044008010440080204400803044008040440080504400806044090B583B000AFFC1D00F019FABF
:406C400003002370074B074A126804218A431A6030BFFB1D1B78180000F00FFAC046BD4603B090BD10ED00E090B583B000AFFC1D00F0FFF903002370FFF79EFF114B114A5C
:406C80001268802109060A431A600F4B0F4A128892B21A600E4B0E4A126804210A431A600C4B0C4A1268FF218A43F1210A431A6030BFFB1D1B78180000F0DFF9C046BD4651
:406CC00003B090BD00000B400C000B4050F2FF0F10ED00E02C000B4080B500AF0F4B0F4A126801218A431A600C4B0C4A126802218A431A600A4B0A4A126830218A431021D1
:406D00000A431A60064B064A126807218A4301210A431A60C046BD4680BDC04600F02E4000FF2E4080B500AF0F4B0F4A126802218A431A600D4B0D4A126807218A430221C0
:406D40000A431A60094B094A126830218A4320210A431A60044B044A126801210A431A60C046BD4680BDC04600F02E4000FF2E4080B500AFFFF7B0FF044B044A12688021AD
:406D800009060A431A60C046BD4680BD00F02E4080B584B000AF78600C4B1B6801221340FB607B68002B02D0012B03D005E0FFF793FF06E0FFF7B6FF03E00020FFF7B6FE34
:406DC000C046FB681800BD4604B080BD00F02E4090B583B000AFFC1D00F04BF903002370074B074A1268C02109020A431A60FB1D1B78180000F041F9C046BD4603B090BDF0
:406E000000010B4080B500AF054B1A68C0231B02134001D0012300E000231800BD4680BD00010B4090B583B000AFFC1D00F021F9030023700D4B0D4A12680D490A40802117
:406E4000C9010A431A60094B084A126808490A40802109020A431A60FB1D1B78180000F00CF9C046BD4603B090BDC04600010B40FF3FFFFF90B585B000AF78600B23FC18C1
:406E800000F0F7F803002370FFF7BCFF031E04D00123FB60FFF7C6FF01E00023FB607B680D4A13407B600D4B0C4A12680C4911407A680A431A60094B1B68FB68012B01D107
:406EC000FFF786FF0B23FB181B78180000F0D5F8C046BD4605B090BD0404040010020B40FBFBFBFF80B584B000AF786039600023FB607B68022B0AD8094B7A689200D3581E
:406F0000FB60074B7A6892003968D15002E00020FFF70CFEFB681800BD4604B080BDC046CC16002080B582B000AF78607B68022B13D80D4B7A689200D358DA430B4B1B681F
:406F40001A400A4B1A60084B7A689200D258084B1B681A43064B1A6002E00020FFF7E6FDC046BD4602B080BD240F0200C8160020300E002080B500AF344B1B680422134036
:406F80001FD0334B1B680422134017D0314B1B6804221340DA432E4B1B681A402C4B1A602C4B1B68042293431A002A4B1A602A4B1B68002B02D0284B1B6898470420FFF7C2
:406FC00059FF224B1A688023DB00134022D0204B1A688023DB00134017D01E4B1A688023DB001340DA431A4B1B681A40184B1A60184B1B68194A1A40164B1A60164B5B6848
:40700000002B02D0144B5B6898478023DB001800FFF730FF0D4B1A688023DB02134011D00B4B1A688023DB02134006D00A4B9B68002B02D0084B9B6898478023DB02180066
:40704000FFF718FFC046BD4680BDC04610020B40300E0020C8160020CC160020FFFBFFFF0230800803D00138FDD1C046C046C0467047EFF3108072B6704780F31088704794
:4070800010B500F061F810BDF0B546464F46C0B48DB004000D0000F013F9294B009001911B785BB29846013312D022002B002000290003F0B3FD8146002809D100260027F8
:4070C00032003B002000290001F05CF9002806D1009801990DB00CBC90469946F0BD01230293184B0694079503934B460A93434604940595002B15D03B00320030003900C5
:4071000002F09AFB434608900991022B0CD103F01DFF212303600A9B0093002B0AD108980999D7E70896099702A800F061FB0028F1D1ECE703F00AFF0A9B00930360EEE7B2
:4071400058110020300F0200F8B515004F4646465A001C006B42C0B42B434B4F5208DB0F88461343BB423AD84B005B0899464E4643420343DB0F3343BB4230D8434BE31872
:407180002B4343D00226A3171E40CB0F1E434B4603432ED013002B4332D0BA4241D0B9452ED04B469A1A12153C2A32DC002C55DB2A00230002F040FB00F016FB00F076F95C
:4071C000012E46D0022E39D0002E0ED0304A314B03F0D0F9304A314B03F0CCF905E002000B002800210001F0FBFF0CBC90469946F8BD022E10D0032EF7D127482849F4E789
:4072000043462548002B0ADB2649EEE700F04EF9EBE721482349D3E71F482049E5E72249E3E791451FD0022EF6D0032EE5D000200021012ED9D180210906D6E7144A154BB5
